{
  "_format": "hh-sol-artifact-1",
  "contractName": "Constants",
  "sourceName": "src/Constants.sol",
  "abi": [
    {
      "inputs": [],
      "name": "UNIVERSAL_ROUTER",
      "outputs": [
        {
          "internalType": "address",
          "name": "",
          "type": "address"
        }
      ],
      "stateMutability": "view",
      "type": "function"
    },
    {
      "inputs": [
        {
          "internalType": "address",
          "name": "",
          "type": "address"
        }
      ],
      "name": "getMsgSender",
      "outputs": [
        {
          "internalType": "address",
          "name": "",
          "type": "address"
        }
      ],
      "stateMutability": "view",
      "type": "function"
    }
  ],
  "bytecode": "0x6080604052348015600f57600080fd5b5061025f8061001f6000396000f3fe608060405234801561001057600080fd5b50600436106100365760003560e01c80632867b3ca1461003b578063e8dd7fc31461006b575b600080fd5b61005560048036038101906100509190610190565b610089565b60405161006291906101cc565b60405180910390f35b610073610115565b60405161008091906101cc565b60405180910390f35b60007395273d871c8156636e114b63797d78d7e1720d8173ffffffffffffffffffffffffffffffffffffffff1663d737d0c76040518163ffffffff1660e01b8152600401602060405180830381865afa1580156100ea573d6000803e3d6000fd5b505050506040513d601f19601f8201168201806040525081019061010e91906101fc565b9050919050565b7395273d871c8156636e114b63797d78d7e1720d8181565b600080fd5b600073ffffffffffffffffffffffffffffffffffffffff82169050919050565b600061015d82610132565b9050919050565b61016d81610152565b811461017857600080fd5b50565b60008135905061018a81610164565b92915050565b6000602082840312156101a6576101a561012d565b5b60006101b48482850161017b565b91505092915050565b6101c681610152565b82525050565b60006020820190506101e160008301846101bd565b92915050565b6000815190506101f681610164565b92915050565b6000602082840312156102125761021161012d565b5b6000610220848285016101e7565b9150509291505056fea264697066735822122003dd87880993672293918addd827439e0c22801af2c2e7ea6f18724db17b464664736f6c634300081b0033",
  "linkReferences": {},
  "deployedLinkReferences": {}
}