{
  "_format": "hh-sol-artifact-1",
  "contractName": "ERC721TokenGateHook",
  "sourceName": "src/NftGated.sol",
  "abi": [
    {
      "inputs": [
        {
          "internalType": "contract IPoolManager",
          "name": "_poolManager",
          "type": "address"
        },
        {
          "internalType": "contract IERC721",
          "name": "_nftContract",
          "type": "address"
        }
      ],
      "stateMutability": "nonpayable",
      "type": "constructor"
    },
    {
      "inputs": [],
      "name": "HookNotImplemented",
      "type": "error"
    },
    {
      "inputs": [],
      "name": "InvalidPool",
      "type": "error"
    },
    {
      "inputs": [],
      "name": "LockFailure",
      "type": "error"
    },
    {
      "inputs": [],
      "name": "NotPoolManager",
      "type": "error"
    },
    {
      "inputs": [],
      "name": "NotSelf",
      "type": "error"
    },
    {
      "inputs": [
        {
          "internalType": "address",
          "name": "",
          "type": "address"
        },
        {
          "components": [
            {
              "internalType": "Currency",
              "name": "currency0",
              "type": "address"
            },
            {
              "internalType": "Currency",
              "name": "currency1",
              "type": "address"
            },
            {
              "internalType": "uint24",
              "name": "fee",
              "type": "uint24"
            },
            {
              "internalType": "int24",
              "name": "tickSpacing",
              "type": "int24"
            },
            {
              "internalType": "contract IHooks",
              "name": "hooks",
              "type": "address"
            }
          ],
          "internalType": "struct PoolKey",
          "name": "",
          "type": "tuple"
        },
        {
          "components": [
            {
              "internalType": "int24",
              "name": "tickLower",
              "type": "int24"
            },
            {
              "internalType": "int24",
              "name": "tickUpper",
              "type": "int24"
            },
            {
              "internalType": "int256",
              "name": "liquidityDelta",
              "type": "int256"
            },
            {
              "internalType": "bytes32",
              "name": "salt",
              "type": "bytes32"
            }
          ],
          "internalType": "struct IPoolManager.ModifyLiquidityParams",
          "name": "",
          "type": "tuple"
        },
        {
          "internalType": "BalanceDelta",
          "name": "",
          "type": "int256"
        },
        {
          "internalType": "BalanceDelta",
          "name": "",
          "type": "int256"
        },
        {
          "internalType": "bytes",
          "name": "",
          "type": "bytes"
        }
      ],
      "name": "afterAddLiquidity",
      "outputs": [
        {
          "internalType": "bytes4",
          "name": "",
          "type": "bytes4"
        },
        {
          "internalType": "BalanceDelta",
          "name": "",
          "type": "int256"
        }
      ],
      "stateMutability": "nonpayable",
      "type": "function"
    },
    {
      "inputs": [
        {
          "internalType": "address",
          "name": "",
          "type": "address"
        },
        {
          "components": [
            {
              "internalType": "Currency",
              "name": "currency0",
              "type": "address"
            },
            {
              "internalType": "Currency",
              "name": "currency1",
              "type": "address"
            },
            {
              "internalType": "uint24",
              "name": "fee",
              "type": "uint24"
            },
            {
              "internalType": "int24",
              "name": "tickSpacing",
              "type": "int24"
            },
            {
              "internalType": "contract IHooks",
              "name": "hooks",
              "type": "address"
            }
          ],
          "internalType": "struct PoolKey",
          "name": "",
          "type": "tuple"
        },
        {
          "internalType": "uint256",
          "name": "",
          "type": "uint256"
        },
        {
          "internalType": "uint256",
          "name": "",
          "type": "uint256"
        },
        {
          "internalType": "bytes",
          "name": "",
          "type": "bytes"
        }
      ],
      "name": "afterDonate",
      "outputs": [
        {
          "internalType": "bytes4",
          "name": "",
          "type": "bytes4"
        }
      ],
      "stateMutability": "nonpayable",
      "type": "function"
    },
    {
      "inputs": [
        {
          "internalType": "address",
          "name": "",
          "type": "address"
        },
        {
          "components": [
            {
              "internalType": "Currency",
              "name": "currency0",
              "type": "address"
            },
            {
              "internalType": "Currency",
              "name": "currency1",
              "type": "address"
            },
            {
              "internalType": "uint24",
              "name": "fee",
              "type": "uint24"
            },
            {
              "internalType": "int24",
              "name": "tickSpacing",
              "type": "int24"
            },
            {
              "internalType": "contract IHooks",
              "name": "hooks",
              "type": "address"
            }
          ],
          "internalType": "struct PoolKey",
          "name": "",
          "type": "tuple"
        },
        {
          "internalType": "uint160",
          "name": "",
          "type": "uint160"
        },
        {
          "internalType": "int24",
          "name": "",
          "type": "int24"
        },
        {
          "internalType": "bytes",
          "name": "",
          "type": "bytes"
        }
      ],
      "name": "afterInitialize",
      "outputs": [
        {
          "internalType": "bytes4",
          "name": "",
          "type": "bytes4"
        }
      ],
      "stateMutability": "nonpayable",
      "type": "function"
    },
    {
      "inputs": [
        {
          "internalType": "address",
          "name": "",
          "type": "address"
        },
        {
          "components": [
            {
              "internalType": "Currency",
              "name": "currency0",
              "type": "address"
            },
            {
              "internalType": "Currency",
              "name": "currency1",
              "type": "address"
            },
            {
              "internalType": "uint24",
              "name": "fee",
              "type": "uint24"
            },
            {
              "internalType": "int24",
              "name": "tickSpacing",
              "type": "int24"
            },
            {
              "internalType": "contract IHooks",
              "name": "hooks",
              "type": "address"
            }
          ],
          "internalType": "struct PoolKey",
          "name": "",
          "type": "tuple"
        },
        {
          "components": [
            {
              "internalType": "int24",
              "name": "tickLower",
              "type": "int24"
            },
            {
              "internalType": "int24",
              "name": "tickUpper",
              "type": "int24"
            },
            {
              "internalType": "int256",
              "name": "liquidityDelta",
              "type": "int256"
            },
            {
              "internalType": "bytes32",
              "name": "salt",
              "type": "bytes32"
            }
          ],
          "internalType": "struct IPoolManager.ModifyLiquidityParams",
          "name": "",
          "type": "tuple"
        },
        {
          "internalType": "BalanceDelta",
          "name": "",
          "type": "int256"
        },
        {
          "internalType": "BalanceDelta",
          "name": "",
          "type": "int256"
        },
        {
          "internalType": "bytes",
          "name": "",
          "type": "bytes"
        }
      ],
      "name": "afterRemoveLiquidity",
      "outputs": [
        {
          "internalType": "bytes4",
          "name": "",
          "type": "bytes4"
        },
        {
          "internalType": "BalanceDelta",
          "name": "",
          "type": "int256"
        }
      ],
      "stateMutability": "nonpayable",
      "type": "function"
    },
    {
      "inputs": [
        {
          "internalType": "address",
          "name": "",
          "type": "address"
        },
        {
          "components": [
            {
              "internalType": "Currency",
              "name": "currency0",
              "type": "address"
            },
            {
              "internalType": "Currency",
              "name": "currency1",
              "type": "address"
            },
            {
              "internalType": "uint24",
              "name": "fee",
              "type": "uint24"
            },
            {
              "internalType": "int24",
              "name": "tickSpacing",
              "type": "int24"
            },
            {
              "internalType": "contract IHooks",
              "name": "hooks",
              "type": "address"
            }
          ],
          "internalType": "struct PoolKey",
          "name": "",
          "type": "tuple"
        },
        {
          "components": [
            {
              "internalType": "bool",
              "name": "zeroForOne",
              "type": "bool"
            },
            {
              "internalType": "int256",
              "name": "amountSpecified",
              "type": "int256"
            },
            {
              "internalType": "uint160",
              "name": "sqrtPriceLimitX96",
              "type": "uint160"
            }
          ],
          "internalType": "struct IPoolManager.SwapParams",
          "name": "",
          "type": "tuple"
        },
        {
          "internalType": "BalanceDelta",
          "name": "",
          "type": "int256"
        },
        {
          "internalType": "bytes",
          "name": "",
          "type": "bytes"
        }
      ],
      "name": "afterSwap",
      "outputs": [
        {
          "internalType": "bytes4",
          "name": "",
          "type": "bytes4"
        },
        {
          "internalType": "int128",
          "name": "",
          "type": "int128"
        }
      ],
      "stateMutability": "nonpayable",
      "type": "function"
    },
    {
      "inputs": [
        {
          "internalType": "address",
          "name": "",
          "type": "address"
        },
        {
          "components": [
            {
              "internalType": "Currency",
              "name": "currency0",
              "type": "address"
            },
            {
              "internalType": "Currency",
              "name": "currency1",
              "type": "address"
            },
            {
              "internalType": "uint24",
              "name": "fee",
              "type": "uint24"
            },
            {
              "internalType": "int24",
              "name": "tickSpacing",
              "type": "int24"
            },
            {
              "internalType": "contract IHooks",
              "name": "hooks",
              "type": "address"
            }
          ],
          "internalType": "struct PoolKey",
          "name": "",
          "type": "tuple"
        },
        {
          "components": [
            {
              "internalType": "int24",
              "name": "tickLower",
              "type": "int24"
            },
            {
              "internalType": "int24",
              "name": "tickUpper",
              "type": "int24"
            },
            {
              "internalType": "int256",
              "name": "liquidityDelta",
              "type": "int256"
            },
            {
              "internalType": "bytes32",
              "name": "salt",
              "type": "bytes32"
            }
          ],
          "internalType": "struct IPoolManager.ModifyLiquidityParams",
          "name": "",
          "type": "tuple"
        },
        {
          "internalType": "bytes",
          "name": "",
          "type": "bytes"
        }
      ],
      "name": "beforeAddLiquidity",
      "outputs": [
        {
          "internalType": "bytes4",
          "name": "",
          "type": "bytes4"
        }
      ],
      "stateMutability": "nonpayable",
      "type": "function"
    },
    {
      "inputs": [
        {
          "internalType": "address",
          "name": "",
          "type": "address"
        },
        {
          "components": [
            {
              "internalType": "Currency",
              "name": "currency0",
              "type": "address"
            },
            {
              "internalType": "Currency",
              "name": "currency1",
              "type": "address"
            },
            {
              "internalType": "uint24",
              "name": "fee",
              "type": "uint24"
            },
            {
              "internalType": "int24",
              "name": "tickSpacing",
              "type": "int24"
            },
            {
              "internalType": "contract IHooks",
              "name": "hooks",
              "type": "address"
            }
          ],
          "internalType": "struct PoolKey",
          "name": "",
          "type": "tuple"
        },
        {
          "internalType": "uint256",
          "name": "",
          "type": "uint256"
        },
        {
          "internalType": "uint256",
          "name": "",
          "type": "uint256"
        },
        {
          "internalType": "bytes",
          "name": "",
          "type": "bytes"
        }
      ],
      "name": "beforeDonate",
      "outputs": [
        {
          "internalType": "bytes4",
          "name": "",
          "type": "bytes4"
        }
      ],
      "stateMutability": "nonpayable",
      "type": "function"
    },
    {
      "inputs": [
        {
          "internalType": "address",
          "name": "",
          "type": "address"
        },
        {
          "components": [
            {
              "internalType": "Currency",
              "name": "currency0",
              "type": "address"
            },
            {
              "internalType": "Currency",
              "name": "currency1",
              "type": "address"
            },
            {
              "internalType": "uint24",
              "name": "fee",
              "type": "uint24"
            },
            {
              "internalType": "int24",
              "name": "tickSpacing",
              "type": "int24"
            },
            {
              "internalType": "contract IHooks",
              "name": "hooks",
              "type": "address"
            }
          ],
          "internalType": "struct PoolKey",
          "name": "",
          "type": "tuple"
        },
        {
          "internalType": "uint160",
          "name": "",
          "type": "uint160"
        },
        {
          "internalType": "bytes",
          "name": "",
          "type": "bytes"
        }
      ],
      "name": "beforeInitialize",
      "outputs": [
        {
          "internalType": "bytes4",
          "name": "",
          "type": "bytes4"
        }
      ],
      "stateMutability": "nonpayable",
      "type": "function"
    },
    {
      "inputs": [
        {
          "internalType": "address",
          "name": "",
          "type": "address"
        },
        {
          "components": [
            {
              "internalType": "Currency",
              "name": "currency0",
              "type": "address"
            },
            {
              "internalType": "Currency",
              "name": "currency1",
              "type": "address"
            },
            {
              "internalType": "uint24",
              "name": "fee",
              "type": "uint24"
            },
            {
              "internalType": "int24",
              "name": "tickSpacing",
              "type": "int24"
            },
            {
              "internalType": "contract IHooks",
              "name": "hooks",
              "type": "address"
            }
          ],
          "internalType": "struct PoolKey",
          "name": "",
          "type": "tuple"
        },
        {
          "components": [
            {
              "internalType": "int24",
              "name": "tickLower",
              "type": "int24"
            },
            {
              "internalType": "int24",
              "name": "tickUpper",
              "type": "int24"
            },
            {
              "internalType": "int256",
              "name": "liquidityDelta",
              "type": "int256"
            },
            {
              "internalType": "bytes32",
              "name": "salt",
              "type": "bytes32"
            }
          ],
          "internalType": "struct IPoolManager.ModifyLiquidityParams",
          "name": "",
          "type": "tuple"
        },
        {
          "internalType": "bytes",
          "name": "",
          "type": "bytes"
        }
      ],
      "name": "beforeRemoveLiquidity",
      "outputs": [
        {
          "internalType": "bytes4",
          "name": "",
          "type": "bytes4"
        }
      ],
      "stateMutability": "nonpayable",
      "type": "function"
    },
    {
      "inputs": [
        {
          "internalType": "address",
          "name": "sender",
          "type": "address"
        },
        {
          "components": [
            {
              "internalType": "Currency",
              "name": "currency0",
              "type": "address"
            },
            {
              "internalType": "Currency",
              "name": "currency1",
              "type": "address"
            },
            {
              "internalType": "uint24",
              "name": "fee",
              "type": "uint24"
            },
            {
              "internalType": "int24",
              "name": "tickSpacing",
              "type": "int24"
            },
            {
              "internalType": "contract IHooks",
              "name": "hooks",
              "type": "address"
            }
          ],
          "internalType": "struct PoolKey",
          "name": "key",
          "type": "tuple"
        },
        {
          "components": [
            {
              "internalType": "bool",
              "name": "zeroForOne",
              "type": "bool"
            },
            {
              "internalType": "int256",
              "name": "amountSpecified",
              "type": "int256"
            },
            {
              "internalType": "uint160",
              "name": "sqrtPriceLimitX96",
              "type": "uint160"
            }
          ],
          "internalType": "struct IPoolManager.SwapParams",
          "name": "",
          "type": "tuple"
        },
        {
          "internalType": "bytes",
          "name": "",
          "type": "bytes"
        }
      ],
      "name": "beforeSwap",
      "outputs": [
        {
          "internalType": "bytes4",
          "name": "",
          "type": "bytes4"
        },
        {
          "internalType": "BeforeSwapDelta",
          "name": "",
          "type": "int256"
        },
        {
          "internalType": "uint24",
          "name": "",
          "type": "uint24"
        }
      ],
      "stateMutability": "nonpayable",
      "type": "function"
    },
    {
      "inputs": [],
      "name": "getHookPermissions",
      "outputs": [
        {
          "components": [
            {
              "internalType": "bool",
              "name": "beforeInitialize",
              "type": "bool"
            },
            {
              "internalType": "bool",
              "name": "afterInitialize",
              "type": "bool"
            },
            {
              "internalType": "bool",
              "name": "beforeAddLiquidity",
              "type": "bool"
            },
            {
              "internalType": "bool",
              "name": "afterAddLiquidity",
              "type": "bool"
            },
            {
              "internalType": "bool",
              "name": "beforeRemoveLiquidity",
              "type": "bool"
            },
            {
              "internalType": "bool",
              "name": "afterRemoveLiquidity",
              "type": "bool"
            },
            {
              "internalType": "bool",
              "name": "beforeSwap",
              "type": "bool"
            },
            {
              "internalType": "bool",
              "name": "afterSwap",
              "type": "bool"
            },
            {
              "internalType": "bool",
              "name": "beforeDonate",
              "type": "bool"
            },
            {
              "internalType": "bool",
              "name": "afterDonate",
              "type": "bool"
            },
            {
              "internalType": "bool",
              "name": "beforeSwapReturnDelta",
              "type": "bool"
            },
            {
              "internalType": "bool",
              "name": "afterSwapReturnDelta",
              "type": "bool"
            },
            {
              "internalType": "bool",
              "name": "afterAddLiquidityReturnDelta",
              "type": "bool"
            },
            {
              "internalType": "bool",
              "name": "afterRemoveLiquidityReturnDelta",
              "type": "bool"
            }
          ],
          "internalType": "struct Hooks.Permissions",
          "name": "",
          "type": "tuple"
        }
      ],
      "stateMutability": "pure",
      "type": "function"
    },
    {
      "inputs": [],
      "name": "nftContract",
      "outputs": [
        {
          "internalType": "contract IERC721",
          "name": "",
          "type": "address"
        }
      ],
      "stateMutability": "view",
      "type": "function"
    },
    {
      "inputs": [],
      "name": "poolManager",
      "outputs": [
        {
          "internalType": "contract IPoolManager",
          "name": "",
          "type": "address"
        }
      ],
      "stateMutability": "view",
      "type": "function"
    },
    {
      "inputs": [
        {
          "internalType": "PoolId",
          "name": "",
          "type": "bytes32"
        }
      ],
      "name": "pools",
      "outputs": [
        {
          "internalType": "address",
          "name": "tokenAddress",
          "type": "address"
        },
        {
          "internalType": "address",
          "name": "owner",
          "type": "address"
        },
        {
          "internalType": "bool",
          "name": "isTokenGated",
          "type": "bool"
        },
        {
          "internalType": "uint256",
          "name": "requiredNFTBalance",
          "type": "uint256"
        }
      ],
      "stateMutability": "view",
      "type": "function"
    },
    {
      "inputs": [
        {
          "components": [
            {
              "internalType": "Currency",
              "name": "currency0",
              "type": "address"
            },
            {
              "internalType": "Currency",
              "name": "currency1",
              "type": "address"
            },
            {
              "internalType": "uint24",
              "name": "fee",
              "type": "uint24"
            },
            {
              "internalType": "int24",
              "name": "tickSpacing",
              "type": "int24"
            },
            {
              "internalType": "contract IHooks",
              "name": "hooks",
              "type": "address"
            }
          ],
          "internalType": "struct PoolKey",
          "name": "key",
          "type": "tuple"
        },
        {
          "internalType": "address",
          "name": "_tokenAddress",
          "type": "address"
        },
        {
          "internalType": "bool",
          "name": "_isTokenGated",
          "type": "bool"
        },
        {
          "internalType": "uint256",
          "name": "_requiredNFTBalance",
          "type": "uint256"
        }
      ],
      "name": "setPoolConfig",
      "outputs": [],
      "stateMutability": "nonpayable",
      "type": "function"
    },
    {
      "inputs": [
        {
          "internalType": "bytes",
          "name": "data",
          "type": "bytes"
        }
      ],
      "name": "unlockCallback",
      "outputs": [
        {
          "internalType": "bytes",
          "name": "",
          "type": "bytes"
        }
      ],
      "stateMutability": "nonpayable",
      "type": "function"
    }
  ],
  "bytecode": "0x60c060405234801561001057600080fd5b506040516122f83803806122f883398181016040528101906100329190610683565b8180808073ffffffffffffffffffffffffffffffffffffffff1660808173ffffffffffffffffffffffffffffffffffffffff1681525050505061007a306100b660201b60201c565b508073ffffffffffffffffffffffffffffffffffffffff1660a08173ffffffffffffffffffffffffffffffffffffffff168152505050506106c3565b6100d3816100c86100d660201b60201c565b61016b60201b60201c565b50565b6100de610545565b604051806101c0016040528060001515815260200160001515815260200160001515815260200160001515815260200160001515815260200160001515815260200160011515815260200160001515815260200160001515815260200160001515815260200160001515815260200160001515815260200160001515815260200160001515815250905090565b6101966120008373ffffffffffffffffffffffffffffffffffffffff166104fb60201b90919060201c565b1515816000015115151415806101de57506101d26110008373ffffffffffffffffffffffffffffffffffffffff166104fb60201b90919060201c565b15158160200151151514155b8061021b575061020f6108008373ffffffffffffffffffffffffffffffffffffffff166104fb60201b90919060201c565b15158160400151151514155b80610258575061024c6104008373ffffffffffffffffffffffffffffffffffffffff166104fb60201b90919060201c565b15158160600151151514155b8061029557506102896102008373ffffffffffffffffffffffffffffffffffffffff166104fb60201b90919060201c565b15158160800151151514155b806102d257506102c66101008373ffffffffffffffffffffffffffffffffffffffff166104fb60201b90919060201c565b15158160a00151151514155b8061030e575061030260808373ffffffffffffffffffffffffffffffffffffffff166104fb60201b90919060201c565b15158160c00151151514155b8061034a575061033e60408373ffffffffffffffffffffffffffffffffffffffff166104fb60201b90919060201c565b15158160e00151151514155b80610387575061037a60208373ffffffffffffffffffffffffffffffffffffffff166104fb60201b90919060201c565b1515816101000151151514155b806103c457506103b760108373ffffffffffffffffffffffffffffffffffffffff166104fb60201b90919060201c565b1515816101200151151514155b8061040157506103f460088373ffffffffffffffffffffffffffffffffffffffff166104fb60201b90919060201c565b1515816101400151151514155b8061043e575061043160048373ffffffffffffffffffffffffffffffffffffffff166104fb60201b90919060201c565b1515816101600151151514155b8061047b575061046e60028373ffffffffffffffffffffffffffffffffffffffff166104fb60201b90919060201c565b1515816101800151151514155b806104b857506104ab60018373ffffffffffffffffffffffffffffffffffffffff166104fb60201b90919060201c565b1515816101a00151151514155b156104f7576104f68263e65af6a060e01b7bffffffffffffffffffffffffffffffffffffffffffffffffffffffff191661052160201b90919060201c565b5b5050565b60008082841673ffffffffffffffffffffffffffffffffffffffff161415905092915050565b8160005273ffffffffffffffffffffffffffffffffffffffff811660045260246000fd5b604051806101c001604052806000151581526020016000151581526020016000151581526020016000151581526020016000151581526020016000151581526020016000151581526020016000151581526020016000151581526020016000151581526020016000151581526020016000151581526020016000151581526020016000151581525090565b600080fd5b600073ffffffffffffffffffffffffffffffffffffffff82169050919050565b6000610600826105d5565b9050919050565b6000610612826105f5565b9050919050565b61062281610607565b811461062d57600080fd5b50565b60008151905061063f81610619565b92915050565b6000610650826105f5565b9050919050565b61066081610645565b811461066b57600080fd5b50565b60008151905061067d81610657565b92915050565b6000806040838503121561069a576106996105d0565b5b60006106a885828601610630565b92505060206106b98582860161066e565b9150509250929050565b60805160a051611c026106f6600039600081816105b80152610a5e0152600081816106e90152610a820152611c026000f3fe608060405234801561001057600080fd5b50600436106101005760003560e01c8063a910f80f11610097578063c4e833ce11610066578063c4e833ce14610339578063d56d229d14610357578063dc4c90d314610375578063e1b4af691461039357610100565b8063a910f80f14610275578063b47b2fb1146102a5578063b5217bb4146102d6578063b6a8b0fa1461030957610100565b80636c2bbe7e116100d35780636c2bbe7e146101c757806391dd7346146101f8578063927a0704146102285780639f063efc1461024457610100565b806321d0ee7014610105578063259982e5146101355780633440d82014610165578063575e24b414610195575b600080fd5b61011f600480360381019061011a9190610d56565b6103c3565b60405161012c9190610e1b565b60405180910390f35b61014f600480360381019061014a9190610d56565b6103d8565b60405161015c9190610e1b565b60405180910390f35b61017f600480360381019061017a9190610e62565b6103ed565b60405161018c9190610e1b565b60405180910390f35b6101af60048036038101906101aa9190610f0a565b610421565b6040516101be93929190610ff7565b60405180910390f35b6101e160048036038101906101dc919061105a565b6106b0565b6040516101ef92919061111c565b60405180910390f35b610212600480360381019061020d9190611145565b6106e5565b60405161021f9190611222565b60405180910390f35b610242600480360381019061023d91906112b2565b61077e565b005b61025e6004803603810190610259919061105a565b610891565b60405161026c92919061111c565b60405180910390f35b61028f600480360381019061028a9190611353565b6108c6565b60405161029c9190610e1b565b60405180910390f35b6102bf60048036038101906102ba91906113ef565b6108fa565b6040516102cd9291906114a8565b60405180910390f35b6102f060048036038101906102eb9190611507565b610916565b6040516103009493929190611561565b60405180910390f35b610323600480360381019061031e91906115a6565b610993565b6040516103309190610e1b565b60405180910390f35b6103416109c7565b60405161034e9190611771565b60405180910390f35b61035f610a5c565b60405161036c91906117e2565b60405180910390f35b61037d610a80565b60405161038a919061181e565b60405180910390f35b6103ad60048036038101906103a891906115a6565b610aa4565b6040516103ba9190610e1b565b60405180910390f35b60006321d0ee7060e01b905095945050505050565b600063259982e560e01b905095945050505050565b60006040517f0a85dc2900000000000000000000000000000000000000000000000000000000815260040160405180910390fd5b6000806000806104408880360381019061043b91906119db565b610ad8565b905060008060008381526020019081526020016000206040518060800160405290816000820160009054906101000a900473ffffffffffffffffffffffffffffffffffffffff1673ffffffffffffffffffffffffffffffffffffffff1673ffffffffffffffffffffffffffffffffffffffff1681526020016001820160009054906101000a900473ffffffffffffffffffffffffffffffffffffffff1673ffffffffffffffffffffffffffffffffffffffff1673ffffffffffffffffffffffffffffffffffffffff1681526020016001820160149054906101000a900460ff161515151581526020016002820154815250509050600073ffffffffffffffffffffffffffffffffffffffff16816000015173ffffffffffffffffffffffffffffffffffffffff16036105a7576040517f08c379a000000000000000000000000000000000000000000000000000000000815260040161059e90611a65565b60405180910390fd5b8060400151156106925780606001517f000000000000000000000000000000000000000000000000000000000000000073ffffffffffffffffffffffffffffffffffffffff166370a082318c6040518263ffffffff1660e01b815260040161060f9190611a85565b602060405180830381865afa15801561062c573d6000803e3d6000fd5b505050506040513d601f19601f820116820180604052508101906106509190611ab5565b1015610691576040517f08c379a000000000000000000000000000000000000000000000000000000000815260040161068890611b54565b60405180910390fd5b5b63575e24b460e01b6000809450945094505050955095509592505050565b6000806040517f0a85dc2900000000000000000000000000000000000000000000000000000000815260040160405180910390fd5b60607f000000000000000000000000000000000000000000000000000000000000000073ffffffffffffffffffffffffffffffffffffffff163373ffffffffffffffffffffffffffffffffffffffff161461076c576040517fae18210a00000000000000000000000000000000000000000000000000000000815260040160405180910390fd5b6107768383610ae5565b905092915050565b60006107998580360381019061079491906119db565b610ad8565b90508360008083815260200190815260200160002060000160006101000a81548173ffffffffffffffffffffffffffffffffffffffff021916908373ffffffffffffffffffffffffffffffffffffffff1602179055503360008083815260200190815260200160002060010160006101000a81548173ffffffffffffffffffffffffffffffffffffffff021916908373ffffffffffffffffffffffffffffffffffffffff1602179055508260008083815260200190815260200160002060010160146101000a81548160ff02191690831515021790555081600080838152602001908152602001600020600201819055505050505050565b6000806040517f0a85dc2900000000000000000000000000000000000000000000000000000000815260040160405180910390fd5b60006040517f0a85dc2900000000000000000000000000000000000000000000000000000000815260040160405180910390fd5b60008063b47b2fb160e01b600091509150965096945050505050565b60006020528060005260406000206000915090508060000160009054906101000a900473ffffffffffffffffffffffffffffffffffffffff16908060010160009054906101000a900473ffffffffffffffffffffffffffffffffffffffff16908060010160149054906101000a900460ff16908060020154905084565b60006040517f0a85dc2900000000000000000000000000000000000000000000000000000000815260040160405180910390fd5b6109cf610bb1565b604051806101c0016040528060001515815260200160001515815260200160001515815260200160001515815260200160001515815260200160001515815260200160011515815260200160001515815260200160001515815260200160001515815260200160001515815260200160001515815260200160001515815260200160001515815250905090565b7f000000000000000000000000000000000000000000000000000000000000000081565b7f000000000000000000000000000000000000000000000000000000000000000081565b60006040517f0a85dc2900000000000000000000000000000000000000000000000000000000815260040160405180910390fd5b600060a082209050919050565b60606000803073ffffffffffffffffffffffffffffffffffffffff168585604051610b11929190611bb3565b6000604051808303816000865af19150503d8060008114610b4e576040519150601f19603f3d011682016040523d82523d6000602084013e610b53565b606091505b50915091508115610b68578092505050610bab565b6000815103610ba3576040517fa40afa3800000000000000000000000000000000000000000000000000000000815260040160405180910390fd5b805160208201fd5b92915050565b604051806101c001604052806000151581526020016000151581526020016000151581526020016000151581526020016000151581526020016000151581526020016000151581526020016000151581526020016000151581526020016000151581526020016000151581526020016000151581526020016000151581526020016000151581525090565b6000604051905090565b600080fd5b600080fd5b600073ffffffffffffffffffffffffffffffffffffffff82169050919050565b6000610c7b82610c50565b9050919050565b610c8b81610c70565b8114610c9657600080fd5b50565b600081359050610ca881610c82565b92915050565b600080fd5b600060a08284031215610cc957610cc8610cae565b5b81905092915050565b600060808284031215610ce857610ce7610cae565b5b81905092915050565b600080fd5b600080fd5b600080fd5b60008083601f840112610d1657610d15610cf1565b5b8235905067ffffffffffffffff811115610d3357610d32610cf6565b5b602083019150836001820283011115610d4f57610d4e610cfb565b5b9250929050565b60008060008060006101608688031215610d7357610d72610c46565b5b6000610d8188828901610c99565b9550506020610d9288828901610cb3565b94505060c0610da388828901610cd2565b93505061014086013567ffffffffffffffff811115610dc557610dc4610c4b565b5b610dd188828901610d00565b92509250509295509295909350565b60007fffffffff0000000000000000000000000000000000000000000000000000000082169050919050565b610e1581610de0565b82525050565b6000602082019050610e306000830184610e0c565b92915050565b610e3f81610c50565b8114610e4a57600080fd5b50565b600081359050610e5c81610e36565b92915050565b60008060008060006101008688031215610e7f57610e7e610c46565b5b6000610e8d88828901610c99565b9550506020610e9e88828901610cb3565b94505060c0610eaf88828901610e4d565b93505060e086013567ffffffffffffffff811115610ed057610ecf610c4b565b5b610edc88828901610d00565b92509250509295509295909350565b600060608284031215610f0157610f00610cae565b5b81905092915050565b60008060008060006101408688031215610f2757610f26610c46565b5b6000610f3588828901610c99565b9550506020610f4688828901610cb3565b94505060c0610f5788828901610eeb565b93505061012086013567ffffffffffffffff811115610f7957610f78610c4b565b5b610f8588828901610d00565b92509250509295509295909350565b6000819050919050565b6000819050919050565b6000610fc3610fbe610fb984610f94565b610f9e565b610f94565b9050919050565b610fd381610fa8565b82525050565b600062ffffff82169050919050565b610ff181610fd9565b82525050565b600060608201905061100c6000830186610e0c565b6110196020830185610fca565b6110266040830184610fe8565b949350505050565b61103781610f94565b811461104257600080fd5b50565b6000813590506110548161102e565b92915050565b60008060008060008060006101a0888a03121561107a57611079610c46565b5b60006110888a828b01610c99565b97505060206110998a828b01610cb3565b96505060c06110aa8a828b01610cd2565b9550506101406110bc8a828b01611045565b9450506101606110ce8a828b01611045565b93505061018088013567ffffffffffffffff8111156110f0576110ef610c4b565b5b6110fc8a828b01610d00565b925092505092959891949750929550565b61111681610fa8565b82525050565b60006040820190506111316000830185610e0c565b61113e602083018461110d565b9392505050565b6000806020838503121561115c5761115b610c46565b5b600083013567ffffffffffffffff81111561117a57611179610c4b565b5b61118685828601610d00565b92509250509250929050565b600081519050919050565b600082825260208201905092915050565b60005b838110156111cc5780820151818401526020810190506111b1565b60008484015250505050565b6000601f19601f8301169050919050565b60006111f482611192565b6111fe818561119d565b935061120e8185602086016111ae565b611217816111d8565b840191505092915050565b6000602082019050818103600083015261123c81846111e9565b905092915050565b60008115159050919050565b61125981611244565b811461126457600080fd5b50565b60008135905061127681611250565b92915050565b6000819050919050565b61128f8161127c565b811461129a57600080fd5b50565b6000813590506112ac81611286565b92915050565b60008060008061010085870312156112cd576112cc610c46565b5b60006112db87828801610cb3565b94505060a06112ec87828801610c99565b93505060c06112fd87828801611267565b92505060e061130e8782880161129d565b91505092959194509250565b60008160020b9050919050565b6113308161131a565b811461133b57600080fd5b50565b60008135905061134d81611327565b92915050565b600080600080600080610120878903121561137157611370610c46565b5b600061137f89828a01610c99565b965050602061139089828a01610cb3565b95505060c06113a189828a01610e4d565b94505060e06113b289828a0161133e565b93505061010087013567ffffffffffffffff8111156113d4576113d3610c4b565b5b6113e089828a01610d00565b92509250509295509295509295565b600080600080600080610160878903121561140d5761140c610c46565b5b600061141b89828a01610c99565b965050602061142c89828a01610cb3565b95505060c061143d89828a01610eeb565b94505061012061144f89828a01611045565b93505061014087013567ffffffffffffffff81111561147157611470610c4b565b5b61147d89828a01610d00565b92509250509295509295509295565b600081600f0b9050919050565b6114a28161148c565b82525050565b60006040820190506114bd6000830185610e0c565b6114ca6020830184611499565b9392505050565b6000819050919050565b6114e4816114d1565b81146114ef57600080fd5b50565b600081359050611501816114db565b92915050565b60006020828403121561151d5761151c610c46565b5b600061152b848285016114f2565b91505092915050565b61153d81610c70565b82525050565b61154c81611244565b82525050565b61155b8161127c565b82525050565b60006080820190506115766000830187611534565b6115836020830186611534565b6115906040830185611543565b61159d6060830184611552565b95945050505050565b60008060008060008061012087890312156115c4576115c3610c46565b5b60006115d289828a01610c99565b96505060206115e389828a01610cb3565b95505060c06115f489828a0161129d565b94505060e061160589828a0161129d565b93505061010087013567ffffffffffffffff81111561162757611626610c4b565b5b61163389828a01610d00565b92509250509295509295509295565b61164b81611244565b82525050565b6101c0820160008201516116686000850182611642565b50602082015161167b6020850182611642565b50604082015161168e6040850182611642565b5060608201516116a16060850182611642565b5060808201516116b46080850182611642565b5060a08201516116c760a0850182611642565b5060c08201516116da60c0850182611642565b5060e08201516116ed60e0850182611642565b50610100820151611702610100850182611642565b50610120820151611717610120850182611642565b5061014082015161172c610140850182611642565b50610160820151611741610160850182611642565b50610180820151611756610180850182611642565b506101a082015161176b6101a0850182611642565b50505050565b60006101c0820190506117876000830184611651565b92915050565b60006117a86117a361179e84610c50565b610f9e565b610c50565b9050919050565b60006117ba8261178d565b9050919050565b60006117cc826117af565b9050919050565b6117dc816117c1565b82525050565b60006020820190506117f760008301846117d3565b92915050565b6000611808826117af565b9050919050565b611818816117fd565b82525050565b6000602082019050611833600083018461180f565b92915050565b600080fd5b7f4e487b7100000000000000000000000000000000000000000000000000000000600052604160045260246000fd5b611876826111d8565b810181811067ffffffffffffffff821117156118955761189461183e565b5b80604052505050565b60006118a8610c3c565b90506118b4828261186d565b919050565b6118c281610c70565b81146118cd57600080fd5b50565b6000813590506118df816118b9565b92915050565b6118ee81610fd9565b81146118f957600080fd5b50565b60008135905061190b816118e5565b92915050565b600061191c82610c70565b9050919050565b61192c81611911565b811461193757600080fd5b50565b60008135905061194981611923565b92915050565b600060a0828403121561196557611964611839565b5b61196f60a061189e565b9050600061197f848285016118d0565b6000830152506020611993848285016118d0565b60208301525060406119a7848285016118fc565b60408301525060606119bb8482850161133e565b60608301525060806119cf8482850161193a565b60808301525092915050565b600060a082840312156119f1576119f0610c46565b5b60006119ff8482850161194f565b91505092915050565b600082825260208201905092915050565b7f506f6f6c206e6f7420636f6e6669677572656400000000000000000000000000600082015250565b6000611a4f601383611a08565b9150611a5a82611a19565b602082019050919050565b60006020820190508181036000830152611a7e81611a42565b9050919050565b6000602082019050611a9a6000830184611534565b92915050565b600081519050611aaf81611286565b92915050565b600060208284031215611acb57611aca610c46565b5b6000611ad984828501611aa0565b91505092915050565b7f496e73756666696369656e74204e46542062616c616e636520666f722073776160008201527f7000000000000000000000000000000000000000000000000000000000000000602082015250565b6000611b3e602183611a08565b9150611b4982611ae2565b604082019050919050565b60006020820190508181036000830152611b6d81611b31565b9050919050565b600081905092915050565b82818337600083830152505050565b6000611b9a8385611b74565b9350611ba7838584611b7f565b82840190509392505050565b6000611bc0828486611b8e565b9150819050939250505056fea2646970667358221220d29e4afa244b47fb3000a898c4db2b242f707b3ae1b9f4d211a6a561924aa47764736f6c634300081b0033",
  "linkReferences": {},
  "deployedLinkReferences": {}
}