{
  "_format": "hh-sol-artifact-1",
  "contractName": "TokenGated",
  "sourceName": "src/TokenGated.sol",
  "abi": [
    {
      "inputs": [
        {
          "internalType": "contract IPoolManager",
          "name": "_poolManager",
          "type": "address"
        }
      ],
      "stateMutability": "nonpayable",
      "type": "constructor"
    },
    {
      "inputs": [],
      "name": "HookNotImplemented",
      "type": "error"
    },
    {
      "inputs": [],
      "name": "InvalidPool",
      "type": "error"
    },
    {
      "inputs": [],
      "name": "LockFailure",
      "type": "error"
    },
    {
      "inputs": [],
      "name": "NotPoolManager",
      "type": "error"
    },
    {
      "inputs": [],
      "name": "NotSelf",
      "type": "error"
    },
    {
      "inputs": [
        {
          "internalType": "address",
          "name": "",
          "type": "address"
        },
        {
          "components": [
            {
              "internalType": "Currency",
              "name": "currency0",
              "type": "address"
            },
            {
              "internalType": "Currency",
              "name": "currency1",
              "type": "address"
            },
            {
              "internalType": "uint24",
              "name": "fee",
              "type": "uint24"
            },
            {
              "internalType": "int24",
              "name": "tickSpacing",
              "type": "int24"
            },
            {
              "internalType": "contract IHooks",
              "name": "hooks",
              "type": "address"
            }
          ],
          "internalType": "struct PoolKey",
          "name": "",
          "type": "tuple"
        },
        {
          "components": [
            {
              "internalType": "int24",
              "name": "tickLower",
              "type": "int24"
            },
            {
              "internalType": "int24",
              "name": "tickUpper",
              "type": "int24"
            },
            {
              "internalType": "int256",
              "name": "liquidityDelta",
              "type": "int256"
            },
            {
              "internalType": "bytes32",
              "name": "salt",
              "type": "bytes32"
            }
          ],
          "internalType": "struct IPoolManager.ModifyLiquidityParams",
          "name": "",
          "type": "tuple"
        },
        {
          "internalType": "BalanceDelta",
          "name": "",
          "type": "int256"
        },
        {
          "internalType": "BalanceDelta",
          "name": "",
          "type": "int256"
        },
        {
          "internalType": "bytes",
          "name": "",
          "type": "bytes"
        }
      ],
      "name": "afterAddLiquidity",
      "outputs": [
        {
          "internalType": "bytes4",
          "name": "",
          "type": "bytes4"
        },
        {
          "internalType": "BalanceDelta",
          "name": "",
          "type": "int256"
        }
      ],
      "stateMutability": "nonpayable",
      "type": "function"
    },
    {
      "inputs": [
        {
          "internalType": "address",
          "name": "",
          "type": "address"
        },
        {
          "components": [
            {
              "internalType": "Currency",
              "name": "currency0",
              "type": "address"
            },
            {
              "internalType": "Currency",
              "name": "currency1",
              "type": "address"
            },
            {
              "internalType": "uint24",
              "name": "fee",
              "type": "uint24"
            },
            {
              "internalType": "int24",
              "name": "tickSpacing",
              "type": "int24"
            },
            {
              "internalType": "contract IHooks",
              "name": "hooks",
              "type": "address"
            }
          ],
          "internalType": "struct PoolKey",
          "name": "",
          "type": "tuple"
        },
        {
          "internalType": "uint256",
          "name": "",
          "type": "uint256"
        },
        {
          "internalType": "uint256",
          "name": "",
          "type": "uint256"
        },
        {
          "internalType": "bytes",
          "name": "",
          "type": "bytes"
        }
      ],
      "name": "afterDonate",
      "outputs": [
        {
          "internalType": "bytes4",
          "name": "",
          "type": "bytes4"
        }
      ],
      "stateMutability": "nonpayable",
      "type": "function"
    },
    {
      "inputs": [
        {
          "internalType": "address",
          "name": "sender",
          "type": "address"
        },
        {
          "components": [
            {
              "internalType": "Currency",
              "name": "currency0",
              "type": "address"
            },
            {
              "internalType": "Currency",
              "name": "currency1",
              "type": "address"
            },
            {
              "internalType": "uint24",
              "name": "fee",
              "type": "uint24"
            },
            {
              "internalType": "int24",
              "name": "tickSpacing",
              "type": "int24"
            },
            {
              "internalType": "contract IHooks",
              "name": "hooks",
              "type": "address"
            }
          ],
          "internalType": "struct PoolKey",
          "name": "key",
          "type": "tuple"
        },
        {
          "internalType": "uint160",
          "name": "",
          "type": "uint160"
        },
        {
          "internalType": "int24",
          "name": "",
          "type": "int24"
        },
        {
          "internalType": "bytes",
          "name": "hookData",
          "type": "bytes"
        }
      ],
      "name": "afterInitialize",
      "outputs": [
        {
          "internalType": "bytes4",
          "name": "",
          "type": "bytes4"
        }
      ],
      "stateMutability": "nonpayable",
      "type": "function"
    },
    {
      "inputs": [
        {
          "internalType": "address",
          "name": "",
          "type": "address"
        },
        {
          "components": [
            {
              "internalType": "Currency",
              "name": "currency0",
              "type": "address"
            },
            {
              "internalType": "Currency",
              "name": "currency1",
              "type": "address"
            },
            {
              "internalType": "uint24",
              "name": "fee",
              "type": "uint24"
            },
            {
              "internalType": "int24",
              "name": "tickSpacing",
              "type": "int24"
            },
            {
              "internalType": "contract IHooks",
              "name": "hooks",
              "type": "address"
            }
          ],
          "internalType": "struct PoolKey",
          "name": "",
          "type": "tuple"
        },
        {
          "components": [
            {
              "internalType": "int24",
              "name": "tickLower",
              "type": "int24"
            },
            {
              "internalType": "int24",
              "name": "tickUpper",
              "type": "int24"
            },
            {
              "internalType": "int256",
              "name": "liquidityDelta",
              "type": "int256"
            },
            {
              "internalType": "bytes32",
              "name": "salt",
              "type": "bytes32"
            }
          ],
          "internalType": "struct IPoolManager.ModifyLiquidityParams",
          "name": "",
          "type": "tuple"
        },
        {
          "internalType": "BalanceDelta",
          "name": "",
          "type": "int256"
        },
        {
          "internalType": "BalanceDelta",
          "name": "",
          "type": "int256"
        },
        {
          "internalType": "bytes",
          "name": "",
          "type": "bytes"
        }
      ],
      "name": "afterRemoveLiquidity",
      "outputs": [
        {
          "internalType": "bytes4",
          "name": "",
          "type": "bytes4"
        },
        {
          "internalType": "BalanceDelta",
          "name": "",
          "type": "int256"
        }
      ],
      "stateMutability": "nonpayable",
      "type": "function"
    },
    {
      "inputs": [
        {
          "internalType": "address",
          "name": "",
          "type": "address"
        },
        {
          "components": [
            {
              "internalType": "Currency",
              "name": "currency0",
              "type": "address"
            },
            {
              "internalType": "Currency",
              "name": "currency1",
              "type": "address"
            },
            {
              "internalType": "uint24",
              "name": "fee",
              "type": "uint24"
            },
            {
              "internalType": "int24",
              "name": "tickSpacing",
              "type": "int24"
            },
            {
              "internalType": "contract IHooks",
              "name": "hooks",
              "type": "address"
            }
          ],
          "internalType": "struct PoolKey",
          "name": "",
          "type": "tuple"
        },
        {
          "components": [
            {
              "internalType": "bool",
              "name": "zeroForOne",
              "type": "bool"
            },
            {
              "internalType": "int256",
              "name": "amountSpecified",
              "type": "int256"
            },
            {
              "internalType": "uint160",
              "name": "sqrtPriceLimitX96",
              "type": "uint160"
            }
          ],
          "internalType": "struct IPoolManager.SwapParams",
          "name": "",
          "type": "tuple"
        },
        {
          "internalType": "BalanceDelta",
          "name": "",
          "type": "int256"
        },
        {
          "internalType": "bytes",
          "name": "",
          "type": "bytes"
        }
      ],
      "name": "afterSwap",
      "outputs": [
        {
          "internalType": "bytes4",
          "name": "",
          "type": "bytes4"
        },
        {
          "internalType": "int128",
          "name": "",
          "type": "int128"
        }
      ],
      "stateMutability": "nonpayable",
      "type": "function"
    },
    {
      "inputs": [
        {
          "internalType": "address",
          "name": "",
          "type": "address"
        },
        {
          "components": [
            {
              "internalType": "Currency",
              "name": "currency0",
              "type": "address"
            },
            {
              "internalType": "Currency",
              "name": "currency1",
              "type": "address"
            },
            {
              "internalType": "uint24",
              "name": "fee",
              "type": "uint24"
            },
            {
              "internalType": "int24",
              "name": "tickSpacing",
              "type": "int24"
            },
            {
              "internalType": "contract IHooks",
              "name": "hooks",
              "type": "address"
            }
          ],
          "internalType": "struct PoolKey",
          "name": "",
          "type": "tuple"
        },
        {
          "components": [
            {
              "internalType": "int24",
              "name": "tickLower",
              "type": "int24"
            },
            {
              "internalType": "int24",
              "name": "tickUpper",
              "type": "int24"
            },
            {
              "internalType": "int256",
              "name": "liquidityDelta",
              "type": "int256"
            },
            {
              "internalType": "bytes32",
              "name": "salt",
              "type": "bytes32"
            }
          ],
          "internalType": "struct IPoolManager.ModifyLiquidityParams",
          "name": "",
          "type": "tuple"
        },
        {
          "internalType": "bytes",
          "name": "",
          "type": "bytes"
        }
      ],
      "name": "beforeAddLiquidity",
      "outputs": [
        {
          "internalType": "bytes4",
          "name": "",
          "type": "bytes4"
        }
      ],
      "stateMutability": "nonpayable",
      "type": "function"
    },
    {
      "inputs": [
        {
          "internalType": "address",
          "name": "",
          "type": "address"
        },
        {
          "components": [
            {
              "internalType": "Currency",
              "name": "currency0",
              "type": "address"
            },
            {
              "internalType": "Currency",
              "name": "currency1",
              "type": "address"
            },
            {
              "internalType": "uint24",
              "name": "fee",
              "type": "uint24"
            },
            {
              "internalType": "int24",
              "name": "tickSpacing",
              "type": "int24"
            },
            {
              "internalType": "contract IHooks",
              "name": "hooks",
              "type": "address"
            }
          ],
          "internalType": "struct PoolKey",
          "name": "",
          "type": "tuple"
        },
        {
          "internalType": "uint256",
          "name": "",
          "type": "uint256"
        },
        {
          "internalType": "uint256",
          "name": "",
          "type": "uint256"
        },
        {
          "internalType": "bytes",
          "name": "",
          "type": "bytes"
        }
      ],
      "name": "beforeDonate",
      "outputs": [
        {
          "internalType": "bytes4",
          "name": "",
          "type": "bytes4"
        }
      ],
      "stateMutability": "nonpayable",
      "type": "function"
    },
    {
      "inputs": [
        {
          "internalType": "address",
          "name": "",
          "type": "address"
        },
        {
          "components": [
            {
              "internalType": "Currency",
              "name": "currency0",
              "type": "address"
            },
            {
              "internalType": "Currency",
              "name": "currency1",
              "type": "address"
            },
            {
              "internalType": "uint24",
              "name": "fee",
              "type": "uint24"
            },
            {
              "internalType": "int24",
              "name": "tickSpacing",
              "type": "int24"
            },
            {
              "internalType": "contract IHooks",
              "name": "hooks",
              "type": "address"
            }
          ],
          "internalType": "struct PoolKey",
          "name": "",
          "type": "tuple"
        },
        {
          "internalType": "uint160",
          "name": "",
          "type": "uint160"
        },
        {
          "internalType": "bytes",
          "name": "",
          "type": "bytes"
        }
      ],
      "name": "beforeInitialize",
      "outputs": [
        {
          "internalType": "bytes4",
          "name": "",
          "type": "bytes4"
        }
      ],
      "stateMutability": "nonpayable",
      "type": "function"
    },
    {
      "inputs": [
        {
          "internalType": "address",
          "name": "",
          "type": "address"
        },
        {
          "components": [
            {
              "internalType": "Currency",
              "name": "currency0",
              "type": "address"
            },
            {
              "internalType": "Currency",
              "name": "currency1",
              "type": "address"
            },
            {
              "internalType": "uint24",
              "name": "fee",
              "type": "uint24"
            },
            {
              "internalType": "int24",
              "name": "tickSpacing",
              "type": "int24"
            },
            {
              "internalType": "contract IHooks",
              "name": "hooks",
              "type": "address"
            }
          ],
          "internalType": "struct PoolKey",
          "name": "",
          "type": "tuple"
        },
        {
          "components": [
            {
              "internalType": "int24",
              "name": "tickLower",
              "type": "int24"
            },
            {
              "internalType": "int24",
              "name": "tickUpper",
              "type": "int24"
            },
            {
              "internalType": "int256",
              "name": "liquidityDelta",
              "type": "int256"
            },
            {
              "internalType": "bytes32",
              "name": "salt",
              "type": "bytes32"
            }
          ],
          "internalType": "struct IPoolManager.ModifyLiquidityParams",
          "name": "",
          "type": "tuple"
        },
        {
          "internalType": "bytes",
          "name": "",
          "type": "bytes"
        }
      ],
      "name": "beforeRemoveLiquidity",
      "outputs": [
        {
          "internalType": "bytes4",
          "name": "",
          "type": "bytes4"
        }
      ],
      "stateMutability": "nonpayable",
      "type": "function"
    },
    {
      "inputs": [
        {
          "internalType": "address",
          "name": "sender",
          "type": "address"
        },
        {
          "components": [
            {
              "internalType": "Currency",
              "name": "currency0",
              "type": "address"
            },
            {
              "internalType": "Currency",
              "name": "currency1",
              "type": "address"
            },
            {
              "internalType": "uint24",
              "name": "fee",
              "type": "uint24"
            },
            {
              "internalType": "int24",
              "name": "tickSpacing",
              "type": "int24"
            },
            {
              "internalType": "contract IHooks",
              "name": "hooks",
              "type": "address"
            }
          ],
          "internalType": "struct PoolKey",
          "name": "key",
          "type": "tuple"
        },
        {
          "components": [
            {
              "internalType": "bool",
              "name": "zeroForOne",
              "type": "bool"
            },
            {
              "internalType": "int256",
              "name": "amountSpecified",
              "type": "int256"
            },
            {
              "internalType": "uint160",
              "name": "sqrtPriceLimitX96",
              "type": "uint160"
            }
          ],
          "internalType": "struct IPoolManager.SwapParams",
          "name": "",
          "type": "tuple"
        },
        {
          "internalType": "bytes",
          "name": "",
          "type": "bytes"
        }
      ],
      "name": "beforeSwap",
      "outputs": [
        {
          "internalType": "bytes4",
          "name": "",
          "type": "bytes4"
        },
        {
          "internalType": "BeforeSwapDelta",
          "name": "",
          "type": "int256"
        },
        {
          "internalType": "uint24",
          "name": "",
          "type": "uint24"
        }
      ],
      "stateMutability": "nonpayable",
      "type": "function"
    },
    {
      "inputs": [],
      "name": "getHookPermissions",
      "outputs": [
        {
          "components": [
            {
              "internalType": "bool",
              "name": "beforeInitialize",
              "type": "bool"
            },
            {
              "internalType": "bool",
              "name": "afterInitialize",
              "type": "bool"
            },
            {
              "internalType": "bool",
              "name": "beforeAddLiquidity",
              "type": "bool"
            },
            {
              "internalType": "bool",
              "name": "afterAddLiquidity",
              "type": "bool"
            },
            {
              "internalType": "bool",
              "name": "beforeRemoveLiquidity",
              "type": "bool"
            },
            {
              "internalType": "bool",
              "name": "afterRemoveLiquidity",
              "type": "bool"
            },
            {
              "internalType": "bool",
              "name": "beforeSwap",
              "type": "bool"
            },
            {
              "internalType": "bool",
              "name": "afterSwap",
              "type": "bool"
            },
            {
              "internalType": "bool",
              "name": "beforeDonate",
              "type": "bool"
            },
            {
              "internalType": "bool",
              "name": "afterDonate",
              "type": "bool"
            },
            {
              "internalType": "bool",
              "name": "beforeSwapReturnDelta",
              "type": "bool"
            },
            {
              "internalType": "bool",
              "name": "afterSwapReturnDelta",
              "type": "bool"
            },
            {
              "internalType": "bool",
              "name": "afterAddLiquidityReturnDelta",
              "type": "bool"
            },
            {
              "internalType": "bool",
              "name": "afterRemoveLiquidityReturnDelta",
              "type": "bool"
            }
          ],
          "internalType": "struct Hooks.Permissions",
          "name": "",
          "type": "tuple"
        }
      ],
      "stateMutability": "pure",
      "type": "function"
    },
    {
      "inputs": [],
      "name": "poolManager",
      "outputs": [
        {
          "internalType": "contract IPoolManager",
          "name": "",
          "type": "address"
        }
      ],
      "stateMutability": "view",
      "type": "function"
    },
    {
      "inputs": [
        {
          "internalType": "PoolId",
          "name": "",
          "type": "bytes32"
        }
      ],
      "name": "pools",
      "outputs": [
        {
          "internalType": "address",
          "name": "tokenAddress",
          "type": "address"
        },
        {
          "internalType": "address",
          "name": "owner",
          "type": "address"
        }
      ],
      "stateMutability": "view",
      "type": "function"
    },
    {
      "inputs": [
        {
          "components": [
            {
              "internalType": "Currency",
              "name": "currency0",
              "type": "address"
            },
            {
              "internalType": "Currency",
              "name": "currency1",
              "type": "address"
            },
            {
              "internalType": "uint24",
              "name": "fee",
              "type": "uint24"
            },
            {
              "internalType": "int24",
              "name": "tickSpacing",
              "type": "int24"
            },
            {
              "internalType": "contract IHooks",
              "name": "hooks",
              "type": "address"
            }
          ],
          "internalType": "struct PoolKey",
          "name": "key",
          "type": "tuple"
        },
        {
          "internalType": "address",
          "name": "_tokenAddress",
          "type": "address"
        }
      ],
      "name": "setPoolConfig",
      "outputs": [],
      "stateMutability": "nonpayable",
      "type": "function"
    },
    {
      "inputs": [
        {
          "internalType": "bytes",
          "name": "data",
          "type": "bytes"
        }
      ],
      "name": "unlockCallback",
      "outputs": [
        {
          "internalType": "bytes",
          "name": "",
          "type": "bytes"
        }
      ],
      "stateMutability": "nonpayable",
      "type": "function"
    }
  ],
  "bytecode": "0x60a060405234801561001057600080fd5b5060405161212e38038061212e83398181016040528101906100329190610610565b8080808073ffffffffffffffffffffffffffffffffffffffff1660808173ffffffffffffffffffffffffffffffffffffffff1681525050505061007a3061008160201b60201c565b505061063d565b61009e816100936100a160201b60201c565b61013660201b60201c565b50565b6100a9610510565b604051806101c0016040528060001515815260200160011515815260200160001515815260200160001515815260200160001515815260200160001515815260200160011515815260200160001515815260200160001515815260200160001515815260200160001515815260200160001515815260200160001515815260200160001515815250905090565b6101616120008373ffffffffffffffffffffffffffffffffffffffff166104c660201b90919060201c565b1515816000015115151415806101a9575061019d6110008373ffffffffffffffffffffffffffffffffffffffff166104c660201b90919060201c565b15158160200151151514155b806101e657506101da6108008373ffffffffffffffffffffffffffffffffffffffff166104c660201b90919060201c565b15158160400151151514155b8061022357506102176104008373ffffffffffffffffffffffffffffffffffffffff166104c660201b90919060201c565b15158160600151151514155b8061026057506102546102008373ffffffffffffffffffffffffffffffffffffffff166104c660201b90919060201c565b15158160800151151514155b8061029d57506102916101008373ffffffffffffffffffffffffffffffffffffffff166104c660201b90919060201c565b15158160a00151151514155b806102d957506102cd60808373ffffffffffffffffffffffffffffffffffffffff166104c660201b90919060201c565b15158160c00151151514155b80610315575061030960408373ffffffffffffffffffffffffffffffffffffffff166104c660201b90919060201c565b15158160e00151151514155b80610352575061034560208373ffffffffffffffffffffffffffffffffffffffff166104c660201b90919060201c565b1515816101000151151514155b8061038f575061038260108373ffffffffffffffffffffffffffffffffffffffff166104c660201b90919060201c565b1515816101200151151514155b806103cc57506103bf60088373ffffffffffffffffffffffffffffffffffffffff166104c660201b90919060201c565b1515816101400151151514155b8061040957506103fc60048373ffffffffffffffffffffffffffffffffffffffff166104c660201b90919060201c565b1515816101600151151514155b80610446575061043960028373ffffffffffffffffffffffffffffffffffffffff166104c660201b90919060201c565b1515816101800151151514155b80610483575061047660018373ffffffffffffffffffffffffffffffffffffffff166104c660201b90919060201c565b1515816101a00151151514155b156104c2576104c18263e65af6a060e01b7bffffffffffffffffffffffffffffffffffffffffffffffffffffffff19166104ec60201b90919060201c565b5b5050565b60008082841673ffffffffffffffffffffffffffffffffffffffff161415905092915050565b8160005273ffffffffffffffffffffffffffffffffffffffff811660045260246000fd5b604051806101c001604052806000151581526020016000151581526020016000151581526020016000151581526020016000151581526020016000151581526020016000151581526020016000151581526020016000151581526020016000151581526020016000151581526020016000151581526020016000151581526020016000151581525090565b600080fd5b600073ffffffffffffffffffffffffffffffffffffffff82169050919050565b60006105cb826105a0565b9050919050565b60006105dd826105c0565b9050919050565b6105ed816105d2565b81146105f857600080fd5b50565b60008151905061060a816105e4565b92915050565b6000602082840312156106265761062561059b565b5b6000610634848285016105fb565b91505092915050565b608051611acf61065f600039600081816106bb0152610a1a0152611acf6000f3fe608060405234801561001057600080fd5b50600436106100f55760003560e01c80639f063efc11610097578063b6a8b0fa11610066578063b6a8b0fa146102fc578063c4e833ce1461032c578063dc4c90d31461034a578063e1b4af6914610368576100f5565b80639f063efc14610239578063a910f80f1461026a578063b47b2fb11461029a578063b5217bb4146102cb576100f5565b80633440d820116100d35780633440d82014610176578063575e24b4146101a65780636c2bbe7e146101d857806391dd734614610209576100f5565b80630df9dbc6146100fa57806321d0ee7014610116578063259982e514610146575b600080fd5b610114600480360381019061010f9190610c6a565b610398565b005b610130600480360381019061012b9190610d2e565b61040e565b60405161013d9190610df3565b60405180910390f35b610160600480360381019061015b9190610d2e565b610442565b60405161016d9190610df3565b60405180910390f35b610190600480360381019061018b9190610e3a565b610476565b60405161019d9190610df3565b60405180910390f35b6101c060048036038101906101bb9190610ee2565b6104aa565b6040516101cf93929190610fcf565b60405180910390f35b6101f260048036038101906101ed9190611032565b610682565b6040516102009291906110f4565b60405180910390f35b610223600480360381019061021e919061111d565b6106b7565b60405161023091906111fa565b60405180910390f35b610253600480360381019061024e9190611032565b610750565b6040516102619291906110f4565b60405180910390f35b610284600480360381019061027f9190611255565b610785565b6040516102919190610df3565b60405180910390f35b6102b460048036038101906102af91906112f1565b6108b6565b6040516102c29291906113aa565b60405180910390f35b6102e560048036038101906102e09190611409565b6108eb565b6040516102f3929190611445565b60405180910390f35b610316600480360381019061031191906114a4565b61094f565b6040516103239190610df3565b60405180910390f35b610334610983565b604051610341919061167b565b60405180910390f35b610352610a18565b60405161035f91906116ec565b60405180910390f35b610382600480360381019061037d91906114a4565b610a3c565b60405161038f9190610df3565b60405180910390f35b60006103b3838036038101906103ae91906118a9565b610a70565b90508160008083815260200190815260200160002060000160006101000a81548173ffffffffffffffffffffffffffffffffffffffff021916908373ffffffffffffffffffffffffffffffffffffffff160217905550505050565b60006040517f0a85dc2900000000000000000000000000000000000000000000000000000000815260040160405180910390fd5b60006040517f0a85dc2900000000000000000000000000000000000000000000000000000000815260040160405180910390fd5b60006040517f0a85dc2900000000000000000000000000000000000000000000000000000000815260040160405180910390fd5b6000806000806104c9888036038101906104c491906118a9565b610a70565b905060008060008381526020019081526020016000206040518060400160405290816000820160009054906101000a900473ffffffffffffffffffffffffffffffffffffffff1673ffffffffffffffffffffffffffffffffffffffff1673ffffffffffffffffffffffffffffffffffffffff1681526020016001820160009054906101000a900473ffffffffffffffffffffffffffffffffffffffff1673ffffffffffffffffffffffffffffffffffffffff1673ffffffffffffffffffffffffffffffffffffffff1681525050905060008160000151905060008173ffffffffffffffffffffffffffffffffffffffff166370a082318d6040518263ffffffff1660e01b81526004016105dc91906118d6565b602060405180830381865afa1580156105f9573d6000803e3d6000fd5b505050506040513d601f19601f8201168201806040525081019061061d9190611906565b905060008111610662576040517f08c379a0000000000000000000000000000000000000000000000000000000008152600401610659906119b6565b60405180910390fd5b63575e24b460e01b60008096509650965050505050955095509592505050565b6000806040517f0a85dc2900000000000000000000000000000000000000000000000000000000815260040160405180910390fd5b60607f000000000000000000000000000000000000000000000000000000000000000073ffffffffffffffffffffffffffffffffffffffff163373ffffffffffffffffffffffffffffffffffffffff161461073e576040517fae18210a00000000000000000000000000000000000000000000000000000000815260040160405180910390fd5b6107488383610a7d565b905092915050565b6000806040517f0a85dc2900000000000000000000000000000000000000000000000000000000815260040160405180910390fd5b60008083838101906107979190611a14565b9050600060405180604001604052808373ffffffffffffffffffffffffffffffffffffffff1681526020018a73ffffffffffffffffffffffffffffffffffffffff16815250905060006107f9898036038101906107f491906118a9565b610a70565b90508160008083815260200190815260200160002060008201518160000160006101000a81548173ffffffffffffffffffffffffffffffffffffffff021916908373ffffffffffffffffffffffffffffffffffffffff16021790555060208201518160010160006101000a81548173ffffffffffffffffffffffffffffffffffffffff021916908373ffffffffffffffffffffffffffffffffffffffff16021790555090505063a910f80f60e01b93505050509695505050505050565b6000806040517f0a85dc2900000000000000000000000000000000000000000000000000000000815260040160405180910390fd5b60006020528060005260406000206000915090508060000160009054906101000a900473ffffffffffffffffffffffffffffffffffffffff16908060010160009054906101000a900473ffffffffffffffffffffffffffffffffffffffff16905082565b60006040517f0a85dc2900000000000000000000000000000000000000000000000000000000815260040160405180910390fd5b61098b610b49565b604051806101c0016040528060001515815260200160011515815260200160001515815260200160001515815260200160001515815260200160001515815260200160011515815260200160001515815260200160001515815260200160001515815260200160001515815260200160001515815260200160001515815260200160001515815250905090565b7f000000000000000000000000000000000000000000000000000000000000000081565b60006040517f0a85dc2900000000000000000000000000000000000000000000000000000000815260040160405180910390fd5b600060a082209050919050565b60606000803073ffffffffffffffffffffffffffffffffffffffff168585604051610aa9929190611a80565b6000604051808303816000865af19150503d8060008114610ae6576040519150601f19603f3d011682016040523d82523d6000602084013e610aeb565b606091505b50915091508115610b00578092505050610b43565b6000815103610b3b576040517fa40afa3800000000000000000000000000000000000000000000000000000000815260040160405180910390fd5b805160208201fd5b92915050565b604051806101c001604052806000151581526020016000151581526020016000151581526020016000151581526020016000151581526020016000151581526020016000151581526020016000151581526020016000151581526020016000151581526020016000151581526020016000151581526020016000151581526020016000151581525090565b6000604051905090565b600080fd5b600080fd5b600080fd5b600060a08284031215610c0357610c02610be8565b5b81905092915050565b600073ffffffffffffffffffffffffffffffffffffffff82169050919050565b6000610c3782610c0c565b9050919050565b610c4781610c2c565b8114610c5257600080fd5b50565b600081359050610c6481610c3e565b92915050565b60008060c08385031215610c8157610c80610bde565b5b6000610c8f85828601610bed565b92505060a0610ca085828601610c55565b9150509250929050565b600060808284031215610cc057610cbf610be8565b5b81905092915050565b600080fd5b600080fd5b600080fd5b60008083601f840112610cee57610ced610cc9565b5b8235905067ffffffffffffffff811115610d0b57610d0a610cce565b5b602083019150836001820283011115610d2757610d26610cd3565b5b9250929050565b60008060008060006101608688031215610d4b57610d4a610bde565b5b6000610d5988828901610c55565b9550506020610d6a88828901610bed565b94505060c0610d7b88828901610caa565b93505061014086013567ffffffffffffffff811115610d9d57610d9c610be3565b5b610da988828901610cd8565b92509250509295509295909350565b60007fffffffff0000000000000000000000000000000000000000000000000000000082169050919050565b610ded81610db8565b82525050565b6000602082019050610e086000830184610de4565b92915050565b610e1781610c0c565b8114610e2257600080fd5b50565b600081359050610e3481610e0e565b92915050565b60008060008060006101008688031215610e5757610e56610bde565b5b6000610e6588828901610c55565b9550506020610e7688828901610bed565b94505060c0610e8788828901610e25565b93505060e086013567ffffffffffffffff811115610ea857610ea7610be3565b5b610eb488828901610cd8565b92509250509295509295909350565b600060608284031215610ed957610ed8610be8565b5b81905092915050565b60008060008060006101408688031215610eff57610efe610bde565b5b6000610f0d88828901610c55565b9550506020610f1e88828901610bed565b94505060c0610f2f88828901610ec3565b93505061012086013567ffffffffffffffff811115610f5157610f50610be3565b5b610f5d88828901610cd8565b92509250509295509295909350565b6000819050919050565b6000819050919050565b6000610f9b610f96610f9184610f6c565b610f76565b610f6c565b9050919050565b610fab81610f80565b82525050565b600062ffffff82169050919050565b610fc981610fb1565b82525050565b6000606082019050610fe46000830186610de4565b610ff16020830185610fa2565b610ffe6040830184610fc0565b949350505050565b61100f81610f6c565b811461101a57600080fd5b50565b60008135905061102c81611006565b92915050565b60008060008060008060006101a0888a03121561105257611051610bde565b5b60006110608a828b01610c55565b97505060206110718a828b01610bed565b96505060c06110828a828b01610caa565b9550506101406110948a828b0161101d565b9450506101606110a68a828b0161101d565b93505061018088013567ffffffffffffffff8111156110c8576110c7610be3565b5b6110d48a828b01610cd8565b925092505092959891949750929550565b6110ee81610f80565b82525050565b60006040820190506111096000830185610de4565b61111660208301846110e5565b9392505050565b6000806020838503121561113457611133610bde565b5b600083013567ffffffffffffffff81111561115257611151610be3565b5b61115e85828601610cd8565b92509250509250929050565b600081519050919050565b600082825260208201905092915050565b60005b838110156111a4578082015181840152602081019050611189565b60008484015250505050565b6000601f19601f8301169050919050565b60006111cc8261116a565b6111d68185611175565b93506111e6818560208601611186565b6111ef816111b0565b840191505092915050565b6000602082019050818103600083015261121481846111c1565b905092915050565b60008160020b9050919050565b6112328161121c565b811461123d57600080fd5b50565b60008135905061124f81611229565b92915050565b600080600080600080610120878903121561127357611272610bde565b5b600061128189828a01610c55565b965050602061129289828a01610bed565b95505060c06112a389828a01610e25565b94505060e06112b489828a01611240565b93505061010087013567ffffffffffffffff8111156112d6576112d5610be3565b5b6112e289828a01610cd8565b92509250509295509295509295565b600080600080600080610160878903121561130f5761130e610bde565b5b600061131d89828a01610c55565b965050602061132e89828a01610bed565b95505060c061133f89828a01610ec3565b94505061012061135189828a0161101d565b93505061014087013567ffffffffffffffff81111561137357611372610be3565b5b61137f89828a01610cd8565b92509250509295509295509295565b600081600f0b9050919050565b6113a48161138e565b82525050565b60006040820190506113bf6000830185610de4565b6113cc602083018461139b565b9392505050565b6000819050919050565b6113e6816113d3565b81146113f157600080fd5b50565b600081359050611403816113dd565b92915050565b60006020828403121561141f5761141e610bde565b5b600061142d848285016113f4565b91505092915050565b61143f81610c2c565b82525050565b600060408201905061145a6000830185611436565b6114676020830184611436565b9392505050565b6000819050919050565b6114818161146e565b811461148c57600080fd5b50565b60008135905061149e81611478565b92915050565b60008060008060008061012087890312156114c2576114c1610bde565b5b60006114d089828a01610c55565b96505060206114e189828a01610bed565b95505060c06114f289828a0161148f565b94505060e061150389828a0161148f565b93505061010087013567ffffffffffffffff81111561152557611524610be3565b5b61153189828a01610cd8565b92509250509295509295509295565b60008115159050919050565b61155581611540565b82525050565b6101c082016000820151611572600085018261154c565b506020820151611585602085018261154c565b506040820151611598604085018261154c565b5060608201516115ab606085018261154c565b5060808201516115be608085018261154c565b5060a08201516115d160a085018261154c565b5060c08201516115e460c085018261154c565b5060e08201516115f760e085018261154c565b5061010082015161160c61010085018261154c565b5061012082015161162161012085018261154c565b5061014082015161163661014085018261154c565b5061016082015161164b61016085018261154c565b5061018082015161166061018085018261154c565b506101a08201516116756101a085018261154c565b50505050565b60006101c082019050611691600083018461155b565b92915050565b60006116b26116ad6116a884610c0c565b610f76565b610c0c565b9050919050565b60006116c482611697565b9050919050565b60006116d6826116b9565b9050919050565b6116e6816116cb565b82525050565b600060208201905061170160008301846116dd565b92915050565b600080fd5b7f4e487b7100000000000000000000000000000000000000000000000000000000600052604160045260246000fd5b611744826111b0565b810181811067ffffffffffffffff821117156117635761176261170c565b5b80604052505050565b6000611776610bd4565b9050611782828261173b565b919050565b61179081610c2c565b811461179b57600080fd5b50565b6000813590506117ad81611787565b92915050565b6117bc81610fb1565b81146117c757600080fd5b50565b6000813590506117d9816117b3565b92915050565b60006117ea82610c2c565b9050919050565b6117fa816117df565b811461180557600080fd5b50565b600081359050611817816117f1565b92915050565b600060a0828403121561183357611832611707565b5b61183d60a061176c565b9050600061184d8482850161179e565b60008301525060206118618482850161179e565b6020830152506040611875848285016117ca565b604083015250606061188984828501611240565b606083015250608061189d84828501611808565b60808301525092915050565b600060a082840312156118bf576118be610bde565b5b60006118cd8482850161181d565b91505092915050565b60006020820190506118eb6000830184611436565b92915050565b60008151905061190081611478565b92915050565b60006020828403121561191c5761191b610bde565b5b600061192a848285016118f1565b91505092915050565b600082825260208201905092915050565b7f537761702064656e6965643a2073656e64657220686173207a65726f20746f6b60008201527f656e2062616c616e636500000000000000000000000000000000000000000000602082015250565b60006119a0602a83611933565b91506119ab82611944565b604082019050919050565b600060208201905081810360008301526119cf81611993565b9050919050565b60006119e182610c0c565b9050919050565b6119f1816119d6565b81146119fc57600080fd5b50565b600081359050611a0e816119e8565b92915050565b600060208284031215611a2a57611a29610bde565b5b6000611a38848285016119ff565b91505092915050565b600081905092915050565b82818337600083830152505050565b6000611a678385611a41565b9350611a74838584611a4c565b82840190509392505050565b6000611a8d828486611a5b565b9150819050939250505056fea2646970667358221220a93e8d964fbca094da296bd1593da23bdb1613665051c877c1733d385d3cdd3564736f6c634300081b0033",
  "linkReferences": {},
  "deployedLinkReferences": {}
}