{"src/TokenRewardsOnSwap.sol":{"TokenRewardsOnSwap":{"abi":[{"inputs":[{"internalType":"contract IPoolManager","name":"_poolManager","type":"address"}],"stateMutability":"nonpayable","type":"constructor"},{"inputs":[],"name":"HookNotImplemented","type":"error"},{"inputs":[],"name":"InvalidPool","type":"error"},{"inputs":[],"name":"LockFailure","type":"error"},{"inputs":[],"name":"NotPoolManager","type":"error"},{"inputs":[],"name":"NotSelf","type":"error"},{"inputs":[],"name":"UNIVERSAL_ROUTER","outputs":[{"internalType":"address","name":"","type":"address"}],"stateMutability":"view","type":"function"},{"inputs":[{"internalType":"address","name":"","type":"address"},{"components":[{"internalType":"Currency","name":"currency0","type":"address"},{"internalType":"Currency","name":"currency1","type":"address"},{"internalType":"uint24","name":"fee","type":"uint24"},{"internalType":"int24","name":"tickSpacing","type":"int24"},{"internalType":"contract IHooks","name":"hooks","type":"address"}],"internalType":"struct PoolKey","name":"","type":"tuple"},{"components":[{"internalType":"int24","name":"tickLower","type":"int24"},{"internalType":"int24","name":"tickUpper","type":"int24"},{"internalType":"int256","name":"liquidityDelta","type":"int256"},{"internalType":"bytes32","name":"salt","type":"bytes32"}],"internalType":"struct IPoolManager.ModifyLiquidityParams","name":"","type":"tuple"},{"internalType":"BalanceDelta","name":"","type":"int256"},{"internalType":"BalanceDelta","name":"","type":"int256"},{"internalType":"bytes","name":"","type":"bytes"}],"name":"afterAddLiquidity","outputs":[{"internalType":"bytes4","name":"","type":"bytes4"},{"internalType":"BalanceDelta","name":"","type":"int256"}],"stateMutability":"nonpayable","type":"function"},{"inputs":[{"internalType":"address","name":"","type":"address"},{"components":[{"internalType":"Currency","name":"currency0","type":"address"},{"internalType":"Currency","name":"currency1","type":"address"},{"internalType":"uint24","name":"fee","type":"uint24"},{"internalType":"int24","name":"tickSpacing","type":"int24"},{"internalType":"contract IHooks","name":"hooks","type":"address"}],"internalType":"struct PoolKey","name":"","type":"tuple"},{"internalType":"uint256","name":"","type":"uint256"},{"internalType":"uint256","name":"","type":"uint256"},{"internalType":"bytes","name":"","type":"bytes"}],"name":"afterDonate","outputs":[{"internalType":"bytes4","name":"","type":"bytes4"}],"stateMutability":"nonpayable","type":"function"},{"inputs":[{"internalType":"address","name":"sender","type":"address"},{"components":[{"internalType":"Currency","name":"currency0","type":"address"},{"internalType":"Currency","name":"currency1","type":"address"},{"internalType":"uint24","name":"fee","type":"uint24"},{"internalType":"int24","name":"tickSpacing","type":"int24"},{"internalType":"contract IHooks","name":"hooks","type":"address"}],"internalType":"struct PoolKey","name":"key","type":"tuple"},{"internalType":"uint160","name":"","type":"uint160"},{"internalType":"int24","name":"","type":"int24"},{"internalType":"bytes","name":"hookData","type":"bytes"}],"name":"afterInitialize","outputs":[{"internalType":"bytes4","name":"","type":"bytes4"}],"stateMutability":"nonpayable","type":"function"},{"inputs":[{"internalType":"address","name":"","type":"address"},{"components":[{"internalType":"Currency","name":"currency0","type":"address"},{"internalType":"Currency","name":"currency1","type":"address"},{"internalType":"uint24","name":"fee","type":"uint24"},{"internalType":"int24","name":"tickSpacing","type":"int24"},{"internalType":"contract IHooks","name":"hooks","type":"address"}],"internalType":"struct PoolKey","name":"","type":"tuple"},{"components":[{"internalType":"int24","name":"tickLower","type":"int24"},{"internalType":"int24","name":"tickUpper","type":"int24"},{"internalType":"int256","name":"liquidityDelta","type":"int256"},{"internalType":"bytes32","name":"salt","type":"bytes32"}],"internalType":"struct IPoolManager.ModifyLiquidityParams","name":"","type":"tuple"},{"internalType":"BalanceDelta","name":"","type":"int256"},{"internalType":"BalanceDelta","name":"","type":"int256"},{"internalType":"bytes","name":"","type":"bytes"}],"name":"afterRemoveLiquidity","outputs":[{"internalType":"bytes4","name":"","type":"bytes4"},{"internalType":"BalanceDelta","name":"","type":"int256"}],"stateMutability":"nonpayable","type":"function"},{"inputs":[{"internalType":"address","name":"sender","type":"address"},{"components":[{"internalType":"Currency","name":"currency0","type":"address"},{"internalType":"Currency","name":"currency1","type":"address"},{"internalType":"uint24","name":"fee","type":"uint24"},{"internalType":"int24","name":"tickSpacing","type":"int24"},{"internalType":"contract IHooks","name":"hooks","type":"address"}],"internalType":"struct PoolKey","name":"key","type":"tuple"},{"components":[{"internalType":"bool","name":"zeroForOne","type":"bool"},{"internalType":"int256","name":"amountSpecified","type":"int256"},{"internalType":"uint160","name":"sqrtPriceLimitX96","type":"uint160"}],"internalType":"struct IPoolManager.SwapParams","name":"","type":"tuple"},{"internalType":"BalanceDelta","name":"delta","type":"int256"},{"internalType":"bytes","name":"","type":"bytes"}],"name":"afterSwap","outputs":[{"internalType":"bytes4","name":"","type":"bytes4"},{"internalType":"int128","name":"","type":"int128"}],"stateMutability":"nonpayable","type":"function"},{"inputs":[{"internalType":"address","name":"","type":"address"},{"components":[{"internalType":"Currency","name":"currency0","type":"address"},{"internalType":"Currency","name":"currency1","type":"address"},{"internalType":"uint24","name":"fee","type":"uint24"},{"internalType":"int24","name":"tickSpacing","type":"int24"},{"internalType":"contract IHooks","name":"hooks","type":"address"}],"internalType":"struct PoolKey","name":"","type":"tuple"},{"components":[{"internalType":"int24","name":"tickLower","type":"int24"},{"internalType":"int24","name":"tickUpper","type":"int24"},{"internalType":"int256","name":"liquidityDelta","type":"int256"},{"internalType":"bytes32","name":"salt","type":"bytes32"}],"internalType":"struct IPoolManager.ModifyLiquidityParams","name":"","type":"tuple"},{"internalType":"bytes","name":"","type":"bytes"}],"name":"beforeAddLiquidity","outputs":[{"internalType":"bytes4","name":"","type":"bytes4"}],"stateMutability":"nonpayable","type":"function"},{"inputs":[{"internalType":"address","name":"","type":"address"},{"components":[{"internalType":"Currency","name":"currency0","type":"address"},{"internalType":"Currency","name":"currency1","type":"address"},{"internalType":"uint24","name":"fee","type":"uint24"},{"internalType":"int24","name":"tickSpacing","type":"int24"},{"internalType":"contract IHooks","name":"hooks","type":"address"}],"internalType":"struct PoolKey","name":"","type":"tuple"},{"internalType":"uint256","name":"","type":"uint256"},{"internalType":"uint256","name":"","type":"uint256"},{"internalType":"bytes","name":"","type":"bytes"}],"name":"beforeDonate","outputs":[{"internalType":"bytes4","name":"","type":"bytes4"}],"stateMutability":"nonpayable","type":"function"},{"inputs":[{"internalType":"address","name":"","type":"address"},{"components":[{"internalType":"Currency","name":"currency0","type":"address"},{"internalType":"Currency","name":"currency1","type":"address"},{"internalType":"uint24","name":"fee","type":"uint24"},{"internalType":"int24","name":"tickSpacing","type":"int24"},{"internalType":"contract IHooks","name":"hooks","type":"address"}],"internalType":"struct PoolKey","name":"","type":"tuple"},{"internalType":"uint160","name":"","type":"uint160"},{"internalType":"bytes","name":"","type":"bytes"}],"name":"beforeInitialize","outputs":[{"internalType":"bytes4","name":"","type":"bytes4"}],"stateMutability":"nonpayable","type":"function"},{"inputs":[{"internalType":"address","name":"","type":"address"},{"components":[{"internalType":"Currency","name":"currency0","type":"address"},{"internalType":"Currency","name":"currency1","type":"address"},{"internalType":"uint24","name":"fee","type":"uint24"},{"internalType":"int24","name":"tickSpacing","type":"int24"},{"internalType":"contract IHooks","name":"hooks","type":"address"}],"internalType":"struct PoolKey","name":"","type":"tuple"},{"components":[{"internalType":"int24","name":"tickLower","type":"int24"},{"internalType":"int24","name":"tickUpper","type":"int24"},{"internalType":"int256","name":"liquidityDelta","type":"int256"},{"internalType":"bytes32","name":"salt","type":"bytes32"}],"internalType":"struct IPoolManager.ModifyLiquidityParams","name":"","type":"tuple"},{"internalType":"bytes","name":"","type":"bytes"}],"name":"beforeRemoveLiquidity","outputs":[{"internalType":"bytes4","name":"","type":"bytes4"}],"stateMutability":"nonpayable","type":"function"},{"inputs":[{"internalType":"address","name":"","type":"address"},{"components":[{"internalType":"Currency","name":"currency0","type":"address"},{"internalType":"Currency","name":"currency1","type":"address"},{"internalType":"uint24","name":"fee","type":"uint24"},{"internalType":"int24","name":"tickSpacing","type":"int24"},{"internalType":"contract IHooks","name":"hooks","type":"address"}],"internalType":"struct PoolKey","name":"","type":"tuple"},{"components":[{"internalType":"bool","name":"zeroForOne","type":"bool"},{"internalType":"int256","name":"amountSpecified","type":"int256"},{"internalType":"uint160","name":"sqrtPriceLimitX96","type":"uint160"}],"internalType":"struct IPoolManager.SwapParams","name":"","type":"tuple"},{"internalType":"bytes","name":"","type":"bytes"}],"name":"beforeSwap","outputs":[{"internalType":"bytes4","name":"","type":"bytes4"},{"internalType":"BeforeSwapDelta","name":"","type":"int256"},{"internalType":"uint24","name":"","type":"uint24"}],"stateMutability":"nonpayable","type":"function"},{"inputs":[],"name":"getHookPermissions","outputs":[{"components":[{"internalType":"bool","name":"beforeInitialize","type":"bool"},{"internalType":"bool","name":"afterInitialize","type":"bool"},{"internalType":"bool","name":"beforeAddLiquidity","type":"bool"},{"internalType":"bool","name":"afterAddLiquidity","type":"bool"},{"internalType":"bool","name":"beforeRemoveLiquidity","type":"bool"},{"internalType":"bool","name":"afterRemoveLiquidity","type":"bool"},{"internalType":"bool","name":"beforeSwap","type":"bool"},{"internalType":"bool","name":"afterSwap","type":"bool"},{"internalType":"bool","name":"beforeDonate","type":"bool"},{"internalType":"bool","name":"afterDonate","type":"bool"},{"internalType":"bool","name":"beforeSwapReturnDelta","type":"bool"},{"internalType":"bool","name":"afterSwapReturnDelta","type":"bool"},{"internalType":"bool","name":"afterAddLiquidityReturnDelta","type":"bool"},{"internalType":"bool","name":"afterRemoveLiquidityReturnDelta","type":"bool"}],"internalType":"struct Hooks.Permissions","name":"","type":"tuple"}],"stateMutability":"pure","type":"function"},{"inputs":[{"internalType":"address","name":"","type":"address"}],"name":"getMsgSender","outputs":[{"internalType":"address","name":"","type":"address"}],"stateMutability":"view","type":"function"},{"inputs":[],"name":"poolManager","outputs":[{"internalType":"contract IPoolManager","name":"","type":"address"}],"stateMutability":"view","type":"function"},{"inputs":[{"internalType":"PoolId","name":"","type":"bytes32"}],"name":"pools","outputs":[{"internalType":"address","name":"tokenAddress","type":"address"},{"internalType":"address","name":"owner","type":"address"},{"internalType":"address","name":"vault","type":"address"},{"internalType":"uint256","name":"minSwapAmount","type":"uint256"},{"internalType":"uint256","name":"rewardTokenAmount","type":"uint256"}],"stateMutability":"view","type":"function"},{"inputs":[{"components":[{"internalType":"Currency","name":"currency0","type":"address"},{"internalType":"Currency","name":"currency1","type":"address"},{"internalType":"uint24","name":"fee","type":"uint24"},{"internalType":"int24","name":"tickSpacing","type":"int24"},{"internalType":"contract IHooks","name":"hooks","type":"address"}],"internalType":"struct PoolKey","name":"key","type":"tuple"},{"internalType":"address","name":"_tokenAddress","type":"address"},{"internalType":"address","name":"__rewardsTokenStockAddress","type":"address"},{"internalType":"int24","name":"_minimumQualificationAmount","type":"int24"},{"internalType":"int24","name":"_rewardTokenAmount","type":"int24"}],"name":"setPoolConfig","outputs":[],"stateMutability":"nonpayable","type":"function"},{"inputs":[{"internalType":"bytes","name":"data","type":"bytes"}],"name":"unlockCallback","outputs":[{"internalType":"bytes","name":"","type":"bytes"}],"stateMutability":"nonpayable","type":"function"}],"evm":{"bytecode":{"linkReferences":{},"object":"60a0604052731c7d4b196cb0c7b01d743fbc6116a902379c72386000806101000a81548173ffffffffffffffffffffffffffffffffffffffff021916908373ffffffffffffffffffffffffffffffffffffffff16021790555034801561006457600080fd5b5060405161288238038061288283398181016040528101906100869190610664565b8080808073ffffffffffffffffffffffffffffffffffffffff1660808173ffffffffffffffffffffffffffffffffffffffff168152505050506100ce306100d560201b60201c565b5050610691565b6100f2816100e76100f560201b60201c565b61018a60201b60201c565b50565b6100fd610564565b604051806101c0016040528060001515815260200160011515815260200160001515815260200160001515815260200160001515815260200160001515815260200160001515815260200160011515815260200160001515815260200160001515815260200160001515815260200160001515815260200160001515815260200160001515815250905090565b6101b56120008373ffffffffffffffffffffffffffffffffffffffff1661051a60201b90919060201c565b1515816000015115151415806101fd57506101f16110008373ffffffffffffffffffffffffffffffffffffffff1661051a60201b90919060201c565b15158160200151151514155b8061023a575061022e6108008373ffffffffffffffffffffffffffffffffffffffff1661051a60201b90919060201c565b15158160400151151514155b80610277575061026b6104008373ffffffffffffffffffffffffffffffffffffffff1661051a60201b90919060201c565b15158160600151151514155b806102b457506102a86102008373ffffffffffffffffffffffffffffffffffffffff1661051a60201b90919060201c565b15158160800151151514155b806102f157506102e56101008373ffffffffffffffffffffffffffffffffffffffff1661051a60201b90919060201c565b15158160a00151151514155b8061032d575061032160808373ffffffffffffffffffffffffffffffffffffffff1661051a60201b90919060201c565b15158160c00151151514155b80610369575061035d60408373ffffffffffffffffffffffffffffffffffffffff1661051a60201b90919060201c565b15158160e00151151514155b806103a6575061039960208373ffffffffffffffffffffffffffffffffffffffff1661051a60201b90919060201c565b1515816101000151151514155b806103e357506103d660108373ffffffffffffffffffffffffffffffffffffffff1661051a60201b90919060201c565b1515816101200151151514155b80610420575061041360088373ffffffffffffffffffffffffffffffffffffffff1661051a60201b90919060201c565b1515816101400151151514155b8061045d575061045060048373ffffffffffffffffffffffffffffffffffffffff1661051a60201b90919060201c565b1515816101600151151514155b8061049a575061048d60028373ffffffffffffffffffffffffffffffffffffffff1661051a60201b90919060201c565b1515816101800151151514155b806104d757506104ca60018373ffffffffffffffffffffffffffffffffffffffff1661051a60201b90919060201c565b1515816101a00151151514155b15610516576105158263e65af6a060e01b7bffffffffffffffffffffffffffffffffffffffffffffffffffffffff191661054060201b90919060201c565b5b5050565b60008082841673ffffffffffffffffffffffffffffffffffffffff161415905092915050565b8160005273ffffffffffffffffffffffffffffffffffffffff811660045260246000fd5b604051806101c001604052806000151581526020016000151581526020016000151581526020016000151581526020016000151581526020016000151581526020016000151581526020016000151581526020016000151581526020016000151581526020016000151581526020016000151581526020016000151581526020016000151581525090565b600080fd5b600073ffffffffffffffffffffffffffffffffffffffff82169050919050565b600061061f826105f4565b9050919050565b600061063182610614565b9050919050565b61064181610626565b811461064c57600080fd5b50565b60008151905061065e81610638565b92915050565b60006020828403121561067a576106796105ef565b5b60006106888482850161064f565b91505092915050565b6080516121cf6106b3600039600081816106a80152610e0701526121cf6000f3fe608060405234801561001057600080fd5b506004361061010b5760003560e01c80639f063efc116100a2578063b6a8b0fa11610071578063b6a8b0fa14610345578063c4e833ce14610375578063dc4c90d314610393578063e1b4af69146103b1578063e8dd7fc3146103e15761010b565b80639f063efc1461027f578063a910f80f146102b0578063b47b2fb1146102e0578063b5217bb4146103115761010b565b8063575e24b4116100de578063575e24b4146101d05780636c2bbe7e1461020257806370d00e6d1461023357806391dd73461461024f5761010b565b806321d0ee7014610110578063259982e5146101405780632867b3ca146101705780633440d820146101a0575b600080fd5b61012a60048036038101906101259190611144565b6103ff565b6040516101379190611209565b60405180910390f35b61015a60048036038101906101559190611144565b610433565b6040516101679190611209565b60405180910390f35b61018a60048036038101906101859190611224565b610467565b6040516101979190611260565b60405180910390f35b6101ba60048036038101906101b591906112a7565b6104f3565b6040516101c79190611209565b60405180910390f35b6101ea60048036038101906101e5919061134f565b610527565b6040516101f99392919061143c565b60405180910390f35b61021c6004803603810190610217919061149f565b61055e565b60405161022a929190611561565b60405180910390f35b61024d600480360381019061024891906115c3565b610593565b005b61026960048036038101906102649190611640565b6106a4565b604051610276919061171d565b60405180910390f35b6102996004803603810190610294919061149f565b61073d565b6040516102a7929190611561565b60405180910390f35b6102ca60048036038101906102c5919061173f565b610772565b6040516102d79190611209565b60405180910390f35b6102fa60048036038101906102f591906117db565b61094e565b604051610308929190611894565b60405180910390f35b61032b600480360381019061032691906118f3565b610ca6565b60405161033c959493929190611939565b60405180910390f35b61035f600480360381019061035a91906119b8565b610d3c565b60405161036c9190611209565b60405180910390f35b61037d610d70565b60405161038a9190611b8f565b60405180910390f35b61039b610e05565b6040516103a89190611c00565b60405180910390f35b6103cb60048036038101906103c691906119b8565b610e29565b6040516103d89190611209565b60405180910390f35b6103e9610e5d565b6040516103f69190611260565b60405180910390f35b60006040517f0a85dc2900000000000000000000000000000000000000000000000000000000815260040160405180910390fd5b60006040517f0a85dc2900000000000000000000000000000000000000000000000000000000815260040160405180910390fd5b60007395273d871c8156636e114b63797d78d7e1720d8173ffffffffffffffffffffffffffffffffffffffff1663d737d0c76040518163ffffffff1660e01b8152600401602060405180830381865afa1580156104c8573d6000803e3d6000fd5b505050506040513d601f19601f820116820180604052508101906104ec9190611c30565b9050919050565b60006040517f0a85dc2900000000000000000000000000000000000000000000000000000000815260040160405180910390fd5b60008060006040517f0a85dc2900000000000000000000000000000000000000000000000000000000815260040160405180910390fd5b6000806040517f0a85dc2900000000000000000000000000000000000000000000000000000000815260040160405180910390fd5b60006105ae868036038101906105a99190611dff565b610e75565b9050846001600083815260200190815260200160002060000160006101000a81548173ffffffffffffffffffffffffffffffffffffffff021916908373ffffffffffffffffffffffffffffffffffffffff160217905550836001600083815260200190815260200160002060020160006101000a81548173ffffffffffffffffffffffffffffffffffffffff021916908373ffffffffffffffffffffffffffffffffffffffff1602179055508260020b600f0b60016000838152602001908152602001600020600301819055508160020b600f0b6001600083815260200190815260200160002060040181905550505050505050565b60607f000000000000000000000000000000000000000000000000000000000000000073ffffffffffffffffffffffffffffffffffffffff163373ffffffffffffffffffffffffffffffffffffffff161461072b576040517fae18210a00000000000000000000000000000000000000000000000000000000815260040160405180910390fd5b6107358383610e82565b905092915050565b6000806040517f0a85dc2900000000000000000000000000000000000000000000000000000000815260040160405180910390fd5b60008061077e88610467565b905060008060008087878101906107959190611e6a565b935093509350935060006040518060a001604052808673ffffffffffffffffffffffffffffffffffffffff1681526020018773ffffffffffffffffffffffffffffffffffffffff1681526020018573ffffffffffffffffffffffffffffffffffffffff1681526020018460020b600f0b81526020018360020b600f0b815250905060006108318d80360381019061082c9190611dff565b610e75565b9050816001600083815260200190815260200160002060008201518160000160006101000a81548173ffffffffffffffffffffffffffffffffffffffff021916908373ffffffffffffffffffffffffffffffffffffffff16021790555060208201518160010160006101000a81548173ffffffffffffffffffffffffffffffffffffffff021916908373ffffffffffffffffffffffffffffffffffffffff16021790555060408201518160020160006101000a81548173ffffffffffffffffffffffffffffffffffffffff021916908373ffffffffffffffffffffffffffffffffffffffff160217905550606082015181600301556080820151816004015590505063a910f80f60e01b9750505050505050509695505050505050565b600080600061095c89610467565b90506000610979898036038101906109749190611dff565b610e75565b90506000600160008381526020019081526020016000206040518060a00160405290816000820160009054906101000a900473ffffffffffffffffffffffffffffffffffffffff1673ffffffffffffffffffffffffffffffffffffffff1673ffffffffffffffffffffffffffffffffffffffff1681526020016001820160009054906101000a900473ffffffffffffffffffffffffffffffffffffffff1673ffffffffffffffffffffffffffffffffffffffff1673ffffffffffffffffffffffffffffffffffffffff1681526020016002820160009054906101000a900473ffffffffffffffffffffffffffffffffffffffff1673ffffffffffffffffffffffffffffffffffffffff1673ffffffffffffffffffffffffffffffffffffffff16815260200160038201548152602001600482015481525050905060008160000151905060008173ffffffffffffffffffffffffffffffffffffffff166370a08231866040518263ffffffff1660e01b8152600401610af79190611260565b602060405180830381865afa158015610b14573d6000803e3d6000fd5b505050506040513d601f19601f82011682018060405250810190610b389190611ee6565b905060008111610b7d576040517f08c379a0000000000000000000000000000000000000000000000000000000008152600401610b7490611f96565b60405180910390fd5b6000610b888b610f4e565b905083606001518110610c845760008060009054906101000a900473ffffffffffffffffffffffffffffffffffffffff1690508073ffffffffffffffffffffffffffffffffffffffff166323b872dd86604001518988608001516040518463ffffffff1660e01b8152600401610c0093929190611fb6565b6020604051808303816000875af1158015610c1f573d6000803e3d6000fd5b505050506040513d601f19601f82011682018060405250810190610c439190612019565b610c82576040517f08c379a0000000000000000000000000000000000000000000000000000000008152600401610c7990612092565b60405180910390fd5b505b63b47b2fb160e01b846080015197509750505050505050965096945050505050565b60016020528060005260406000206000915090508060000160009054906101000a900473ffffffffffffffffffffffffffffffffffffffff16908060010160009054906101000a900473ffffffffffffffffffffffffffffffffffffffff16908060020160009054906101000a900473ffffffffffffffffffffffffffffffffffffffff16908060030154908060040154905085565b60006040517f0a85dc2900000000000000000000000000000000000000000000000000000000815260040160405180910390fd5b610d78610f9f565b604051806101c0016040528060001515815260200160011515815260200160001515815260200160001515815260200160001515815260200160001515815260200160001515815260200160011515815260200160001515815260200160001515815260200160001515815260200160001515815260200160001515815260200160001515815250905090565b7f000000000000000000000000000000000000000000000000000000000000000081565b60006040517f0a85dc2900000000000000000000000000000000000000000000000000000000815260040160405180910390fd5b7395273d871c8156636e114b63797d78d7e1720d8181565b600060a082209050919050565b60606000803073ffffffffffffffffffffffffffffffffffffffff168585604051610eae9291906120f1565b6000604051808303816000865af19150503d8060008114610eeb576040519150601f19603f3d011682016040523d82523d6000602084013e610ef0565b606091505b50915091508115610f05578092505050610f48565b6000815103610f40576040517fa40afa3800000000000000000000000000000000000000000000000000000000815260040160405180910390fd5b805160208201fd5b92915050565b6000610f5982610f85565b610f6283610f92565b610f6c9190612155565b6fffffffffffffffffffffffffffffffff169050919050565b600081600f0b9050919050565b60008160801d9050919050565b604051806101c001604052806000151581526020016000151581526020016000151581526020016000151581526020016000151581526020016000151581526020016000151581526020016000151581526020016000151581526020016000151581526020016000151581526020016000151581526020016000151581526020016000151581525090565b6000604051905090565b600080fd5b600080fd5b600073ffffffffffffffffffffffffffffffffffffffff82169050919050565b60006110698261103e565b9050919050565b6110798161105e565b811461108457600080fd5b50565b60008135905061109681611070565b92915050565b600080fd5b600060a082840312156110b7576110b661109c565b5b81905092915050565b6000608082840312156110d6576110d561109c565b5b81905092915050565b600080fd5b600080fd5b600080fd5b60008083601f840112611104576111036110df565b5b8235905067ffffffffffffffff811115611121576111206110e4565b5b60208301915083600182028301111561113d5761113c6110e9565b5b9250929050565b6000806000806000610160868803121561116157611160611034565b5b600061116f88828901611087565b9550506020611180888289016110a1565b94505060c0611191888289016110c0565b93505061014086013567ffffffffffffffff8111156111b3576111b2611039565b5b6111bf888289016110ee565b92509250509295509295909350565b60007fffffffff0000000000000000000000000000000000000000000000000000000082169050919050565b611203816111ce565b82525050565b600060208201905061121e60008301846111fa565b92915050565b60006020828403121561123a57611239611034565b5b600061124884828501611087565b91505092915050565b61125a8161105e565b82525050565b60006020820190506112756000830184611251565b92915050565b6112848161103e565b811461128f57600080fd5b50565b6000813590506112a18161127b565b92915050565b600080600080600061010086880312156112c4576112c3611034565b5b60006112d288828901611087565b95505060206112e3888289016110a1565b94505060c06112f488828901611292565b93505060e086013567ffffffffffffffff81111561131557611314611039565b5b611321888289016110ee565b92509250509295509295909350565b6000606082840312156113465761134561109c565b5b81905092915050565b6000806000806000610140868803121561136c5761136b611034565b5b600061137a88828901611087565b955050602061138b888289016110a1565b94505060c061139c88828901611330565b93505061012086013567ffffffffffffffff8111156113be576113bd611039565b5b6113ca888289016110ee565b92509250509295509295909350565b6000819050919050565b6000819050919050565b60006114086114036113fe846113d9565b6113e3565b6113d9565b9050919050565b611418816113ed565b82525050565b600062ffffff82169050919050565b6114368161141e565b82525050565b600060608201905061145160008301866111fa565b61145e602083018561140f565b61146b604083018461142d565b949350505050565b61147c816113d9565b811461148757600080fd5b50565b60008135905061149981611473565b92915050565b60008060008060008060006101a0888a0312156114bf576114be611034565b5b60006114cd8a828b01611087565b97505060206114de8a828b016110a1565b96505060c06114ef8a828b016110c0565b9550506101406115018a828b0161148a565b9450506101606115138a828b0161148a565b93505061018088013567ffffffffffffffff81111561153557611534611039565b5b6115418a828b016110ee565b925092505092959891949750929550565b61155b816113ed565b82525050565b600060408201905061157660008301856111fa565b6115836020830184611552565b9392505050565b60008160020b9050919050565b6115a08161158a565b81146115ab57600080fd5b50565b6000813590506115bd81611597565b92915050565b600080600080600061012086880312156115e0576115df611034565b5b60006115ee888289016110a1565b95505060a06115ff88828901611087565b94505060c061161088828901611087565b93505060e0611621888289016115ae565b925050610100611633888289016115ae565b9150509295509295909350565b6000806020838503121561165757611656611034565b5b600083013567ffffffffffffffff81111561167557611674611039565b5b611681858286016110ee565b92509250509250929050565b600081519050919050565b600082825260208201905092915050565b60005b838110156116c75780820151818401526020810190506116ac565b60008484015250505050565b6000601f19601f8301169050919050565b60006116ef8261168d565b6116f98185611698565b93506117098185602086016116a9565b611712816116d3565b840191505092915050565b6000602082019050818103600083015261173781846116e4565b905092915050565b600080600080600080610120878903121561175d5761175c611034565b5b600061176b89828a01611087565b965050602061177c89828a016110a1565b95505060c061178d89828a01611292565b94505060e061179e89828a016115ae565b93505061010087013567ffffffffffffffff8111156117c0576117bf611039565b5b6117cc89828a016110ee565b92509250509295509295509295565b60008060008060008061016087890312156117f9576117f8611034565b5b600061180789828a01611087565b965050602061181889828a016110a1565b95505060c061182989828a01611330565b94505061012061183b89828a0161148a565b93505061014087013567ffffffffffffffff81111561185d5761185c611039565b5b61186989828a016110ee565b92509250509295509295509295565b600081600f0b9050919050565b61188e81611878565b82525050565b60006040820190506118a960008301856111fa565b6118b66020830184611885565b9392505050565b6000819050919050565b6118d0816118bd565b81146118db57600080fd5b50565b6000813590506118ed816118c7565b92915050565b60006020828403121561190957611908611034565b5b6000611917848285016118de565b91505092915050565b6000819050919050565b61193381611920565b82525050565b600060a08201905061194e6000830188611251565b61195b6020830187611251565b6119686040830186611251565b611975606083018561192a565b611982608083018461192a565b9695505050505050565b61199581611920565b81146119a057600080fd5b50565b6000813590506119b28161198c565b92915050565b60008060008060008061012087890312156119d6576119d5611034565b5b60006119e489828a01611087565b96505060206119f589828a016110a1565b95505060c0611a0689828a016119a3565b94505060e0611a1789828a016119a3565b93505061010087013567ffffffffffffffff811115611a3957611a38611039565b5b611a4589828a016110ee565b92509250509295509295509295565b60008115159050919050565b611a6981611a54565b82525050565b6101c082016000820151611a866000850182611a60565b506020820151611a996020850182611a60565b506040820151611aac6040850182611a60565b506060820151611abf6060850182611a60565b506080820151611ad26080850182611a60565b5060a0820151611ae560a0850182611a60565b5060c0820151611af860c0850182611a60565b5060e0820151611b0b60e0850182611a60565b50610100820151611b20610100850182611a60565b50610120820151611b35610120850182611a60565b50610140820151611b4a610140850182611a60565b50610160820151611b5f610160850182611a60565b50610180820151611b74610180850182611a60565b506101a0820151611b896101a0850182611a60565b50505050565b60006101c082019050611ba56000830184611a6f565b92915050565b6000611bc6611bc1611bbc8461103e565b6113e3565b61103e565b9050919050565b6000611bd882611bab565b9050919050565b6000611bea82611bcd565b9050919050565b611bfa81611bdf565b82525050565b6000602082019050611c156000830184611bf1565b92915050565b600081519050611c2a81611070565b92915050565b600060208284031215611c4657611c45611034565b5b6000611c5484828501611c1b565b91505092915050565b600080fd5b7f4e487b7100000000000000000000000000000000000000000000000000000000600052604160045260246000fd5b611c9a826116d3565b810181811067ffffffffffffffff82111715611cb957611cb8611c62565b5b80604052505050565b6000611ccc61102a565b9050611cd88282611c91565b919050565b611ce68161105e565b8114611cf157600080fd5b50565b600081359050611d0381611cdd565b92915050565b611d128161141e565b8114611d1d57600080fd5b50565b600081359050611d2f81611d09565b92915050565b6000611d408261105e565b9050919050565b611d5081611d35565b8114611d5b57600080fd5b50565b600081359050611d6d81611d47565b92915050565b600060a08284031215611d8957611d88611c5d565b5b611d9360a0611cc2565b90506000611da384828501611cf4565b6000830152506020611db784828501611cf4565b6020830152506040611dcb84828501611d20565b6040830152506060611ddf848285016115ae565b6060830152506080611df384828501611d5e565b60808301525092915050565b600060a08284031215611e1557611e14611034565b5b6000611e2384828501611d73565b91505092915050565b6000611e378261103e565b9050919050565b611e4781611e2c565b8114611e5257600080fd5b50565b600081359050611e6481611e3e565b92915050565b60008060008060808587031215611e8457611e83611034565b5b6000611e9287828801611e55565b9450506020611ea387828801611e55565b9350506040611eb4878288016115ae565b9250506060611ec5878288016115ae565b91505092959194509250565b600081519050611ee08161198c565b92915050565b600060208284031215611efc57611efb611034565b5b6000611f0a84828501611ed1565b91505092915050565b600082825260208201905092915050565b7f537761702064656e6965643a2073656e64657220686173207a65726f20746f6b60008201527f656e2062616c616e636500000000000000000000000000000000000000000000602082015250565b6000611f80602a83611f13565b9150611f8b82611f24565b604082019050919050565b60006020820190508181036000830152611faf81611f73565b9050919050565b6000606082019050611fcb6000830186611251565b611fd86020830185611251565b611fe5604083018461192a565b949350505050565b611ff681611a54565b811461200157600080fd5b50565b60008151905061201381611fed565b92915050565b60006020828403121561202f5761202e611034565b5b600061203d84828501612004565b91505092915050565b7f5553444320726577617264207472616e73666572206661696c65640000000000600082015250565b600061207c601b83611f13565b915061208782612046565b602082019050919050565b600060208201905081810360008301526120ab8161206f565b9050919050565b600081905092915050565b82818337600083830152505050565b60006120d883856120b2565b93506120e58385846120bd565b82840190509392505050565b60006120fe8284866120cc565b91508190509392505050565b60006fffffffffffffffffffffffffffffffff82169050919050565b7f4e487b7100000000000000000000000000000000000000000000000000000000600052601160045260246000fd5b60006121608261210a565b915061216b8361210a565b925082820190506fffffffffffffffffffffffffffffffff81111561219357612192612126565b5b9291505056fea2646970667358221220d80685d34cd1b9e3ad7d0d265ba8595d79acec3e367cc7a14e865e49fe73eab564736f6c634300081b0033","opcodes":"PUSH1 0xA0 PUSH1 0x40 MSTORE PUSH20 0x1C7D4B196CB0C7B01D743FBC6116A902379C7238 PUSH1 0x0 DUP1 PUSH2 0x100 EXP DUP2 SLOAD DUP2 PUSH20 0xFFFFFFFFFFFFFFFFFFFFFFFFFFFFFFFFFFFFFFFF MUL NOT AND SWAP1 DUP4 PUSH20 0xFFFFFFFFFFFFFFFFFFFFFFFFFFFFFFFFFFFFFFFF AND MUL OR SWAP1 SSTORE POP CALLVALUE DUP1 ISZERO PUSH2 0x64 JUMPI PUSH1 0x0 DUP1 REVERT JUMPDEST POP PUSH1 0x40 MLOAD PUSH2 0x2882 CODESIZE SUB DUP1 PUSH2 0x2882 DUP4 CODECOPY DUP2 DUP2 ADD PUSH1 0x40 MSTORE DUP2 ADD SWAP1 PUSH2 0x86 SWAP2 SWAP1 PUSH2 0x664 JUMP JUMPDEST DUP1 DUP1 DUP1 DUP1 PUSH20 0xFFFFFFFFFFFFFFFFFFFFFFFFFFFFFFFFFFFFFFFF AND PUSH1 0x80 DUP2 PUSH20 0xFFFFFFFFFFFFFFFFFFFFFFFFFFFFFFFFFFFFFFFF AND DUP2 MSTORE POP POP POP POP PUSH2 0xCE ADDRESS PUSH2 0xD5 PUSH1 0x20 SHL PUSH1 0x20 SHR JUMP JUMPDEST POP POP PUSH2 0x691 JUMP JUMPDEST PUSH2 0xF2 DUP2 PUSH2 0xE7 PUSH2 0xF5 PUSH1 0x20 SHL PUSH1 0x20 SHR JUMP JUMPDEST PUSH2 0x18A PUSH1 0x20 SHL PUSH1 0x20 SHR JUMP JUMPDEST POP JUMP JUMPDEST PUSH2 0xFD PUSH2 0x564 JUMP JUMPDEST PUSH1 0x40 MLOAD DUP1 PUSH2 0x1C0 ADD PUSH1 0x40 MSTORE DUP1 PUSH1 0x0 ISZERO ISZERO DUP2 MSTORE PUSH1 0x20 ADD PUSH1 0x1 ISZERO ISZERO DUP2 MSTORE PUSH1 0x20 ADD PUSH1 0x0 ISZERO ISZERO DUP2 MSTORE PUSH1 0x20 ADD PUSH1 0x0 ISZERO ISZERO DUP2 MSTORE PUSH1 0x20 ADD PUSH1 0x0 ISZERO ISZERO DUP2 MSTORE PUSH1 0x20 ADD PUSH1 0x0 ISZERO ISZERO DUP2 MSTORE PUSH1 0x20 ADD PUSH1 0x0 ISZERO ISZERO DUP2 MSTORE PUSH1 0x20 ADD PUSH1 0x1 ISZERO ISZERO DUP2 MSTORE PUSH1 0x20 ADD PUSH1 0x0 ISZERO ISZERO DUP2 MSTORE PUSH1 0x20 ADD PUSH1 0x0 ISZERO ISZERO DUP2 MSTORE PUSH1 0x20 ADD PUSH1 0x0 ISZERO ISZERO DUP2 MSTORE PUSH1 0x20 ADD PUSH1 0x0 ISZERO ISZERO DUP2 MSTORE PUSH1 0x20 ADD PUSH1 0x0 ISZERO ISZERO DUP2 MSTORE PUSH1 0x20 ADD PUSH1 0x0 ISZERO ISZERO DUP2 MSTORE POP SWAP1 POP SWAP1 JUMP JUMPDEST PUSH2 0x1B5 PUSH2 0x2000 DUP4 PUSH20 0xFFFFFFFFFFFFFFFFFFFFFFFFFFFFFFFFFFFFFFFF AND PUSH2 0x51A PUSH1 0x20 SHL SWAP1 SWAP2 SWAP1 PUSH1 0x20 SHR JUMP JUMPDEST ISZERO ISZERO DUP2 PUSH1 0x0 ADD MLOAD ISZERO ISZERO EQ ISZERO DUP1 PUSH2 0x1FD JUMPI POP PUSH2 0x1F1 PUSH2 0x1000 DUP4 PUSH20 0xFFFFFFFFFFFFFFFFFFFFFFFFFFFFFFFFFFFFFFFF AND PUSH2 0x51A PUSH1 0x20 SHL SWAP1 SWAP2 SWAP1 PUSH1 0x20 SHR JUMP JUMPDEST ISZERO ISZERO DUP2 PUSH1 0x20 ADD MLOAD ISZERO ISZERO EQ ISZERO JUMPDEST DUP1 PUSH2 0x23A JUMPI POP PUSH2 0x22E PUSH2 0x800 DUP4 PUSH20 0xFFFFFFFFFFFFFFFFFFFFFFFFFFFFFFFFFFFFFFFF AND PUSH2 0x51A PUSH1 0x20 SHL SWAP1 SWAP2 SWAP1 PUSH1 0x20 SHR JUMP JUMPDEST ISZERO ISZERO DUP2 PUSH1 0x40 ADD MLOAD ISZERO ISZERO EQ ISZERO JUMPDEST DUP1 PUSH2 0x277 JUMPI POP PUSH2 0x26B PUSH2 0x400 DUP4 PUSH20 0xFFFFFFFFFFFFFFFFFFFFFFFFFFFFFFFFFFFFFFFF AND PUSH2 0x51A PUSH1 0x20 SHL SWAP1 SWAP2 SWAP1 PUSH1 0x20 SHR JUMP JUMPDEST ISZERO ISZERO DUP2 PUSH1 0x60 ADD MLOAD ISZERO ISZERO EQ ISZERO JUMPDEST DUP1 PUSH2 0x2B4 JUMPI POP PUSH2 0x2A8 PUSH2 0x200 DUP4 PUSH20 0xFFFFFFFFFFFFFFFFFFFFFFFFFFFFFFFFFFFFFFFF AND PUSH2 0x51A PUSH1 0x20 SHL SWAP1 SWAP2 SWAP1 PUSH1 0x20 SHR JUMP JUMPDEST ISZERO ISZERO DUP2 PUSH1 0x80 ADD MLOAD ISZERO ISZERO EQ ISZERO JUMPDEST DUP1 PUSH2 0x2F1 JUMPI POP PUSH2 0x2E5 PUSH2 0x100 DUP4 PUSH20 0xFFFFFFFFFFFFFFFFFFFFFFFFFFFFFFFFFFFFFFFF AND PUSH2 0x51A PUSH1 0x20 SHL SWAP1 SWAP2 SWAP1 PUSH1 0x20 SHR JUMP JUMPDEST ISZERO ISZERO DUP2 PUSH1 0xA0 ADD MLOAD ISZERO ISZERO EQ ISZERO JUMPDEST DUP1 PUSH2 0x32D JUMPI POP PUSH2 0x321 PUSH1 0x80 DUP4 PUSH20 0xFFFFFFFFFFFFFFFFFFFFFFFFFFFFFFFFFFFFFFFF AND PUSH2 0x51A PUSH1 0x20 SHL SWAP1 SWAP2 SWAP1 PUSH1 0x20 SHR JUMP JUMPDEST ISZERO ISZERO DUP2 PUSH1 0xC0 ADD MLOAD ISZERO ISZERO EQ ISZERO JUMPDEST DUP1 PUSH2 0x369 JUMPI POP PUSH2 0x35D PUSH1 0x40 DUP4 PUSH20 0xFFFFFFFFFFFFFFFFFFFFFFFFFFFFFFFFFFFFFFFF AND PUSH2 0x51A PUSH1 0x20 SHL SWAP1 SWAP2 SWAP1 PUSH1 0x20 SHR JUMP JUMPDEST ISZERO ISZERO DUP2 PUSH1 0xE0 ADD MLOAD ISZERO ISZERO EQ ISZERO JUMPDEST DUP1 PUSH2 0x3A6 JUMPI POP PUSH2 0x399 PUSH1 0x20 DUP4 PUSH20 0xFFFFFFFFFFFFFFFFFFFFFFFFFFFFFFFFFFFFFFFF AND PUSH2 0x51A PUSH1 0x20 SHL SWAP1 SWAP2 SWAP1 PUSH1 0x20 SHR JUMP JUMPDEST ISZERO ISZERO DUP2 PUSH2 0x100 ADD MLOAD ISZERO ISZERO EQ ISZERO JUMPDEST DUP1 PUSH2 0x3E3 JUMPI POP PUSH2 0x3D6 PUSH1 0x10 DUP4 PUSH20 0xFFFFFFFFFFFFFFFFFFFFFFFFFFFFFFFFFFFFFFFF AND PUSH2 0x51A PUSH1 0x20 SHL SWAP1 SWAP2 SWAP1 PUSH1 0x20 SHR JUMP JUMPDEST ISZERO ISZERO DUP2 PUSH2 0x120 ADD MLOAD ISZERO ISZERO EQ ISZERO JUMPDEST DUP1 PUSH2 0x420 JUMPI POP PUSH2 0x413 PUSH1 0x8 DUP4 PUSH20 0xFFFFFFFFFFFFFFFFFFFFFFFFFFFFFFFFFFFFFFFF AND PUSH2 0x51A PUSH1 0x20 SHL SWAP1 SWAP2 SWAP1 PUSH1 0x20 SHR JUMP JUMPDEST ISZERO ISZERO DUP2 PUSH2 0x140 ADD MLOAD ISZERO ISZERO EQ ISZERO JUMPDEST DUP1 PUSH2 0x45D JUMPI POP PUSH2 0x450 PUSH1 0x4 DUP4 PUSH20 0xFFFFFFFFFFFFFFFFFFFFFFFFFFFFFFFFFFFFFFFF AND PUSH2 0x51A PUSH1 0x20 SHL SWAP1 SWAP2 SWAP1 PUSH1 0x20 SHR JUMP JUMPDEST ISZERO ISZERO DUP2 PUSH2 0x160 ADD MLOAD ISZERO ISZERO EQ ISZERO JUMPDEST DUP1 PUSH2 0x49A JUMPI POP PUSH2 0x48D PUSH1 0x2 DUP4 PUSH20 0xFFFFFFFFFFFFFFFFFFFFFFFFFFFFFFFFFFFFFFFF AND PUSH2 0x51A PUSH1 0x20 SHL SWAP1 SWAP2 SWAP1 PUSH1 0x20 SHR JUMP JUMPDEST ISZERO ISZERO DUP2 PUSH2 0x180 ADD MLOAD ISZERO ISZERO EQ ISZERO JUMPDEST DUP1 PUSH2 0x4D7 JUMPI POP PUSH2 0x4CA PUSH1 0x1 DUP4 PUSH20 0xFFFFFFFFFFFFFFFFFFFFFFFFFFFFFFFFFFFFFFFF AND PUSH2 0x51A PUSH1 0x20 SHL SWAP1 SWAP2 SWAP1 PUSH1 0x20 SHR JUMP JUMPDEST ISZERO ISZERO DUP2 PUSH2 0x1A0 ADD MLOAD ISZERO ISZERO EQ ISZERO JUMPDEST ISZERO PUSH2 0x516 JUMPI PUSH2 0x515 DUP3 PUSH4 0xE65AF6A0 PUSH1 0xE0 SHL PUSH28 0xFFFFFFFFFFFFFFFFFFFFFFFFFFFFFFFFFFFFFFFFFFFFFFFFFFFFFFFF NOT AND PUSH2 0x540 PUSH1 0x20 SHL SWAP1 SWAP2 SWAP1 PUSH1 0x20 SHR JUMP JUMPDEST JUMPDEST POP POP JUMP JUMPDEST PUSH1 0x0 DUP1 DUP3 DUP5 AND PUSH20 0xFFFFFFFFFFFFFFFFFFFFFFFFFFFFFFFFFFFFFFFF AND EQ ISZERO SWAP1 POP SWAP3 SWAP2 POP POP JUMP JUMPDEST DUP2 PUSH1 0x0 MSTORE PUSH20 0xFFFFFFFFFFFFFFFFFFFFFFFFFFFFFFFFFFFFFFFF DUP2 AND PUSH1 0x4 MSTORE PUSH1 0x24 PUSH1 0x0 REVERT JUMPDEST PUSH1 0x40 MLOAD DUP1 PUSH2 0x1C0 ADD PUSH1 0x40 MSTORE DUP1 PUSH1 0x0 ISZERO ISZERO DUP2 MSTORE PUSH1 0x20 ADD PUSH1 0x0 ISZERO ISZERO DUP2 MSTORE PUSH1 0x20 ADD PUSH1 0x0 ISZERO ISZERO DUP2 MSTORE PUSH1 0x20 ADD PUSH1 0x0 ISZERO ISZERO DUP2 MSTORE PUSH1 0x20 ADD PUSH1 0x0 ISZERO ISZERO DUP2 MSTORE PUSH1 0x20 ADD PUSH1 0x0 ISZERO ISZERO DUP2 MSTORE PUSH1 0x20 ADD PUSH1 0x0 ISZERO ISZERO DUP2 MSTORE PUSH1 0x20 ADD PUSH1 0x0 ISZERO ISZERO DUP2 MSTORE PUSH1 0x20 ADD PUSH1 0x0 ISZERO ISZERO DUP2 MSTORE PUSH1 0x20 ADD PUSH1 0x0 ISZERO ISZERO DUP2 MSTORE PUSH1 0x20 ADD PUSH1 0x0 ISZERO ISZERO DUP2 MSTORE PUSH1 0x20 ADD PUSH1 0x0 ISZERO ISZERO DUP2 MSTORE PUSH1 0x20 ADD PUSH1 0x0 ISZERO ISZERO DUP2 MSTORE PUSH1 0x20 ADD PUSH1 0x0 ISZERO ISZERO DUP2 MSTORE POP SWAP1 JUMP JUMPDEST PUSH1 0x0 DUP1 REVERT JUMPDEST PUSH1 0x0 PUSH20 0xFFFFFFFFFFFFFFFFFFFFFFFFFFFFFFFFFFFFFFFF DUP3 AND SWAP1 POP SWAP2 SWAP1 POP JUMP JUMPDEST PUSH1 0x0 PUSH2 0x61F DUP3 PUSH2 0x5F4 JUMP JUMPDEST SWAP1 POP SWAP2 SWAP1 POP JUMP JUMPDEST PUSH1 0x0 PUSH2 0x631 DUP3 PUSH2 0x614 JUMP JUMPDEST SWAP1 POP SWAP2 SWAP1 POP JUMP JUMPDEST PUSH2 0x641 DUP2 PUSH2 0x626 JUMP JUMPDEST DUP2 EQ PUSH2 0x64C JUMPI PUSH1 0x0 DUP1 REVERT JUMPDEST POP JUMP JUMPDEST PUSH1 0x0 DUP2 MLOAD SWAP1 POP PUSH2 0x65E DUP2 PUSH2 0x638 JUMP JUMPDEST SWAP3 SWAP2 POP POP JUMP JUMPDEST PUSH1 0x0 PUSH1 0x20 DUP3 DUP5 SUB SLT ISZERO PUSH2 0x67A JUMPI PUSH2 0x679 PUSH2 0x5EF JUMP JUMPDEST JUMPDEST PUSH1 0x0 PUSH2 0x688 DUP5 DUP3 DUP6 ADD PUSH2 0x64F JUMP JUMPDEST SWAP2 POP POP SWAP3 SWAP2 POP POP JUMP JUMPDEST PUSH1 0x80 MLOAD PUSH2 0x21CF PUSH2 0x6B3 PUSH1 0x0 CODECOPY PUSH1 0x0 DUP2 DUP2 PUSH2 0x6A8 ADD MSTORE PUSH2 0xE07 ADD MSTORE PUSH2 0x21CF PUSH1 0x0 RETURN INVALID PUSH1 0x80 PUSH1 0x40 MSTORE CALLVALUE DUP1 ISZERO PUSH2 0x10 JUMPI PUSH1 0x0 DUP1 REVERT JUMPDEST POP PUSH1 0x4 CALLDATASIZE LT PUSH2 0x10B JUMPI PUSH1 0x0 CALLDATALOAD PUSH1 0xE0 SHR DUP1 PUSH4 0x9F063EFC GT PUSH2 0xA2 JUMPI DUP1 PUSH4 0xB6A8B0FA GT PUSH2 0x71 JUMPI DUP1 PUSH4 0xB6A8B0FA EQ PUSH2 0x345 JUMPI DUP1 PUSH4 0xC4E833CE EQ PUSH2 0x375 JUMPI DUP1 PUSH4 0xDC4C90D3 EQ PUSH2 0x393 JUMPI DUP1 PUSH4 0xE1B4AF69 EQ PUSH2 0x3B1 JUMPI DUP1 PUSH4 0xE8DD7FC3 EQ PUSH2 0x3E1 JUMPI PUSH2 0x10B JUMP JUMPDEST DUP1 PUSH4 0x9F063EFC EQ PUSH2 0x27F JUMPI DUP1 PUSH4 0xA910F80F EQ PUSH2 0x2B0 JUMPI DUP1 PUSH4 0xB47B2FB1 EQ PUSH2 0x2E0 JUMPI DUP1 PUSH4 0xB5217BB4 EQ PUSH2 0x311 JUMPI PUSH2 0x10B JUMP JUMPDEST DUP1 PUSH4 0x575E24B4 GT PUSH2 0xDE JUMPI DUP1 PUSH4 0x575E24B4 EQ PUSH2 0x1D0 JUMPI DUP1 PUSH4 0x6C2BBE7E EQ PUSH2 0x202 JUMPI DUP1 PUSH4 0x70D00E6D EQ PUSH2 0x233 JUMPI DUP1 PUSH4 0x91DD7346 EQ PUSH2 0x24F JUMPI PUSH2 0x10B JUMP JUMPDEST DUP1 PUSH4 0x21D0EE70 EQ PUSH2 0x110 JUMPI DUP1 PUSH4 0x259982E5 EQ PUSH2 0x140 JUMPI DUP1 PUSH4 0x2867B3CA EQ PUSH2 0x170 JUMPI DUP1 PUSH4 0x3440D820 EQ PUSH2 0x1A0 JUMPI JUMPDEST PUSH1 0x0 DUP1 REVERT JUMPDEST PUSH2 0x12A PUSH1 0x4 DUP1 CALLDATASIZE SUB DUP2 ADD SWAP1 PUSH2 0x125 SWAP2 SWAP1 PUSH2 0x1144 JUMP JUMPDEST PUSH2 0x3FF JUMP JUMPDEST PUSH1 0x40 MLOAD PUSH2 0x137 SWAP2 SWAP1 PUSH2 0x1209 JUMP JUMPDEST PUSH1 0x40 MLOAD DUP1 SWAP2 SUB SWAP1 RETURN JUMPDEST PUSH2 0x15A PUSH1 0x4 DUP1 CALLDATASIZE SUB DUP2 ADD SWAP1 PUSH2 0x155 SWAP2 SWAP1 PUSH2 0x1144 JUMP JUMPDEST PUSH2 0x433 JUMP JUMPDEST PUSH1 0x40 MLOAD PUSH2 0x167 SWAP2 SWAP1 PUSH2 0x1209 JUMP JUMPDEST PUSH1 0x40 MLOAD DUP1 SWAP2 SUB SWAP1 RETURN JUMPDEST PUSH2 0x18A PUSH1 0x4 DUP1 CALLDATASIZE SUB DUP2 ADD SWAP1 PUSH2 0x185 SWAP2 SWAP1 PUSH2 0x1224 JUMP JUMPDEST PUSH2 0x467 JUMP JUMPDEST PUSH1 0x40 MLOAD PUSH2 0x197 SWAP2 SWAP1 PUSH2 0x1260 JUMP JUMPDEST PUSH1 0x40 MLOAD DUP1 SWAP2 SUB SWAP1 RETURN JUMPDEST PUSH2 0x1BA PUSH1 0x4 DUP1 CALLDATASIZE SUB DUP2 ADD SWAP1 PUSH2 0x1B5 SWAP2 SWAP1 PUSH2 0x12A7 JUMP JUMPDEST PUSH2 0x4F3 JUMP JUMPDEST PUSH1 0x40 MLOAD PUSH2 0x1C7 SWAP2 SWAP1 PUSH2 0x1209 JUMP JUMPDEST PUSH1 0x40 MLOAD DUP1 SWAP2 SUB SWAP1 RETURN JUMPDEST PUSH2 0x1EA PUSH1 0x4 DUP1 CALLDATASIZE SUB DUP2 ADD SWAP1 PUSH2 0x1E5 SWAP2 SWAP1 PUSH2 0x134F JUMP JUMPDEST PUSH2 0x527 JUMP JUMPDEST PUSH1 0x40 MLOAD PUSH2 0x1F9 SWAP4 SWAP3 SWAP2 SWAP1 PUSH2 0x143C JUMP JUMPDEST PUSH1 0x40 MLOAD DUP1 SWAP2 SUB SWAP1 RETURN JUMPDEST PUSH2 0x21C PUSH1 0x4 DUP1 CALLDATASIZE SUB DUP2 ADD SWAP1 PUSH2 0x217 SWAP2 SWAP1 PUSH2 0x149F JUMP JUMPDEST PUSH2 0x55E JUMP JUMPDEST PUSH1 0x40 MLOAD PUSH2 0x22A SWAP3 SWAP2 SWAP1 PUSH2 0x1561 JUMP JUMPDEST PUSH1 0x40 MLOAD DUP1 SWAP2 SUB SWAP1 RETURN JUMPDEST PUSH2 0x24D PUSH1 0x4 DUP1 CALLDATASIZE SUB DUP2 ADD SWAP1 PUSH2 0x248 SWAP2 SWAP1 PUSH2 0x15C3 JUMP JUMPDEST PUSH2 0x593 JUMP JUMPDEST STOP JUMPDEST PUSH2 0x269 PUSH1 0x4 DUP1 CALLDATASIZE SUB DUP2 ADD SWAP1 PUSH2 0x264 SWAP2 SWAP1 PUSH2 0x1640 JUMP JUMPDEST PUSH2 0x6A4 JUMP JUMPDEST PUSH1 0x40 MLOAD PUSH2 0x276 SWAP2 SWAP1 PUSH2 0x171D JUMP JUMPDEST PUSH1 0x40 MLOAD DUP1 SWAP2 SUB SWAP1 RETURN JUMPDEST PUSH2 0x299 PUSH1 0x4 DUP1 CALLDATASIZE SUB DUP2 ADD SWAP1 PUSH2 0x294 SWAP2 SWAP1 PUSH2 0x149F JUMP JUMPDEST PUSH2 0x73D JUMP JUMPDEST PUSH1 0x40 MLOAD PUSH2 0x2A7 SWAP3 SWAP2 SWAP1 PUSH2 0x1561 JUMP JUMPDEST PUSH1 0x40 MLOAD DUP1 SWAP2 SUB SWAP1 RETURN JUMPDEST PUSH2 0x2CA PUSH1 0x4 DUP1 CALLDATASIZE SUB DUP2 ADD SWAP1 PUSH2 0x2C5 SWAP2 SWAP1 PUSH2 0x173F JUMP JUMPDEST PUSH2 0x772 JUMP JUMPDEST PUSH1 0x40 MLOAD PUSH2 0x2D7 SWAP2 SWAP1 PUSH2 0x1209 JUMP JUMPDEST PUSH1 0x40 MLOAD DUP1 SWAP2 SUB SWAP1 RETURN JUMPDEST PUSH2 0x2FA PUSH1 0x4 DUP1 CALLDATASIZE SUB DUP2 ADD SWAP1 PUSH2 0x2F5 SWAP2 SWAP1 PUSH2 0x17DB JUMP JUMPDEST PUSH2 0x94E JUMP JUMPDEST PUSH1 0x40 MLOAD PUSH2 0x308 SWAP3 SWAP2 SWAP1 PUSH2 0x1894 JUMP JUMPDEST PUSH1 0x40 MLOAD DUP1 SWAP2 SUB SWAP1 RETURN JUMPDEST PUSH2 0x32B PUSH1 0x4 DUP1 CALLDATASIZE SUB DUP2 ADD SWAP1 PUSH2 0x326 SWAP2 SWAP1 PUSH2 0x18F3 JUMP JUMPDEST PUSH2 0xCA6 JUMP JUMPDEST PUSH1 0x40 MLOAD PUSH2 0x33C SWAP6 SWAP5 SWAP4 SWAP3 SWAP2 SWAP1 PUSH2 0x1939 JUMP JUMPDEST PUSH1 0x40 MLOAD DUP1 SWAP2 SUB SWAP1 RETURN JUMPDEST PUSH2 0x35F PUSH1 0x4 DUP1 CALLDATASIZE SUB DUP2 ADD SWAP1 PUSH2 0x35A SWAP2 SWAP1 PUSH2 0x19B8 JUMP JUMPDEST PUSH2 0xD3C JUMP JUMPDEST PUSH1 0x40 MLOAD PUSH2 0x36C SWAP2 SWAP1 PUSH2 0x1209 JUMP JUMPDEST PUSH1 0x40 MLOAD DUP1 SWAP2 SUB SWAP1 RETURN JUMPDEST PUSH2 0x37D PUSH2 0xD70 JUMP JUMPDEST PUSH1 0x40 MLOAD PUSH2 0x38A SWAP2 SWAP1 PUSH2 0x1B8F JUMP JUMPDEST PUSH1 0x40 MLOAD DUP1 SWAP2 SUB SWAP1 RETURN JUMPDEST PUSH2 0x39B PUSH2 0xE05 JUMP JUMPDEST PUSH1 0x40 MLOAD PUSH2 0x3A8 SWAP2 SWAP1 PUSH2 0x1C00 JUMP JUMPDEST PUSH1 0x40 MLOAD DUP1 SWAP2 SUB SWAP1 RETURN JUMPDEST PUSH2 0x3CB PUSH1 0x4 DUP1 CALLDATASIZE SUB DUP2 ADD SWAP1 PUSH2 0x3C6 SWAP2 SWAP1 PUSH2 0x19B8 JUMP JUMPDEST PUSH2 0xE29 JUMP JUMPDEST PUSH1 0x40 MLOAD PUSH2 0x3D8 SWAP2 SWAP1 PUSH2 0x1209 JUMP JUMPDEST PUSH1 0x40 MLOAD DUP1 SWAP2 SUB SWAP1 RETURN JUMPDEST PUSH2 0x3E9 PUSH2 0xE5D JUMP JUMPDEST PUSH1 0x40 MLOAD PUSH2 0x3F6 SWAP2 SWAP1 PUSH2 0x1260 JUMP JUMPDEST PUSH1 0x40 MLOAD DUP1 SWAP2 SUB SWAP1 RETURN JUMPDEST PUSH1 0x0 PUSH1 0x40 MLOAD PUSH32 0xA85DC2900000000000000000000000000000000000000000000000000000000 DUP2 MSTORE PUSH1 0x4 ADD PUSH1 0x40 MLOAD DUP1 SWAP2 SUB SWAP1 REVERT JUMPDEST PUSH1 0x0 PUSH1 0x40 MLOAD PUSH32 0xA85DC2900000000000000000000000000000000000000000000000000000000 DUP2 MSTORE PUSH1 0x4 ADD PUSH1 0x40 MLOAD DUP1 SWAP2 SUB SWAP1 REVERT JUMPDEST PUSH1 0x0 PUSH20 0x95273D871C8156636E114B63797D78D7E1720D81 PUSH20 0xFFFFFFFFFFFFFFFFFFFFFFFFFFFFFFFFFFFFFFFF AND PUSH4 0xD737D0C7 PUSH1 0x40 MLOAD DUP2 PUSH4 0xFFFFFFFF AND PUSH1 0xE0 SHL DUP2 MSTORE PUSH1 0x4 ADD PUSH1 0x20 PUSH1 0x40 MLOAD DUP1 DUP4 SUB DUP2 DUP7 GAS STATICCALL ISZERO DUP1 ISZERO PUSH2 0x4C8 JUMPI RETURNDATASIZE PUSH1 0x0 DUP1 RETURNDATACOPY RETURNDATASIZE PUSH1 0x0 REVERT JUMPDEST POP POP POP POP PUSH1 0x40 MLOAD RETURNDATASIZE PUSH1 0x1F NOT PUSH1 0x1F DUP3 ADD AND DUP3 ADD DUP1 PUSH1 0x40 MSTORE POP DUP2 ADD SWAP1 PUSH2 0x4EC SWAP2 SWAP1 PUSH2 0x1C30 JUMP JUMPDEST SWAP1 POP SWAP2 SWAP1 POP JUMP JUMPDEST PUSH1 0x0 PUSH1 0x40 MLOAD PUSH32 0xA85DC2900000000000000000000000000000000000000000000000000000000 DUP2 MSTORE PUSH1 0x4 ADD PUSH1 0x40 MLOAD DUP1 SWAP2 SUB SWAP1 REVERT JUMPDEST PUSH1 0x0 DUP1 PUSH1 0x0 PUSH1 0x40 MLOAD PUSH32 0xA85DC2900000000000000000000000000000000000000000000000000000000 DUP2 MSTORE PUSH1 0x4 ADD PUSH1 0x40 MLOAD DUP1 SWAP2 SUB SWAP1 REVERT JUMPDEST PUSH1 0x0 DUP1 PUSH1 0x40 MLOAD PUSH32 0xA85DC2900000000000000000000000000000000000000000000000000000000 DUP2 MSTORE PUSH1 0x4 ADD PUSH1 0x40 MLOAD DUP1 SWAP2 SUB SWAP1 REVERT JUMPDEST PUSH1 0x0 PUSH2 0x5AE DUP7 DUP1 CALLDATASIZE SUB DUP2 ADD SWAP1 PUSH2 0x5A9 SWAP2 SWAP1 PUSH2 0x1DFF JUMP JUMPDEST PUSH2 0xE75 JUMP JUMPDEST SWAP1 POP DUP5 PUSH1 0x1 PUSH1 0x0 DUP4 DUP2 MSTORE PUSH1 0x20 ADD SWAP1 DUP2 MSTORE PUSH1 0x20 ADD PUSH1 0x0 KECCAK256 PUSH1 0x0 ADD PUSH1 0x0 PUSH2 0x100 EXP DUP2 SLOAD DUP2 PUSH20 0xFFFFFFFFFFFFFFFFFFFFFFFFFFFFFFFFFFFFFFFF MUL NOT AND SWAP1 DUP4 PUSH20 0xFFFFFFFFFFFFFFFFFFFFFFFFFFFFFFFFFFFFFFFF AND MUL OR SWAP1 SSTORE POP DUP4 PUSH1 0x1 PUSH1 0x0 DUP4 DUP2 MSTORE PUSH1 0x20 ADD SWAP1 DUP2 MSTORE PUSH1 0x20 ADD PUSH1 0x0 KECCAK256 PUSH1 0x2 ADD PUSH1 0x0 PUSH2 0x100 EXP DUP2 SLOAD DUP2 PUSH20 0xFFFFFFFFFFFFFFFFFFFFFFFFFFFFFFFFFFFFFFFF MUL NOT AND SWAP1 DUP4 PUSH20 0xFFFFFFFFFFFFFFFFFFFFFFFFFFFFFFFFFFFFFFFF AND MUL OR SWAP1 SSTORE POP DUP3 PUSH1 0x2 SIGNEXTEND PUSH1 0xF SIGNEXTEND PUSH1 0x1 PUSH1 0x0 DUP4 DUP2 MSTORE PUSH1 0x20 ADD SWAP1 DUP2 MSTORE PUSH1 0x20 ADD PUSH1 0x0 KECCAK256 PUSH1 0x3 ADD DUP2 SWAP1 SSTORE POP DUP2 PUSH1 0x2 SIGNEXTEND PUSH1 0xF SIGNEXTEND PUSH1 0x1 PUSH1 0x0 DUP4 DUP2 MSTORE PUSH1 0x20 ADD SWAP1 DUP2 MSTORE PUSH1 0x20 ADD PUSH1 0x0 KECCAK256 PUSH1 0x4 ADD DUP2 SWAP1 SSTORE POP POP POP POP POP POP POP JUMP JUMPDEST PUSH1 0x60 PUSH32 0x0 PUSH20 0xFFFFFFFFFFFFFFFFFFFFFFFFFFFFFFFFFFFFFFFF AND CALLER PUSH20 0xFFFFFFFFFFFFFFFFFFFFFFFFFFFFFFFFFFFFFFFF AND EQ PUSH2 0x72B JUMPI PUSH1 0x40 MLOAD PUSH32 0xAE18210A00000000000000000000000000000000000000000000000000000000 DUP2 MSTORE PUSH1 0x4 ADD PUSH1 0x40 MLOAD DUP1 SWAP2 SUB SWAP1 REVERT JUMPDEST PUSH2 0x735 DUP4 DUP4 PUSH2 0xE82 JUMP JUMPDEST SWAP1 POP SWAP3 SWAP2 POP POP JUMP JUMPDEST PUSH1 0x0 DUP1 PUSH1 0x40 MLOAD PUSH32 0xA85DC2900000000000000000000000000000000000000000000000000000000 DUP2 MSTORE PUSH1 0x4 ADD PUSH1 0x40 MLOAD DUP1 SWAP2 SUB SWAP1 REVERT JUMPDEST PUSH1 0x0 DUP1 PUSH2 0x77E DUP9 PUSH2 0x467 JUMP JUMPDEST SWAP1 POP PUSH1 0x0 DUP1 PUSH1 0x0 DUP1 DUP8 DUP8 DUP2 ADD SWAP1 PUSH2 0x795 SWAP2 SWAP1 PUSH2 0x1E6A JUMP JUMPDEST SWAP4 POP SWAP4 POP SWAP4 POP SWAP4 POP PUSH1 0x0 PUSH1 0x40 MLOAD DUP1 PUSH1 0xA0 ADD PUSH1 0x40 MSTORE DUP1 DUP7 PUSH20 0xFFFFFFFFFFFFFFFFFFFFFFFFFFFFFFFFFFFFFFFF AND DUP2 MSTORE PUSH1 0x20 ADD DUP8 PUSH20 0xFFFFFFFFFFFFFFFFFFFFFFFFFFFFFFFFFFFFFFFF AND DUP2 MSTORE PUSH1 0x20 ADD DUP6 PUSH20 0xFFFFFFFFFFFFFFFFFFFFFFFFFFFFFFFFFFFFFFFF AND DUP2 MSTORE PUSH1 0x20 ADD DUP5 PUSH1 0x2 SIGNEXTEND PUSH1 0xF SIGNEXTEND DUP2 MSTORE PUSH1 0x20 ADD DUP4 PUSH1 0x2 SIGNEXTEND PUSH1 0xF SIGNEXTEND DUP2 MSTORE POP SWAP1 POP PUSH1 0x0 PUSH2 0x831 DUP14 DUP1 CALLDATASIZE SUB DUP2 ADD SWAP1 PUSH2 0x82C SWAP2 SWAP1 PUSH2 0x1DFF JUMP JUMPDEST PUSH2 0xE75 JUMP JUMPDEST SWAP1 POP DUP2 PUSH1 0x1 PUSH1 0x0 DUP4 DUP2 MSTORE PUSH1 0x20 ADD SWAP1 DUP2 MSTORE PUSH1 0x20 ADD PUSH1 0x0 KECCAK256 PUSH1 0x0 DUP3 ADD MLOAD DUP2 PUSH1 0x0 ADD PUSH1 0x0 PUSH2 0x100 EXP DUP2 SLOAD DUP2 PUSH20 0xFFFFFFFFFFFFFFFFFFFFFFFFFFFFFFFFFFFFFFFF MUL NOT AND SWAP1 DUP4 PUSH20 0xFFFFFFFFFFFFFFFFFFFFFFFFFFFFFFFFFFFFFFFF AND MUL OR SWAP1 SSTORE POP PUSH1 0x20 DUP3 ADD MLOAD DUP2 PUSH1 0x1 ADD PUSH1 0x0 PUSH2 0x100 EXP DUP2 SLOAD DUP2 PUSH20 0xFFFFFFFFFFFFFFFFFFFFFFFFFFFFFFFFFFFFFFFF MUL NOT AND SWAP1 DUP4 PUSH20 0xFFFFFFFFFFFFFFFFFFFFFFFFFFFFFFFFFFFFFFFF AND MUL OR SWAP1 SSTORE POP PUSH1 0x40 DUP3 ADD MLOAD DUP2 PUSH1 0x2 ADD PUSH1 0x0 PUSH2 0x100 EXP DUP2 SLOAD DUP2 PUSH20 0xFFFFFFFFFFFFFFFFFFFFFFFFFFFFFFFFFFFFFFFF MUL NOT AND SWAP1 DUP4 PUSH20 0xFFFFFFFFFFFFFFFFFFFFFFFFFFFFFFFFFFFFFFFF AND MUL OR SWAP1 SSTORE POP PUSH1 0x60 DUP3 ADD MLOAD DUP2 PUSH1 0x3 ADD SSTORE PUSH1 0x80 DUP3 ADD MLOAD DUP2 PUSH1 0x4 ADD SSTORE SWAP1 POP POP PUSH4 0xA910F80F PUSH1 0xE0 SHL SWAP8 POP POP POP POP POP POP POP POP SWAP7 SWAP6 POP POP POP POP POP POP JUMP JUMPDEST PUSH1 0x0 DUP1 PUSH1 0x0 PUSH2 0x95C DUP10 PUSH2 0x467 JUMP JUMPDEST SWAP1 POP PUSH1 0x0 PUSH2 0x979 DUP10 DUP1 CALLDATASIZE SUB DUP2 ADD SWAP1 PUSH2 0x974 SWAP2 SWAP1 PUSH2 0x1DFF JUMP JUMPDEST PUSH2 0xE75 JUMP JUMPDEST SWAP1 POP PUSH1 0x0 PUSH1 0x1 PUSH1 0x0 DUP4 DUP2 MSTORE PUSH1 0x20 ADD SWAP1 DUP2 MSTORE PUSH1 0x20 ADD PUSH1 0x0 KECCAK256 PUSH1 0x40 MLOAD DUP1 PUSH1 0xA0 ADD PUSH1 0x40 MSTORE SWAP1 DUP2 PUSH1 0x0 DUP3 ADD PUSH1 0x0 SWAP1 SLOAD SWAP1 PUSH2 0x100 EXP SWAP1 DIV PUSH20 0xFFFFFFFFFFFFFFFFFFFFFFFFFFFFFFFFFFFFFFFF AND PUSH20 0xFFFFFFFFFFFFFFFFFFFFFFFFFFFFFFFFFFFFFFFF AND PUSH20 0xFFFFFFFFFFFFFFFFFFFFFFFFFFFFFFFFFFFFFFFF AND DUP2 MSTORE PUSH1 0x20 ADD PUSH1 0x1 DUP3 ADD PUSH1 0x0 SWAP1 SLOAD SWAP1 PUSH2 0x100 EXP SWAP1 DIV PUSH20 0xFFFFFFFFFFFFFFFFFFFFFFFFFFFFFFFFFFFFFFFF AND PUSH20 0xFFFFFFFFFFFFFFFFFFFFFFFFFFFFFFFFFFFFFFFF AND PUSH20 0xFFFFFFFFFFFFFFFFFFFFFFFFFFFFFFFFFFFFFFFF AND DUP2 MSTORE PUSH1 0x20 ADD PUSH1 0x2 DUP3 ADD PUSH1 0x0 SWAP1 SLOAD SWAP1 PUSH2 0x100 EXP SWAP1 DIV PUSH20 0xFFFFFFFFFFFFFFFFFFFFFFFFFFFFFFFFFFFFFFFF AND PUSH20 0xFFFFFFFFFFFFFFFFFFFFFFFFFFFFFFFFFFFFFFFF AND PUSH20 0xFFFFFFFFFFFFFFFFFFFFFFFFFFFFFFFFFFFFFFFF AND DUP2 MSTORE PUSH1 0x20 ADD PUSH1 0x3 DUP3 ADD SLOAD DUP2 MSTORE PUSH1 0x20 ADD PUSH1 0x4 DUP3 ADD SLOAD DUP2 MSTORE POP POP SWAP1 POP PUSH1 0x0 DUP2 PUSH1 0x0 ADD MLOAD SWAP1 POP PUSH1 0x0 DUP2 PUSH20 0xFFFFFFFFFFFFFFFFFFFFFFFFFFFFFFFFFFFFFFFF AND PUSH4 0x70A08231 DUP7 PUSH1 0x40 MLOAD DUP3 PUSH4 0xFFFFFFFF AND PUSH1 0xE0 SHL DUP2 MSTORE PUSH1 0x4 ADD PUSH2 0xAF7 SWAP2 SWAP1 PUSH2 0x1260 JUMP JUMPDEST PUSH1 0x20 PUSH1 0x40 MLOAD DUP1 DUP4 SUB DUP2 DUP7 GAS STATICCALL ISZERO DUP1 ISZERO PUSH2 0xB14 JUMPI RETURNDATASIZE PUSH1 0x0 DUP1 RETURNDATACOPY RETURNDATASIZE PUSH1 0x0 REVERT JUMPDEST POP POP POP POP PUSH1 0x40 MLOAD RETURNDATASIZE PUSH1 0x1F NOT PUSH1 0x1F DUP3 ADD AND DUP3 ADD DUP1 PUSH1 0x40 MSTORE POP DUP2 ADD SWAP1 PUSH2 0xB38 SWAP2 SWAP1 PUSH2 0x1EE6 JUMP JUMPDEST SWAP1 POP PUSH1 0x0 DUP2 GT PUSH2 0xB7D JUMPI PUSH1 0x40 MLOAD PUSH32 0x8C379A000000000000000000000000000000000000000000000000000000000 DUP2 MSTORE PUSH1 0x4 ADD PUSH2 0xB74 SWAP1 PUSH2 0x1F96 JUMP JUMPDEST PUSH1 0x40 MLOAD DUP1 SWAP2 SUB SWAP1 REVERT JUMPDEST PUSH1 0x0 PUSH2 0xB88 DUP12 PUSH2 0xF4E JUMP JUMPDEST SWAP1 POP DUP4 PUSH1 0x60 ADD MLOAD DUP2 LT PUSH2 0xC84 JUMPI PUSH1 0x0 DUP1 PUSH1 0x0 SWAP1 SLOAD SWAP1 PUSH2 0x100 EXP SWAP1 DIV PUSH20 0xFFFFFFFFFFFFFFFFFFFFFFFFFFFFFFFFFFFFFFFF AND SWAP1 POP DUP1 PUSH20 0xFFFFFFFFFFFFFFFFFFFFFFFFFFFFFFFFFFFFFFFF AND PUSH4 0x23B872DD DUP7 PUSH1 0x40 ADD MLOAD DUP10 DUP9 PUSH1 0x80 ADD MLOAD PUSH1 0x40 MLOAD DUP5 PUSH4 0xFFFFFFFF AND PUSH1 0xE0 SHL DUP2 MSTORE PUSH1 0x4 ADD PUSH2 0xC00 SWAP4 SWAP3 SWAP2 SWAP1 PUSH2 0x1FB6 JUMP JUMPDEST PUSH1 0x20 PUSH1 0x40 MLOAD DUP1 DUP4 SUB DUP2 PUSH1 0x0 DUP8 GAS CALL ISZERO DUP1 ISZERO PUSH2 0xC1F JUMPI RETURNDATASIZE PUSH1 0x0 DUP1 RETURNDATACOPY RETURNDATASIZE PUSH1 0x0 REVERT JUMPDEST POP POP POP POP PUSH1 0x40 MLOAD RETURNDATASIZE PUSH1 0x1F NOT PUSH1 0x1F DUP3 ADD AND DUP3 ADD DUP1 PUSH1 0x40 MSTORE POP DUP2 ADD SWAP1 PUSH2 0xC43 SWAP2 SWAP1 PUSH2 0x2019 JUMP JUMPDEST PUSH2 0xC82 JUMPI PUSH1 0x40 MLOAD PUSH32 0x8C379A000000000000000000000000000000000000000000000000000000000 DUP2 MSTORE PUSH1 0x4 ADD PUSH2 0xC79 SWAP1 PUSH2 0x2092 JUMP JUMPDEST PUSH1 0x40 MLOAD DUP1 SWAP2 SUB SWAP1 REVERT JUMPDEST POP JUMPDEST PUSH4 0xB47B2FB1 PUSH1 0xE0 SHL DUP5 PUSH1 0x80 ADD MLOAD SWAP8 POP SWAP8 POP POP POP POP POP POP POP SWAP7 POP SWAP7 SWAP5 POP POP POP POP POP JUMP JUMPDEST PUSH1 0x1 PUSH1 0x20 MSTORE DUP1 PUSH1 0x0 MSTORE PUSH1 0x40 PUSH1 0x0 KECCAK256 PUSH1 0x0 SWAP2 POP SWAP1 POP DUP1 PUSH1 0x0 ADD PUSH1 0x0 SWAP1 SLOAD SWAP1 PUSH2 0x100 EXP SWAP1 DIV PUSH20 0xFFFFFFFFFFFFFFFFFFFFFFFFFFFFFFFFFFFFFFFF AND SWAP1 DUP1 PUSH1 0x1 ADD PUSH1 0x0 SWAP1 SLOAD SWAP1 PUSH2 0x100 EXP SWAP1 DIV PUSH20 0xFFFFFFFFFFFFFFFFFFFFFFFFFFFFFFFFFFFFFFFF AND SWAP1 DUP1 PUSH1 0x2 ADD PUSH1 0x0 SWAP1 SLOAD SWAP1 PUSH2 0x100 EXP SWAP1 DIV PUSH20 0xFFFFFFFFFFFFFFFFFFFFFFFFFFFFFFFFFFFFFFFF AND SWAP1 DUP1 PUSH1 0x3 ADD SLOAD SWAP1 DUP1 PUSH1 0x4 ADD SLOAD SWAP1 POP DUP6 JUMP JUMPDEST PUSH1 0x0 PUSH1 0x40 MLOAD PUSH32 0xA85DC2900000000000000000000000000000000000000000000000000000000 DUP2 MSTORE PUSH1 0x4 ADD PUSH1 0x40 MLOAD DUP1 SWAP2 SUB SWAP1 REVERT JUMPDEST PUSH2 0xD78 PUSH2 0xF9F JUMP JUMPDEST PUSH1 0x40 MLOAD DUP1 PUSH2 0x1C0 ADD PUSH1 0x40 MSTORE DUP1 PUSH1 0x0 ISZERO ISZERO DUP2 MSTORE PUSH1 0x20 ADD PUSH1 0x1 ISZERO ISZERO DUP2 MSTORE PUSH1 0x20 ADD PUSH1 0x0 ISZERO ISZERO DUP2 MSTORE PUSH1 0x20 ADD PUSH1 0x0 ISZERO ISZERO DUP2 MSTORE PUSH1 0x20 ADD PUSH1 0x0 ISZERO ISZERO DUP2 MSTORE PUSH1 0x20 ADD PUSH1 0x0 ISZERO ISZERO DUP2 MSTORE PUSH1 0x20 ADD PUSH1 0x0 ISZERO ISZERO DUP2 MSTORE PUSH1 0x20 ADD PUSH1 0x1 ISZERO ISZERO DUP2 MSTORE PUSH1 0x20 ADD PUSH1 0x0 ISZERO ISZERO DUP2 MSTORE PUSH1 0x20 ADD PUSH1 0x0 ISZERO ISZERO DUP2 MSTORE PUSH1 0x20 ADD PUSH1 0x0 ISZERO ISZERO DUP2 MSTORE PUSH1 0x20 ADD PUSH1 0x0 ISZERO ISZERO DUP2 MSTORE PUSH1 0x20 ADD PUSH1 0x0 ISZERO ISZERO DUP2 MSTORE PUSH1 0x20 ADD PUSH1 0x0 ISZERO ISZERO DUP2 MSTORE POP SWAP1 POP SWAP1 JUMP JUMPDEST PUSH32 0x0 DUP2 JUMP JUMPDEST PUSH1 0x0 PUSH1 0x40 MLOAD PUSH32 0xA85DC2900000000000000000000000000000000000000000000000000000000 DUP2 MSTORE PUSH1 0x4 ADD PUSH1 0x40 MLOAD DUP1 SWAP2 SUB SWAP1 REVERT JUMPDEST PUSH20 0x95273D871C8156636E114B63797D78D7E1720D81 DUP2 JUMP JUMPDEST PUSH1 0x0 PUSH1 0xA0 DUP3 KECCAK256 SWAP1 POP SWAP2 SWAP1 POP JUMP JUMPDEST PUSH1 0x60 PUSH1 0x0 DUP1 ADDRESS PUSH20 0xFFFFFFFFFFFFFFFFFFFFFFFFFFFFFFFFFFFFFFFF AND DUP6 DUP6 PUSH1 0x40 MLOAD PUSH2 0xEAE SWAP3 SWAP2 SWAP1 PUSH2 0x20F1 JUMP JUMPDEST PUSH1 0x0 PUSH1 0x40 MLOAD DUP1 DUP4 SUB DUP2 PUSH1 0x0 DUP7 GAS CALL SWAP2 POP POP RETURNDATASIZE DUP1 PUSH1 0x0 DUP2 EQ PUSH2 0xEEB JUMPI PUSH1 0x40 MLOAD SWAP2 POP PUSH1 0x1F NOT PUSH1 0x3F RETURNDATASIZE ADD AND DUP3 ADD PUSH1 0x40 MSTORE RETURNDATASIZE DUP3 MSTORE RETURNDATASIZE PUSH1 0x0 PUSH1 0x20 DUP5 ADD RETURNDATACOPY PUSH2 0xEF0 JUMP JUMPDEST PUSH1 0x60 SWAP2 POP JUMPDEST POP SWAP2 POP SWAP2 POP DUP2 ISZERO PUSH2 0xF05 JUMPI DUP1 SWAP3 POP POP POP PUSH2 0xF48 JUMP JUMPDEST PUSH1 0x0 DUP2 MLOAD SUB PUSH2 0xF40 JUMPI PUSH1 0x40 MLOAD PUSH32 0xA40AFA3800000000000000000000000000000000000000000000000000000000 DUP2 MSTORE PUSH1 0x4 ADD PUSH1 0x40 MLOAD DUP1 SWAP2 SUB SWAP1 REVERT JUMPDEST DUP1 MLOAD PUSH1 0x20 DUP3 ADD REVERT JUMPDEST SWAP3 SWAP2 POP POP JUMP JUMPDEST PUSH1 0x0 PUSH2 0xF59 DUP3 PUSH2 0xF85 JUMP JUMPDEST PUSH2 0xF62 DUP4 PUSH2 0xF92 JUMP JUMPDEST PUSH2 0xF6C SWAP2 SWAP1 PUSH2 0x2155 JUMP JUMPDEST PUSH16 0xFFFFFFFFFFFFFFFFFFFFFFFFFFFFFFFF AND SWAP1 POP SWAP2 SWAP1 POP JUMP JUMPDEST PUSH1 0x0 DUP2 PUSH1 0xF SIGNEXTEND SWAP1 POP SWAP2 SWAP1 POP JUMP JUMPDEST PUSH1 0x0 DUP2 PUSH1 0x80 SAR SWAP1 POP SWAP2 SWAP1 POP JUMP JUMPDEST PUSH1 0x40 MLOAD DUP1 PUSH2 0x1C0 ADD PUSH1 0x40 MSTORE DUP1 PUSH1 0x0 ISZERO ISZERO DUP2 MSTORE PUSH1 0x20 ADD PUSH1 0x0 ISZERO ISZERO DUP2 MSTORE PUSH1 0x20 ADD PUSH1 0x0 ISZERO ISZERO DUP2 MSTORE PUSH1 0x20 ADD PUSH1 0x0 ISZERO ISZERO DUP2 MSTORE PUSH1 0x20 ADD PUSH1 0x0 ISZERO ISZERO DUP2 MSTORE PUSH1 0x20 ADD PUSH1 0x0 ISZERO ISZERO DUP2 MSTORE PUSH1 0x20 ADD PUSH1 0x0 ISZERO ISZERO DUP2 MSTORE PUSH1 0x20 ADD PUSH1 0x0 ISZERO ISZERO DUP2 MSTORE PUSH1 0x20 ADD PUSH1 0x0 ISZERO ISZERO DUP2 MSTORE PUSH1 0x20 ADD PUSH1 0x0 ISZERO ISZERO DUP2 MSTORE PUSH1 0x20 ADD PUSH1 0x0 ISZERO ISZERO DUP2 MSTORE PUSH1 0x20 ADD PUSH1 0x0 ISZERO ISZERO DUP2 MSTORE PUSH1 0x20 ADD PUSH1 0x0 ISZERO ISZERO DUP2 MSTORE PUSH1 0x20 ADD PUSH1 0x0 ISZERO ISZERO DUP2 MSTORE POP SWAP1 JUMP JUMPDEST PUSH1 0x0 PUSH1 0x40 MLOAD SWAP1 POP SWAP1 JUMP JUMPDEST PUSH1 0x0 DUP1 REVERT JUMPDEST PUSH1 0x0 DUP1 REVERT JUMPDEST PUSH1 0x0 PUSH20 0xFFFFFFFFFFFFFFFFFFFFFFFFFFFFFFFFFFFFFFFF DUP3 AND SWAP1 POP SWAP2 SWAP1 POP JUMP JUMPDEST PUSH1 0x0 PUSH2 0x1069 DUP3 PUSH2 0x103E JUMP JUMPDEST SWAP1 POP SWAP2 SWAP1 POP JUMP JUMPDEST PUSH2 0x1079 DUP2 PUSH2 0x105E JUMP JUMPDEST DUP2 EQ PUSH2 0x1084 JUMPI PUSH1 0x0 DUP1 REVERT JUMPDEST POP JUMP JUMPDEST PUSH1 0x0 DUP2 CALLDATALOAD SWAP1 POP PUSH2 0x1096 DUP2 PUSH2 0x1070 JUMP JUMPDEST SWAP3 SWAP2 POP POP JUMP JUMPDEST PUSH1 0x0 DUP1 REVERT JUMPDEST PUSH1 0x0 PUSH1 0xA0 DUP3 DUP5 SUB SLT ISZERO PUSH2 0x10B7 JUMPI PUSH2 0x10B6 PUSH2 0x109C JUMP JUMPDEST JUMPDEST DUP2 SWAP1 POP SWAP3 SWAP2 POP POP JUMP JUMPDEST PUSH1 0x0 PUSH1 0x80 DUP3 DUP5 SUB SLT ISZERO PUSH2 0x10D6 JUMPI PUSH2 0x10D5 PUSH2 0x109C JUMP JUMPDEST JUMPDEST DUP2 SWAP1 POP SWAP3 SWAP2 POP POP JUMP JUMPDEST PUSH1 0x0 DUP1 REVERT JUMPDEST PUSH1 0x0 DUP1 REVERT JUMPDEST PUSH1 0x0 DUP1 REVERT JUMPDEST PUSH1 0x0 DUP1 DUP4 PUSH1 0x1F DUP5 ADD SLT PUSH2 0x1104 JUMPI PUSH2 0x1103 PUSH2 0x10DF JUMP JUMPDEST JUMPDEST DUP3 CALLDATALOAD SWAP1 POP PUSH8 0xFFFFFFFFFFFFFFFF DUP2 GT ISZERO PUSH2 0x1121 JUMPI PUSH2 0x1120 PUSH2 0x10E4 JUMP JUMPDEST JUMPDEST PUSH1 0x20 DUP4 ADD SWAP2 POP DUP4 PUSH1 0x1 DUP3 MUL DUP4 ADD GT ISZERO PUSH2 0x113D JUMPI PUSH2 0x113C PUSH2 0x10E9 JUMP JUMPDEST JUMPDEST SWAP3 POP SWAP3 SWAP1 POP JUMP JUMPDEST PUSH1 0x0 DUP1 PUSH1 0x0 DUP1 PUSH1 0x0 PUSH2 0x160 DUP7 DUP9 SUB SLT ISZERO PUSH2 0x1161 JUMPI PUSH2 0x1160 PUSH2 0x1034 JUMP JUMPDEST JUMPDEST PUSH1 0x0 PUSH2 0x116F DUP9 DUP3 DUP10 ADD PUSH2 0x1087 JUMP JUMPDEST SWAP6 POP POP PUSH1 0x20 PUSH2 0x1180 DUP9 DUP3 DUP10 ADD PUSH2 0x10A1 JUMP JUMPDEST SWAP5 POP POP PUSH1 0xC0 PUSH2 0x1191 DUP9 DUP3 DUP10 ADD PUSH2 0x10C0 JUMP JUMPDEST SWAP4 POP POP PUSH2 0x140 DUP7 ADD CALLDATALOAD PUSH8 0xFFFFFFFFFFFFFFFF DUP2 GT ISZERO PUSH2 0x11B3 JUMPI PUSH2 0x11B2 PUSH2 0x1039 JUMP JUMPDEST JUMPDEST PUSH2 0x11BF DUP9 DUP3 DUP10 ADD PUSH2 0x10EE JUMP JUMPDEST SWAP3 POP SWAP3 POP POP SWAP3 SWAP6 POP SWAP3 SWAP6 SWAP1 SWAP4 POP JUMP JUMPDEST PUSH1 0x0 PUSH32 0xFFFFFFFF00000000000000000000000000000000000000000000000000000000 DUP3 AND SWAP1 POP SWAP2 SWAP1 POP JUMP JUMPDEST PUSH2 0x1203 DUP2 PUSH2 0x11CE JUMP JUMPDEST DUP3 MSTORE POP POP JUMP JUMPDEST PUSH1 0x0 PUSH1 0x20 DUP3 ADD SWAP1 POP PUSH2 0x121E PUSH1 0x0 DUP4 ADD DUP5 PUSH2 0x11FA JUMP JUMPDEST SWAP3 SWAP2 POP POP JUMP JUMPDEST PUSH1 0x0 PUSH1 0x20 DUP3 DUP5 SUB SLT ISZERO PUSH2 0x123A JUMPI PUSH2 0x1239 PUSH2 0x1034 JUMP JUMPDEST JUMPDEST PUSH1 0x0 PUSH2 0x1248 DUP5 DUP3 DUP6 ADD PUSH2 0x1087 JUMP JUMPDEST SWAP2 POP POP SWAP3 SWAP2 POP POP JUMP JUMPDEST PUSH2 0x125A DUP2 PUSH2 0x105E JUMP JUMPDEST DUP3 MSTORE POP POP JUMP JUMPDEST PUSH1 0x0 PUSH1 0x20 DUP3 ADD SWAP1 POP PUSH2 0x1275 PUSH1 0x0 DUP4 ADD DUP5 PUSH2 0x1251 JUMP JUMPDEST SWAP3 SWAP2 POP POP JUMP JUMPDEST PUSH2 0x1284 DUP2 PUSH2 0x103E JUMP JUMPDEST DUP2 EQ PUSH2 0x128F JUMPI PUSH1 0x0 DUP1 REVERT JUMPDEST POP JUMP JUMPDEST PUSH1 0x0 DUP2 CALLDATALOAD SWAP1 POP PUSH2 0x12A1 DUP2 PUSH2 0x127B JUMP JUMPDEST SWAP3 SWAP2 POP POP JUMP JUMPDEST PUSH1 0x0 DUP1 PUSH1 0x0 DUP1 PUSH1 0x0 PUSH2 0x100 DUP7 DUP9 SUB SLT ISZERO PUSH2 0x12C4 JUMPI PUSH2 0x12C3 PUSH2 0x1034 JUMP JUMPDEST JUMPDEST PUSH1 0x0 PUSH2 0x12D2 DUP9 DUP3 DUP10 ADD PUSH2 0x1087 JUMP JUMPDEST SWAP6 POP POP PUSH1 0x20 PUSH2 0x12E3 DUP9 DUP3 DUP10 ADD PUSH2 0x10A1 JUMP JUMPDEST SWAP5 POP POP PUSH1 0xC0 PUSH2 0x12F4 DUP9 DUP3 DUP10 ADD PUSH2 0x1292 JUMP JUMPDEST SWAP4 POP POP PUSH1 0xE0 DUP7 ADD CALLDATALOAD PUSH8 0xFFFFFFFFFFFFFFFF DUP2 GT ISZERO PUSH2 0x1315 JUMPI PUSH2 0x1314 PUSH2 0x1039 JUMP JUMPDEST JUMPDEST PUSH2 0x1321 DUP9 DUP3 DUP10 ADD PUSH2 0x10EE JUMP JUMPDEST SWAP3 POP SWAP3 POP POP SWAP3 SWAP6 POP SWAP3 SWAP6 SWAP1 SWAP4 POP JUMP JUMPDEST PUSH1 0x0 PUSH1 0x60 DUP3 DUP5 SUB SLT ISZERO PUSH2 0x1346 JUMPI PUSH2 0x1345 PUSH2 0x109C JUMP JUMPDEST JUMPDEST DUP2 SWAP1 POP SWAP3 SWAP2 POP POP JUMP JUMPDEST PUSH1 0x0 DUP1 PUSH1 0x0 DUP1 PUSH1 0x0 PUSH2 0x140 DUP7 DUP9 SUB SLT ISZERO PUSH2 0x136C JUMPI PUSH2 0x136B PUSH2 0x1034 JUMP JUMPDEST JUMPDEST PUSH1 0x0 PUSH2 0x137A DUP9 DUP3 DUP10 ADD PUSH2 0x1087 JUMP JUMPDEST SWAP6 POP POP PUSH1 0x20 PUSH2 0x138B DUP9 DUP3 DUP10 ADD PUSH2 0x10A1 JUMP JUMPDEST SWAP5 POP POP PUSH1 0xC0 PUSH2 0x139C DUP9 DUP3 DUP10 ADD PUSH2 0x1330 JUMP JUMPDEST SWAP4 POP POP PUSH2 0x120 DUP7 ADD CALLDATALOAD PUSH8 0xFFFFFFFFFFFFFFFF DUP2 GT ISZERO PUSH2 0x13BE JUMPI PUSH2 0x13BD PUSH2 0x1039 JUMP JUMPDEST JUMPDEST PUSH2 0x13CA DUP9 DUP3 DUP10 ADD PUSH2 0x10EE JUMP JUMPDEST SWAP3 POP SWAP3 POP POP SWAP3 SWAP6 POP SWAP3 SWAP6 SWAP1 SWAP4 POP JUMP JUMPDEST PUSH1 0x0 DUP2 SWAP1 POP SWAP2 SWAP1 POP JUMP JUMPDEST PUSH1 0x0 DUP2 SWAP1 POP SWAP2 SWAP1 POP JUMP JUMPDEST PUSH1 0x0 PUSH2 0x1408 PUSH2 0x1403 PUSH2 0x13FE DUP5 PUSH2 0x13D9 JUMP JUMPDEST PUSH2 0x13E3 JUMP JUMPDEST PUSH2 0x13D9 JUMP JUMPDEST SWAP1 POP SWAP2 SWAP1 POP JUMP JUMPDEST PUSH2 0x1418 DUP2 PUSH2 0x13ED JUMP JUMPDEST DUP3 MSTORE POP POP JUMP JUMPDEST PUSH1 0x0 PUSH3 0xFFFFFF DUP3 AND SWAP1 POP SWAP2 SWAP1 POP JUMP JUMPDEST PUSH2 0x1436 DUP2 PUSH2 0x141E JUMP JUMPDEST DUP3 MSTORE POP POP JUMP JUMPDEST PUSH1 0x0 PUSH1 0x60 DUP3 ADD SWAP1 POP PUSH2 0x1451 PUSH1 0x0 DUP4 ADD DUP7 PUSH2 0x11FA JUMP JUMPDEST PUSH2 0x145E PUSH1 0x20 DUP4 ADD DUP6 PUSH2 0x140F JUMP JUMPDEST PUSH2 0x146B PUSH1 0x40 DUP4 ADD DUP5 PUSH2 0x142D JUMP JUMPDEST SWAP5 SWAP4 POP POP POP POP JUMP JUMPDEST PUSH2 0x147C DUP2 PUSH2 0x13D9 JUMP JUMPDEST DUP2 EQ PUSH2 0x1487 JUMPI PUSH1 0x0 DUP1 REVERT JUMPDEST POP JUMP JUMPDEST PUSH1 0x0 DUP2 CALLDATALOAD SWAP1 POP PUSH2 0x1499 DUP2 PUSH2 0x1473 JUMP JUMPDEST SWAP3 SWAP2 POP POP JUMP JUMPDEST PUSH1 0x0 DUP1 PUSH1 0x0 DUP1 PUSH1 0x0 DUP1 PUSH1 0x0 PUSH2 0x1A0 DUP9 DUP11 SUB SLT ISZERO PUSH2 0x14BF JUMPI PUSH2 0x14BE PUSH2 0x1034 JUMP JUMPDEST JUMPDEST PUSH1 0x0 PUSH2 0x14CD DUP11 DUP3 DUP12 ADD PUSH2 0x1087 JUMP JUMPDEST SWAP8 POP POP PUSH1 0x20 PUSH2 0x14DE DUP11 DUP3 DUP12 ADD PUSH2 0x10A1 JUMP JUMPDEST SWAP7 POP POP PUSH1 0xC0 PUSH2 0x14EF DUP11 DUP3 DUP12 ADD PUSH2 0x10C0 JUMP JUMPDEST SWAP6 POP POP PUSH2 0x140 PUSH2 0x1501 DUP11 DUP3 DUP12 ADD PUSH2 0x148A JUMP JUMPDEST SWAP5 POP POP PUSH2 0x160 PUSH2 0x1513 DUP11 DUP3 DUP12 ADD PUSH2 0x148A JUMP JUMPDEST SWAP4 POP POP PUSH2 0x180 DUP9 ADD CALLDATALOAD PUSH8 0xFFFFFFFFFFFFFFFF DUP2 GT ISZERO PUSH2 0x1535 JUMPI PUSH2 0x1534 PUSH2 0x1039 JUMP JUMPDEST JUMPDEST PUSH2 0x1541 DUP11 DUP3 DUP12 ADD PUSH2 0x10EE JUMP JUMPDEST SWAP3 POP SWAP3 POP POP SWAP3 SWAP6 SWAP9 SWAP2 SWAP5 SWAP8 POP SWAP3 SWAP6 POP JUMP JUMPDEST PUSH2 0x155B DUP2 PUSH2 0x13ED JUMP JUMPDEST DUP3 MSTORE POP POP JUMP JUMPDEST PUSH1 0x0 PUSH1 0x40 DUP3 ADD SWAP1 POP PUSH2 0x1576 PUSH1 0x0 DUP4 ADD DUP6 PUSH2 0x11FA JUMP JUMPDEST PUSH2 0x1583 PUSH1 0x20 DUP4 ADD DUP5 PUSH2 0x1552 JUMP JUMPDEST SWAP4 SWAP3 POP POP POP JUMP JUMPDEST PUSH1 0x0 DUP2 PUSH1 0x2 SIGNEXTEND SWAP1 POP SWAP2 SWAP1 POP JUMP JUMPDEST PUSH2 0x15A0 DUP2 PUSH2 0x158A JUMP JUMPDEST DUP2 EQ PUSH2 0x15AB JUMPI PUSH1 0x0 DUP1 REVERT JUMPDEST POP JUMP JUMPDEST PUSH1 0x0 DUP2 CALLDATALOAD SWAP1 POP PUSH2 0x15BD DUP2 PUSH2 0x1597 JUMP JUMPDEST SWAP3 SWAP2 POP POP JUMP JUMPDEST PUSH1 0x0 DUP1 PUSH1 0x0 DUP1 PUSH1 0x0 PUSH2 0x120 DUP7 DUP9 SUB SLT ISZERO PUSH2 0x15E0 JUMPI PUSH2 0x15DF PUSH2 0x1034 JUMP JUMPDEST JUMPDEST PUSH1 0x0 PUSH2 0x15EE DUP9 DUP3 DUP10 ADD PUSH2 0x10A1 JUMP JUMPDEST SWAP6 POP POP PUSH1 0xA0 PUSH2 0x15FF DUP9 DUP3 DUP10 ADD PUSH2 0x1087 JUMP JUMPDEST SWAP5 POP POP PUSH1 0xC0 PUSH2 0x1610 DUP9 DUP3 DUP10 ADD PUSH2 0x1087 JUMP JUMPDEST SWAP4 POP POP PUSH1 0xE0 PUSH2 0x1621 DUP9 DUP3 DUP10 ADD PUSH2 0x15AE JUMP JUMPDEST SWAP3 POP POP PUSH2 0x100 PUSH2 0x1633 DUP9 DUP3 DUP10 ADD PUSH2 0x15AE JUMP JUMPDEST SWAP2 POP POP SWAP3 SWAP6 POP SWAP3 SWAP6 SWAP1 SWAP4 POP JUMP JUMPDEST PUSH1 0x0 DUP1 PUSH1 0x20 DUP4 DUP6 SUB SLT ISZERO PUSH2 0x1657 JUMPI PUSH2 0x1656 PUSH2 0x1034 JUMP JUMPDEST JUMPDEST PUSH1 0x0 DUP4 ADD CALLDATALOAD PUSH8 0xFFFFFFFFFFFFFFFF DUP2 GT ISZERO PUSH2 0x1675 JUMPI PUSH2 0x1674 PUSH2 0x1039 JUMP JUMPDEST JUMPDEST PUSH2 0x1681 DUP6 DUP3 DUP7 ADD PUSH2 0x10EE JUMP JUMPDEST SWAP3 POP SWAP3 POP POP SWAP3 POP SWAP3 SWAP1 POP JUMP JUMPDEST PUSH1 0x0 DUP2 MLOAD SWAP1 POP SWAP2 SWAP1 POP JUMP JUMPDEST PUSH1 0x0 DUP3 DUP3 MSTORE PUSH1 0x20 DUP3 ADD SWAP1 POP SWAP3 SWAP2 POP POP JUMP JUMPDEST PUSH1 0x0 JUMPDEST DUP4 DUP2 LT ISZERO PUSH2 0x16C7 JUMPI DUP1 DUP3 ADD MLOAD DUP2 DUP5 ADD MSTORE PUSH1 0x20 DUP2 ADD SWAP1 POP PUSH2 0x16AC JUMP JUMPDEST PUSH1 0x0 DUP5 DUP5 ADD MSTORE POP POP POP POP JUMP JUMPDEST PUSH1 0x0 PUSH1 0x1F NOT PUSH1 0x1F DUP4 ADD AND SWAP1 POP SWAP2 SWAP1 POP JUMP JUMPDEST PUSH1 0x0 PUSH2 0x16EF DUP3 PUSH2 0x168D JUMP JUMPDEST PUSH2 0x16F9 DUP2 DUP6 PUSH2 0x1698 JUMP JUMPDEST SWAP4 POP PUSH2 0x1709 DUP2 DUP6 PUSH1 0x20 DUP7 ADD PUSH2 0x16A9 JUMP JUMPDEST PUSH2 0x1712 DUP2 PUSH2 0x16D3 JUMP JUMPDEST DUP5 ADD SWAP2 POP POP SWAP3 SWAP2 POP POP JUMP JUMPDEST PUSH1 0x0 PUSH1 0x20 DUP3 ADD SWAP1 POP DUP2 DUP2 SUB PUSH1 0x0 DUP4 ADD MSTORE PUSH2 0x1737 DUP2 DUP5 PUSH2 0x16E4 JUMP JUMPDEST SWAP1 POP SWAP3 SWAP2 POP POP JUMP JUMPDEST PUSH1 0x0 DUP1 PUSH1 0x0 DUP1 PUSH1 0x0 DUP1 PUSH2 0x120 DUP8 DUP10 SUB SLT ISZERO PUSH2 0x175D JUMPI PUSH2 0x175C PUSH2 0x1034 JUMP JUMPDEST JUMPDEST PUSH1 0x0 PUSH2 0x176B DUP10 DUP3 DUP11 ADD PUSH2 0x1087 JUMP JUMPDEST SWAP7 POP POP PUSH1 0x20 PUSH2 0x177C DUP10 DUP3 DUP11 ADD PUSH2 0x10A1 JUMP JUMPDEST SWAP6 POP POP PUSH1 0xC0 PUSH2 0x178D DUP10 DUP3 DUP11 ADD PUSH2 0x1292 JUMP JUMPDEST SWAP5 POP POP PUSH1 0xE0 PUSH2 0x179E DUP10 DUP3 DUP11 ADD PUSH2 0x15AE JUMP JUMPDEST SWAP4 POP POP PUSH2 0x100 DUP8 ADD CALLDATALOAD PUSH8 0xFFFFFFFFFFFFFFFF DUP2 GT ISZERO PUSH2 0x17C0 JUMPI PUSH2 0x17BF PUSH2 0x1039 JUMP JUMPDEST JUMPDEST PUSH2 0x17CC DUP10 DUP3 DUP11 ADD PUSH2 0x10EE JUMP JUMPDEST SWAP3 POP SWAP3 POP POP SWAP3 SWAP6 POP SWAP3 SWAP6 POP SWAP3 SWAP6 JUMP JUMPDEST PUSH1 0x0 DUP1 PUSH1 0x0 DUP1 PUSH1 0x0 DUP1 PUSH2 0x160 DUP8 DUP10 SUB SLT ISZERO PUSH2 0x17F9 JUMPI PUSH2 0x17F8 PUSH2 0x1034 JUMP JUMPDEST JUMPDEST PUSH1 0x0 PUSH2 0x1807 DUP10 DUP3 DUP11 ADD PUSH2 0x1087 JUMP JUMPDEST SWAP7 POP POP PUSH1 0x20 PUSH2 0x1818 DUP10 DUP3 DUP11 ADD PUSH2 0x10A1 JUMP JUMPDEST SWAP6 POP POP PUSH1 0xC0 PUSH2 0x1829 DUP10 DUP3 DUP11 ADD PUSH2 0x1330 JUMP JUMPDEST SWAP5 POP POP PUSH2 0x120 PUSH2 0x183B DUP10 DUP3 DUP11 ADD PUSH2 0x148A JUMP JUMPDEST SWAP4 POP POP PUSH2 0x140 DUP8 ADD CALLDATALOAD PUSH8 0xFFFFFFFFFFFFFFFF DUP2 GT ISZERO PUSH2 0x185D JUMPI PUSH2 0x185C PUSH2 0x1039 JUMP JUMPDEST JUMPDEST PUSH2 0x1869 DUP10 DUP3 DUP11 ADD PUSH2 0x10EE JUMP JUMPDEST SWAP3 POP SWAP3 POP POP SWAP3 SWAP6 POP SWAP3 SWAP6 POP SWAP3 SWAP6 JUMP JUMPDEST PUSH1 0x0 DUP2 PUSH1 0xF SIGNEXTEND SWAP1 POP SWAP2 SWAP1 POP JUMP JUMPDEST PUSH2 0x188E DUP2 PUSH2 0x1878 JUMP JUMPDEST DUP3 MSTORE POP POP JUMP JUMPDEST PUSH1 0x0 PUSH1 0x40 DUP3 ADD SWAP1 POP PUSH2 0x18A9 PUSH1 0x0 DUP4 ADD DUP6 PUSH2 0x11FA JUMP JUMPDEST PUSH2 0x18B6 PUSH1 0x20 DUP4 ADD DUP5 PUSH2 0x1885 JUMP JUMPDEST SWAP4 SWAP3 POP POP POP JUMP JUMPDEST PUSH1 0x0 DUP2 SWAP1 POP SWAP2 SWAP1 POP JUMP JUMPDEST PUSH2 0x18D0 DUP2 PUSH2 0x18BD JUMP JUMPDEST DUP2 EQ PUSH2 0x18DB JUMPI PUSH1 0x0 DUP1 REVERT JUMPDEST POP JUMP JUMPDEST PUSH1 0x0 DUP2 CALLDATALOAD SWAP1 POP PUSH2 0x18ED DUP2 PUSH2 0x18C7 JUMP JUMPDEST SWAP3 SWAP2 POP POP JUMP JUMPDEST PUSH1 0x0 PUSH1 0x20 DUP3 DUP5 SUB SLT ISZERO PUSH2 0x1909 JUMPI PUSH2 0x1908 PUSH2 0x1034 JUMP JUMPDEST JUMPDEST PUSH1 0x0 PUSH2 0x1917 DUP5 DUP3 DUP6 ADD PUSH2 0x18DE JUMP JUMPDEST SWAP2 POP POP SWAP3 SWAP2 POP POP JUMP JUMPDEST PUSH1 0x0 DUP2 SWAP1 POP SWAP2 SWAP1 POP JUMP JUMPDEST PUSH2 0x1933 DUP2 PUSH2 0x1920 JUMP JUMPDEST DUP3 MSTORE POP POP JUMP JUMPDEST PUSH1 0x0 PUSH1 0xA0 DUP3 ADD SWAP1 POP PUSH2 0x194E PUSH1 0x0 DUP4 ADD DUP9 PUSH2 0x1251 JUMP JUMPDEST PUSH2 0x195B PUSH1 0x20 DUP4 ADD DUP8 PUSH2 0x1251 JUMP JUMPDEST PUSH2 0x1968 PUSH1 0x40 DUP4 ADD DUP7 PUSH2 0x1251 JUMP JUMPDEST PUSH2 0x1975 PUSH1 0x60 DUP4 ADD DUP6 PUSH2 0x192A JUMP JUMPDEST PUSH2 0x1982 PUSH1 0x80 DUP4 ADD DUP5 PUSH2 0x192A JUMP JUMPDEST SWAP7 SWAP6 POP POP POP POP POP POP JUMP JUMPDEST PUSH2 0x1995 DUP2 PUSH2 0x1920 JUMP JUMPDEST DUP2 EQ PUSH2 0x19A0 JUMPI PUSH1 0x0 DUP1 REVERT JUMPDEST POP JUMP JUMPDEST PUSH1 0x0 DUP2 CALLDATALOAD SWAP1 POP PUSH2 0x19B2 DUP2 PUSH2 0x198C JUMP JUMPDEST SWAP3 SWAP2 POP POP JUMP JUMPDEST PUSH1 0x0 DUP1 PUSH1 0x0 DUP1 PUSH1 0x0 DUP1 PUSH2 0x120 DUP8 DUP10 SUB SLT ISZERO PUSH2 0x19D6 JUMPI PUSH2 0x19D5 PUSH2 0x1034 JUMP JUMPDEST JUMPDEST PUSH1 0x0 PUSH2 0x19E4 DUP10 DUP3 DUP11 ADD PUSH2 0x1087 JUMP JUMPDEST SWAP7 POP POP PUSH1 0x20 PUSH2 0x19F5 DUP10 DUP3 DUP11 ADD PUSH2 0x10A1 JUMP JUMPDEST SWAP6 POP POP PUSH1 0xC0 PUSH2 0x1A06 DUP10 DUP3 DUP11 ADD PUSH2 0x19A3 JUMP JUMPDEST SWAP5 POP POP PUSH1 0xE0 PUSH2 0x1A17 DUP10 DUP3 DUP11 ADD PUSH2 0x19A3 JUMP JUMPDEST SWAP4 POP POP PUSH2 0x100 DUP8 ADD CALLDATALOAD PUSH8 0xFFFFFFFFFFFFFFFF DUP2 GT ISZERO PUSH2 0x1A39 JUMPI PUSH2 0x1A38 PUSH2 0x1039 JUMP JUMPDEST JUMPDEST PUSH2 0x1A45 DUP10 DUP3 DUP11 ADD PUSH2 0x10EE JUMP JUMPDEST SWAP3 POP SWAP3 POP POP SWAP3 SWAP6 POP SWAP3 SWAP6 POP SWAP3 SWAP6 JUMP JUMPDEST PUSH1 0x0 DUP2 ISZERO ISZERO SWAP1 POP SWAP2 SWAP1 POP JUMP JUMPDEST PUSH2 0x1A69 DUP2 PUSH2 0x1A54 JUMP JUMPDEST DUP3 MSTORE POP POP JUMP JUMPDEST PUSH2 0x1C0 DUP3 ADD PUSH1 0x0 DUP3 ADD MLOAD PUSH2 0x1A86 PUSH1 0x0 DUP6 ADD DUP3 PUSH2 0x1A60 JUMP JUMPDEST POP PUSH1 0x20 DUP3 ADD MLOAD PUSH2 0x1A99 PUSH1 0x20 DUP6 ADD DUP3 PUSH2 0x1A60 JUMP JUMPDEST POP PUSH1 0x40 DUP3 ADD MLOAD PUSH2 0x1AAC PUSH1 0x40 DUP6 ADD DUP3 PUSH2 0x1A60 JUMP JUMPDEST POP PUSH1 0x60 DUP3 ADD MLOAD PUSH2 0x1ABF PUSH1 0x60 DUP6 ADD DUP3 PUSH2 0x1A60 JUMP JUMPDEST POP PUSH1 0x80 DUP3 ADD MLOAD PUSH2 0x1AD2 PUSH1 0x80 DUP6 ADD DUP3 PUSH2 0x1A60 JUMP JUMPDEST POP PUSH1 0xA0 DUP3 ADD MLOAD PUSH2 0x1AE5 PUSH1 0xA0 DUP6 ADD DUP3 PUSH2 0x1A60 JUMP JUMPDEST POP PUSH1 0xC0 DUP3 ADD MLOAD PUSH2 0x1AF8 PUSH1 0xC0 DUP6 ADD DUP3 PUSH2 0x1A60 JUMP JUMPDEST POP PUSH1 0xE0 DUP3 ADD MLOAD PUSH2 0x1B0B PUSH1 0xE0 DUP6 ADD DUP3 PUSH2 0x1A60 JUMP JUMPDEST POP PUSH2 0x100 DUP3 ADD MLOAD PUSH2 0x1B20 PUSH2 0x100 DUP6 ADD DUP3 PUSH2 0x1A60 JUMP JUMPDEST POP PUSH2 0x120 DUP3 ADD MLOAD PUSH2 0x1B35 PUSH2 0x120 DUP6 ADD DUP3 PUSH2 0x1A60 JUMP JUMPDEST POP PUSH2 0x140 DUP3 ADD MLOAD PUSH2 0x1B4A PUSH2 0x140 DUP6 ADD DUP3 PUSH2 0x1A60 JUMP JUMPDEST POP PUSH2 0x160 DUP3 ADD MLOAD PUSH2 0x1B5F PUSH2 0x160 DUP6 ADD DUP3 PUSH2 0x1A60 JUMP JUMPDEST POP PUSH2 0x180 DUP3 ADD MLOAD PUSH2 0x1B74 PUSH2 0x180 DUP6 ADD DUP3 PUSH2 0x1A60 JUMP JUMPDEST POP PUSH2 0x1A0 DUP3 ADD MLOAD PUSH2 0x1B89 PUSH2 0x1A0 DUP6 ADD DUP3 PUSH2 0x1A60 JUMP JUMPDEST POP POP POP POP JUMP JUMPDEST PUSH1 0x0 PUSH2 0x1C0 DUP3 ADD SWAP1 POP PUSH2 0x1BA5 PUSH1 0x0 DUP4 ADD DUP5 PUSH2 0x1A6F JUMP JUMPDEST SWAP3 SWAP2 POP POP JUMP JUMPDEST PUSH1 0x0 PUSH2 0x1BC6 PUSH2 0x1BC1 PUSH2 0x1BBC DUP5 PUSH2 0x103E JUMP JUMPDEST PUSH2 0x13E3 JUMP JUMPDEST PUSH2 0x103E JUMP JUMPDEST SWAP1 POP SWAP2 SWAP1 POP JUMP JUMPDEST PUSH1 0x0 PUSH2 0x1BD8 DUP3 PUSH2 0x1BAB JUMP JUMPDEST SWAP1 POP SWAP2 SWAP1 POP JUMP JUMPDEST PUSH1 0x0 PUSH2 0x1BEA DUP3 PUSH2 0x1BCD JUMP JUMPDEST SWAP1 POP SWAP2 SWAP1 POP JUMP JUMPDEST PUSH2 0x1BFA DUP2 PUSH2 0x1BDF JUMP JUMPDEST DUP3 MSTORE POP POP JUMP JUMPDEST PUSH1 0x0 PUSH1 0x20 DUP3 ADD SWAP1 POP PUSH2 0x1C15 PUSH1 0x0 DUP4 ADD DUP5 PUSH2 0x1BF1 JUMP JUMPDEST SWAP3 SWAP2 POP POP JUMP JUMPDEST PUSH1 0x0 DUP2 MLOAD SWAP1 POP PUSH2 0x1C2A DUP2 PUSH2 0x1070 JUMP JUMPDEST SWAP3 SWAP2 POP POP JUMP JUMPDEST PUSH1 0x0 PUSH1 0x20 DUP3 DUP5 SUB SLT ISZERO PUSH2 0x1C46 JUMPI PUSH2 0x1C45 PUSH2 0x1034 JUMP JUMPDEST JUMPDEST PUSH1 0x0 PUSH2 0x1C54 DUP5 DUP3 DUP6 ADD PUSH2 0x1C1B JUMP JUMPDEST SWAP2 POP POP SWAP3 SWAP2 POP POP JUMP JUMPDEST PUSH1 0x0 DUP1 REVERT JUMPDEST PUSH32 0x4E487B7100000000000000000000000000000000000000000000000000000000 PUSH1 0x0 MSTORE PUSH1 0x41 PUSH1 0x4 MSTORE PUSH1 0x24 PUSH1 0x0 REVERT JUMPDEST PUSH2 0x1C9A DUP3 PUSH2 0x16D3 JUMP JUMPDEST DUP2 ADD DUP2 DUP2 LT PUSH8 0xFFFFFFFFFFFFFFFF DUP3 GT OR ISZERO PUSH2 0x1CB9 JUMPI PUSH2 0x1CB8 PUSH2 0x1C62 JUMP JUMPDEST JUMPDEST DUP1 PUSH1 0x40 MSTORE POP POP POP JUMP JUMPDEST PUSH1 0x0 PUSH2 0x1CCC PUSH2 0x102A JUMP JUMPDEST SWAP1 POP PUSH2 0x1CD8 DUP3 DUP3 PUSH2 0x1C91 JUMP JUMPDEST SWAP2 SWAP1 POP JUMP JUMPDEST PUSH2 0x1CE6 DUP2 PUSH2 0x105E JUMP JUMPDEST DUP2 EQ PUSH2 0x1CF1 JUMPI PUSH1 0x0 DUP1 REVERT JUMPDEST POP JUMP JUMPDEST PUSH1 0x0 DUP2 CALLDATALOAD SWAP1 POP PUSH2 0x1D03 DUP2 PUSH2 0x1CDD JUMP JUMPDEST SWAP3 SWAP2 POP POP JUMP JUMPDEST PUSH2 0x1D12 DUP2 PUSH2 0x141E JUMP JUMPDEST DUP2 EQ PUSH2 0x1D1D JUMPI PUSH1 0x0 DUP1 REVERT JUMPDEST POP JUMP JUMPDEST PUSH1 0x0 DUP2 CALLDATALOAD SWAP1 POP PUSH2 0x1D2F DUP2 PUSH2 0x1D09 JUMP JUMPDEST SWAP3 SWAP2 POP POP JUMP JUMPDEST PUSH1 0x0 PUSH2 0x1D40 DUP3 PUSH2 0x105E JUMP JUMPDEST SWAP1 POP SWAP2 SWAP1 POP JUMP JUMPDEST PUSH2 0x1D50 DUP2 PUSH2 0x1D35 JUMP JUMPDEST DUP2 EQ PUSH2 0x1D5B JUMPI PUSH1 0x0 DUP1 REVERT JUMPDEST POP JUMP JUMPDEST PUSH1 0x0 DUP2 CALLDATALOAD SWAP1 POP PUSH2 0x1D6D DUP2 PUSH2 0x1D47 JUMP JUMPDEST SWAP3 SWAP2 POP POP JUMP JUMPDEST PUSH1 0x0 PUSH1 0xA0 DUP3 DUP5 SUB SLT ISZERO PUSH2 0x1D89 JUMPI PUSH2 0x1D88 PUSH2 0x1C5D JUMP JUMPDEST JUMPDEST PUSH2 0x1D93 PUSH1 0xA0 PUSH2 0x1CC2 JUMP JUMPDEST SWAP1 POP PUSH1 0x0 PUSH2 0x1DA3 DUP5 DUP3 DUP6 ADD PUSH2 0x1CF4 JUMP JUMPDEST PUSH1 0x0 DUP4 ADD MSTORE POP PUSH1 0x20 PUSH2 0x1DB7 DUP5 DUP3 DUP6 ADD PUSH2 0x1CF4 JUMP JUMPDEST PUSH1 0x20 DUP4 ADD MSTORE POP PUSH1 0x40 PUSH2 0x1DCB DUP5 DUP3 DUP6 ADD PUSH2 0x1D20 JUMP JUMPDEST PUSH1 0x40 DUP4 ADD MSTORE POP PUSH1 0x60 PUSH2 0x1DDF DUP5 DUP3 DUP6 ADD PUSH2 0x15AE JUMP JUMPDEST PUSH1 0x60 DUP4 ADD MSTORE POP PUSH1 0x80 PUSH2 0x1DF3 DUP5 DUP3 DUP6 ADD PUSH2 0x1D5E JUMP JUMPDEST PUSH1 0x80 DUP4 ADD MSTORE POP SWAP3 SWAP2 POP POP JUMP JUMPDEST PUSH1 0x0 PUSH1 0xA0 DUP3 DUP5 SUB SLT ISZERO PUSH2 0x1E15 JUMPI PUSH2 0x1E14 PUSH2 0x1034 JUMP JUMPDEST JUMPDEST PUSH1 0x0 PUSH2 0x1E23 DUP5 DUP3 DUP6 ADD PUSH2 0x1D73 JUMP JUMPDEST SWAP2 POP POP SWAP3 SWAP2 POP POP JUMP JUMPDEST PUSH1 0x0 PUSH2 0x1E37 DUP3 PUSH2 0x103E JUMP JUMPDEST SWAP1 POP SWAP2 SWAP1 POP JUMP JUMPDEST PUSH2 0x1E47 DUP2 PUSH2 0x1E2C JUMP JUMPDEST DUP2 EQ PUSH2 0x1E52 JUMPI PUSH1 0x0 DUP1 REVERT JUMPDEST POP JUMP JUMPDEST PUSH1 0x0 DUP2 CALLDATALOAD SWAP1 POP PUSH2 0x1E64 DUP2 PUSH2 0x1E3E JUMP JUMPDEST SWAP3 SWAP2 POP POP JUMP JUMPDEST PUSH1 0x0 DUP1 PUSH1 0x0 DUP1 PUSH1 0x80 DUP6 DUP8 SUB SLT ISZERO PUSH2 0x1E84 JUMPI PUSH2 0x1E83 PUSH2 0x1034 JUMP JUMPDEST JUMPDEST PUSH1 0x0 PUSH2 0x1E92 DUP8 DUP3 DUP9 ADD PUSH2 0x1E55 JUMP JUMPDEST SWAP5 POP POP PUSH1 0x20 PUSH2 0x1EA3 DUP8 DUP3 DUP9 ADD PUSH2 0x1E55 JUMP JUMPDEST SWAP4 POP POP PUSH1 0x40 PUSH2 0x1EB4 DUP8 DUP3 DUP9 ADD PUSH2 0x15AE JUMP JUMPDEST SWAP3 POP POP PUSH1 0x60 PUSH2 0x1EC5 DUP8 DUP3 DUP9 ADD PUSH2 0x15AE JUMP JUMPDEST SWAP2 POP POP SWAP3 SWAP6 SWAP2 SWAP5 POP SWAP3 POP JUMP JUMPDEST PUSH1 0x0 DUP2 MLOAD SWAP1 POP PUSH2 0x1EE0 DUP2 PUSH2 0x198C JUMP JUMPDEST SWAP3 SWAP2 POP POP JUMP JUMPDEST PUSH1 0x0 PUSH1 0x20 DUP3 DUP5 SUB SLT ISZERO PUSH2 0x1EFC JUMPI PUSH2 0x1EFB PUSH2 0x1034 JUMP JUMPDEST JUMPDEST PUSH1 0x0 PUSH2 0x1F0A DUP5 DUP3 DUP6 ADD PUSH2 0x1ED1 JUMP JUMPDEST SWAP2 POP POP SWAP3 SWAP2 POP POP JUMP JUMPDEST PUSH1 0x0 DUP3 DUP3 MSTORE PUSH1 0x20 DUP3 ADD SWAP1 POP SWAP3 SWAP2 POP POP JUMP JUMPDEST PUSH32 0x537761702064656E6965643A2073656E64657220686173207A65726F20746F6B PUSH1 0x0 DUP3 ADD MSTORE PUSH32 0x656E2062616C616E636500000000000000000000000000000000000000000000 PUSH1 0x20 DUP3 ADD MSTORE POP JUMP JUMPDEST PUSH1 0x0 PUSH2 0x1F80 PUSH1 0x2A DUP4 PUSH2 0x1F13 JUMP JUMPDEST SWAP2 POP PUSH2 0x1F8B DUP3 PUSH2 0x1F24 JUMP JUMPDEST PUSH1 0x40 DUP3 ADD SWAP1 POP SWAP2 SWAP1 POP JUMP JUMPDEST PUSH1 0x0 PUSH1 0x20 DUP3 ADD SWAP1 POP DUP2 DUP2 SUB PUSH1 0x0 DUP4 ADD MSTORE PUSH2 0x1FAF DUP2 PUSH2 0x1F73 JUMP JUMPDEST SWAP1 POP SWAP2 SWAP1 POP JUMP JUMPDEST PUSH1 0x0 PUSH1 0x60 DUP3 ADD SWAP1 POP PUSH2 0x1FCB PUSH1 0x0 DUP4 ADD DUP7 PUSH2 0x1251 JUMP JUMPDEST PUSH2 0x1FD8 PUSH1 0x20 DUP4 ADD DUP6 PUSH2 0x1251 JUMP JUMPDEST PUSH2 0x1FE5 PUSH1 0x40 DUP4 ADD DUP5 PUSH2 0x192A JUMP JUMPDEST SWAP5 SWAP4 POP POP POP POP JUMP JUMPDEST PUSH2 0x1FF6 DUP2 PUSH2 0x1A54 JUMP JUMPDEST DUP2 EQ PUSH2 0x2001 JUMPI PUSH1 0x0 DUP1 REVERT JUMPDEST POP JUMP JUMPDEST PUSH1 0x0 DUP2 MLOAD SWAP1 POP PUSH2 0x2013 DUP2 PUSH2 0x1FED JUMP JUMPDEST SWAP3 SWAP2 POP POP JUMP JUMPDEST PUSH1 0x0 PUSH1 0x20 DUP3 DUP5 SUB SLT ISZERO PUSH2 0x202F JUMPI PUSH2 0x202E PUSH2 0x1034 JUMP JUMPDEST JUMPDEST PUSH1 0x0 PUSH2 0x203D DUP5 DUP3 DUP6 ADD PUSH2 0x2004 JUMP JUMPDEST SWAP2 POP POP SWAP3 SWAP2 POP POP JUMP JUMPDEST PUSH32 0x5553444320726577617264207472616E73666572206661696C65640000000000 PUSH1 0x0 DUP3 ADD MSTORE POP JUMP JUMPDEST PUSH1 0x0 PUSH2 0x207C PUSH1 0x1B DUP4 PUSH2 0x1F13 JUMP JUMPDEST SWAP2 POP PUSH2 0x2087 DUP3 PUSH2 0x2046 JUMP JUMPDEST PUSH1 0x20 DUP3 ADD SWAP1 POP SWAP2 SWAP1 POP JUMP JUMPDEST PUSH1 0x0 PUSH1 0x20 DUP3 ADD SWAP1 POP DUP2 DUP2 SUB PUSH1 0x0 DUP4 ADD MSTORE PUSH2 0x20AB DUP2 PUSH2 0x206F JUMP JUMPDEST SWAP1 POP SWAP2 SWAP1 POP JUMP JUMPDEST PUSH1 0x0 DUP2 SWAP1 POP SWAP3 SWAP2 POP POP JUMP JUMPDEST DUP3 DUP2 DUP4 CALLDATACOPY PUSH1 0x0 DUP4 DUP4 ADD MSTORE POP POP POP JUMP JUMPDEST PUSH1 0x0 PUSH2 0x20D8 DUP4 DUP6 PUSH2 0x20B2 JUMP JUMPDEST SWAP4 POP PUSH2 0x20E5 DUP4 DUP6 DUP5 PUSH2 0x20BD JUMP JUMPDEST DUP3 DUP5 ADD SWAP1 POP SWAP4 SWAP3 POP POP POP JUMP JUMPDEST PUSH1 0x0 PUSH2 0x20FE DUP3 DUP5 DUP7 PUSH2 0x20CC JUMP JUMPDEST SWAP2 POP DUP2 SWAP1 POP SWAP4 SWAP3 POP POP POP JUMP JUMPDEST PUSH1 0x0 PUSH16 0xFFFFFFFFFFFFFFFFFFFFFFFFFFFFFFFF DUP3 AND SWAP1 POP SWAP2 SWAP1 POP JUMP JUMPDEST PUSH32 0x4E487B7100000000000000000000000000000000000000000000000000000000 PUSH1 0x0 MSTORE PUSH1 0x11 PUSH1 0x4 MSTORE PUSH1 0x24 PUSH1 0x0 REVERT JUMPDEST PUSH1 0x0 PUSH2 0x2160 DUP3 PUSH2 0x210A JUMP JUMPDEST SWAP2 POP PUSH2 0x216B DUP4 PUSH2 0x210A JUMP JUMPDEST SWAP3 POP DUP3 DUP3 ADD SWAP1 POP PUSH16 0xFFFFFFFFFFFFFFFFFFFFFFFFFFFFFFFF DUP2 GT ISZERO PUSH2 0x2193 JUMPI PUSH2 0x2192 PUSH2 0x2126 JUMP JUMPDEST JUMPDEST SWAP3 SWAP2 POP POP JUMP INVALID LOG2 PUSH5 0x6970667358 0x22 SLT KECCAK256 0xD8 MOD DUP6 0xD3 0x4C 0xD1 0xB9 0xE3 0xAD PUSH30 0xD265BA8595D79ACEC3E367CC7A14E865E49FE73EAB564736F6C63430008 SHL STOP CALLER "},"methodIdentifiers":{"UNIVERSAL_ROUTER()":"e8dd7fc3","afterAddLiquidity(address,(address,address,uint24,int24,address),(int24,int24,int256,bytes32),int256,int256,bytes)":"9f063efc","afterDonate(address,(address,address,uint24,int24,address),uint256,uint256,bytes)":"e1b4af69","afterInitialize(address,(address,address,uint24,int24,address),uint160,int24,bytes)":"a910f80f","afterRemoveLiquidity(address,(address,address,uint24,int24,address),(int24,int24,int256,bytes32),int256,int256,bytes)":"6c2bbe7e","afterSwap(address,(address,address,uint24,int24,address),(bool,int256,uint160),int256,bytes)":"b47b2fb1","beforeAddLiquidity(address,(address,address,uint24,int24,address),(int24,int24,int256,bytes32),bytes)":"259982e5","beforeDonate(address,(address,address,uint24,int24,address),uint256,uint256,bytes)":"b6a8b0fa","beforeInitialize(address,(address,address,uint24,int24,address),uint160,bytes)":"3440d820","beforeRemoveLiquidity(address,(address,address,uint24,int24,address),(int24,int24,int256,bytes32),bytes)":"21d0ee70","beforeSwap(address,(address,address,uint24,int24,address),(bool,int256,uint160),bytes)":"575e24b4","getHookPermissions()":"c4e833ce","getMsgSender(address)":"2867b3ca","poolManager()":"dc4c90d3","pools(bytes32)":"b5217bb4","setPoolConfig((address,address,uint24,int24,address),address,address,int24,int24)":"70d00e6d","unlockCallback(bytes)":"91dd7346"}}}}}