{"@uniswap/v4-core/src/types/Currency.sol":{"CurrencyLibrary":{"abi":[{"inputs":[{"internalType":"address","name":"token","type":"address"},{"internalType":"bytes","name":"reason","type":"bytes"}],"name":"Wrap__ERC20TransferFailed","type":"error"},{"inputs":[{"internalType":"address","name":"recipient","type":"address"},{"internalType":"bytes","name":"reason","type":"bytes"}],"name":"Wrap__NativeTransferFailed","type":"error"},{"inputs":[],"name":"ADDRESS_ZERO","outputs":[{"internalType":"Currency","name":"","type":"address"}],"stateMutability":"view","type":"function"}],"evm":{"bytecode":{"linkReferences":{},"object":"610119610052600b82828239805160001a6073146045577f4e487b7100000000000000000000000000000000000000000000000000000000600052600060045260246000fd5b30600052607381538281f3fe730000000000000000000000000000000000000000301460806040526004361060335760003560e01c806366e79509146038575b600080fd5b603e6052565b6040516049919060ca565b60405180910390f35b600081565b600073ffffffffffffffffffffffffffffffffffffffff82169050919050565b6000819050919050565b600060966092608e846057565b6077565b6057565b9050919050565b600060a6826081565b9050919050565b600060b682609d565b9050919050565b60c48160ad565b82525050565b600060208201905060dd600083018460bd565b9291505056fea264697066735822122028e016361134be9158be153c70845164ac079b83b3de55ad46231cb9734b689a64736f6c634300081b0033","opcodes":"PUSH2 0x119 PUSH2 0x52 PUSH1 0xB DUP3 DUP3 DUP3 CODECOPY DUP1 MLOAD PUSH1 0x0 BYTE PUSH1 0x73 EQ PUSH1 0x45 JUMPI PUSH32 0x4E487B7100000000000000000000000000000000000000000000000000000000 PUSH1 0x0 MSTORE PUSH1 0x0 PUSH1 0x4 MSTORE PUSH1 0x24 PUSH1 0x0 REVERT JUMPDEST ADDRESS PUSH1 0x0 MSTORE PUSH1 0x73 DUP2 MSTORE8 DUP3 DUP2 RETURN INVALID PUSH20 0x0 ADDRESS EQ PUSH1 0x80 PUSH1 0x40 MSTORE PUSH1 0x4 CALLDATASIZE LT PUSH1 0x33 JUMPI PUSH1 0x0 CALLDATALOAD PUSH1 0xE0 SHR DUP1 PUSH4 0x66E79509 EQ PUSH1 0x38 JUMPI JUMPDEST PUSH1 0x0 DUP1 REVERT JUMPDEST PUSH1 0x3E PUSH1 0x52 JUMP JUMPDEST PUSH1 0x40 MLOAD PUSH1 0x49 SWAP2 SWAP1 PUSH1 0xCA JUMP JUMPDEST PUSH1 0x40 MLOAD DUP1 SWAP2 SUB SWAP1 RETURN JUMPDEST PUSH1 0x0 DUP2 JUMP JUMPDEST PUSH1 0x0 PUSH20 0xFFFFFFFFFFFFFFFFFFFFFFFFFFFFFFFFFFFFFFFF DUP3 AND SWAP1 POP SWAP2 SWAP1 POP JUMP JUMPDEST PUSH1 0x0 DUP2 SWAP1 POP SWAP2 SWAP1 POP JUMP JUMPDEST PUSH1 0x0 PUSH1 0x96 PUSH1 0x92 PUSH1 0x8E DUP5 PUSH1 0x57 JUMP JUMPDEST PUSH1 0x77 JUMP JUMPDEST PUSH1 0x57 JUMP JUMPDEST SWAP1 POP SWAP2 SWAP1 POP JUMP JUMPDEST PUSH1 0x0 PUSH1 0xA6 DUP3 PUSH1 0x81 JUMP JUMPDEST SWAP1 POP SWAP2 SWAP1 POP JUMP JUMPDEST PUSH1 0x0 PUSH1 0xB6 DUP3 PUSH1 0x9D JUMP JUMPDEST SWAP1 POP SWAP2 SWAP1 POP JUMP JUMPDEST PUSH1 0xC4 DUP2 PUSH1 0xAD JUMP JUMPDEST DUP3 MSTORE POP POP JUMP JUMPDEST PUSH1 0x0 PUSH1 0x20 DUP3 ADD SWAP1 POP PUSH1 0xDD PUSH1 0x0 DUP4 ADD DUP5 PUSH1 0xBD JUMP JUMPDEST SWAP3 SWAP2 POP POP JUMP INVALID LOG2 PUSH5 0x6970667358 0x22 SLT KECCAK256 0x28 0xE0 AND CALLDATASIZE GT CALLVALUE 0xBE SWAP2 PC 0xBE ISZERO EXTCODECOPY PUSH17 0x845164AC079B83B3DE55AD46231CB9734B PUSH9 0x9A64736F6C63430008 SHL STOP CALLER "},"methodIdentifiers":{"ADDRESS_ZERO()":"66e79509"}}}}}