{"src/TokenReducedFees.sol":{"TokenReducedFees":{"abi":[{"inputs":[{"internalType":"contract IPoolManager","name":"_poolManager","type":"address"}],"stateMutability":"nonpayable","type":"constructor"},{"inputs":[],"name":"HookNotImplemented","type":"error"},{"inputs":[],"name":"InvalidPool","type":"error"},{"inputs":[],"name":"LockFailure","type":"error"},{"inputs":[],"name":"NotPoolManager","type":"error"},{"inputs":[],"name":"NotSelf","type":"error"},{"inputs":[{"internalType":"address","name":"","type":"address"},{"components":[{"internalType":"Currency","name":"currency0","type":"address"},{"internalType":"Currency","name":"currency1","type":"address"},{"internalType":"uint24","name":"fee","type":"uint24"},{"internalType":"int24","name":"tickSpacing","type":"int24"},{"internalType":"contract IHooks","name":"hooks","type":"address"}],"internalType":"struct PoolKey","name":"","type":"tuple"},{"components":[{"internalType":"int24","name":"tickLower","type":"int24"},{"internalType":"int24","name":"tickUpper","type":"int24"},{"internalType":"int256","name":"liquidityDelta","type":"int256"},{"internalType":"bytes32","name":"salt","type":"bytes32"}],"internalType":"struct IPoolManager.ModifyLiquidityParams","name":"","type":"tuple"},{"internalType":"BalanceDelta","name":"","type":"int256"},{"internalType":"BalanceDelta","name":"","type":"int256"},{"internalType":"bytes","name":"","type":"bytes"}],"name":"afterAddLiquidity","outputs":[{"internalType":"bytes4","name":"","type":"bytes4"},{"internalType":"BalanceDelta","name":"","type":"int256"}],"stateMutability":"nonpayable","type":"function"},{"inputs":[{"internalType":"address","name":"","type":"address"},{"components":[{"internalType":"Currency","name":"currency0","type":"address"},{"internalType":"Currency","name":"currency1","type":"address"},{"internalType":"uint24","name":"fee","type":"uint24"},{"internalType":"int24","name":"tickSpacing","type":"int24"},{"internalType":"contract IHooks","name":"hooks","type":"address"}],"internalType":"struct PoolKey","name":"","type":"tuple"},{"internalType":"uint256","name":"","type":"uint256"},{"internalType":"uint256","name":"","type":"uint256"},{"internalType":"bytes","name":"","type":"bytes"}],"name":"afterDonate","outputs":[{"internalType":"bytes4","name":"","type":"bytes4"}],"stateMutability":"nonpayable","type":"function"},{"inputs":[{"internalType":"address","name":"sender","type":"address"},{"components":[{"internalType":"Currency","name":"currency0","type":"address"},{"internalType":"Currency","name":"currency1","type":"address"},{"internalType":"uint24","name":"fee","type":"uint24"},{"internalType":"int24","name":"tickSpacing","type":"int24"},{"internalType":"contract IHooks","name":"hooks","type":"address"}],"internalType":"struct PoolKey","name":"key","type":"tuple"},{"internalType":"uint160","name":"","type":"uint160"},{"internalType":"int24","name":"","type":"int24"},{"internalType":"bytes","name":"hookData","type":"bytes"}],"name":"afterInitialize","outputs":[{"internalType":"bytes4","name":"","type":"bytes4"}],"stateMutability":"nonpayable","type":"function"},{"inputs":[{"internalType":"address","name":"","type":"address"},{"components":[{"internalType":"Currency","name":"currency0","type":"address"},{"internalType":"Currency","name":"currency1","type":"address"},{"internalType":"uint24","name":"fee","type":"uint24"},{"internalType":"int24","name":"tickSpacing","type":"int24"},{"internalType":"contract IHooks","name":"hooks","type":"address"}],"internalType":"struct PoolKey","name":"","type":"tuple"},{"components":[{"internalType":"int24","name":"tickLower","type":"int24"},{"internalType":"int24","name":"tickUpper","type":"int24"},{"internalType":"int256","name":"liquidityDelta","type":"int256"},{"internalType":"bytes32","name":"salt","type":"bytes32"}],"internalType":"struct IPoolManager.ModifyLiquidityParams","name":"","type":"tuple"},{"internalType":"BalanceDelta","name":"","type":"int256"},{"internalType":"BalanceDelta","name":"","type":"int256"},{"internalType":"bytes","name":"","type":"bytes"}],"name":"afterRemoveLiquidity","outputs":[{"internalType":"bytes4","name":"","type":"bytes4"},{"internalType":"BalanceDelta","name":"","type":"int256"}],"stateMutability":"nonpayable","type":"function"},{"inputs":[{"internalType":"address","name":"","type":"address"},{"components":[{"internalType":"Currency","name":"currency0","type":"address"},{"internalType":"Currency","name":"currency1","type":"address"},{"internalType":"uint24","name":"fee","type":"uint24"},{"internalType":"int24","name":"tickSpacing","type":"int24"},{"internalType":"contract IHooks","name":"hooks","type":"address"}],"internalType":"struct PoolKey","name":"","type":"tuple"},{"components":[{"internalType":"bool","name":"zeroForOne","type":"bool"},{"internalType":"int256","name":"amountSpecified","type":"int256"},{"internalType":"uint160","name":"sqrtPriceLimitX96","type":"uint160"}],"internalType":"struct IPoolManager.SwapParams","name":"","type":"tuple"},{"internalType":"BalanceDelta","name":"","type":"int256"},{"internalType":"bytes","name":"","type":"bytes"}],"name":"afterSwap","outputs":[{"internalType":"bytes4","name":"","type":"bytes4"},{"internalType":"int128","name":"","type":"int128"}],"stateMutability":"nonpayable","type":"function"},{"inputs":[{"internalType":"address","name":"","type":"address"},{"components":[{"internalType":"Currency","name":"currency0","type":"address"},{"internalType":"Currency","name":"currency1","type":"address"},{"internalType":"uint24","name":"fee","type":"uint24"},{"internalType":"int24","name":"tickSpacing","type":"int24"},{"internalType":"contract IHooks","name":"hooks","type":"address"}],"internalType":"struct PoolKey","name":"","type":"tuple"},{"components":[{"internalType":"int24","name":"tickLower","type":"int24"},{"internalType":"int24","name":"tickUpper","type":"int24"},{"internalType":"int256","name":"liquidityDelta","type":"int256"},{"internalType":"bytes32","name":"salt","type":"bytes32"}],"internalType":"struct IPoolManager.ModifyLiquidityParams","name":"","type":"tuple"},{"internalType":"bytes","name":"","type":"bytes"}],"name":"beforeAddLiquidity","outputs":[{"internalType":"bytes4","name":"","type":"bytes4"}],"stateMutability":"nonpayable","type":"function"},{"inputs":[{"internalType":"address","name":"","type":"address"},{"components":[{"internalType":"Currency","name":"currency0","type":"address"},{"internalType":"Currency","name":"currency1","type":"address"},{"internalType":"uint24","name":"fee","type":"uint24"},{"internalType":"int24","name":"tickSpacing","type":"int24"},{"internalType":"contract IHooks","name":"hooks","type":"address"}],"internalType":"struct PoolKey","name":"","type":"tuple"},{"internalType":"uint256","name":"","type":"uint256"},{"internalType":"uint256","name":"","type":"uint256"},{"internalType":"bytes","name":"","type":"bytes"}],"name":"beforeDonate","outputs":[{"internalType":"bytes4","name":"","type":"bytes4"}],"stateMutability":"nonpayable","type":"function"},{"inputs":[{"internalType":"address","name":"","type":"address"},{"components":[{"internalType":"Currency","name":"currency0","type":"address"},{"internalType":"Currency","name":"currency1","type":"address"},{"internalType":"uint24","name":"fee","type":"uint24"},{"internalType":"int24","name":"tickSpacing","type":"int24"},{"internalType":"contract IHooks","name":"hooks","type":"address"}],"internalType":"struct PoolKey","name":"","type":"tuple"},{"internalType":"uint160","name":"","type":"uint160"},{"internalType":"bytes","name":"","type":"bytes"}],"name":"beforeInitialize","outputs":[{"internalType":"bytes4","name":"","type":"bytes4"}],"stateMutability":"nonpayable","type":"function"},{"inputs":[{"internalType":"address","name":"","type":"address"},{"components":[{"internalType":"Currency","name":"currency0","type":"address"},{"internalType":"Currency","name":"currency1","type":"address"},{"internalType":"uint24","name":"fee","type":"uint24"},{"internalType":"int24","name":"tickSpacing","type":"int24"},{"internalType":"contract IHooks","name":"hooks","type":"address"}],"internalType":"struct PoolKey","name":"","type":"tuple"},{"components":[{"internalType":"int24","name":"tickLower","type":"int24"},{"internalType":"int24","name":"tickUpper","type":"int24"},{"internalType":"int256","name":"liquidityDelta","type":"int256"},{"internalType":"bytes32","name":"salt","type":"bytes32"}],"internalType":"struct IPoolManager.ModifyLiquidityParams","name":"","type":"tuple"},{"internalType":"bytes","name":"","type":"bytes"}],"name":"beforeRemoveLiquidity","outputs":[{"internalType":"bytes4","name":"","type":"bytes4"}],"stateMutability":"nonpayable","type":"function"},{"inputs":[{"internalType":"address","name":"sender","type":"address"},{"components":[{"internalType":"Currency","name":"currency0","type":"address"},{"internalType":"Currency","name":"currency1","type":"address"},{"internalType":"uint24","name":"fee","type":"uint24"},{"internalType":"int24","name":"tickSpacing","type":"int24"},{"internalType":"contract IHooks","name":"hooks","type":"address"}],"internalType":"struct PoolKey","name":"key","type":"tuple"},{"components":[{"internalType":"bool","name":"zeroForOne","type":"bool"},{"internalType":"int256","name":"amountSpecified","type":"int256"},{"internalType":"uint160","name":"sqrtPriceLimitX96","type":"uint160"}],"internalType":"struct IPoolManager.SwapParams","name":"","type":"tuple"},{"internalType":"bytes","name":"","type":"bytes"}],"name":"beforeSwap","outputs":[{"internalType":"bytes4","name":"","type":"bytes4"},{"internalType":"BeforeSwapDelta","name":"","type":"int256"},{"internalType":"uint24","name":"","type":"uint24"}],"stateMutability":"nonpayable","type":"function"},{"inputs":[],"name":"getHookPermissions","outputs":[{"components":[{"internalType":"bool","name":"beforeInitialize","type":"bool"},{"internalType":"bool","name":"afterInitialize","type":"bool"},{"internalType":"bool","name":"beforeAddLiquidity","type":"bool"},{"internalType":"bool","name":"afterAddLiquidity","type":"bool"},{"internalType":"bool","name":"beforeRemoveLiquidity","type":"bool"},{"internalType":"bool","name":"afterRemoveLiquidity","type":"bool"},{"internalType":"bool","name":"beforeSwap","type":"bool"},{"internalType":"bool","name":"afterSwap","type":"bool"},{"internalType":"bool","name":"beforeDonate","type":"bool"},{"internalType":"bool","name":"afterDonate","type":"bool"},{"internalType":"bool","name":"beforeSwapReturnDelta","type":"bool"},{"internalType":"bool","name":"afterSwapReturnDelta","type":"bool"},{"internalType":"bool","name":"afterAddLiquidityReturnDelta","type":"bool"},{"internalType":"bool","name":"afterRemoveLiquidityReturnDelta","type":"bool"}],"internalType":"struct Hooks.Permissions","name":"","type":"tuple"}],"stateMutability":"pure","type":"function"},{"inputs":[{"internalType":"PoolId","name":"key","type":"bytes32"}],"name":"getPool","outputs":[{"internalType":"address","name":"","type":"address"}],"stateMutability":"view","type":"function"},{"inputs":[],"name":"ping","outputs":[{"internalType":"string","name":"","type":"string"}],"stateMutability":"nonpayable","type":"function"},{"inputs":[],"name":"poolManager","outputs":[{"internalType":"contract IPoolManager","name":"","type":"address"}],"stateMutability":"view","type":"function"},{"inputs":[{"internalType":"PoolId","name":"","type":"bytes32"}],"name":"pools","outputs":[{"internalType":"address","name":"tokenAddress","type":"address"},{"internalType":"address","name":"owner","type":"address"},{"internalType":"uint24","name":"regularFees","type":"uint24"},{"internalType":"uint24","name":"reducedFees","type":"uint24"}],"stateMutability":"view","type":"function"},{"inputs":[{"components":[{"internalType":"Currency","name":"currency0","type":"address"},{"internalType":"Currency","name":"currency1","type":"address"},{"internalType":"uint24","name":"fee","type":"uint24"},{"internalType":"int24","name":"tickSpacing","type":"int24"},{"internalType":"contract IHooks","name":"hooks","type":"address"}],"internalType":"struct PoolKey","name":"key","type":"tuple"},{"internalType":"uint24","name":"_regularFees","type":"uint24"},{"internalType":"uint24","name":"_reducedFees","type":"uint24"},{"internalType":"address","name":"_tokenAddress","type":"address"}],"name":"setPoolConfig","outputs":[],"stateMutability":"nonpayable","type":"function"},{"inputs":[{"internalType":"bytes","name":"data","type":"bytes"}],"name":"unlockCallback","outputs":[{"internalType":"bytes","name":"","type":"bytes"}],"stateMutability":"nonpayable","type":"function"}],"evm":{"bytecode":{"linkReferences":{},"object":"60a060405234801561001057600080fd5b5060405161237638038061237683398181016040528101906100329190610610565b8080808073ffffffffffffffffffffffffffffffffffffffff1660808173ffffffffffffffffffffffffffffffffffffffff1681525050505061007a3061008160201b60201c565b505061063d565b61009e816100936100a160201b60201c565b61013660201b60201c565b50565b6100a9610510565b604051806101c0016040528060001515815260200160011515815260200160001515815260200160001515815260200160001515815260200160001515815260200160011515815260200160001515815260200160001515815260200160001515815260200160001515815260200160001515815260200160001515815260200160001515815250905090565b6101616120008373ffffffffffffffffffffffffffffffffffffffff166104c660201b90919060201c565b1515816000015115151415806101a9575061019d6110008373ffffffffffffffffffffffffffffffffffffffff166104c660201b90919060201c565b15158160200151151514155b806101e657506101da6108008373ffffffffffffffffffffffffffffffffffffffff166104c660201b90919060201c565b15158160400151151514155b8061022357506102176104008373ffffffffffffffffffffffffffffffffffffffff166104c660201b90919060201c565b15158160600151151514155b8061026057506102546102008373ffffffffffffffffffffffffffffffffffffffff166104c660201b90919060201c565b15158160800151151514155b8061029d57506102916101008373ffffffffffffffffffffffffffffffffffffffff166104c660201b90919060201c565b15158160a00151151514155b806102d957506102cd60808373ffffffffffffffffffffffffffffffffffffffff166104c660201b90919060201c565b15158160c00151151514155b80610315575061030960408373ffffffffffffffffffffffffffffffffffffffff166104c660201b90919060201c565b15158160e00151151514155b80610352575061034560208373ffffffffffffffffffffffffffffffffffffffff166104c660201b90919060201c565b1515816101000151151514155b8061038f575061038260108373ffffffffffffffffffffffffffffffffffffffff166104c660201b90919060201c565b1515816101200151151514155b806103cc57506103bf60088373ffffffffffffffffffffffffffffffffffffffff166104c660201b90919060201c565b1515816101400151151514155b8061040957506103fc60048373ffffffffffffffffffffffffffffffffffffffff166104c660201b90919060201c565b1515816101600151151514155b80610446575061043960028373ffffffffffffffffffffffffffffffffffffffff166104c660201b90919060201c565b1515816101800151151514155b80610483575061047660018373ffffffffffffffffffffffffffffffffffffffff166104c660201b90919060201c565b1515816101a00151151514155b156104c2576104c18263e65af6a060e01b7bffffffffffffffffffffffffffffffffffffffffffffffffffffffff19166104ec60201b90919060201c565b5b5050565b60008082841673ffffffffffffffffffffffffffffffffffffffff161415905092915050565b8160005273ffffffffffffffffffffffffffffffffffffffff811660045260246000fd5b604051806101c001604052806000151581526020016000151581526020016000151581526020016000151581526020016000151581526020016000151581526020016000151581526020016000151581526020016000151581526020016000151581526020016000151581526020016000151581526020016000151581526020016000151581525090565b600080fd5b600073ffffffffffffffffffffffffffffffffffffffff82169050919050565b60006105cb826105a0565b9050919050565b60006105dd826105c0565b9050919050565b6105ed816105d2565b81146105f857600080fd5b50565b60008151905061060a816105e4565b92915050565b6000602082840312156106265761062561059b565b5b6000610634848285016105fb565b91505092915050565b608051611d1761065f600039600081816107170152610be50152611d176000f3fe608060405234801561001057600080fd5b506004361061010b5760003560e01c8063a910f80f116100a2578063c4e833ce11610071578063c4e833ce14610346578063ce4afae514610364578063dc4c90d314610380578063e1b4af691461039e578063f6c00927146103ce5761010b565b8063a910f80f14610282578063b47b2fb1146102b2578063b5217bb4146102e3578063b6a8b0fa146103165761010b565b80635c36b186116100de5780635c36b186146101d25780636c2bbe7e146101f057806391dd7346146102215780639f063efc146102515761010b565b806321d0ee7014610110578063259982e5146101405780633440d82014610170578063575e24b4146101a0575b600080fd5b61012a60048036038101906101259190610ef8565b6103fe565b6040516101379190610fbd565b60405180910390f35b61015a60048036038101906101559190610ef8565b610432565b6040516101679190610fbd565b60405180910390f35b61018a60048036038101906101859190611004565b610466565b6040516101979190610fbd565b60405180910390f35b6101ba60048036038101906101b591906110ac565b61049a565b6040516101c993929190611199565b60405180910390f35b6101da6106a1565b6040516101e79190611260565b60405180910390f35b61020a600480360381019061020591906112ae565b6106de565b604051610218929190611370565b60405180910390f35b61023b60048036038101906102369190611399565b610713565b604051610248919061143b565b60405180910390f35b61026b600480360381019061026691906112ae565b6107ac565b604051610279929190611370565b60405180910390f35b61029c60048036038101906102979190611496565b6107e1565b6040516102a99190610fbd565b60405180910390f35b6102cc60048036038101906102c79190611532565b61097b565b6040516102da9291906115eb565b60405180910390f35b6102fd60048036038101906102f8919061164a565b6109b0565b60405161030d9493929190611686565b60405180910390f35b610330600480360381019061032b9190611701565b610a3e565b60405161033d9190610fbd565b60405180910390f35b61034e610a72565b60405161035b91906118d8565b60405180910390f35b61037e60048036038101906103799190611920565b610b07565b005b610388610be3565b60405161039591906119dd565b60405180910390f35b6103b860048036038101906103b39190611701565b610c07565b6040516103c59190610fbd565b60405180910390f35b6103e860048036038101906103e3919061164a565b610c3b565b6040516103f591906119f8565b60405180910390f35b60006040517f0a85dc2900000000000000000000000000000000000000000000000000000000815260040160405180910390fd5b60006040517f0a85dc2900000000000000000000000000000000000000000000000000000000815260040160405180910390fd5b60006040517f0a85dc2900000000000000000000000000000000000000000000000000000000815260040160405180910390fd5b6000806000806104b9888036038101906104b49190611b89565b610c7a565b905060008060008381526020019081526020016000206040518060800160405290816000820160009054906101000a900473ffffffffffffffffffffffffffffffffffffffff1673ffffffffffffffffffffffffffffffffffffffff1673ffffffffffffffffffffffffffffffffffffffff1681526020016001820160009054906101000a900473ffffffffffffffffffffffffffffffffffffffff1673ffffffffffffffffffffffffffffffffffffffff1673ffffffffffffffffffffffffffffffffffffffff1681526020016001820160149054906101000a900462ffffff1662ffffff1662ffffff1681526020016001820160179054906101000a900462ffffff1662ffffff1662ffffff1681525050905060008160000151905060008173ffffffffffffffffffffffffffffffffffffffff166370a082318d6040518263ffffffff1660e01b815260040161061291906119f8565b602060405180830381865afa15801561062f573d6000803e3d6000fd5b505050506040513d601f19601f820116820180604052508101906106539190611bcb565b9050600081111561067c5763575e24b460e01b6000846060015196509650965050505050610696565b63575e24b460e01b60008460400151965096509650505050505b955095509592505050565b60606040518060400160405280600481526020017f706f6e6700000000000000000000000000000000000000000000000000000000815250905090565b6000806040517f0a85dc2900000000000000000000000000000000000000000000000000000000815260040160405180910390fd5b60607f000000000000000000000000000000000000000000000000000000000000000073ffffffffffffffffffffffffffffffffffffffff163373ffffffffffffffffffffffffffffffffffffffff161461079a576040517fae18210a00000000000000000000000000000000000000000000000000000000815260040160405180910390fd5b6107a48383610c87565b905092915050565b6000806040517f0a85dc2900000000000000000000000000000000000000000000000000000000815260040160405180910390fd5b60008060008085858101906107f69190611c36565b925092509250600060405180608001604052808373ffffffffffffffffffffffffffffffffffffffff1681526020018c73ffffffffffffffffffffffffffffffffffffffff1681526020018562ffffff1681526020018462ffffff16815250905060006108728b80360381019061086d9190611b89565b610c7a565b90508160008083815260200190815260200160002060008201518160000160006101000a81548173ffffffffffffffffffffffffffffffffffffffff021916908373ffffffffffffffffffffffffffffffffffffffff16021790555060208201518160010160006101000a81548173ffffffffffffffffffffffffffffffffffffffff021916908373ffffffffffffffffffffffffffffffffffffffff16021790555060408201518160010160146101000a81548162ffffff021916908362ffffff16021790555060608201518160010160176101000a81548162ffffff021916908362ffffff16021790555090505063a910f80f60e01b955050505050509695505050505050565b6000806040517f0a85dc2900000000000000000000000000000000000000000000000000000000815260040160405180910390fd5b60006020528060005260406000206000915090508060000160009054906101000a900473ffffffffffffffffffffffffffffffffffffffff16908060010160009054906101000a900473ffffffffffffffffffffffffffffffffffffffff16908060010160149054906101000a900462ffffff16908060010160179054906101000a900462ffffff16905084565b60006040517f0a85dc2900000000000000000000000000000000000000000000000000000000815260040160405180910390fd5b610a7a610d53565b604051806101c0016040528060001515815260200160011515815260200160001515815260200160001515815260200160001515815260200160001515815260200160011515815260200160001515815260200160001515815260200160001515815260200160001515815260200160001515815260200160001515815260200160001515815250905090565b6000610b2285803603810190610b1d9190611b89565b610c7a565b90508360008083815260200190815260200160002060010160146101000a81548162ffffff021916908362ffffff1602179055508260008083815260200190815260200160002060010160176101000a81548162ffffff021916908362ffffff1602179055508160008083815260200190815260200160002060000160006101000a81548173ffffffffffffffffffffffffffffffffffffffff021916908373ffffffffffffffffffffffffffffffffffffffff1602179055505050505050565b7f000000000000000000000000000000000000000000000000000000000000000081565b60006040517f0a85dc2900000000000000000000000000000000000000000000000000000000815260040160405180910390fd5b600080600083815260200190815260200160002060010160009054906101000a900473ffffffffffffffffffffffffffffffffffffffff169050919050565b600060a082209050919050565b60606000803073ffffffffffffffffffffffffffffffffffffffff168585604051610cb3929190611cc8565b6000604051808303816000865af19150503d8060008114610cf0576040519150601f19603f3d011682016040523d82523d6000602084013e610cf5565b606091505b50915091508115610d0a578092505050610d4d565b6000815103610d45576040517fa40afa3800000000000000000000000000000000000000000000000000000000815260040160405180910390fd5b805160208201fd5b92915050565b604051806101c001604052806000151581526020016000151581526020016000151581526020016000151581526020016000151581526020016000151581526020016000151581526020016000151581526020016000151581526020016000151581526020016000151581526020016000151581526020016000151581526020016000151581525090565b6000604051905090565b600080fd5b600080fd5b600073ffffffffffffffffffffffffffffffffffffffff82169050919050565b6000610e1d82610df2565b9050919050565b610e2d81610e12565b8114610e3857600080fd5b50565b600081359050610e4a81610e24565b92915050565b600080fd5b600060a08284031215610e6b57610e6a610e50565b5b81905092915050565b600060808284031215610e8a57610e89610e50565b5b81905092915050565b600080fd5b600080fd5b600080fd5b60008083601f840112610eb857610eb7610e93565b5b8235905067ffffffffffffffff811115610ed557610ed4610e98565b5b602083019150836001820283011115610ef157610ef0610e9d565b5b9250929050565b60008060008060006101608688031215610f1557610f14610de8565b5b6000610f2388828901610e3b565b9550506020610f3488828901610e55565b94505060c0610f4588828901610e74565b93505061014086013567ffffffffffffffff811115610f6757610f66610ded565b5b610f7388828901610ea2565b92509250509295509295909350565b60007fffffffff0000000000000000000000000000000000000000000000000000000082169050919050565b610fb781610f82565b82525050565b6000602082019050610fd26000830184610fae565b92915050565b610fe181610df2565b8114610fec57600080fd5b50565b600081359050610ffe81610fd8565b92915050565b6000806000806000610100868803121561102157611020610de8565b5b600061102f88828901610e3b565b955050602061104088828901610e55565b94505060c061105188828901610fef565b93505060e086013567ffffffffffffffff81111561107257611071610ded565b5b61107e88828901610ea2565b92509250509295509295909350565b6000606082840312156110a3576110a2610e50565b5b81905092915050565b600080600080600061014086880312156110c9576110c8610de8565b5b60006110d788828901610e3b565b95505060206110e888828901610e55565b94505060c06110f98882890161108d565b93505061012086013567ffffffffffffffff81111561111b5761111a610ded565b5b61112788828901610ea2565b92509250509295509295909350565b6000819050919050565b6000819050919050565b600061116561116061115b84611136565b611140565b611136565b9050919050565b6111758161114a565b82525050565b600062ffffff82169050919050565b6111938161117b565b82525050565b60006060820190506111ae6000830186610fae565b6111bb602083018561116c565b6111c8604083018461118a565b949350505050565b600081519050919050565b600082825260208201905092915050565b60005b8381101561120a5780820151818401526020810190506111ef565b60008484015250505050565b6000601f19601f8301169050919050565b6000611232826111d0565b61123c81856111db565b935061124c8185602086016111ec565b61125581611216565b840191505092915050565b6000602082019050818103600083015261127a8184611227565b905092915050565b61128b81611136565b811461129657600080fd5b50565b6000813590506112a881611282565b92915050565b60008060008060008060006101a0888a0312156112ce576112cd610de8565b5b60006112dc8a828b01610e3b565b97505060206112ed8a828b01610e55565b96505060c06112fe8a828b01610e74565b9550506101406113108a828b01611299565b9450506101606113228a828b01611299565b93505061018088013567ffffffffffffffff81111561134457611343610ded565b5b6113508a828b01610ea2565b925092505092959891949750929550565b61136a8161114a565b82525050565b60006040820190506113856000830185610fae565b6113926020830184611361565b9392505050565b600080602083850312156113b0576113af610de8565b5b600083013567ffffffffffffffff8111156113ce576113cd610ded565b5b6113da85828601610ea2565b92509250509250929050565b600081519050919050565b600082825260208201905092915050565b600061140d826113e6565b61141781856113f1565b93506114278185602086016111ec565b61143081611216565b840191505092915050565b600060208201905081810360008301526114558184611402565b905092915050565b60008160020b9050919050565b6114738161145d565b811461147e57600080fd5b50565b6000813590506114908161146a565b92915050565b60008060008060008061012087890312156114b4576114b3610de8565b5b60006114c289828a01610e3b565b96505060206114d389828a01610e55565b95505060c06114e489828a01610fef565b94505060e06114f589828a01611481565b93505061010087013567ffffffffffffffff81111561151757611516610ded565b5b61152389828a01610ea2565b92509250509295509295509295565b60008060008060008061016087890312156115505761154f610de8565b5b600061155e89828a01610e3b565b965050602061156f89828a01610e55565b95505060c061158089828a0161108d565b94505061012061159289828a01611299565b93505061014087013567ffffffffffffffff8111156115b4576115b3610ded565b5b6115c089828a01610ea2565b92509250509295509295509295565b600081600f0b9050919050565b6115e5816115cf565b82525050565b60006040820190506116006000830185610fae565b61160d60208301846115dc565b9392505050565b6000819050919050565b61162781611614565b811461163257600080fd5b50565b6000813590506116448161161e565b92915050565b6000602082840312156116605761165f610de8565b5b600061166e84828501611635565b91505092915050565b61168081610e12565b82525050565b600060808201905061169b6000830187611677565b6116a86020830186611677565b6116b5604083018561118a565b6116c2606083018461118a565b95945050505050565b6000819050919050565b6116de816116cb565b81146116e957600080fd5b50565b6000813590506116fb816116d5565b92915050565b600080600080600080610120878903121561171f5761171e610de8565b5b600061172d89828a01610e3b565b965050602061173e89828a01610e55565b95505060c061174f89828a016116ec565b94505060e061176089828a016116ec565b93505061010087013567ffffffffffffffff81111561178257611781610ded565b5b61178e89828a01610ea2565b92509250509295509295509295565b60008115159050919050565b6117b28161179d565b82525050565b6101c0820160008201516117cf60008501826117a9565b5060208201516117e260208501826117a9565b5060408201516117f560408501826117a9565b50606082015161180860608501826117a9565b50608082015161181b60808501826117a9565b5060a082015161182e60a08501826117a9565b5060c082015161184160c08501826117a9565b5060e082015161185460e08501826117a9565b506101008201516118696101008501826117a9565b5061012082015161187e6101208501826117a9565b506101408201516118936101408501826117a9565b506101608201516118a86101608501826117a9565b506101808201516118bd6101808501826117a9565b506101a08201516118d26101a08501826117a9565b50505050565b60006101c0820190506118ee60008301846117b8565b92915050565b6118fd8161117b565b811461190857600080fd5b50565b60008135905061191a816118f4565b92915050565b600080600080610100858703121561193b5761193a610de8565b5b600061194987828801610e55565b94505060a061195a8782880161190b565b93505060c061196b8782880161190b565b92505060e061197c87828801610e3b565b91505092959194509250565b60006119a361199e61199984610df2565b611140565b610df2565b9050919050565b60006119b582611988565b9050919050565b60006119c7826119aa565b9050919050565b6119d7816119bc565b82525050565b60006020820190506119f260008301846119ce565b92915050565b6000602082019050611a0d6000830184611677565b92915050565b600080fd5b7f4e487b7100000000000000000000000000000000000000000000000000000000600052604160045260246000fd5b611a5082611216565b810181811067ffffffffffffffff82111715611a6f57611a6e611a18565b5b80604052505050565b6000611a82610dde565b9050611a8e8282611a47565b919050565b611a9c81610e12565b8114611aa757600080fd5b50565b600081359050611ab981611a93565b92915050565b6000611aca82610e12565b9050919050565b611ada81611abf565b8114611ae557600080fd5b50565b600081359050611af781611ad1565b92915050565b600060a08284031215611b1357611b12611a13565b5b611b1d60a0611a78565b90506000611b2d84828501611aaa565b6000830152506020611b4184828501611aaa565b6020830152506040611b558482850161190b565b6040830152506060611b6984828501611481565b6060830152506080611b7d84828501611ae8565b60808301525092915050565b600060a08284031215611b9f57611b9e610de8565b5b6000611bad84828501611afd565b91505092915050565b600081519050611bc5816116d5565b92915050565b600060208284031215611be157611be0610de8565b5b6000611bef84828501611bb6565b91505092915050565b6000611c0382610df2565b9050919050565b611c1381611bf8565b8114611c1e57600080fd5b50565b600081359050611c3081611c0a565b92915050565b600080600060608486031215611c4f57611c4e610de8565b5b6000611c5d8682870161190b565b9350506020611c6e8682870161190b565b9250506040611c7f86828701611c21565b9150509250925092565b600081905092915050565b82818337600083830152505050565b6000611caf8385611c89565b9350611cbc838584611c94565b82840190509392505050565b6000611cd5828486611ca3565b9150819050939250505056fea264697066735822122051ab9a73916b7b5a1a7193cc532609080e4840940bc3c261fc493e574767094a64736f6c634300081b0033","opcodes":"PUSH1 0xA0 PUSH1 0x40 MSTORE CALLVALUE DUP1 ISZERO PUSH2 0x10 JUMPI PUSH1 0x0 DUP1 REVERT JUMPDEST POP PUSH1 0x40 MLOAD PUSH2 0x2376 CODESIZE SUB DUP1 PUSH2 0x2376 DUP4 CODECOPY DUP2 DUP2 ADD PUSH1 0x40 MSTORE DUP2 ADD SWAP1 PUSH2 0x32 SWAP2 SWAP1 PUSH2 0x610 JUMP JUMPDEST DUP1 DUP1 DUP1 DUP1 PUSH20 0xFFFFFFFFFFFFFFFFFFFFFFFFFFFFFFFFFFFFFFFF AND PUSH1 0x80 DUP2 PUSH20 0xFFFFFFFFFFFFFFFFFFFFFFFFFFFFFFFFFFFFFFFF AND DUP2 MSTORE POP POP POP POP PUSH2 0x7A ADDRESS PUSH2 0x81 PUSH1 0x20 SHL PUSH1 0x20 SHR JUMP JUMPDEST POP POP PUSH2 0x63D JUMP JUMPDEST PUSH2 0x9E DUP2 PUSH2 0x93 PUSH2 0xA1 PUSH1 0x20 SHL PUSH1 0x20 SHR JUMP JUMPDEST PUSH2 0x136 PUSH1 0x20 SHL PUSH1 0x20 SHR JUMP JUMPDEST POP JUMP JUMPDEST PUSH2 0xA9 PUSH2 0x510 JUMP JUMPDEST PUSH1 0x40 MLOAD DUP1 PUSH2 0x1C0 ADD PUSH1 0x40 MSTORE DUP1 PUSH1 0x0 ISZERO ISZERO DUP2 MSTORE PUSH1 0x20 ADD PUSH1 0x1 ISZERO ISZERO DUP2 MSTORE PUSH1 0x20 ADD PUSH1 0x0 ISZERO ISZERO DUP2 MSTORE PUSH1 0x20 ADD PUSH1 0x0 ISZERO ISZERO DUP2 MSTORE PUSH1 0x20 ADD PUSH1 0x0 ISZERO ISZERO DUP2 MSTORE PUSH1 0x20 ADD PUSH1 0x0 ISZERO ISZERO DUP2 MSTORE PUSH1 0x20 ADD PUSH1 0x1 ISZERO ISZERO DUP2 MSTORE PUSH1 0x20 ADD PUSH1 0x0 ISZERO ISZERO DUP2 MSTORE PUSH1 0x20 ADD PUSH1 0x0 ISZERO ISZERO DUP2 MSTORE PUSH1 0x20 ADD PUSH1 0x0 ISZERO ISZERO DUP2 MSTORE PUSH1 0x20 ADD PUSH1 0x0 ISZERO ISZERO DUP2 MSTORE PUSH1 0x20 ADD PUSH1 0x0 ISZERO ISZERO DUP2 MSTORE PUSH1 0x20 ADD PUSH1 0x0 ISZERO ISZERO DUP2 MSTORE PUSH1 0x20 ADD PUSH1 0x0 ISZERO ISZERO DUP2 MSTORE POP SWAP1 POP SWAP1 JUMP JUMPDEST PUSH2 0x161 PUSH2 0x2000 DUP4 PUSH20 0xFFFFFFFFFFFFFFFFFFFFFFFFFFFFFFFFFFFFFFFF AND PUSH2 0x4C6 PUSH1 0x20 SHL SWAP1 SWAP2 SWAP1 PUSH1 0x20 SHR JUMP JUMPDEST ISZERO ISZERO DUP2 PUSH1 0x0 ADD MLOAD ISZERO ISZERO EQ ISZERO DUP1 PUSH2 0x1A9 JUMPI POP PUSH2 0x19D PUSH2 0x1000 DUP4 PUSH20 0xFFFFFFFFFFFFFFFFFFFFFFFFFFFFFFFFFFFFFFFF AND PUSH2 0x4C6 PUSH1 0x20 SHL SWAP1 SWAP2 SWAP1 PUSH1 0x20 SHR JUMP JUMPDEST ISZERO ISZERO DUP2 PUSH1 0x20 ADD MLOAD ISZERO ISZERO EQ ISZERO JUMPDEST DUP1 PUSH2 0x1E6 JUMPI POP PUSH2 0x1DA PUSH2 0x800 DUP4 PUSH20 0xFFFFFFFFFFFFFFFFFFFFFFFFFFFFFFFFFFFFFFFF AND PUSH2 0x4C6 PUSH1 0x20 SHL SWAP1 SWAP2 SWAP1 PUSH1 0x20 SHR JUMP JUMPDEST ISZERO ISZERO DUP2 PUSH1 0x40 ADD MLOAD ISZERO ISZERO EQ ISZERO JUMPDEST DUP1 PUSH2 0x223 JUMPI POP PUSH2 0x217 PUSH2 0x400 DUP4 PUSH20 0xFFFFFFFFFFFFFFFFFFFFFFFFFFFFFFFFFFFFFFFF AND PUSH2 0x4C6 PUSH1 0x20 SHL SWAP1 SWAP2 SWAP1 PUSH1 0x20 SHR JUMP JUMPDEST ISZERO ISZERO DUP2 PUSH1 0x60 ADD MLOAD ISZERO ISZERO EQ ISZERO JUMPDEST DUP1 PUSH2 0x260 JUMPI POP PUSH2 0x254 PUSH2 0x200 DUP4 PUSH20 0xFFFFFFFFFFFFFFFFFFFFFFFFFFFFFFFFFFFFFFFF AND PUSH2 0x4C6 PUSH1 0x20 SHL SWAP1 SWAP2 SWAP1 PUSH1 0x20 SHR JUMP JUMPDEST ISZERO ISZERO DUP2 PUSH1 0x80 ADD MLOAD ISZERO ISZERO EQ ISZERO JUMPDEST DUP1 PUSH2 0x29D JUMPI POP PUSH2 0x291 PUSH2 0x100 DUP4 PUSH20 0xFFFFFFFFFFFFFFFFFFFFFFFFFFFFFFFFFFFFFFFF AND PUSH2 0x4C6 PUSH1 0x20 SHL SWAP1 SWAP2 SWAP1 PUSH1 0x20 SHR JUMP JUMPDEST ISZERO ISZERO DUP2 PUSH1 0xA0 ADD MLOAD ISZERO ISZERO EQ ISZERO JUMPDEST DUP1 PUSH2 0x2D9 JUMPI POP PUSH2 0x2CD PUSH1 0x80 DUP4 PUSH20 0xFFFFFFFFFFFFFFFFFFFFFFFFFFFFFFFFFFFFFFFF AND PUSH2 0x4C6 PUSH1 0x20 SHL SWAP1 SWAP2 SWAP1 PUSH1 0x20 SHR JUMP JUMPDEST ISZERO ISZERO DUP2 PUSH1 0xC0 ADD MLOAD ISZERO ISZERO EQ ISZERO JUMPDEST DUP1 PUSH2 0x315 JUMPI POP PUSH2 0x309 PUSH1 0x40 DUP4 PUSH20 0xFFFFFFFFFFFFFFFFFFFFFFFFFFFFFFFFFFFFFFFF AND PUSH2 0x4C6 PUSH1 0x20 SHL SWAP1 SWAP2 SWAP1 PUSH1 0x20 SHR JUMP JUMPDEST ISZERO ISZERO DUP2 PUSH1 0xE0 ADD MLOAD ISZERO ISZERO EQ ISZERO JUMPDEST DUP1 PUSH2 0x352 JUMPI POP PUSH2 0x345 PUSH1 0x20 DUP4 PUSH20 0xFFFFFFFFFFFFFFFFFFFFFFFFFFFFFFFFFFFFFFFF AND PUSH2 0x4C6 PUSH1 0x20 SHL SWAP1 SWAP2 SWAP1 PUSH1 0x20 SHR JUMP JUMPDEST ISZERO ISZERO DUP2 PUSH2 0x100 ADD MLOAD ISZERO ISZERO EQ ISZERO JUMPDEST DUP1 PUSH2 0x38F JUMPI POP PUSH2 0x382 PUSH1 0x10 DUP4 PUSH20 0xFFFFFFFFFFFFFFFFFFFFFFFFFFFFFFFFFFFFFFFF AND PUSH2 0x4C6 PUSH1 0x20 SHL SWAP1 SWAP2 SWAP1 PUSH1 0x20 SHR JUMP JUMPDEST ISZERO ISZERO DUP2 PUSH2 0x120 ADD MLOAD ISZERO ISZERO EQ ISZERO JUMPDEST DUP1 PUSH2 0x3CC JUMPI POP PUSH2 0x3BF PUSH1 0x8 DUP4 PUSH20 0xFFFFFFFFFFFFFFFFFFFFFFFFFFFFFFFFFFFFFFFF AND PUSH2 0x4C6 PUSH1 0x20 SHL SWAP1 SWAP2 SWAP1 PUSH1 0x20 SHR JUMP JUMPDEST ISZERO ISZERO DUP2 PUSH2 0x140 ADD MLOAD ISZERO ISZERO EQ ISZERO JUMPDEST DUP1 PUSH2 0x409 JUMPI POP PUSH2 0x3FC PUSH1 0x4 DUP4 PUSH20 0xFFFFFFFFFFFFFFFFFFFFFFFFFFFFFFFFFFFFFFFF AND PUSH2 0x4C6 PUSH1 0x20 SHL SWAP1 SWAP2 SWAP1 PUSH1 0x20 SHR JUMP JUMPDEST ISZERO ISZERO DUP2 PUSH2 0x160 ADD MLOAD ISZERO ISZERO EQ ISZERO JUMPDEST DUP1 PUSH2 0x446 JUMPI POP PUSH2 0x439 PUSH1 0x2 DUP4 PUSH20 0xFFFFFFFFFFFFFFFFFFFFFFFFFFFFFFFFFFFFFFFF AND PUSH2 0x4C6 PUSH1 0x20 SHL SWAP1 SWAP2 SWAP1 PUSH1 0x20 SHR JUMP JUMPDEST ISZERO ISZERO DUP2 PUSH2 0x180 ADD MLOAD ISZERO ISZERO EQ ISZERO JUMPDEST DUP1 PUSH2 0x483 JUMPI POP PUSH2 0x476 PUSH1 0x1 DUP4 PUSH20 0xFFFFFFFFFFFFFFFFFFFFFFFFFFFFFFFFFFFFFFFF AND PUSH2 0x4C6 PUSH1 0x20 SHL SWAP1 SWAP2 SWAP1 PUSH1 0x20 SHR JUMP JUMPDEST ISZERO ISZERO DUP2 PUSH2 0x1A0 ADD MLOAD ISZERO ISZERO EQ ISZERO JUMPDEST ISZERO PUSH2 0x4C2 JUMPI PUSH2 0x4C1 DUP3 PUSH4 0xE65AF6A0 PUSH1 0xE0 SHL PUSH28 0xFFFFFFFFFFFFFFFFFFFFFFFFFFFFFFFFFFFFFFFFFFFFFFFFFFFFFFFF NOT AND PUSH2 0x4EC PUSH1 0x20 SHL SWAP1 SWAP2 SWAP1 PUSH1 0x20 SHR JUMP JUMPDEST JUMPDEST POP POP JUMP JUMPDEST PUSH1 0x0 DUP1 DUP3 DUP5 AND PUSH20 0xFFFFFFFFFFFFFFFFFFFFFFFFFFFFFFFFFFFFFFFF AND EQ ISZERO SWAP1 POP SWAP3 SWAP2 POP POP JUMP JUMPDEST DUP2 PUSH1 0x0 MSTORE PUSH20 0xFFFFFFFFFFFFFFFFFFFFFFFFFFFFFFFFFFFFFFFF DUP2 AND PUSH1 0x4 MSTORE PUSH1 0x24 PUSH1 0x0 REVERT JUMPDEST PUSH1 0x40 MLOAD DUP1 PUSH2 0x1C0 ADD PUSH1 0x40 MSTORE DUP1 PUSH1 0x0 ISZERO ISZERO DUP2 MSTORE PUSH1 0x20 ADD PUSH1 0x0 ISZERO ISZERO DUP2 MSTORE PUSH1 0x20 ADD PUSH1 0x0 ISZERO ISZERO DUP2 MSTORE PUSH1 0x20 ADD PUSH1 0x0 ISZERO ISZERO DUP2 MSTORE PUSH1 0x20 ADD PUSH1 0x0 ISZERO ISZERO DUP2 MSTORE PUSH1 0x20 ADD PUSH1 0x0 ISZERO ISZERO DUP2 MSTORE PUSH1 0x20 ADD PUSH1 0x0 ISZERO ISZERO DUP2 MSTORE PUSH1 0x20 ADD PUSH1 0x0 ISZERO ISZERO DUP2 MSTORE PUSH1 0x20 ADD PUSH1 0x0 ISZERO ISZERO DUP2 MSTORE PUSH1 0x20 ADD PUSH1 0x0 ISZERO ISZERO DUP2 MSTORE PUSH1 0x20 ADD PUSH1 0x0 ISZERO ISZERO DUP2 MSTORE PUSH1 0x20 ADD PUSH1 0x0 ISZERO ISZERO DUP2 MSTORE PUSH1 0x20 ADD PUSH1 0x0 ISZERO ISZERO DUP2 MSTORE PUSH1 0x20 ADD PUSH1 0x0 ISZERO ISZERO DUP2 MSTORE POP SWAP1 JUMP JUMPDEST PUSH1 0x0 DUP1 REVERT JUMPDEST PUSH1 0x0 PUSH20 0xFFFFFFFFFFFFFFFFFFFFFFFFFFFFFFFFFFFFFFFF DUP3 AND SWAP1 POP SWAP2 SWAP1 POP JUMP JUMPDEST PUSH1 0x0 PUSH2 0x5CB DUP3 PUSH2 0x5A0 JUMP JUMPDEST SWAP1 POP SWAP2 SWAP1 POP JUMP JUMPDEST PUSH1 0x0 PUSH2 0x5DD DUP3 PUSH2 0x5C0 JUMP JUMPDEST SWAP1 POP SWAP2 SWAP1 POP JUMP JUMPDEST PUSH2 0x5ED DUP2 PUSH2 0x5D2 JUMP JUMPDEST DUP2 EQ PUSH2 0x5F8 JUMPI PUSH1 0x0 DUP1 REVERT JUMPDEST POP JUMP JUMPDEST PUSH1 0x0 DUP2 MLOAD SWAP1 POP PUSH2 0x60A DUP2 PUSH2 0x5E4 JUMP JUMPDEST SWAP3 SWAP2 POP POP JUMP JUMPDEST PUSH1 0x0 PUSH1 0x20 DUP3 DUP5 SUB SLT ISZERO PUSH2 0x626 JUMPI PUSH2 0x625 PUSH2 0x59B JUMP JUMPDEST JUMPDEST PUSH1 0x0 PUSH2 0x634 DUP5 DUP3 DUP6 ADD PUSH2 0x5FB JUMP JUMPDEST SWAP2 POP POP SWAP3 SWAP2 POP POP JUMP JUMPDEST PUSH1 0x80 MLOAD PUSH2 0x1D17 PUSH2 0x65F PUSH1 0x0 CODECOPY PUSH1 0x0 DUP2 DUP2 PUSH2 0x717 ADD MSTORE PUSH2 0xBE5 ADD MSTORE PUSH2 0x1D17 PUSH1 0x0 RETURN INVALID PUSH1 0x80 PUSH1 0x40 MSTORE CALLVALUE DUP1 ISZERO PUSH2 0x10 JUMPI PUSH1 0x0 DUP1 REVERT JUMPDEST POP PUSH1 0x4 CALLDATASIZE LT PUSH2 0x10B JUMPI PUSH1 0x0 CALLDATALOAD PUSH1 0xE0 SHR DUP1 PUSH4 0xA910F80F GT PUSH2 0xA2 JUMPI DUP1 PUSH4 0xC4E833CE GT PUSH2 0x71 JUMPI DUP1 PUSH4 0xC4E833CE EQ PUSH2 0x346 JUMPI DUP1 PUSH4 0xCE4AFAE5 EQ PUSH2 0x364 JUMPI DUP1 PUSH4 0xDC4C90D3 EQ PUSH2 0x380 JUMPI DUP1 PUSH4 0xE1B4AF69 EQ PUSH2 0x39E JUMPI DUP1 PUSH4 0xF6C00927 EQ PUSH2 0x3CE JUMPI PUSH2 0x10B JUMP JUMPDEST DUP1 PUSH4 0xA910F80F EQ PUSH2 0x282 JUMPI DUP1 PUSH4 0xB47B2FB1 EQ PUSH2 0x2B2 JUMPI DUP1 PUSH4 0xB5217BB4 EQ PUSH2 0x2E3 JUMPI DUP1 PUSH4 0xB6A8B0FA EQ PUSH2 0x316 JUMPI PUSH2 0x10B JUMP JUMPDEST DUP1 PUSH4 0x5C36B186 GT PUSH2 0xDE JUMPI DUP1 PUSH4 0x5C36B186 EQ PUSH2 0x1D2 JUMPI DUP1 PUSH4 0x6C2BBE7E EQ PUSH2 0x1F0 JUMPI DUP1 PUSH4 0x91DD7346 EQ PUSH2 0x221 JUMPI DUP1 PUSH4 0x9F063EFC EQ PUSH2 0x251 JUMPI PUSH2 0x10B JUMP JUMPDEST DUP1 PUSH4 0x21D0EE70 EQ PUSH2 0x110 JUMPI DUP1 PUSH4 0x259982E5 EQ PUSH2 0x140 JUMPI DUP1 PUSH4 0x3440D820 EQ PUSH2 0x170 JUMPI DUP1 PUSH4 0x575E24B4 EQ PUSH2 0x1A0 JUMPI JUMPDEST PUSH1 0x0 DUP1 REVERT JUMPDEST PUSH2 0x12A PUSH1 0x4 DUP1 CALLDATASIZE SUB DUP2 ADD SWAP1 PUSH2 0x125 SWAP2 SWAP1 PUSH2 0xEF8 JUMP JUMPDEST PUSH2 0x3FE JUMP JUMPDEST PUSH1 0x40 MLOAD PUSH2 0x137 SWAP2 SWAP1 PUSH2 0xFBD JUMP JUMPDEST PUSH1 0x40 MLOAD DUP1 SWAP2 SUB SWAP1 RETURN JUMPDEST PUSH2 0x15A PUSH1 0x4 DUP1 CALLDATASIZE SUB DUP2 ADD SWAP1 PUSH2 0x155 SWAP2 SWAP1 PUSH2 0xEF8 JUMP JUMPDEST PUSH2 0x432 JUMP JUMPDEST PUSH1 0x40 MLOAD PUSH2 0x167 SWAP2 SWAP1 PUSH2 0xFBD JUMP JUMPDEST PUSH1 0x40 MLOAD DUP1 SWAP2 SUB SWAP1 RETURN JUMPDEST PUSH2 0x18A PUSH1 0x4 DUP1 CALLDATASIZE SUB DUP2 ADD SWAP1 PUSH2 0x185 SWAP2 SWAP1 PUSH2 0x1004 JUMP JUMPDEST PUSH2 0x466 JUMP JUMPDEST PUSH1 0x40 MLOAD PUSH2 0x197 SWAP2 SWAP1 PUSH2 0xFBD JUMP JUMPDEST PUSH1 0x40 MLOAD DUP1 SWAP2 SUB SWAP1 RETURN JUMPDEST PUSH2 0x1BA PUSH1 0x4 DUP1 CALLDATASIZE SUB DUP2 ADD SWAP1 PUSH2 0x1B5 SWAP2 SWAP1 PUSH2 0x10AC JUMP JUMPDEST PUSH2 0x49A JUMP JUMPDEST PUSH1 0x40 MLOAD PUSH2 0x1C9 SWAP4 SWAP3 SWAP2 SWAP1 PUSH2 0x1199 JUMP JUMPDEST PUSH1 0x40 MLOAD DUP1 SWAP2 SUB SWAP1 RETURN JUMPDEST PUSH2 0x1DA PUSH2 0x6A1 JUMP JUMPDEST PUSH1 0x40 MLOAD PUSH2 0x1E7 SWAP2 SWAP1 PUSH2 0x1260 JUMP JUMPDEST PUSH1 0x40 MLOAD DUP1 SWAP2 SUB SWAP1 RETURN JUMPDEST PUSH2 0x20A PUSH1 0x4 DUP1 CALLDATASIZE SUB DUP2 ADD SWAP1 PUSH2 0x205 SWAP2 SWAP1 PUSH2 0x12AE JUMP JUMPDEST PUSH2 0x6DE JUMP JUMPDEST PUSH1 0x40 MLOAD PUSH2 0x218 SWAP3 SWAP2 SWAP1 PUSH2 0x1370 JUMP JUMPDEST PUSH1 0x40 MLOAD DUP1 SWAP2 SUB SWAP1 RETURN JUMPDEST PUSH2 0x23B PUSH1 0x4 DUP1 CALLDATASIZE SUB DUP2 ADD SWAP1 PUSH2 0x236 SWAP2 SWAP1 PUSH2 0x1399 JUMP JUMPDEST PUSH2 0x713 JUMP JUMPDEST PUSH1 0x40 MLOAD PUSH2 0x248 SWAP2 SWAP1 PUSH2 0x143B JUMP JUMPDEST PUSH1 0x40 MLOAD DUP1 SWAP2 SUB SWAP1 RETURN JUMPDEST PUSH2 0x26B PUSH1 0x4 DUP1 CALLDATASIZE SUB DUP2 ADD SWAP1 PUSH2 0x266 SWAP2 SWAP1 PUSH2 0x12AE JUMP JUMPDEST PUSH2 0x7AC JUMP JUMPDEST PUSH1 0x40 MLOAD PUSH2 0x279 SWAP3 SWAP2 SWAP1 PUSH2 0x1370 JUMP JUMPDEST PUSH1 0x40 MLOAD DUP1 SWAP2 SUB SWAP1 RETURN JUMPDEST PUSH2 0x29C PUSH1 0x4 DUP1 CALLDATASIZE SUB DUP2 ADD SWAP1 PUSH2 0x297 SWAP2 SWAP1 PUSH2 0x1496 JUMP JUMPDEST PUSH2 0x7E1 JUMP JUMPDEST PUSH1 0x40 MLOAD PUSH2 0x2A9 SWAP2 SWAP1 PUSH2 0xFBD JUMP JUMPDEST PUSH1 0x40 MLOAD DUP1 SWAP2 SUB SWAP1 RETURN JUMPDEST PUSH2 0x2CC PUSH1 0x4 DUP1 CALLDATASIZE SUB DUP2 ADD SWAP1 PUSH2 0x2C7 SWAP2 SWAP1 PUSH2 0x1532 JUMP JUMPDEST PUSH2 0x97B JUMP JUMPDEST PUSH1 0x40 MLOAD PUSH2 0x2DA SWAP3 SWAP2 SWAP1 PUSH2 0x15EB JUMP JUMPDEST PUSH1 0x40 MLOAD DUP1 SWAP2 SUB SWAP1 RETURN JUMPDEST PUSH2 0x2FD PUSH1 0x4 DUP1 CALLDATASIZE SUB DUP2 ADD SWAP1 PUSH2 0x2F8 SWAP2 SWAP1 PUSH2 0x164A JUMP JUMPDEST PUSH2 0x9B0 JUMP JUMPDEST PUSH1 0x40 MLOAD PUSH2 0x30D SWAP5 SWAP4 SWAP3 SWAP2 SWAP1 PUSH2 0x1686 JUMP JUMPDEST PUSH1 0x40 MLOAD DUP1 SWAP2 SUB SWAP1 RETURN JUMPDEST PUSH2 0x330 PUSH1 0x4 DUP1 CALLDATASIZE SUB DUP2 ADD SWAP1 PUSH2 0x32B SWAP2 SWAP1 PUSH2 0x1701 JUMP JUMPDEST PUSH2 0xA3E JUMP JUMPDEST PUSH1 0x40 MLOAD PUSH2 0x33D SWAP2 SWAP1 PUSH2 0xFBD JUMP JUMPDEST PUSH1 0x40 MLOAD DUP1 SWAP2 SUB SWAP1 RETURN JUMPDEST PUSH2 0x34E PUSH2 0xA72 JUMP JUMPDEST PUSH1 0x40 MLOAD PUSH2 0x35B SWAP2 SWAP1 PUSH2 0x18D8 JUMP JUMPDEST PUSH1 0x40 MLOAD DUP1 SWAP2 SUB SWAP1 RETURN JUMPDEST PUSH2 0x37E PUSH1 0x4 DUP1 CALLDATASIZE SUB DUP2 ADD SWAP1 PUSH2 0x379 SWAP2 SWAP1 PUSH2 0x1920 JUMP JUMPDEST PUSH2 0xB07 JUMP JUMPDEST STOP JUMPDEST PUSH2 0x388 PUSH2 0xBE3 JUMP JUMPDEST PUSH1 0x40 MLOAD PUSH2 0x395 SWAP2 SWAP1 PUSH2 0x19DD JUMP JUMPDEST PUSH1 0x40 MLOAD DUP1 SWAP2 SUB SWAP1 RETURN JUMPDEST PUSH2 0x3B8 PUSH1 0x4 DUP1 CALLDATASIZE SUB DUP2 ADD SWAP1 PUSH2 0x3B3 SWAP2 SWAP1 PUSH2 0x1701 JUMP JUMPDEST PUSH2 0xC07 JUMP JUMPDEST PUSH1 0x40 MLOAD PUSH2 0x3C5 SWAP2 SWAP1 PUSH2 0xFBD JUMP JUMPDEST PUSH1 0x40 MLOAD DUP1 SWAP2 SUB SWAP1 RETURN JUMPDEST PUSH2 0x3E8 PUSH1 0x4 DUP1 CALLDATASIZE SUB DUP2 ADD SWAP1 PUSH2 0x3E3 SWAP2 SWAP1 PUSH2 0x164A JUMP JUMPDEST PUSH2 0xC3B JUMP JUMPDEST PUSH1 0x40 MLOAD PUSH2 0x3F5 SWAP2 SWAP1 PUSH2 0x19F8 JUMP JUMPDEST PUSH1 0x40 MLOAD DUP1 SWAP2 SUB SWAP1 RETURN JUMPDEST PUSH1 0x0 PUSH1 0x40 MLOAD PUSH32 0xA85DC2900000000000000000000000000000000000000000000000000000000 DUP2 MSTORE PUSH1 0x4 ADD PUSH1 0x40 MLOAD DUP1 SWAP2 SUB SWAP1 REVERT JUMPDEST PUSH1 0x0 PUSH1 0x40 MLOAD PUSH32 0xA85DC2900000000000000000000000000000000000000000000000000000000 DUP2 MSTORE PUSH1 0x4 ADD PUSH1 0x40 MLOAD DUP1 SWAP2 SUB SWAP1 REVERT JUMPDEST PUSH1 0x0 PUSH1 0x40 MLOAD PUSH32 0xA85DC2900000000000000000000000000000000000000000000000000000000 DUP2 MSTORE PUSH1 0x4 ADD PUSH1 0x40 MLOAD DUP1 SWAP2 SUB SWAP1 REVERT JUMPDEST PUSH1 0x0 DUP1 PUSH1 0x0 DUP1 PUSH2 0x4B9 DUP9 DUP1 CALLDATASIZE SUB DUP2 ADD SWAP1 PUSH2 0x4B4 SWAP2 SWAP1 PUSH2 0x1B89 JUMP JUMPDEST PUSH2 0xC7A JUMP JUMPDEST SWAP1 POP PUSH1 0x0 DUP1 PUSH1 0x0 DUP4 DUP2 MSTORE PUSH1 0x20 ADD SWAP1 DUP2 MSTORE PUSH1 0x20 ADD PUSH1 0x0 KECCAK256 PUSH1 0x40 MLOAD DUP1 PUSH1 0x80 ADD PUSH1 0x40 MSTORE SWAP1 DUP2 PUSH1 0x0 DUP3 ADD PUSH1 0x0 SWAP1 SLOAD SWAP1 PUSH2 0x100 EXP SWAP1 DIV PUSH20 0xFFFFFFFFFFFFFFFFFFFFFFFFFFFFFFFFFFFFFFFF AND PUSH20 0xFFFFFFFFFFFFFFFFFFFFFFFFFFFFFFFFFFFFFFFF AND PUSH20 0xFFFFFFFFFFFFFFFFFFFFFFFFFFFFFFFFFFFFFFFF AND DUP2 MSTORE PUSH1 0x20 ADD PUSH1 0x1 DUP3 ADD PUSH1 0x0 SWAP1 SLOAD SWAP1 PUSH2 0x100 EXP SWAP1 DIV PUSH20 0xFFFFFFFFFFFFFFFFFFFFFFFFFFFFFFFFFFFFFFFF AND PUSH20 0xFFFFFFFFFFFFFFFFFFFFFFFFFFFFFFFFFFFFFFFF AND PUSH20 0xFFFFFFFFFFFFFFFFFFFFFFFFFFFFFFFFFFFFFFFF AND DUP2 MSTORE PUSH1 0x20 ADD PUSH1 0x1 DUP3 ADD PUSH1 0x14 SWAP1 SLOAD SWAP1 PUSH2 0x100 EXP SWAP1 DIV PUSH3 0xFFFFFF AND PUSH3 0xFFFFFF AND PUSH3 0xFFFFFF AND DUP2 MSTORE PUSH1 0x20 ADD PUSH1 0x1 DUP3 ADD PUSH1 0x17 SWAP1 SLOAD SWAP1 PUSH2 0x100 EXP SWAP1 DIV PUSH3 0xFFFFFF AND PUSH3 0xFFFFFF AND PUSH3 0xFFFFFF AND DUP2 MSTORE POP POP SWAP1 POP PUSH1 0x0 DUP2 PUSH1 0x0 ADD MLOAD SWAP1 POP PUSH1 0x0 DUP2 PUSH20 0xFFFFFFFFFFFFFFFFFFFFFFFFFFFFFFFFFFFFFFFF AND PUSH4 0x70A08231 DUP14 PUSH1 0x40 MLOAD DUP3 PUSH4 0xFFFFFFFF AND PUSH1 0xE0 SHL DUP2 MSTORE PUSH1 0x4 ADD PUSH2 0x612 SWAP2 SWAP1 PUSH2 0x19F8 JUMP JUMPDEST PUSH1 0x20 PUSH1 0x40 MLOAD DUP1 DUP4 SUB DUP2 DUP7 GAS STATICCALL ISZERO DUP1 ISZERO PUSH2 0x62F JUMPI RETURNDATASIZE PUSH1 0x0 DUP1 RETURNDATACOPY RETURNDATASIZE PUSH1 0x0 REVERT JUMPDEST POP POP POP POP PUSH1 0x40 MLOAD RETURNDATASIZE PUSH1 0x1F NOT PUSH1 0x1F DUP3 ADD AND DUP3 ADD DUP1 PUSH1 0x40 MSTORE POP DUP2 ADD SWAP1 PUSH2 0x653 SWAP2 SWAP1 PUSH2 0x1BCB JUMP JUMPDEST SWAP1 POP PUSH1 0x0 DUP2 GT ISZERO PUSH2 0x67C JUMPI PUSH4 0x575E24B4 PUSH1 0xE0 SHL PUSH1 0x0 DUP5 PUSH1 0x60 ADD MLOAD SWAP7 POP SWAP7 POP SWAP7 POP POP POP POP POP PUSH2 0x696 JUMP JUMPDEST PUSH4 0x575E24B4 PUSH1 0xE0 SHL PUSH1 0x0 DUP5 PUSH1 0x40 ADD MLOAD SWAP7 POP SWAP7 POP SWAP7 POP POP POP POP POP JUMPDEST SWAP6 POP SWAP6 POP SWAP6 SWAP3 POP POP POP JUMP JUMPDEST PUSH1 0x60 PUSH1 0x40 MLOAD DUP1 PUSH1 0x40 ADD PUSH1 0x40 MSTORE DUP1 PUSH1 0x4 DUP2 MSTORE PUSH1 0x20 ADD PUSH32 0x706F6E6700000000000000000000000000000000000000000000000000000000 DUP2 MSTORE POP SWAP1 POP SWAP1 JUMP JUMPDEST PUSH1 0x0 DUP1 PUSH1 0x40 MLOAD PUSH32 0xA85DC2900000000000000000000000000000000000000000000000000000000 DUP2 MSTORE PUSH1 0x4 ADD PUSH1 0x40 MLOAD DUP1 SWAP2 SUB SWAP1 REVERT JUMPDEST PUSH1 0x60 PUSH32 0x0 PUSH20 0xFFFFFFFFFFFFFFFFFFFFFFFFFFFFFFFFFFFFFFFF AND CALLER PUSH20 0xFFFFFFFFFFFFFFFFFFFFFFFFFFFFFFFFFFFFFFFF AND EQ PUSH2 0x79A JUMPI PUSH1 0x40 MLOAD PUSH32 0xAE18210A00000000000000000000000000000000000000000000000000000000 DUP2 MSTORE PUSH1 0x4 ADD PUSH1 0x40 MLOAD DUP1 SWAP2 SUB SWAP1 REVERT JUMPDEST PUSH2 0x7A4 DUP4 DUP4 PUSH2 0xC87 JUMP JUMPDEST SWAP1 POP SWAP3 SWAP2 POP POP JUMP JUMPDEST PUSH1 0x0 DUP1 PUSH1 0x40 MLOAD PUSH32 0xA85DC2900000000000000000000000000000000000000000000000000000000 DUP2 MSTORE PUSH1 0x4 ADD PUSH1 0x40 MLOAD DUP1 SWAP2 SUB SWAP1 REVERT JUMPDEST PUSH1 0x0 DUP1 PUSH1 0x0 DUP1 DUP6 DUP6 DUP2 ADD SWAP1 PUSH2 0x7F6 SWAP2 SWAP1 PUSH2 0x1C36 JUMP JUMPDEST SWAP3 POP SWAP3 POP SWAP3 POP PUSH1 0x0 PUSH1 0x40 MLOAD DUP1 PUSH1 0x80 ADD PUSH1 0x40 MSTORE DUP1 DUP4 PUSH20 0xFFFFFFFFFFFFFFFFFFFFFFFFFFFFFFFFFFFFFFFF AND DUP2 MSTORE PUSH1 0x20 ADD DUP13 PUSH20 0xFFFFFFFFFFFFFFFFFFFFFFFFFFFFFFFFFFFFFFFF AND DUP2 MSTORE PUSH1 0x20 ADD DUP6 PUSH3 0xFFFFFF AND DUP2 MSTORE PUSH1 0x20 ADD DUP5 PUSH3 0xFFFFFF AND DUP2 MSTORE POP SWAP1 POP PUSH1 0x0 PUSH2 0x872 DUP12 DUP1 CALLDATASIZE SUB DUP2 ADD SWAP1 PUSH2 0x86D SWAP2 SWAP1 PUSH2 0x1B89 JUMP JUMPDEST PUSH2 0xC7A JUMP JUMPDEST SWAP1 POP DUP2 PUSH1 0x0 DUP1 DUP4 DUP2 MSTORE PUSH1 0x20 ADD SWAP1 DUP2 MSTORE PUSH1 0x20 ADD PUSH1 0x0 KECCAK256 PUSH1 0x0 DUP3 ADD MLOAD DUP2 PUSH1 0x0 ADD PUSH1 0x0 PUSH2 0x100 EXP DUP2 SLOAD DUP2 PUSH20 0xFFFFFFFFFFFFFFFFFFFFFFFFFFFFFFFFFFFFFFFF MUL NOT AND SWAP1 DUP4 PUSH20 0xFFFFFFFFFFFFFFFFFFFFFFFFFFFFFFFFFFFFFFFF AND MUL OR SWAP1 SSTORE POP PUSH1 0x20 DUP3 ADD MLOAD DUP2 PUSH1 0x1 ADD PUSH1 0x0 PUSH2 0x100 EXP DUP2 SLOAD DUP2 PUSH20 0xFFFFFFFFFFFFFFFFFFFFFFFFFFFFFFFFFFFFFFFF MUL NOT AND SWAP1 DUP4 PUSH20 0xFFFFFFFFFFFFFFFFFFFFFFFFFFFFFFFFFFFFFFFF AND MUL OR SWAP1 SSTORE POP PUSH1 0x40 DUP3 ADD MLOAD DUP2 PUSH1 0x1 ADD PUSH1 0x14 PUSH2 0x100 EXP DUP2 SLOAD DUP2 PUSH3 0xFFFFFF MUL NOT AND SWAP1 DUP4 PUSH3 0xFFFFFF AND MUL OR SWAP1 SSTORE POP PUSH1 0x60 DUP3 ADD MLOAD DUP2 PUSH1 0x1 ADD PUSH1 0x17 PUSH2 0x100 EXP DUP2 SLOAD DUP2 PUSH3 0xFFFFFF MUL NOT AND SWAP1 DUP4 PUSH3 0xFFFFFF AND MUL OR SWAP1 SSTORE POP SWAP1 POP POP PUSH4 0xA910F80F PUSH1 0xE0 SHL SWAP6 POP POP POP POP POP POP SWAP7 SWAP6 POP POP POP POP POP POP JUMP JUMPDEST PUSH1 0x0 DUP1 PUSH1 0x40 MLOAD PUSH32 0xA85DC2900000000000000000000000000000000000000000000000000000000 DUP2 MSTORE PUSH1 0x4 ADD PUSH1 0x40 MLOAD DUP1 SWAP2 SUB SWAP1 REVERT JUMPDEST PUSH1 0x0 PUSH1 0x20 MSTORE DUP1 PUSH1 0x0 MSTORE PUSH1 0x40 PUSH1 0x0 KECCAK256 PUSH1 0x0 SWAP2 POP SWAP1 POP DUP1 PUSH1 0x0 ADD PUSH1 0x0 SWAP1 SLOAD SWAP1 PUSH2 0x100 EXP SWAP1 DIV PUSH20 0xFFFFFFFFFFFFFFFFFFFFFFFFFFFFFFFFFFFFFFFF AND SWAP1 DUP1 PUSH1 0x1 ADD PUSH1 0x0 SWAP1 SLOAD SWAP1 PUSH2 0x100 EXP SWAP1 DIV PUSH20 0xFFFFFFFFFFFFFFFFFFFFFFFFFFFFFFFFFFFFFFFF AND SWAP1 DUP1 PUSH1 0x1 ADD PUSH1 0x14 SWAP1 SLOAD SWAP1 PUSH2 0x100 EXP SWAP1 DIV PUSH3 0xFFFFFF AND SWAP1 DUP1 PUSH1 0x1 ADD PUSH1 0x17 SWAP1 SLOAD SWAP1 PUSH2 0x100 EXP SWAP1 DIV PUSH3 0xFFFFFF AND SWAP1 POP DUP5 JUMP JUMPDEST PUSH1 0x0 PUSH1 0x40 MLOAD PUSH32 0xA85DC2900000000000000000000000000000000000000000000000000000000 DUP2 MSTORE PUSH1 0x4 ADD PUSH1 0x40 MLOAD DUP1 SWAP2 SUB SWAP1 REVERT JUMPDEST PUSH2 0xA7A PUSH2 0xD53 JUMP JUMPDEST PUSH1 0x40 MLOAD DUP1 PUSH2 0x1C0 ADD PUSH1 0x40 MSTORE DUP1 PUSH1 0x0 ISZERO ISZERO DUP2 MSTORE PUSH1 0x20 ADD PUSH1 0x1 ISZERO ISZERO DUP2 MSTORE PUSH1 0x20 ADD PUSH1 0x0 ISZERO ISZERO DUP2 MSTORE PUSH1 0x20 ADD PUSH1 0x0 ISZERO ISZERO DUP2 MSTORE PUSH1 0x20 ADD PUSH1 0x0 ISZERO ISZERO DUP2 MSTORE PUSH1 0x20 ADD PUSH1 0x0 ISZERO ISZERO DUP2 MSTORE PUSH1 0x20 ADD PUSH1 0x1 ISZERO ISZERO DUP2 MSTORE PUSH1 0x20 ADD PUSH1 0x0 ISZERO ISZERO DUP2 MSTORE PUSH1 0x20 ADD PUSH1 0x0 ISZERO ISZERO DUP2 MSTORE PUSH1 0x20 ADD PUSH1 0x0 ISZERO ISZERO DUP2 MSTORE PUSH1 0x20 ADD PUSH1 0x0 ISZERO ISZERO DUP2 MSTORE PUSH1 0x20 ADD PUSH1 0x0 ISZERO ISZERO DUP2 MSTORE PUSH1 0x20 ADD PUSH1 0x0 ISZERO ISZERO DUP2 MSTORE PUSH1 0x20 ADD PUSH1 0x0 ISZERO ISZERO DUP2 MSTORE POP SWAP1 POP SWAP1 JUMP JUMPDEST PUSH1 0x0 PUSH2 0xB22 DUP6 DUP1 CALLDATASIZE SUB DUP2 ADD SWAP1 PUSH2 0xB1D SWAP2 SWAP1 PUSH2 0x1B89 JUMP JUMPDEST PUSH2 0xC7A JUMP JUMPDEST SWAP1 POP DUP4 PUSH1 0x0 DUP1 DUP4 DUP2 MSTORE PUSH1 0x20 ADD SWAP1 DUP2 MSTORE PUSH1 0x20 ADD PUSH1 0x0 KECCAK256 PUSH1 0x1 ADD PUSH1 0x14 PUSH2 0x100 EXP DUP2 SLOAD DUP2 PUSH3 0xFFFFFF MUL NOT AND SWAP1 DUP4 PUSH3 0xFFFFFF AND MUL OR SWAP1 SSTORE POP DUP3 PUSH1 0x0 DUP1 DUP4 DUP2 MSTORE PUSH1 0x20 ADD SWAP1 DUP2 MSTORE PUSH1 0x20 ADD PUSH1 0x0 KECCAK256 PUSH1 0x1 ADD PUSH1 0x17 PUSH2 0x100 EXP DUP2 SLOAD DUP2 PUSH3 0xFFFFFF MUL NOT AND SWAP1 DUP4 PUSH3 0xFFFFFF AND MUL OR SWAP1 SSTORE POP DUP2 PUSH1 0x0 DUP1 DUP4 DUP2 MSTORE PUSH1 0x20 ADD SWAP1 DUP2 MSTORE PUSH1 0x20 ADD PUSH1 0x0 KECCAK256 PUSH1 0x0 ADD PUSH1 0x0 PUSH2 0x100 EXP DUP2 SLOAD DUP2 PUSH20 0xFFFFFFFFFFFFFFFFFFFFFFFFFFFFFFFFFFFFFFFF MUL NOT AND SWAP1 DUP4 PUSH20 0xFFFFFFFFFFFFFFFFFFFFFFFFFFFFFFFFFFFFFFFF AND MUL OR SWAP1 SSTORE POP POP POP POP POP POP JUMP JUMPDEST PUSH32 0x0 DUP2 JUMP JUMPDEST PUSH1 0x0 PUSH1 0x40 MLOAD PUSH32 0xA85DC2900000000000000000000000000000000000000000000000000000000 DUP2 MSTORE PUSH1 0x4 ADD PUSH1 0x40 MLOAD DUP1 SWAP2 SUB SWAP1 REVERT JUMPDEST PUSH1 0x0 DUP1 PUSH1 0x0 DUP4 DUP2 MSTORE PUSH1 0x20 ADD SWAP1 DUP2 MSTORE PUSH1 0x20 ADD PUSH1 0x0 KECCAK256 PUSH1 0x1 ADD PUSH1 0x0 SWAP1 SLOAD SWAP1 PUSH2 0x100 EXP SWAP1 DIV PUSH20 0xFFFFFFFFFFFFFFFFFFFFFFFFFFFFFFFFFFFFFFFF AND SWAP1 POP SWAP2 SWAP1 POP JUMP JUMPDEST PUSH1 0x0 PUSH1 0xA0 DUP3 KECCAK256 SWAP1 POP SWAP2 SWAP1 POP JUMP JUMPDEST PUSH1 0x60 PUSH1 0x0 DUP1 ADDRESS PUSH20 0xFFFFFFFFFFFFFFFFFFFFFFFFFFFFFFFFFFFFFFFF AND DUP6 DUP6 PUSH1 0x40 MLOAD PUSH2 0xCB3 SWAP3 SWAP2 SWAP1 PUSH2 0x1CC8 JUMP JUMPDEST PUSH1 0x0 PUSH1 0x40 MLOAD DUP1 DUP4 SUB DUP2 PUSH1 0x0 DUP7 GAS CALL SWAP2 POP POP RETURNDATASIZE DUP1 PUSH1 0x0 DUP2 EQ PUSH2 0xCF0 JUMPI PUSH1 0x40 MLOAD SWAP2 POP PUSH1 0x1F NOT PUSH1 0x3F RETURNDATASIZE ADD AND DUP3 ADD PUSH1 0x40 MSTORE RETURNDATASIZE DUP3 MSTORE RETURNDATASIZE PUSH1 0x0 PUSH1 0x20 DUP5 ADD RETURNDATACOPY PUSH2 0xCF5 JUMP JUMPDEST PUSH1 0x60 SWAP2 POP JUMPDEST POP SWAP2 POP SWAP2 POP DUP2 ISZERO PUSH2 0xD0A JUMPI DUP1 SWAP3 POP POP POP PUSH2 0xD4D JUMP JUMPDEST PUSH1 0x0 DUP2 MLOAD SUB PUSH2 0xD45 JUMPI PUSH1 0x40 MLOAD PUSH32 0xA40AFA3800000000000000000000000000000000000000000000000000000000 DUP2 MSTORE PUSH1 0x4 ADD PUSH1 0x40 MLOAD DUP1 SWAP2 SUB SWAP1 REVERT JUMPDEST DUP1 MLOAD PUSH1 0x20 DUP3 ADD REVERT JUMPDEST SWAP3 SWAP2 POP POP JUMP JUMPDEST PUSH1 0x40 MLOAD DUP1 PUSH2 0x1C0 ADD PUSH1 0x40 MSTORE DUP1 PUSH1 0x0 ISZERO ISZERO DUP2 MSTORE PUSH1 0x20 ADD PUSH1 0x0 ISZERO ISZERO DUP2 MSTORE PUSH1 0x20 ADD PUSH1 0x0 ISZERO ISZERO DUP2 MSTORE PUSH1 0x20 ADD PUSH1 0x0 ISZERO ISZERO DUP2 MSTORE PUSH1 0x20 ADD PUSH1 0x0 ISZERO ISZERO DUP2 MSTORE PUSH1 0x20 ADD PUSH1 0x0 ISZERO ISZERO DUP2 MSTORE PUSH1 0x20 ADD PUSH1 0x0 ISZERO ISZERO DUP2 MSTORE PUSH1 0x20 ADD PUSH1 0x0 ISZERO ISZERO DUP2 MSTORE PUSH1 0x20 ADD PUSH1 0x0 ISZERO ISZERO DUP2 MSTORE PUSH1 0x20 ADD PUSH1 0x0 ISZERO ISZERO DUP2 MSTORE PUSH1 0x20 ADD PUSH1 0x0 ISZERO ISZERO DUP2 MSTORE PUSH1 0x20 ADD PUSH1 0x0 ISZERO ISZERO DUP2 MSTORE PUSH1 0x20 ADD PUSH1 0x0 ISZERO ISZERO DUP2 MSTORE PUSH1 0x20 ADD PUSH1 0x0 ISZERO ISZERO DUP2 MSTORE POP SWAP1 JUMP JUMPDEST PUSH1 0x0 PUSH1 0x40 MLOAD SWAP1 POP SWAP1 JUMP JUMPDEST PUSH1 0x0 DUP1 REVERT JUMPDEST PUSH1 0x0 DUP1 REVERT JUMPDEST PUSH1 0x0 PUSH20 0xFFFFFFFFFFFFFFFFFFFFFFFFFFFFFFFFFFFFFFFF DUP3 AND SWAP1 POP SWAP2 SWAP1 POP JUMP JUMPDEST PUSH1 0x0 PUSH2 0xE1D DUP3 PUSH2 0xDF2 JUMP JUMPDEST SWAP1 POP SWAP2 SWAP1 POP JUMP JUMPDEST PUSH2 0xE2D DUP2 PUSH2 0xE12 JUMP JUMPDEST DUP2 EQ PUSH2 0xE38 JUMPI PUSH1 0x0 DUP1 REVERT JUMPDEST POP JUMP JUMPDEST PUSH1 0x0 DUP2 CALLDATALOAD SWAP1 POP PUSH2 0xE4A DUP2 PUSH2 0xE24 JUMP JUMPDEST SWAP3 SWAP2 POP POP JUMP JUMPDEST PUSH1 0x0 DUP1 REVERT JUMPDEST PUSH1 0x0 PUSH1 0xA0 DUP3 DUP5 SUB SLT ISZERO PUSH2 0xE6B JUMPI PUSH2 0xE6A PUSH2 0xE50 JUMP JUMPDEST JUMPDEST DUP2 SWAP1 POP SWAP3 SWAP2 POP POP JUMP JUMPDEST PUSH1 0x0 PUSH1 0x80 DUP3 DUP5 SUB SLT ISZERO PUSH2 0xE8A JUMPI PUSH2 0xE89 PUSH2 0xE50 JUMP JUMPDEST JUMPDEST DUP2 SWAP1 POP SWAP3 SWAP2 POP POP JUMP JUMPDEST PUSH1 0x0 DUP1 REVERT JUMPDEST PUSH1 0x0 DUP1 REVERT JUMPDEST PUSH1 0x0 DUP1 REVERT JUMPDEST PUSH1 0x0 DUP1 DUP4 PUSH1 0x1F DUP5 ADD SLT PUSH2 0xEB8 JUMPI PUSH2 0xEB7 PUSH2 0xE93 JUMP JUMPDEST JUMPDEST DUP3 CALLDATALOAD SWAP1 POP PUSH8 0xFFFFFFFFFFFFFFFF DUP2 GT ISZERO PUSH2 0xED5 JUMPI PUSH2 0xED4 PUSH2 0xE98 JUMP JUMPDEST JUMPDEST PUSH1 0x20 DUP4 ADD SWAP2 POP DUP4 PUSH1 0x1 DUP3 MUL DUP4 ADD GT ISZERO PUSH2 0xEF1 JUMPI PUSH2 0xEF0 PUSH2 0xE9D JUMP JUMPDEST JUMPDEST SWAP3 POP SWAP3 SWAP1 POP JUMP JUMPDEST PUSH1 0x0 DUP1 PUSH1 0x0 DUP1 PUSH1 0x0 PUSH2 0x160 DUP7 DUP9 SUB SLT ISZERO PUSH2 0xF15 JUMPI PUSH2 0xF14 PUSH2 0xDE8 JUMP JUMPDEST JUMPDEST PUSH1 0x0 PUSH2 0xF23 DUP9 DUP3 DUP10 ADD PUSH2 0xE3B JUMP JUMPDEST SWAP6 POP POP PUSH1 0x20 PUSH2 0xF34 DUP9 DUP3 DUP10 ADD PUSH2 0xE55 JUMP JUMPDEST SWAP5 POP POP PUSH1 0xC0 PUSH2 0xF45 DUP9 DUP3 DUP10 ADD PUSH2 0xE74 JUMP JUMPDEST SWAP4 POP POP PUSH2 0x140 DUP7 ADD CALLDATALOAD PUSH8 0xFFFFFFFFFFFFFFFF DUP2 GT ISZERO PUSH2 0xF67 JUMPI PUSH2 0xF66 PUSH2 0xDED JUMP JUMPDEST JUMPDEST PUSH2 0xF73 DUP9 DUP3 DUP10 ADD PUSH2 0xEA2 JUMP JUMPDEST SWAP3 POP SWAP3 POP POP SWAP3 SWAP6 POP SWAP3 SWAP6 SWAP1 SWAP4 POP JUMP JUMPDEST PUSH1 0x0 PUSH32 0xFFFFFFFF00000000000000000000000000000000000000000000000000000000 DUP3 AND SWAP1 POP SWAP2 SWAP1 POP JUMP JUMPDEST PUSH2 0xFB7 DUP2 PUSH2 0xF82 JUMP JUMPDEST DUP3 MSTORE POP POP JUMP JUMPDEST PUSH1 0x0 PUSH1 0x20 DUP3 ADD SWAP1 POP PUSH2 0xFD2 PUSH1 0x0 DUP4 ADD DUP5 PUSH2 0xFAE JUMP JUMPDEST SWAP3 SWAP2 POP POP JUMP JUMPDEST PUSH2 0xFE1 DUP2 PUSH2 0xDF2 JUMP JUMPDEST DUP2 EQ PUSH2 0xFEC JUMPI PUSH1 0x0 DUP1 REVERT JUMPDEST POP JUMP JUMPDEST PUSH1 0x0 DUP2 CALLDATALOAD SWAP1 POP PUSH2 0xFFE DUP2 PUSH2 0xFD8 JUMP JUMPDEST SWAP3 SWAP2 POP POP JUMP JUMPDEST PUSH1 0x0 DUP1 PUSH1 0x0 DUP1 PUSH1 0x0 PUSH2 0x100 DUP7 DUP9 SUB SLT ISZERO PUSH2 0x1021 JUMPI PUSH2 0x1020 PUSH2 0xDE8 JUMP JUMPDEST JUMPDEST PUSH1 0x0 PUSH2 0x102F DUP9 DUP3 DUP10 ADD PUSH2 0xE3B JUMP JUMPDEST SWAP6 POP POP PUSH1 0x20 PUSH2 0x1040 DUP9 DUP3 DUP10 ADD PUSH2 0xE55 JUMP JUMPDEST SWAP5 POP POP PUSH1 0xC0 PUSH2 0x1051 DUP9 DUP3 DUP10 ADD PUSH2 0xFEF JUMP JUMPDEST SWAP4 POP POP PUSH1 0xE0 DUP7 ADD CALLDATALOAD PUSH8 0xFFFFFFFFFFFFFFFF DUP2 GT ISZERO PUSH2 0x1072 JUMPI PUSH2 0x1071 PUSH2 0xDED JUMP JUMPDEST JUMPDEST PUSH2 0x107E DUP9 DUP3 DUP10 ADD PUSH2 0xEA2 JUMP JUMPDEST SWAP3 POP SWAP3 POP POP SWAP3 SWAP6 POP SWAP3 SWAP6 SWAP1 SWAP4 POP JUMP JUMPDEST PUSH1 0x0 PUSH1 0x60 DUP3 DUP5 SUB SLT ISZERO PUSH2 0x10A3 JUMPI PUSH2 0x10A2 PUSH2 0xE50 JUMP JUMPDEST JUMPDEST DUP2 SWAP1 POP SWAP3 SWAP2 POP POP JUMP JUMPDEST PUSH1 0x0 DUP1 PUSH1 0x0 DUP1 PUSH1 0x0 PUSH2 0x140 DUP7 DUP9 SUB SLT ISZERO PUSH2 0x10C9 JUMPI PUSH2 0x10C8 PUSH2 0xDE8 JUMP JUMPDEST JUMPDEST PUSH1 0x0 PUSH2 0x10D7 DUP9 DUP3 DUP10 ADD PUSH2 0xE3B JUMP JUMPDEST SWAP6 POP POP PUSH1 0x20 PUSH2 0x10E8 DUP9 DUP3 DUP10 ADD PUSH2 0xE55 JUMP JUMPDEST SWAP5 POP POP PUSH1 0xC0 PUSH2 0x10F9 DUP9 DUP3 DUP10 ADD PUSH2 0x108D JUMP JUMPDEST SWAP4 POP POP PUSH2 0x120 DUP7 ADD CALLDATALOAD PUSH8 0xFFFFFFFFFFFFFFFF DUP2 GT ISZERO PUSH2 0x111B JUMPI PUSH2 0x111A PUSH2 0xDED JUMP JUMPDEST JUMPDEST PUSH2 0x1127 DUP9 DUP3 DUP10 ADD PUSH2 0xEA2 JUMP JUMPDEST SWAP3 POP SWAP3 POP POP SWAP3 SWAP6 POP SWAP3 SWAP6 SWAP1 SWAP4 POP JUMP JUMPDEST PUSH1 0x0 DUP2 SWAP1 POP SWAP2 SWAP1 POP JUMP JUMPDEST PUSH1 0x0 DUP2 SWAP1 POP SWAP2 SWAP1 POP JUMP JUMPDEST PUSH1 0x0 PUSH2 0x1165 PUSH2 0x1160 PUSH2 0x115B DUP5 PUSH2 0x1136 JUMP JUMPDEST PUSH2 0x1140 JUMP JUMPDEST PUSH2 0x1136 JUMP JUMPDEST SWAP1 POP SWAP2 SWAP1 POP JUMP JUMPDEST PUSH2 0x1175 DUP2 PUSH2 0x114A JUMP JUMPDEST DUP3 MSTORE POP POP JUMP JUMPDEST PUSH1 0x0 PUSH3 0xFFFFFF DUP3 AND SWAP1 POP SWAP2 SWAP1 POP JUMP JUMPDEST PUSH2 0x1193 DUP2 PUSH2 0x117B JUMP JUMPDEST DUP3 MSTORE POP POP JUMP JUMPDEST PUSH1 0x0 PUSH1 0x60 DUP3 ADD SWAP1 POP PUSH2 0x11AE PUSH1 0x0 DUP4 ADD DUP7 PUSH2 0xFAE JUMP JUMPDEST PUSH2 0x11BB PUSH1 0x20 DUP4 ADD DUP6 PUSH2 0x116C JUMP JUMPDEST PUSH2 0x11C8 PUSH1 0x40 DUP4 ADD DUP5 PUSH2 0x118A JUMP JUMPDEST SWAP5 SWAP4 POP POP POP POP JUMP JUMPDEST PUSH1 0x0 DUP2 MLOAD SWAP1 POP SWAP2 SWAP1 POP JUMP JUMPDEST PUSH1 0x0 DUP3 DUP3 MSTORE PUSH1 0x20 DUP3 ADD SWAP1 POP SWAP3 SWAP2 POP POP JUMP JUMPDEST PUSH1 0x0 JUMPDEST DUP4 DUP2 LT ISZERO PUSH2 0x120A JUMPI DUP1 DUP3 ADD MLOAD DUP2 DUP5 ADD MSTORE PUSH1 0x20 DUP2 ADD SWAP1 POP PUSH2 0x11EF JUMP JUMPDEST PUSH1 0x0 DUP5 DUP5 ADD MSTORE POP POP POP POP JUMP JUMPDEST PUSH1 0x0 PUSH1 0x1F NOT PUSH1 0x1F DUP4 ADD AND SWAP1 POP SWAP2 SWAP1 POP JUMP JUMPDEST PUSH1 0x0 PUSH2 0x1232 DUP3 PUSH2 0x11D0 JUMP JUMPDEST PUSH2 0x123C DUP2 DUP6 PUSH2 0x11DB JUMP JUMPDEST SWAP4 POP PUSH2 0x124C DUP2 DUP6 PUSH1 0x20 DUP7 ADD PUSH2 0x11EC JUMP JUMPDEST PUSH2 0x1255 DUP2 PUSH2 0x1216 JUMP JUMPDEST DUP5 ADD SWAP2 POP POP SWAP3 SWAP2 POP POP JUMP JUMPDEST PUSH1 0x0 PUSH1 0x20 DUP3 ADD SWAP1 POP DUP2 DUP2 SUB PUSH1 0x0 DUP4 ADD MSTORE PUSH2 0x127A DUP2 DUP5 PUSH2 0x1227 JUMP JUMPDEST SWAP1 POP SWAP3 SWAP2 POP POP JUMP JUMPDEST PUSH2 0x128B DUP2 PUSH2 0x1136 JUMP JUMPDEST DUP2 EQ PUSH2 0x1296 JUMPI PUSH1 0x0 DUP1 REVERT JUMPDEST POP JUMP JUMPDEST PUSH1 0x0 DUP2 CALLDATALOAD SWAP1 POP PUSH2 0x12A8 DUP2 PUSH2 0x1282 JUMP JUMPDEST SWAP3 SWAP2 POP POP JUMP JUMPDEST PUSH1 0x0 DUP1 PUSH1 0x0 DUP1 PUSH1 0x0 DUP1 PUSH1 0x0 PUSH2 0x1A0 DUP9 DUP11 SUB SLT ISZERO PUSH2 0x12CE JUMPI PUSH2 0x12CD PUSH2 0xDE8 JUMP JUMPDEST JUMPDEST PUSH1 0x0 PUSH2 0x12DC DUP11 DUP3 DUP12 ADD PUSH2 0xE3B JUMP JUMPDEST SWAP8 POP POP PUSH1 0x20 PUSH2 0x12ED DUP11 DUP3 DUP12 ADD PUSH2 0xE55 JUMP JUMPDEST SWAP7 POP POP PUSH1 0xC0 PUSH2 0x12FE DUP11 DUP3 DUP12 ADD PUSH2 0xE74 JUMP JUMPDEST SWAP6 POP POP PUSH2 0x140 PUSH2 0x1310 DUP11 DUP3 DUP12 ADD PUSH2 0x1299 JUMP JUMPDEST SWAP5 POP POP PUSH2 0x160 PUSH2 0x1322 DUP11 DUP3 DUP12 ADD PUSH2 0x1299 JUMP JUMPDEST SWAP4 POP POP PUSH2 0x180 DUP9 ADD CALLDATALOAD PUSH8 0xFFFFFFFFFFFFFFFF DUP2 GT ISZERO PUSH2 0x1344 JUMPI PUSH2 0x1343 PUSH2 0xDED JUMP JUMPDEST JUMPDEST PUSH2 0x1350 DUP11 DUP3 DUP12 ADD PUSH2 0xEA2 JUMP JUMPDEST SWAP3 POP SWAP3 POP POP SWAP3 SWAP6 SWAP9 SWAP2 SWAP5 SWAP8 POP SWAP3 SWAP6 POP JUMP JUMPDEST PUSH2 0x136A DUP2 PUSH2 0x114A JUMP JUMPDEST DUP3 MSTORE POP POP JUMP JUMPDEST PUSH1 0x0 PUSH1 0x40 DUP3 ADD SWAP1 POP PUSH2 0x1385 PUSH1 0x0 DUP4 ADD DUP6 PUSH2 0xFAE JUMP JUMPDEST PUSH2 0x1392 PUSH1 0x20 DUP4 ADD DUP5 PUSH2 0x1361 JUMP JUMPDEST SWAP4 SWAP3 POP POP POP JUMP JUMPDEST PUSH1 0x0 DUP1 PUSH1 0x20 DUP4 DUP6 SUB SLT ISZERO PUSH2 0x13B0 JUMPI PUSH2 0x13AF PUSH2 0xDE8 JUMP JUMPDEST JUMPDEST PUSH1 0x0 DUP4 ADD CALLDATALOAD PUSH8 0xFFFFFFFFFFFFFFFF DUP2 GT ISZERO PUSH2 0x13CE JUMPI PUSH2 0x13CD PUSH2 0xDED JUMP JUMPDEST JUMPDEST PUSH2 0x13DA DUP6 DUP3 DUP7 ADD PUSH2 0xEA2 JUMP JUMPDEST SWAP3 POP SWAP3 POP POP SWAP3 POP SWAP3 SWAP1 POP JUMP JUMPDEST PUSH1 0x0 DUP2 MLOAD SWAP1 POP SWAP2 SWAP1 POP JUMP JUMPDEST PUSH1 0x0 DUP3 DUP3 MSTORE PUSH1 0x20 DUP3 ADD SWAP1 POP SWAP3 SWAP2 POP POP JUMP JUMPDEST PUSH1 0x0 PUSH2 0x140D DUP3 PUSH2 0x13E6 JUMP JUMPDEST PUSH2 0x1417 DUP2 DUP6 PUSH2 0x13F1 JUMP JUMPDEST SWAP4 POP PUSH2 0x1427 DUP2 DUP6 PUSH1 0x20 DUP7 ADD PUSH2 0x11EC JUMP JUMPDEST PUSH2 0x1430 DUP2 PUSH2 0x1216 JUMP JUMPDEST DUP5 ADD SWAP2 POP POP SWAP3 SWAP2 POP POP JUMP JUMPDEST PUSH1 0x0 PUSH1 0x20 DUP3 ADD SWAP1 POP DUP2 DUP2 SUB PUSH1 0x0 DUP4 ADD MSTORE PUSH2 0x1455 DUP2 DUP5 PUSH2 0x1402 JUMP JUMPDEST SWAP1 POP SWAP3 SWAP2 POP POP JUMP JUMPDEST PUSH1 0x0 DUP2 PUSH1 0x2 SIGNEXTEND SWAP1 POP SWAP2 SWAP1 POP JUMP JUMPDEST PUSH2 0x1473 DUP2 PUSH2 0x145D JUMP JUMPDEST DUP2 EQ PUSH2 0x147E JUMPI PUSH1 0x0 DUP1 REVERT JUMPDEST POP JUMP JUMPDEST PUSH1 0x0 DUP2 CALLDATALOAD SWAP1 POP PUSH2 0x1490 DUP2 PUSH2 0x146A JUMP JUMPDEST SWAP3 SWAP2 POP POP JUMP JUMPDEST PUSH1 0x0 DUP1 PUSH1 0x0 DUP1 PUSH1 0x0 DUP1 PUSH2 0x120 DUP8 DUP10 SUB SLT ISZERO PUSH2 0x14B4 JUMPI PUSH2 0x14B3 PUSH2 0xDE8 JUMP JUMPDEST JUMPDEST PUSH1 0x0 PUSH2 0x14C2 DUP10 DUP3 DUP11 ADD PUSH2 0xE3B JUMP JUMPDEST SWAP7 POP POP PUSH1 0x20 PUSH2 0x14D3 DUP10 DUP3 DUP11 ADD PUSH2 0xE55 JUMP JUMPDEST SWAP6 POP POP PUSH1 0xC0 PUSH2 0x14E4 DUP10 DUP3 DUP11 ADD PUSH2 0xFEF JUMP JUMPDEST SWAP5 POP POP PUSH1 0xE0 PUSH2 0x14F5 DUP10 DUP3 DUP11 ADD PUSH2 0x1481 JUMP JUMPDEST SWAP4 POP POP PUSH2 0x100 DUP8 ADD CALLDATALOAD PUSH8 0xFFFFFFFFFFFFFFFF DUP2 GT ISZERO PUSH2 0x1517 JUMPI PUSH2 0x1516 PUSH2 0xDED JUMP JUMPDEST JUMPDEST PUSH2 0x1523 DUP10 DUP3 DUP11 ADD PUSH2 0xEA2 JUMP JUMPDEST SWAP3 POP SWAP3 POP POP SWAP3 SWAP6 POP SWAP3 SWAP6 POP SWAP3 SWAP6 JUMP JUMPDEST PUSH1 0x0 DUP1 PUSH1 0x0 DUP1 PUSH1 0x0 DUP1 PUSH2 0x160 DUP8 DUP10 SUB SLT ISZERO PUSH2 0x1550 JUMPI PUSH2 0x154F PUSH2 0xDE8 JUMP JUMPDEST JUMPDEST PUSH1 0x0 PUSH2 0x155E DUP10 DUP3 DUP11 ADD PUSH2 0xE3B JUMP JUMPDEST SWAP7 POP POP PUSH1 0x20 PUSH2 0x156F DUP10 DUP3 DUP11 ADD PUSH2 0xE55 JUMP JUMPDEST SWAP6 POP POP PUSH1 0xC0 PUSH2 0x1580 DUP10 DUP3 DUP11 ADD PUSH2 0x108D JUMP JUMPDEST SWAP5 POP POP PUSH2 0x120 PUSH2 0x1592 DUP10 DUP3 DUP11 ADD PUSH2 0x1299 JUMP JUMPDEST SWAP4 POP POP PUSH2 0x140 DUP8 ADD CALLDATALOAD PUSH8 0xFFFFFFFFFFFFFFFF DUP2 GT ISZERO PUSH2 0x15B4 JUMPI PUSH2 0x15B3 PUSH2 0xDED JUMP JUMPDEST JUMPDEST PUSH2 0x15C0 DUP10 DUP3 DUP11 ADD PUSH2 0xEA2 JUMP JUMPDEST SWAP3 POP SWAP3 POP POP SWAP3 SWAP6 POP SWAP3 SWAP6 POP SWAP3 SWAP6 JUMP JUMPDEST PUSH1 0x0 DUP2 PUSH1 0xF SIGNEXTEND SWAP1 POP SWAP2 SWAP1 POP JUMP JUMPDEST PUSH2 0x15E5 DUP2 PUSH2 0x15CF JUMP JUMPDEST DUP3 MSTORE POP POP JUMP JUMPDEST PUSH1 0x0 PUSH1 0x40 DUP3 ADD SWAP1 POP PUSH2 0x1600 PUSH1 0x0 DUP4 ADD DUP6 PUSH2 0xFAE JUMP JUMPDEST PUSH2 0x160D PUSH1 0x20 DUP4 ADD DUP5 PUSH2 0x15DC JUMP JUMPDEST SWAP4 SWAP3 POP POP POP JUMP JUMPDEST PUSH1 0x0 DUP2 SWAP1 POP SWAP2 SWAP1 POP JUMP JUMPDEST PUSH2 0x1627 DUP2 PUSH2 0x1614 JUMP JUMPDEST DUP2 EQ PUSH2 0x1632 JUMPI PUSH1 0x0 DUP1 REVERT JUMPDEST POP JUMP JUMPDEST PUSH1 0x0 DUP2 CALLDATALOAD SWAP1 POP PUSH2 0x1644 DUP2 PUSH2 0x161E JUMP JUMPDEST SWAP3 SWAP2 POP POP JUMP JUMPDEST PUSH1 0x0 PUSH1 0x20 DUP3 DUP5 SUB SLT ISZERO PUSH2 0x1660 JUMPI PUSH2 0x165F PUSH2 0xDE8 JUMP JUMPDEST JUMPDEST PUSH1 0x0 PUSH2 0x166E DUP5 DUP3 DUP6 ADD PUSH2 0x1635 JUMP JUMPDEST SWAP2 POP POP SWAP3 SWAP2 POP POP JUMP JUMPDEST PUSH2 0x1680 DUP2 PUSH2 0xE12 JUMP JUMPDEST DUP3 MSTORE POP POP JUMP JUMPDEST PUSH1 0x0 PUSH1 0x80 DUP3 ADD SWAP1 POP PUSH2 0x169B PUSH1 0x0 DUP4 ADD DUP8 PUSH2 0x1677 JUMP JUMPDEST PUSH2 0x16A8 PUSH1 0x20 DUP4 ADD DUP7 PUSH2 0x1677 JUMP JUMPDEST PUSH2 0x16B5 PUSH1 0x40 DUP4 ADD DUP6 PUSH2 0x118A JUMP JUMPDEST PUSH2 0x16C2 PUSH1 0x60 DUP4 ADD DUP5 PUSH2 0x118A JUMP JUMPDEST SWAP6 SWAP5 POP POP POP POP POP JUMP JUMPDEST PUSH1 0x0 DUP2 SWAP1 POP SWAP2 SWAP1 POP JUMP JUMPDEST PUSH2 0x16DE DUP2 PUSH2 0x16CB JUMP JUMPDEST DUP2 EQ PUSH2 0x16E9 JUMPI PUSH1 0x0 DUP1 REVERT JUMPDEST POP JUMP JUMPDEST PUSH1 0x0 DUP2 CALLDATALOAD SWAP1 POP PUSH2 0x16FB DUP2 PUSH2 0x16D5 JUMP JUMPDEST SWAP3 SWAP2 POP POP JUMP JUMPDEST PUSH1 0x0 DUP1 PUSH1 0x0 DUP1 PUSH1 0x0 DUP1 PUSH2 0x120 DUP8 DUP10 SUB SLT ISZERO PUSH2 0x171F JUMPI PUSH2 0x171E PUSH2 0xDE8 JUMP JUMPDEST JUMPDEST PUSH1 0x0 PUSH2 0x172D DUP10 DUP3 DUP11 ADD PUSH2 0xE3B JUMP JUMPDEST SWAP7 POP POP PUSH1 0x20 PUSH2 0x173E DUP10 DUP3 DUP11 ADD PUSH2 0xE55 JUMP JUMPDEST SWAP6 POP POP PUSH1 0xC0 PUSH2 0x174F DUP10 DUP3 DUP11 ADD PUSH2 0x16EC JUMP JUMPDEST SWAP5 POP POP PUSH1 0xE0 PUSH2 0x1760 DUP10 DUP3 DUP11 ADD PUSH2 0x16EC JUMP JUMPDEST SWAP4 POP POP PUSH2 0x100 DUP8 ADD CALLDATALOAD PUSH8 0xFFFFFFFFFFFFFFFF DUP2 GT ISZERO PUSH2 0x1782 JUMPI PUSH2 0x1781 PUSH2 0xDED JUMP JUMPDEST JUMPDEST PUSH2 0x178E DUP10 DUP3 DUP11 ADD PUSH2 0xEA2 JUMP JUMPDEST SWAP3 POP SWAP3 POP POP SWAP3 SWAP6 POP SWAP3 SWAP6 POP SWAP3 SWAP6 JUMP JUMPDEST PUSH1 0x0 DUP2 ISZERO ISZERO SWAP1 POP SWAP2 SWAP1 POP JUMP JUMPDEST PUSH2 0x17B2 DUP2 PUSH2 0x179D JUMP JUMPDEST DUP3 MSTORE POP POP JUMP JUMPDEST PUSH2 0x1C0 DUP3 ADD PUSH1 0x0 DUP3 ADD MLOAD PUSH2 0x17CF PUSH1 0x0 DUP6 ADD DUP3 PUSH2 0x17A9 JUMP JUMPDEST POP PUSH1 0x20 DUP3 ADD MLOAD PUSH2 0x17E2 PUSH1 0x20 DUP6 ADD DUP3 PUSH2 0x17A9 JUMP JUMPDEST POP PUSH1 0x40 DUP3 ADD MLOAD PUSH2 0x17F5 PUSH1 0x40 DUP6 ADD DUP3 PUSH2 0x17A9 JUMP JUMPDEST POP PUSH1 0x60 DUP3 ADD MLOAD PUSH2 0x1808 PUSH1 0x60 DUP6 ADD DUP3 PUSH2 0x17A9 JUMP JUMPDEST POP PUSH1 0x80 DUP3 ADD MLOAD PUSH2 0x181B PUSH1 0x80 DUP6 ADD DUP3 PUSH2 0x17A9 JUMP JUMPDEST POP PUSH1 0xA0 DUP3 ADD MLOAD PUSH2 0x182E PUSH1 0xA0 DUP6 ADD DUP3 PUSH2 0x17A9 JUMP JUMPDEST POP PUSH1 0xC0 DUP3 ADD MLOAD PUSH2 0x1841 PUSH1 0xC0 DUP6 ADD DUP3 PUSH2 0x17A9 JUMP JUMPDEST POP PUSH1 0xE0 DUP3 ADD MLOAD PUSH2 0x1854 PUSH1 0xE0 DUP6 ADD DUP3 PUSH2 0x17A9 JUMP JUMPDEST POP PUSH2 0x100 DUP3 ADD MLOAD PUSH2 0x1869 PUSH2 0x100 DUP6 ADD DUP3 PUSH2 0x17A9 JUMP JUMPDEST POP PUSH2 0x120 DUP3 ADD MLOAD PUSH2 0x187E PUSH2 0x120 DUP6 ADD DUP3 PUSH2 0x17A9 JUMP JUMPDEST POP PUSH2 0x140 DUP3 ADD MLOAD PUSH2 0x1893 PUSH2 0x140 DUP6 ADD DUP3 PUSH2 0x17A9 JUMP JUMPDEST POP PUSH2 0x160 DUP3 ADD MLOAD PUSH2 0x18A8 PUSH2 0x160 DUP6 ADD DUP3 PUSH2 0x17A9 JUMP JUMPDEST POP PUSH2 0x180 DUP3 ADD MLOAD PUSH2 0x18BD PUSH2 0x180 DUP6 ADD DUP3 PUSH2 0x17A9 JUMP JUMPDEST POP PUSH2 0x1A0 DUP3 ADD MLOAD PUSH2 0x18D2 PUSH2 0x1A0 DUP6 ADD DUP3 PUSH2 0x17A9 JUMP JUMPDEST POP POP POP POP JUMP JUMPDEST PUSH1 0x0 PUSH2 0x1C0 DUP3 ADD SWAP1 POP PUSH2 0x18EE PUSH1 0x0 DUP4 ADD DUP5 PUSH2 0x17B8 JUMP JUMPDEST SWAP3 SWAP2 POP POP JUMP JUMPDEST PUSH2 0x18FD DUP2 PUSH2 0x117B JUMP JUMPDEST DUP2 EQ PUSH2 0x1908 JUMPI PUSH1 0x0 DUP1 REVERT JUMPDEST POP JUMP JUMPDEST PUSH1 0x0 DUP2 CALLDATALOAD SWAP1 POP PUSH2 0x191A DUP2 PUSH2 0x18F4 JUMP JUMPDEST SWAP3 SWAP2 POP POP JUMP JUMPDEST PUSH1 0x0 DUP1 PUSH1 0x0 DUP1 PUSH2 0x100 DUP6 DUP8 SUB SLT ISZERO PUSH2 0x193B JUMPI PUSH2 0x193A PUSH2 0xDE8 JUMP JUMPDEST JUMPDEST PUSH1 0x0 PUSH2 0x1949 DUP8 DUP3 DUP9 ADD PUSH2 0xE55 JUMP JUMPDEST SWAP5 POP POP PUSH1 0xA0 PUSH2 0x195A DUP8 DUP3 DUP9 ADD PUSH2 0x190B JUMP JUMPDEST SWAP4 POP POP PUSH1 0xC0 PUSH2 0x196B DUP8 DUP3 DUP9 ADD PUSH2 0x190B JUMP JUMPDEST SWAP3 POP POP PUSH1 0xE0 PUSH2 0x197C DUP8 DUP3 DUP9 ADD PUSH2 0xE3B JUMP JUMPDEST SWAP2 POP POP SWAP3 SWAP6 SWAP2 SWAP5 POP SWAP3 POP JUMP JUMPDEST PUSH1 0x0 PUSH2 0x19A3 PUSH2 0x199E PUSH2 0x1999 DUP5 PUSH2 0xDF2 JUMP JUMPDEST PUSH2 0x1140 JUMP JUMPDEST PUSH2 0xDF2 JUMP JUMPDEST SWAP1 POP SWAP2 SWAP1 POP JUMP JUMPDEST PUSH1 0x0 PUSH2 0x19B5 DUP3 PUSH2 0x1988 JUMP JUMPDEST SWAP1 POP SWAP2 SWAP1 POP JUMP JUMPDEST PUSH1 0x0 PUSH2 0x19C7 DUP3 PUSH2 0x19AA JUMP JUMPDEST SWAP1 POP SWAP2 SWAP1 POP JUMP JUMPDEST PUSH2 0x19D7 DUP2 PUSH2 0x19BC JUMP JUMPDEST DUP3 MSTORE POP POP JUMP JUMPDEST PUSH1 0x0 PUSH1 0x20 DUP3 ADD SWAP1 POP PUSH2 0x19F2 PUSH1 0x0 DUP4 ADD DUP5 PUSH2 0x19CE JUMP JUMPDEST SWAP3 SWAP2 POP POP JUMP JUMPDEST PUSH1 0x0 PUSH1 0x20 DUP3 ADD SWAP1 POP PUSH2 0x1A0D PUSH1 0x0 DUP4 ADD DUP5 PUSH2 0x1677 JUMP JUMPDEST SWAP3 SWAP2 POP POP JUMP JUMPDEST PUSH1 0x0 DUP1 REVERT JUMPDEST PUSH32 0x4E487B7100000000000000000000000000000000000000000000000000000000 PUSH1 0x0 MSTORE PUSH1 0x41 PUSH1 0x4 MSTORE PUSH1 0x24 PUSH1 0x0 REVERT JUMPDEST PUSH2 0x1A50 DUP3 PUSH2 0x1216 JUMP JUMPDEST DUP2 ADD DUP2 DUP2 LT PUSH8 0xFFFFFFFFFFFFFFFF DUP3 GT OR ISZERO PUSH2 0x1A6F JUMPI PUSH2 0x1A6E PUSH2 0x1A18 JUMP JUMPDEST JUMPDEST DUP1 PUSH1 0x40 MSTORE POP POP POP JUMP JUMPDEST PUSH1 0x0 PUSH2 0x1A82 PUSH2 0xDDE JUMP JUMPDEST SWAP1 POP PUSH2 0x1A8E DUP3 DUP3 PUSH2 0x1A47 JUMP JUMPDEST SWAP2 SWAP1 POP JUMP JUMPDEST PUSH2 0x1A9C DUP2 PUSH2 0xE12 JUMP JUMPDEST DUP2 EQ PUSH2 0x1AA7 JUMPI PUSH1 0x0 DUP1 REVERT JUMPDEST POP JUMP JUMPDEST PUSH1 0x0 DUP2 CALLDATALOAD SWAP1 POP PUSH2 0x1AB9 DUP2 PUSH2 0x1A93 JUMP JUMPDEST SWAP3 SWAP2 POP POP JUMP JUMPDEST PUSH1 0x0 PUSH2 0x1ACA DUP3 PUSH2 0xE12 JUMP JUMPDEST SWAP1 POP SWAP2 SWAP1 POP JUMP JUMPDEST PUSH2 0x1ADA DUP2 PUSH2 0x1ABF JUMP JUMPDEST DUP2 EQ PUSH2 0x1AE5 JUMPI PUSH1 0x0 DUP1 REVERT JUMPDEST POP JUMP JUMPDEST PUSH1 0x0 DUP2 CALLDATALOAD SWAP1 POP PUSH2 0x1AF7 DUP2 PUSH2 0x1AD1 JUMP JUMPDEST SWAP3 SWAP2 POP POP JUMP JUMPDEST PUSH1 0x0 PUSH1 0xA0 DUP3 DUP5 SUB SLT ISZERO PUSH2 0x1B13 JUMPI PUSH2 0x1B12 PUSH2 0x1A13 JUMP JUMPDEST JUMPDEST PUSH2 0x1B1D PUSH1 0xA0 PUSH2 0x1A78 JUMP JUMPDEST SWAP1 POP PUSH1 0x0 PUSH2 0x1B2D DUP5 DUP3 DUP6 ADD PUSH2 0x1AAA JUMP JUMPDEST PUSH1 0x0 DUP4 ADD MSTORE POP PUSH1 0x20 PUSH2 0x1B41 DUP5 DUP3 DUP6 ADD PUSH2 0x1AAA JUMP JUMPDEST PUSH1 0x20 DUP4 ADD MSTORE POP PUSH1 0x40 PUSH2 0x1B55 DUP5 DUP3 DUP6 ADD PUSH2 0x190B JUMP JUMPDEST PUSH1 0x40 DUP4 ADD MSTORE POP PUSH1 0x60 PUSH2 0x1B69 DUP5 DUP3 DUP6 ADD PUSH2 0x1481 JUMP JUMPDEST PUSH1 0x60 DUP4 ADD MSTORE POP PUSH1 0x80 PUSH2 0x1B7D DUP5 DUP3 DUP6 ADD PUSH2 0x1AE8 JUMP JUMPDEST PUSH1 0x80 DUP4 ADD MSTORE POP SWAP3 SWAP2 POP POP JUMP JUMPDEST PUSH1 0x0 PUSH1 0xA0 DUP3 DUP5 SUB SLT ISZERO PUSH2 0x1B9F JUMPI PUSH2 0x1B9E PUSH2 0xDE8 JUMP JUMPDEST JUMPDEST PUSH1 0x0 PUSH2 0x1BAD DUP5 DUP3 DUP6 ADD PUSH2 0x1AFD JUMP JUMPDEST SWAP2 POP POP SWAP3 SWAP2 POP POP JUMP JUMPDEST PUSH1 0x0 DUP2 MLOAD SWAP1 POP PUSH2 0x1BC5 DUP2 PUSH2 0x16D5 JUMP JUMPDEST SWAP3 SWAP2 POP POP JUMP JUMPDEST PUSH1 0x0 PUSH1 0x20 DUP3 DUP5 SUB SLT ISZERO PUSH2 0x1BE1 JUMPI PUSH2 0x1BE0 PUSH2 0xDE8 JUMP JUMPDEST JUMPDEST PUSH1 0x0 PUSH2 0x1BEF DUP5 DUP3 DUP6 ADD PUSH2 0x1BB6 JUMP JUMPDEST SWAP2 POP POP SWAP3 SWAP2 POP POP JUMP JUMPDEST PUSH1 0x0 PUSH2 0x1C03 DUP3 PUSH2 0xDF2 JUMP JUMPDEST SWAP1 POP SWAP2 SWAP1 POP JUMP JUMPDEST PUSH2 0x1C13 DUP2 PUSH2 0x1BF8 JUMP JUMPDEST DUP2 EQ PUSH2 0x1C1E JUMPI PUSH1 0x0 DUP1 REVERT JUMPDEST POP JUMP JUMPDEST PUSH1 0x0 DUP2 CALLDATALOAD SWAP1 POP PUSH2 0x1C30 DUP2 PUSH2 0x1C0A JUMP JUMPDEST SWAP3 SWAP2 POP POP JUMP JUMPDEST PUSH1 0x0 DUP1 PUSH1 0x0 PUSH1 0x60 DUP5 DUP7 SUB SLT ISZERO PUSH2 0x1C4F JUMPI PUSH2 0x1C4E PUSH2 0xDE8 JUMP JUMPDEST JUMPDEST PUSH1 0x0 PUSH2 0x1C5D DUP7 DUP3 DUP8 ADD PUSH2 0x190B JUMP JUMPDEST SWAP4 POP POP PUSH1 0x20 PUSH2 0x1C6E DUP7 DUP3 DUP8 ADD PUSH2 0x190B JUMP JUMPDEST SWAP3 POP POP PUSH1 0x40 PUSH2 0x1C7F DUP7 DUP3 DUP8 ADD PUSH2 0x1C21 JUMP JUMPDEST SWAP2 POP POP SWAP3 POP SWAP3 POP SWAP3 JUMP JUMPDEST PUSH1 0x0 DUP2 SWAP1 POP SWAP3 SWAP2 POP POP JUMP JUMPDEST DUP3 DUP2 DUP4 CALLDATACOPY PUSH1 0x0 DUP4 DUP4 ADD MSTORE POP POP POP JUMP JUMPDEST PUSH1 0x0 PUSH2 0x1CAF DUP4 DUP6 PUSH2 0x1C89 JUMP JUMPDEST SWAP4 POP PUSH2 0x1CBC DUP4 DUP6 DUP5 PUSH2 0x1C94 JUMP JUMPDEST DUP3 DUP5 ADD SWAP1 POP SWAP4 SWAP3 POP POP POP JUMP JUMPDEST PUSH1 0x0 PUSH2 0x1CD5 DUP3 DUP5 DUP7 PUSH2 0x1CA3 JUMP JUMPDEST SWAP2 POP DUP2 SWAP1 POP SWAP4 SWAP3 POP POP POP JUMP INVALID LOG2 PUSH5 0x6970667358 0x22 SLT KECCAK256 MLOAD 0xAB SWAP11 PUSH20 0x916B7B5A1A7193CC532609080E4840940BC3C261 0xFC BLOBHASH RETURNDATACOPY JUMPI SELFBALANCE PUSH8 0x94A64736F6C6343 STOP ADDMOD SHL STOP CALLER "},"methodIdentifiers":{"afterAddLiquidity(address,(address,address,uint24,int24,address),(int24,int24,int256,bytes32),int256,int256,bytes)":"9f063efc","afterDonate(address,(address,address,uint24,int24,address),uint256,uint256,bytes)":"e1b4af69","afterInitialize(address,(address,address,uint24,int24,address),uint160,int24,bytes)":"a910f80f","afterRemoveLiquidity(address,(address,address,uint24,int24,address),(int24,int24,int256,bytes32),int256,int256,bytes)":"6c2bbe7e","afterSwap(address,(address,address,uint24,int24,address),(bool,int256,uint160),int256,bytes)":"b47b2fb1","beforeAddLiquidity(address,(address,address,uint24,int24,address),(int24,int24,int256,bytes32),bytes)":"259982e5","beforeDonate(address,(address,address,uint24,int24,address),uint256,uint256,bytes)":"b6a8b0fa","beforeInitialize(address,(address,address,uint24,int24,address),uint160,bytes)":"3440d820","beforeRemoveLiquidity(address,(address,address,uint24,int24,address),(int24,int24,int256,bytes32),bytes)":"21d0ee70","beforeSwap(address,(address,address,uint24,int24,address),(bool,int256,uint160),bytes)":"575e24b4","getHookPermissions()":"c4e833ce","getPool(bytes32)":"f6c00927","ping()":"5c36b186","poolManager()":"dc4c90d3","pools(bytes32)":"b5217bb4","setPoolConfig((address,address,uint24,int24,address),uint24,uint24,address)":"ce4afae5","unlockCallback(bytes)":"91dd7346"}}}}}