{
  "_format": "hh-sol-artifact-1",
  "contractName": "ERC721ReducedFeesHook",
  "sourceName": "src/NftReducedFees.sol",
  "abi": [
    {
      "inputs": [
        {
          "internalType": "contract IPoolManager",
          "name": "_poolManager",
          "type": "address"
        },
        {
          "internalType": "contract IERC721",
          "name": "_nftContract",
          "type": "address"
        }
      ],
      "stateMutability": "nonpayable",
      "type": "constructor"
    },
    {
      "inputs": [],
      "name": "HookNotImplemented",
      "type": "error"
    },
    {
      "inputs": [],
      "name": "InvalidPool",
      "type": "error"
    },
    {
      "inputs": [],
      "name": "LockFailure",
      "type": "error"
    },
    {
      "inputs": [],
      "name": "NotPoolManager",
      "type": "error"
    },
    {
      "inputs": [],
      "name": "NotSelf",
      "type": "error"
    },
    {
      "inputs": [
        {
          "internalType": "address",
          "name": "",
          "type": "address"
        },
        {
          "components": [
            {
              "internalType": "Currency",
              "name": "currency0",
              "type": "address"
            },
            {
              "internalType": "Currency",
              "name": "currency1",
              "type": "address"
            },
            {
              "internalType": "uint24",
              "name": "fee",
              "type": "uint24"
            },
            {
              "internalType": "int24",
              "name": "tickSpacing",
              "type": "int24"
            },
            {
              "internalType": "contract IHooks",
              "name": "hooks",
              "type": "address"
            }
          ],
          "internalType": "struct PoolKey",
          "name": "",
          "type": "tuple"
        },
        {
          "components": [
            {
              "internalType": "int24",
              "name": "tickLower",
              "type": "int24"
            },
            {
              "internalType": "int24",
              "name": "tickUpper",
              "type": "int24"
            },
            {
              "internalType": "int256",
              "name": "liquidityDelta",
              "type": "int256"
            },
            {
              "internalType": "bytes32",
              "name": "salt",
              "type": "bytes32"
            }
          ],
          "internalType": "struct IPoolManager.ModifyLiquidityParams",
          "name": "",
          "type": "tuple"
        },
        {
          "internalType": "BalanceDelta",
          "name": "",
          "type": "int256"
        },
        {
          "internalType": "BalanceDelta",
          "name": "",
          "type": "int256"
        },
        {
          "internalType": "bytes",
          "name": "",
          "type": "bytes"
        }
      ],
      "name": "afterAddLiquidity",
      "outputs": [
        {
          "internalType": "bytes4",
          "name": "",
          "type": "bytes4"
        },
        {
          "internalType": "BalanceDelta",
          "name": "",
          "type": "int256"
        }
      ],
      "stateMutability": "nonpayable",
      "type": "function"
    },
    {
      "inputs": [
        {
          "internalType": "address",
          "name": "",
          "type": "address"
        },
        {
          "components": [
            {
              "internalType": "Currency",
              "name": "currency0",
              "type": "address"
            },
            {
              "internalType": "Currency",
              "name": "currency1",
              "type": "address"
            },
            {
              "internalType": "uint24",
              "name": "fee",
              "type": "uint24"
            },
            {
              "internalType": "int24",
              "name": "tickSpacing",
              "type": "int24"
            },
            {
              "internalType": "contract IHooks",
              "name": "hooks",
              "type": "address"
            }
          ],
          "internalType": "struct PoolKey",
          "name": "",
          "type": "tuple"
        },
        {
          "internalType": "uint256",
          "name": "",
          "type": "uint256"
        },
        {
          "internalType": "uint256",
          "name": "",
          "type": "uint256"
        },
        {
          "internalType": "bytes",
          "name": "",
          "type": "bytes"
        }
      ],
      "name": "afterDonate",
      "outputs": [
        {
          "internalType": "bytes4",
          "name": "",
          "type": "bytes4"
        }
      ],
      "stateMutability": "nonpayable",
      "type": "function"
    },
    {
      "inputs": [
        {
          "internalType": "address",
          "name": "",
          "type": "address"
        },
        {
          "components": [
            {
              "internalType": "Currency",
              "name": "currency0",
              "type": "address"
            },
            {
              "internalType": "Currency",
              "name": "currency1",
              "type": "address"
            },
            {
              "internalType": "uint24",
              "name": "fee",
              "type": "uint24"
            },
            {
              "internalType": "int24",
              "name": "tickSpacing",
              "type": "int24"
            },
            {
              "internalType": "contract IHooks",
              "name": "hooks",
              "type": "address"
            }
          ],
          "internalType": "struct PoolKey",
          "name": "",
          "type": "tuple"
        },
        {
          "internalType": "uint160",
          "name": "",
          "type": "uint160"
        },
        {
          "internalType": "int24",
          "name": "",
          "type": "int24"
        },
        {
          "internalType": "bytes",
          "name": "",
          "type": "bytes"
        }
      ],
      "name": "afterInitialize",
      "outputs": [
        {
          "internalType": "bytes4",
          "name": "",
          "type": "bytes4"
        }
      ],
      "stateMutability": "nonpayable",
      "type": "function"
    },
    {
      "inputs": [
        {
          "internalType": "address",
          "name": "",
          "type": "address"
        },
        {
          "components": [
            {
              "internalType": "Currency",
              "name": "currency0",
              "type": "address"
            },
            {
              "internalType": "Currency",
              "name": "currency1",
              "type": "address"
            },
            {
              "internalType": "uint24",
              "name": "fee",
              "type": "uint24"
            },
            {
              "internalType": "int24",
              "name": "tickSpacing",
              "type": "int24"
            },
            {
              "internalType": "contract IHooks",
              "name": "hooks",
              "type": "address"
            }
          ],
          "internalType": "struct PoolKey",
          "name": "",
          "type": "tuple"
        },
        {
          "components": [
            {
              "internalType": "int24",
              "name": "tickLower",
              "type": "int24"
            },
            {
              "internalType": "int24",
              "name": "tickUpper",
              "type": "int24"
            },
            {
              "internalType": "int256",
              "name": "liquidityDelta",
              "type": "int256"
            },
            {
              "internalType": "bytes32",
              "name": "salt",
              "type": "bytes32"
            }
          ],
          "internalType": "struct IPoolManager.ModifyLiquidityParams",
          "name": "",
          "type": "tuple"
        },
        {
          "internalType": "BalanceDelta",
          "name": "",
          "type": "int256"
        },
        {
          "internalType": "BalanceDelta",
          "name": "",
          "type": "int256"
        },
        {
          "internalType": "bytes",
          "name": "",
          "type": "bytes"
        }
      ],
      "name": "afterRemoveLiquidity",
      "outputs": [
        {
          "internalType": "bytes4",
          "name": "",
          "type": "bytes4"
        },
        {
          "internalType": "BalanceDelta",
          "name": "",
          "type": "int256"
        }
      ],
      "stateMutability": "nonpayable",
      "type": "function"
    },
    {
      "inputs": [
        {
          "internalType": "address",
          "name": "",
          "type": "address"
        },
        {
          "components": [
            {
              "internalType": "Currency",
              "name": "currency0",
              "type": "address"
            },
            {
              "internalType": "Currency",
              "name": "currency1",
              "type": "address"
            },
            {
              "internalType": "uint24",
              "name": "fee",
              "type": "uint24"
            },
            {
              "internalType": "int24",
              "name": "tickSpacing",
              "type": "int24"
            },
            {
              "internalType": "contract IHooks",
              "name": "hooks",
              "type": "address"
            }
          ],
          "internalType": "struct PoolKey",
          "name": "",
          "type": "tuple"
        },
        {
          "components": [
            {
              "internalType": "bool",
              "name": "zeroForOne",
              "type": "bool"
            },
            {
              "internalType": "int256",
              "name": "amountSpecified",
              "type": "int256"
            },
            {
              "internalType": "uint160",
              "name": "sqrtPriceLimitX96",
              "type": "uint160"
            }
          ],
          "internalType": "struct IPoolManager.SwapParams",
          "name": "",
          "type": "tuple"
        },
        {
          "internalType": "BalanceDelta",
          "name": "",
          "type": "int256"
        },
        {
          "internalType": "bytes",
          "name": "",
          "type": "bytes"
        }
      ],
      "name": "afterSwap",
      "outputs": [
        {
          "internalType": "bytes4",
          "name": "",
          "type": "bytes4"
        },
        {
          "internalType": "int128",
          "name": "",
          "type": "int128"
        }
      ],
      "stateMutability": "pure",
      "type": "function"
    },
    {
      "inputs": [
        {
          "internalType": "address",
          "name": "",
          "type": "address"
        },
        {
          "components": [
            {
              "internalType": "Currency",
              "name": "currency0",
              "type": "address"
            },
            {
              "internalType": "Currency",
              "name": "currency1",
              "type": "address"
            },
            {
              "internalType": "uint24",
              "name": "fee",
              "type": "uint24"
            },
            {
              "internalType": "int24",
              "name": "tickSpacing",
              "type": "int24"
            },
            {
              "internalType": "contract IHooks",
              "name": "hooks",
              "type": "address"
            }
          ],
          "internalType": "struct PoolKey",
          "name": "",
          "type": "tuple"
        },
        {
          "components": [
            {
              "internalType": "int24",
              "name": "tickLower",
              "type": "int24"
            },
            {
              "internalType": "int24",
              "name": "tickUpper",
              "type": "int24"
            },
            {
              "internalType": "int256",
              "name": "liquidityDelta",
              "type": "int256"
            },
            {
              "internalType": "bytes32",
              "name": "salt",
              "type": "bytes32"
            }
          ],
          "internalType": "struct IPoolManager.ModifyLiquidityParams",
          "name": "",
          "type": "tuple"
        },
        {
          "internalType": "bytes",
          "name": "",
          "type": "bytes"
        }
      ],
      "name": "beforeAddLiquidity",
      "outputs": [
        {
          "internalType": "bytes4",
          "name": "",
          "type": "bytes4"
        }
      ],
      "stateMutability": "pure",
      "type": "function"
    },
    {
      "inputs": [
        {
          "internalType": "address",
          "name": "",
          "type": "address"
        },
        {
          "components": [
            {
              "internalType": "Currency",
              "name": "currency0",
              "type": "address"
            },
            {
              "internalType": "Currency",
              "name": "currency1",
              "type": "address"
            },
            {
              "internalType": "uint24",
              "name": "fee",
              "type": "uint24"
            },
            {
              "internalType": "int24",
              "name": "tickSpacing",
              "type": "int24"
            },
            {
              "internalType": "contract IHooks",
              "name": "hooks",
              "type": "address"
            }
          ],
          "internalType": "struct PoolKey",
          "name": "",
          "type": "tuple"
        },
        {
          "internalType": "uint256",
          "name": "",
          "type": "uint256"
        },
        {
          "internalType": "uint256",
          "name": "",
          "type": "uint256"
        },
        {
          "internalType": "bytes",
          "name": "",
          "type": "bytes"
        }
      ],
      "name": "beforeDonate",
      "outputs": [
        {
          "internalType": "bytes4",
          "name": "",
          "type": "bytes4"
        }
      ],
      "stateMutability": "nonpayable",
      "type": "function"
    },
    {
      "inputs": [
        {
          "internalType": "address",
          "name": "",
          "type": "address"
        },
        {
          "components": [
            {
              "internalType": "Currency",
              "name": "currency0",
              "type": "address"
            },
            {
              "internalType": "Currency",
              "name": "currency1",
              "type": "address"
            },
            {
              "internalType": "uint24",
              "name": "fee",
              "type": "uint24"
            },
            {
              "internalType": "int24",
              "name": "tickSpacing",
              "type": "int24"
            },
            {
              "internalType": "contract IHooks",
              "name": "hooks",
              "type": "address"
            }
          ],
          "internalType": "struct PoolKey",
          "name": "",
          "type": "tuple"
        },
        {
          "internalType": "uint160",
          "name": "",
          "type": "uint160"
        },
        {
          "internalType": "bytes",
          "name": "",
          "type": "bytes"
        }
      ],
      "name": "beforeInitialize",
      "outputs": [
        {
          "internalType": "bytes4",
          "name": "",
          "type": "bytes4"
        }
      ],
      "stateMutability": "nonpayable",
      "type": "function"
    },
    {
      "inputs": [
        {
          "internalType": "address",
          "name": "",
          "type": "address"
        },
        {
          "components": [
            {
              "internalType": "Currency",
              "name": "currency0",
              "type": "address"
            },
            {
              "internalType": "Currency",
              "name": "currency1",
              "type": "address"
            },
            {
              "internalType": "uint24",
              "name": "fee",
              "type": "uint24"
            },
            {
              "internalType": "int24",
              "name": "tickSpacing",
              "type": "int24"
            },
            {
              "internalType": "contract IHooks",
              "name": "hooks",
              "type": "address"
            }
          ],
          "internalType": "struct PoolKey",
          "name": "",
          "type": "tuple"
        },
        {
          "components": [
            {
              "internalType": "int24",
              "name": "tickLower",
              "type": "int24"
            },
            {
              "internalType": "int24",
              "name": "tickUpper",
              "type": "int24"
            },
            {
              "internalType": "int256",
              "name": "liquidityDelta",
              "type": "int256"
            },
            {
              "internalType": "bytes32",
              "name": "salt",
              "type": "bytes32"
            }
          ],
          "internalType": "struct IPoolManager.ModifyLiquidityParams",
          "name": "",
          "type": "tuple"
        },
        {
          "internalType": "bytes",
          "name": "",
          "type": "bytes"
        }
      ],
      "name": "beforeRemoveLiquidity",
      "outputs": [
        {
          "internalType": "bytes4",
          "name": "",
          "type": "bytes4"
        }
      ],
      "stateMutability": "pure",
      "type": "function"
    },
    {
      "inputs": [
        {
          "internalType": "address",
          "name": "sender",
          "type": "address"
        },
        {
          "components": [
            {
              "internalType": "Currency",
              "name": "currency0",
              "type": "address"
            },
            {
              "internalType": "Currency",
              "name": "currency1",
              "type": "address"
            },
            {
              "internalType": "uint24",
              "name": "fee",
              "type": "uint24"
            },
            {
              "internalType": "int24",
              "name": "tickSpacing",
              "type": "int24"
            },
            {
              "internalType": "contract IHooks",
              "name": "hooks",
              "type": "address"
            }
          ],
          "internalType": "struct PoolKey",
          "name": "key",
          "type": "tuple"
        },
        {
          "components": [
            {
              "internalType": "bool",
              "name": "zeroForOne",
              "type": "bool"
            },
            {
              "internalType": "int256",
              "name": "amountSpecified",
              "type": "int256"
            },
            {
              "internalType": "uint160",
              "name": "sqrtPriceLimitX96",
              "type": "uint160"
            }
          ],
          "internalType": "struct IPoolManager.SwapParams",
          "name": "",
          "type": "tuple"
        },
        {
          "internalType": "bytes",
          "name": "",
          "type": "bytes"
        }
      ],
      "name": "beforeSwap",
      "outputs": [
        {
          "internalType": "bytes4",
          "name": "",
          "type": "bytes4"
        },
        {
          "internalType": "BeforeSwapDelta",
          "name": "",
          "type": "int256"
        },
        {
          "internalType": "uint24",
          "name": "",
          "type": "uint24"
        }
      ],
      "stateMutability": "view",
      "type": "function"
    },
    {
      "inputs": [],
      "name": "getHookPermissions",
      "outputs": [
        {
          "components": [
            {
              "internalType": "bool",
              "name": "beforeInitialize",
              "type": "bool"
            },
            {
              "internalType": "bool",
              "name": "afterInitialize",
              "type": "bool"
            },
            {
              "internalType": "bool",
              "name": "beforeAddLiquidity",
              "type": "bool"
            },
            {
              "internalType": "bool",
              "name": "afterAddLiquidity",
              "type": "bool"
            },
            {
              "internalType": "bool",
              "name": "beforeRemoveLiquidity",
              "type": "bool"
            },
            {
              "internalType": "bool",
              "name": "afterRemoveLiquidity",
              "type": "bool"
            },
            {
              "internalType": "bool",
              "name": "beforeSwap",
              "type": "bool"
            },
            {
              "internalType": "bool",
              "name": "afterSwap",
              "type": "bool"
            },
            {
              "internalType": "bool",
              "name": "beforeDonate",
              "type": "bool"
            },
            {
              "internalType": "bool",
              "name": "afterDonate",
              "type": "bool"
            },
            {
              "internalType": "bool",
              "name": "beforeSwapReturnDelta",
              "type": "bool"
            },
            {
              "internalType": "bool",
              "name": "afterSwapReturnDelta",
              "type": "bool"
            },
            {
              "internalType": "bool",
              "name": "afterAddLiquidityReturnDelta",
              "type": "bool"
            },
            {
              "internalType": "bool",
              "name": "afterRemoveLiquidityReturnDelta",
              "type": "bool"
            }
          ],
          "internalType": "struct Hooks.Permissions",
          "name": "",
          "type": "tuple"
        }
      ],
      "stateMutability": "pure",
      "type": "function"
    },
    {
      "inputs": [],
      "name": "nftContract",
      "outputs": [
        {
          "internalType": "contract IERC721",
          "name": "",
          "type": "address"
        }
      ],
      "stateMutability": "view",
      "type": "function"
    },
    {
      "inputs": [],
      "name": "poolManager",
      "outputs": [
        {
          "internalType": "contract IPoolManager",
          "name": "",
          "type": "address"
        }
      ],
      "stateMutability": "view",
      "type": "function"
    },
    {
      "inputs": [
        {
          "internalType": "PoolId",
          "name": "",
          "type": "bytes32"
        }
      ],
      "name": "pools",
      "outputs": [
        {
          "internalType": "address",
          "name": "tokenAddress",
          "type": "address"
        },
        {
          "internalType": "address",
          "name": "owner",
          "type": "address"
        },
        {
          "internalType": "uint24",
          "name": "regularFees",
          "type": "uint24"
        },
        {
          "internalType": "uint24",
          "name": "reducedFees",
          "type": "uint24"
        }
      ],
      "stateMutability": "view",
      "type": "function"
    },
    {
      "inputs": [
        {
          "components": [
            {
              "internalType": "Currency",
              "name": "currency0",
              "type": "address"
            },
            {
              "internalType": "Currency",
              "name": "currency1",
              "type": "address"
            },
            {
              "internalType": "uint24",
              "name": "fee",
              "type": "uint24"
            },
            {
              "internalType": "int24",
              "name": "tickSpacing",
              "type": "int24"
            },
            {
              "internalType": "contract IHooks",
              "name": "hooks",
              "type": "address"
            }
          ],
          "internalType": "struct PoolKey",
          "name": "key",
          "type": "tuple"
        },
        {
          "internalType": "uint24",
          "name": "_regularFees",
          "type": "uint24"
        },
        {
          "internalType": "uint24",
          "name": "_reducedFees",
          "type": "uint24"
        },
        {
          "internalType": "address",
          "name": "_tokenAddress",
          "type": "address"
        }
      ],
      "name": "setPoolConfig",
      "outputs": [],
      "stateMutability": "nonpayable",
      "type": "function"
    },
    {
      "inputs": [
        {
          "internalType": "bytes",
          "name": "data",
          "type": "bytes"
        }
      ],
      "name": "unlockCallback",
      "outputs": [
        {
          "internalType": "bytes",
          "name": "",
          "type": "bytes"
        }
      ],
      "stateMutability": "nonpayable",
      "type": "function"
    }
  ],
  "bytecode": "0x60c060405234801561001057600080fd5b5060405161224338038061224383398181016040528101906100329190610683565b8180808073ffffffffffffffffffffffffffffffffffffffff1660808173ffffffffffffffffffffffffffffffffffffffff1681525050505061007a306100b660201b60201c565b508073ffffffffffffffffffffffffffffffffffffffff1660a08173ffffffffffffffffffffffffffffffffffffffff168152505050506106c3565b6100d3816100c86100d660201b60201c565b61016b60201b60201c565b50565b6100de610545565b604051806101c0016040528060001515815260200160001515815260200160001515815260200160001515815260200160001515815260200160001515815260200160011515815260200160001515815260200160001515815260200160001515815260200160001515815260200160001515815260200160001515815260200160001515815250905090565b6101966120008373ffffffffffffffffffffffffffffffffffffffff166104fb60201b90919060201c565b1515816000015115151415806101de57506101d26110008373ffffffffffffffffffffffffffffffffffffffff166104fb60201b90919060201c565b15158160200151151514155b8061021b575061020f6108008373ffffffffffffffffffffffffffffffffffffffff166104fb60201b90919060201c565b15158160400151151514155b80610258575061024c6104008373ffffffffffffffffffffffffffffffffffffffff166104fb60201b90919060201c565b15158160600151151514155b8061029557506102896102008373ffffffffffffffffffffffffffffffffffffffff166104fb60201b90919060201c565b15158160800151151514155b806102d257506102c66101008373ffffffffffffffffffffffffffffffffffffffff166104fb60201b90919060201c565b15158160a00151151514155b8061030e575061030260808373ffffffffffffffffffffffffffffffffffffffff166104fb60201b90919060201c565b15158160c00151151514155b8061034a575061033e60408373ffffffffffffffffffffffffffffffffffffffff166104fb60201b90919060201c565b15158160e00151151514155b80610387575061037a60208373ffffffffffffffffffffffffffffffffffffffff166104fb60201b90919060201c565b1515816101000151151514155b806103c457506103b760108373ffffffffffffffffffffffffffffffffffffffff166104fb60201b90919060201c565b1515816101200151151514155b8061040157506103f460088373ffffffffffffffffffffffffffffffffffffffff166104fb60201b90919060201c565b1515816101400151151514155b8061043e575061043160048373ffffffffffffffffffffffffffffffffffffffff166104fb60201b90919060201c565b1515816101600151151514155b8061047b575061046e60028373ffffffffffffffffffffffffffffffffffffffff166104fb60201b90919060201c565b1515816101800151151514155b806104b857506104ab60018373ffffffffffffffffffffffffffffffffffffffff166104fb60201b90919060201c565b1515816101a00151151514155b156104f7576104f68263e65af6a060e01b7bffffffffffffffffffffffffffffffffffffffffffffffffffffffff191661052160201b90919060201c565b5b5050565b60008082841673ffffffffffffffffffffffffffffffffffffffff161415905092915050565b8160005273ffffffffffffffffffffffffffffffffffffffff811660045260246000fd5b604051806101c001604052806000151581526020016000151581526020016000151581526020016000151581526020016000151581526020016000151581526020016000151581526020016000151581526020016000151581526020016000151581526020016000151581526020016000151581526020016000151581526020016000151581525090565b600080fd5b600073ffffffffffffffffffffffffffffffffffffffff82169050919050565b6000610600826105d5565b9050919050565b6000610612826105f5565b9050919050565b61062281610607565b811461062d57600080fd5b50565b60008151905061063f81610619565b92915050565b6000610650826105f5565b9050919050565b61066081610645565b811461066b57600080fd5b50565b60008151905061067d81610657565b92915050565b6000806040838503121561069a576106996105d0565b5b60006106a885828601610630565b92505060206106b98582860161066e565b9150509250929050565b60805160a051611b4d6106f6600039600081816105cc0152610a850152600081816106e20152610aa90152611b4d6000f3fe608060405234801561001057600080fd5b50600436106101005760003560e01c8063b47b2fb111610097578063ce4afae511610066578063ce4afae51461033b578063d56d229d14610357578063dc4c90d314610375578063e1b4af691461039357610100565b8063b47b2fb114610289578063b5217bb4146102ba578063b6a8b0fa146102ed578063c4e833ce1461031d57610100565b80636c2bbe7e116100d35780636c2bbe7e146101c757806391dd7346146101f85780639f063efc14610228578063a910f80f1461025957610100565b806321d0ee7014610105578063259982e5146101355780633440d82014610165578063575e24b414610195575b600080fd5b61011f600480360381019061011a9190610d7d565b6103c3565b60405161012c9190610e42565b60405180910390f35b61014f600480360381019061014a9190610d7d565b6103d8565b60405161015c9190610e42565b60405180910390f35b61017f600480360381019061017a9190610e89565b6103ed565b60405161018c9190610e42565b60405180910390f35b6101af60048036038101906101aa9190610f31565b610421565b6040516101be9392919061101e565b60405180910390f35b6101e160048036038101906101dc9190611081565b6106a9565b6040516101ef929190611143565b60405180910390f35b610212600480360381019061020d919061116c565b6106de565b60405161021f9190611249565b60405180910390f35b610242600480360381019061023d9190611081565b610777565b604051610250929190611143565b60405180910390f35b610273600480360381019061026e91906112a4565b6107ac565b6040516102809190610e42565b60405180910390f35b6102a3600480360381019061029e9190611340565b6107e0565b6040516102b19291906113f9565b60405180910390f35b6102d460048036038101906102cf9190611458565b6107fc565b6040516102e49493929190611494565b60405180910390f35b6103076004803603810190610302919061150f565b61088a565b6040516103149190610e42565b60405180910390f35b6103256108be565b60405161033291906116e6565b60405180910390f35b6103556004803603810190610350919061172e565b610953565b005b61035f610a83565b60405161036c91906117eb565b60405180910390f35b61037d610aa7565b60405161038a9190611827565b60405180910390f35b6103ad60048036038101906103a8919061150f565b610acb565b6040516103ba9190610e42565b60405180910390f35b60006321d0ee7060e01b905095945050505050565b600063259982e560e01b905095945050505050565b60006040517f0a85dc2900000000000000000000000000000000000000000000000000000000815260040160405180910390fd5b6000806000806104408880360381019061043b91906119b8565b610aff565b905060008060008381526020019081526020016000206040518060800160405290816000820160009054906101000a900473ffffffffffffffffffffffffffffffffffffffff1673ffffffffffffffffffffffffffffffffffffffff1673ffffffffffffffffffffffffffffffffffffffff1681526020016001820160009054906101000a900473ffffffffffffffffffffffffffffffffffffffff1673ffffffffffffffffffffffffffffffffffffffff1673ffffffffffffffffffffffffffffffffffffffff1681526020016001820160149054906101000a900462ffffff1662ffffff1662ffffff1681526020016001820160179054906101000a900462ffffff1662ffffff1662ffffff16815250509050600073ffffffffffffffffffffffffffffffffffffffff16816000015173ffffffffffffffffffffffffffffffffffffffff16036105c8576040517f08c379a00000000000000000000000000000000000000000000000000000000081526004016105bf90611a42565b60405180910390fd5b60007f000000000000000000000000000000000000000000000000000000000000000073ffffffffffffffffffffffffffffffffffffffff166370a082318c6040518263ffffffff1660e01b81526004016106239190611a62565b602060405180830381865afa158015610640573d6000803e3d6000fd5b505050506040513d601f19601f820116820180604052508101906106649190611a92565b11156106865763575e24b460e01b60008260600151945094509450505061069e565b63575e24b460e01b6000826040015194509450945050505b955095509592505050565b6000806040517f0a85dc2900000000000000000000000000000000000000000000000000000000815260040160405180910390fd5b60607f000000000000000000000000000000000000000000000000000000000000000073ffffffffffffffffffffffffffffffffffffffff163373ffffffffffffffffffffffffffffffffffffffff1614610765576040517fae18210a00000000000000000000000000000000000000000000000000000000815260040160405180910390fd5b61076f8383610b0c565b905092915050565b6000806040517f0a85dc2900000000000000000000000000000000000000000000000000000000815260040160405180910390fd5b60006040517f0a85dc2900000000000000000000000000000000000000000000000000000000815260040160405180910390fd5b60008063b47b2fb160e01b600091509150965096945050505050565b60006020528060005260406000206000915090508060000160009054906101000a900473ffffffffffffffffffffffffffffffffffffffff16908060010160009054906101000a900473ffffffffffffffffffffffffffffffffffffffff16908060010160149054906101000a900462ffffff16908060010160179054906101000a900462ffffff16905084565b60006040517f0a85dc2900000000000000000000000000000000000000000000000000000000815260040160405180910390fd5b6108c6610bd8565b604051806101c0016040528060001515815260200160001515815260200160001515815260200160001515815260200160001515815260200160001515815260200160011515815260200160001515815260200160001515815260200160001515815260200160001515815260200160001515815260200160001515815260200160001515815250905090565b600061096e8580360381019061096991906119b8565b610aff565b90508360008083815260200190815260200160002060010160146101000a81548162ffffff021916908362ffffff1602179055508260008083815260200190815260200160002060010160176101000a81548162ffffff021916908362ffffff1602179055508160008083815260200190815260200160002060000160006101000a81548173ffffffffffffffffffffffffffffffffffffffff021916908373ffffffffffffffffffffffffffffffffffffffff1602179055503360008083815260200190815260200160002060010160006101000a81548173ffffffffffffffffffffffffffffffffffffffff021916908373ffffffffffffffffffffffffffffffffffffffff1602179055505050505050565b7f000000000000000000000000000000000000000000000000000000000000000081565b7f000000000000000000000000000000000000000000000000000000000000000081565b60006040517f0a85dc2900000000000000000000000000000000000000000000000000000000815260040160405180910390fd5b600060a082209050919050565b60606000803073ffffffffffffffffffffffffffffffffffffffff168585604051610b38929190611afe565b6000604051808303816000865af19150503d8060008114610b75576040519150601f19603f3d011682016040523d82523d6000602084013e610b7a565b606091505b50915091508115610b8f578092505050610bd2565b6000815103610bca576040517fa40afa3800000000000000000000000000000000000000000000000000000000815260040160405180910390fd5b805160208201fd5b92915050565b604051806101c001604052806000151581526020016000151581526020016000151581526020016000151581526020016000151581526020016000151581526020016000151581526020016000151581526020016000151581526020016000151581526020016000151581526020016000151581526020016000151581526020016000151581525090565b6000604051905090565b600080fd5b600080fd5b600073ffffffffffffffffffffffffffffffffffffffff82169050919050565b6000610ca282610c77565b9050919050565b610cb281610c97565b8114610cbd57600080fd5b50565b600081359050610ccf81610ca9565b92915050565b600080fd5b600060a08284031215610cf057610cef610cd5565b5b81905092915050565b600060808284031215610d0f57610d0e610cd5565b5b81905092915050565b600080fd5b600080fd5b600080fd5b60008083601f840112610d3d57610d3c610d18565b5b8235905067ffffffffffffffff811115610d5a57610d59610d1d565b5b602083019150836001820283011115610d7657610d75610d22565b5b9250929050565b60008060008060006101608688031215610d9a57610d99610c6d565b5b6000610da888828901610cc0565b9550506020610db988828901610cda565b94505060c0610dca88828901610cf9565b93505061014086013567ffffffffffffffff811115610dec57610deb610c72565b5b610df888828901610d27565b92509250509295509295909350565b60007fffffffff0000000000000000000000000000000000000000000000000000000082169050919050565b610e3c81610e07565b82525050565b6000602082019050610e576000830184610e33565b92915050565b610e6681610c77565b8114610e7157600080fd5b50565b600081359050610e8381610e5d565b92915050565b60008060008060006101008688031215610ea657610ea5610c6d565b5b6000610eb488828901610cc0565b9550506020610ec588828901610cda565b94505060c0610ed688828901610e74565b93505060e086013567ffffffffffffffff811115610ef757610ef6610c72565b5b610f0388828901610d27565b92509250509295509295909350565b600060608284031215610f2857610f27610cd5565b5b81905092915050565b60008060008060006101408688031215610f4e57610f4d610c6d565b5b6000610f5c88828901610cc0565b9550506020610f6d88828901610cda565b94505060c0610f7e88828901610f12565b93505061012086013567ffffffffffffffff811115610fa057610f9f610c72565b5b610fac88828901610d27565b92509250509295509295909350565b6000819050919050565b6000819050919050565b6000610fea610fe5610fe084610fbb565b610fc5565b610fbb565b9050919050565b610ffa81610fcf565b82525050565b600062ffffff82169050919050565b61101881611000565b82525050565b60006060820190506110336000830186610e33565b6110406020830185610ff1565b61104d604083018461100f565b949350505050565b61105e81610fbb565b811461106957600080fd5b50565b60008135905061107b81611055565b92915050565b60008060008060008060006101a0888a0312156110a1576110a0610c6d565b5b60006110af8a828b01610cc0565b97505060206110c08a828b01610cda565b96505060c06110d18a828b01610cf9565b9550506101406110e38a828b0161106c565b9450506101606110f58a828b0161106c565b93505061018088013567ffffffffffffffff81111561111757611116610c72565b5b6111238a828b01610d27565b925092505092959891949750929550565b61113d81610fcf565b82525050565b60006040820190506111586000830185610e33565b6111656020830184611134565b9392505050565b6000806020838503121561118357611182610c6d565b5b600083013567ffffffffffffffff8111156111a1576111a0610c72565b5b6111ad85828601610d27565b92509250509250929050565b600081519050919050565b600082825260208201905092915050565b60005b838110156111f35780820151818401526020810190506111d8565b60008484015250505050565b6000601f19601f8301169050919050565b600061121b826111b9565b61122581856111c4565b93506112358185602086016111d5565b61123e816111ff565b840191505092915050565b600060208201905081810360008301526112638184611210565b905092915050565b60008160020b9050919050565b6112818161126b565b811461128c57600080fd5b50565b60008135905061129e81611278565b92915050565b60008060008060008061012087890312156112c2576112c1610c6d565b5b60006112d089828a01610cc0565b96505060206112e189828a01610cda565b95505060c06112f289828a01610e74565b94505060e061130389828a0161128f565b93505061010087013567ffffffffffffffff81111561132557611324610c72565b5b61133189828a01610d27565b92509250509295509295509295565b600080600080600080610160878903121561135e5761135d610c6d565b5b600061136c89828a01610cc0565b965050602061137d89828a01610cda565b95505060c061138e89828a01610f12565b9450506101206113a089828a0161106c565b93505061014087013567ffffffffffffffff8111156113c2576113c1610c72565b5b6113ce89828a01610d27565b92509250509295509295509295565b600081600f0b9050919050565b6113f3816113dd565b82525050565b600060408201905061140e6000830185610e33565b61141b60208301846113ea565b9392505050565b6000819050919050565b61143581611422565b811461144057600080fd5b50565b6000813590506114528161142c565b92915050565b60006020828403121561146e5761146d610c6d565b5b600061147c84828501611443565b91505092915050565b61148e81610c97565b82525050565b60006080820190506114a96000830187611485565b6114b66020830186611485565b6114c3604083018561100f565b6114d0606083018461100f565b95945050505050565b6000819050919050565b6114ec816114d9565b81146114f757600080fd5b50565b600081359050611509816114e3565b92915050565b600080600080600080610120878903121561152d5761152c610c6d565b5b600061153b89828a01610cc0565b965050602061154c89828a01610cda565b95505060c061155d89828a016114fa565b94505060e061156e89828a016114fa565b93505061010087013567ffffffffffffffff8111156115905761158f610c72565b5b61159c89828a01610d27565b92509250509295509295509295565b60008115159050919050565b6115c0816115ab565b82525050565b6101c0820160008201516115dd60008501826115b7565b5060208201516115f060208501826115b7565b50604082015161160360408501826115b7565b50606082015161161660608501826115b7565b50608082015161162960808501826115b7565b5060a082015161163c60a08501826115b7565b5060c082015161164f60c08501826115b7565b5060e082015161166260e08501826115b7565b506101008201516116776101008501826115b7565b5061012082015161168c6101208501826115b7565b506101408201516116a16101408501826115b7565b506101608201516116b66101608501826115b7565b506101808201516116cb6101808501826115b7565b506101a08201516116e06101a08501826115b7565b50505050565b60006101c0820190506116fc60008301846115c6565b92915050565b61170b81611000565b811461171657600080fd5b50565b60008135905061172881611702565b92915050565b600080600080610100858703121561174957611748610c6d565b5b600061175787828801610cda565b94505060a061176887828801611719565b93505060c061177987828801611719565b92505060e061178a87828801610cc0565b91505092959194509250565b60006117b16117ac6117a784610c77565b610fc5565b610c77565b9050919050565b60006117c382611796565b9050919050565b60006117d5826117b8565b9050919050565b6117e5816117ca565b82525050565b600060208201905061180060008301846117dc565b92915050565b6000611811826117b8565b9050919050565b61182181611806565b82525050565b600060208201905061183c6000830184611818565b92915050565b600080fd5b7f4e487b7100000000000000000000000000000000000000000000000000000000600052604160045260246000fd5b61187f826111ff565b810181811067ffffffffffffffff8211171561189e5761189d611847565b5b80604052505050565b60006118b1610c63565b90506118bd8282611876565b919050565b6118cb81610c97565b81146118d657600080fd5b50565b6000813590506118e8816118c2565b92915050565b60006118f982610c97565b9050919050565b611909816118ee565b811461191457600080fd5b50565b60008135905061192681611900565b92915050565b600060a0828403121561194257611941611842565b5b61194c60a06118a7565b9050600061195c848285016118d9565b6000830152506020611970848285016118d9565b602083015250604061198484828501611719565b60408301525060606119988482850161128f565b60608301525060806119ac84828501611917565b60808301525092915050565b600060a082840312156119ce576119cd610c6d565b5b60006119dc8482850161192c565b91505092915050565b600082825260208201905092915050565b7f506f6f6c206e6f7420636f6e6669677572656400000000000000000000000000600082015250565b6000611a2c6013836119e5565b9150611a37826119f6565b602082019050919050565b60006020820190508181036000830152611a5b81611a1f565b9050919050565b6000602082019050611a776000830184611485565b92915050565b600081519050611a8c816114e3565b92915050565b600060208284031215611aa857611aa7610c6d565b5b6000611ab684828501611a7d565b91505092915050565b600081905092915050565b82818337600083830152505050565b6000611ae58385611abf565b9350611af2838584611aca565b82840190509392505050565b6000611b0b828486611ad9565b9150819050939250505056fea264697066735822122060990b2d93eb3e557fa5f5de4dbcf5fb8c3fbcc4bdab21f625a991c1d41e1d0564736f6c634300081b0033",
  "linkReferences": {},
  "deployedLinkReferences": {}
}