{
  "_format": "hh-sol-artifact-1",
  "contractName": "TokenReducedFees",
  "sourceName": "src/TokenReducedFees.sol",
  "abi": [
    {
      "inputs": [
        {
          "internalType": "contract IPoolManager",
          "name": "_poolManager",
          "type": "address"
        }
      ],
      "stateMutability": "nonpayable",
      "type": "constructor"
    },
    {
      "inputs": [],
      "name": "HookNotImplemented",
      "type": "error"
    },
    {
      "inputs": [],
      "name": "InvalidPool",
      "type": "error"
    },
    {
      "inputs": [],
      "name": "LockFailure",
      "type": "error"
    },
    {
      "inputs": [],
      "name": "NotPoolManager",
      "type": "error"
    },
    {
      "inputs": [],
      "name": "NotSelf",
      "type": "error"
    },
    {
      "inputs": [
        {
          "internalType": "address",
          "name": "",
          "type": "address"
        },
        {
          "components": [
            {
              "internalType": "Currency",
              "name": "currency0",
              "type": "address"
            },
            {
              "internalType": "Currency",
              "name": "currency1",
              "type": "address"
            },
            {
              "internalType": "uint24",
              "name": "fee",
              "type": "uint24"
            },
            {
              "internalType": "int24",
              "name": "tickSpacing",
              "type": "int24"
            },
            {
              "internalType": "contract IHooks",
              "name": "hooks",
              "type": "address"
            }
          ],
          "internalType": "struct PoolKey",
          "name": "",
          "type": "tuple"
        },
        {
          "components": [
            {
              "internalType": "int24",
              "name": "tickLower",
              "type": "int24"
            },
            {
              "internalType": "int24",
              "name": "tickUpper",
              "type": "int24"
            },
            {
              "internalType": "int256",
              "name": "liquidityDelta",
              "type": "int256"
            },
            {
              "internalType": "bytes32",
              "name": "salt",
              "type": "bytes32"
            }
          ],
          "internalType": "struct IPoolManager.ModifyLiquidityParams",
          "name": "",
          "type": "tuple"
        },
        {
          "internalType": "BalanceDelta",
          "name": "",
          "type": "int256"
        },
        {
          "internalType": "BalanceDelta",
          "name": "",
          "type": "int256"
        },
        {
          "internalType": "bytes",
          "name": "",
          "type": "bytes"
        }
      ],
      "name": "afterAddLiquidity",
      "outputs": [
        {
          "internalType": "bytes4",
          "name": "",
          "type": "bytes4"
        },
        {
          "internalType": "BalanceDelta",
          "name": "",
          "type": "int256"
        }
      ],
      "stateMutability": "nonpayable",
      "type": "function"
    },
    {
      "inputs": [
        {
          "internalType": "address",
          "name": "",
          "type": "address"
        },
        {
          "components": [
            {
              "internalType": "Currency",
              "name": "currency0",
              "type": "address"
            },
            {
              "internalType": "Currency",
              "name": "currency1",
              "type": "address"
            },
            {
              "internalType": "uint24",
              "name": "fee",
              "type": "uint24"
            },
            {
              "internalType": "int24",
              "name": "tickSpacing",
              "type": "int24"
            },
            {
              "internalType": "contract IHooks",
              "name": "hooks",
              "type": "address"
            }
          ],
          "internalType": "struct PoolKey",
          "name": "",
          "type": "tuple"
        },
        {
          "internalType": "uint256",
          "name": "",
          "type": "uint256"
        },
        {
          "internalType": "uint256",
          "name": "",
          "type": "uint256"
        },
        {
          "internalType": "bytes",
          "name": "",
          "type": "bytes"
        }
      ],
      "name": "afterDonate",
      "outputs": [
        {
          "internalType": "bytes4",
          "name": "",
          "type": "bytes4"
        }
      ],
      "stateMutability": "nonpayable",
      "type": "function"
    },
    {
      "inputs": [
        {
          "internalType": "address",
          "name": "sender",
          "type": "address"
        },
        {
          "components": [
            {
              "internalType": "Currency",
              "name": "currency0",
              "type": "address"
            },
            {
              "internalType": "Currency",
              "name": "currency1",
              "type": "address"
            },
            {
              "internalType": "uint24",
              "name": "fee",
              "type": "uint24"
            },
            {
              "internalType": "int24",
              "name": "tickSpacing",
              "type": "int24"
            },
            {
              "internalType": "contract IHooks",
              "name": "hooks",
              "type": "address"
            }
          ],
          "internalType": "struct PoolKey",
          "name": "key",
          "type": "tuple"
        },
        {
          "internalType": "uint160",
          "name": "",
          "type": "uint160"
        },
        {
          "internalType": "int24",
          "name": "",
          "type": "int24"
        },
        {
          "internalType": "bytes",
          "name": "hookData",
          "type": "bytes"
        }
      ],
      "name": "afterInitialize",
      "outputs": [
        {
          "internalType": "bytes4",
          "name": "",
          "type": "bytes4"
        }
      ],
      "stateMutability": "nonpayable",
      "type": "function"
    },
    {
      "inputs": [
        {
          "internalType": "address",
          "name": "",
          "type": "address"
        },
        {
          "components": [
            {
              "internalType": "Currency",
              "name": "currency0",
              "type": "address"
            },
            {
              "internalType": "Currency",
              "name": "currency1",
              "type": "address"
            },
            {
              "internalType": "uint24",
              "name": "fee",
              "type": "uint24"
            },
            {
              "internalType": "int24",
              "name": "tickSpacing",
              "type": "int24"
            },
            {
              "internalType": "contract IHooks",
              "name": "hooks",
              "type": "address"
            }
          ],
          "internalType": "struct PoolKey",
          "name": "",
          "type": "tuple"
        },
        {
          "components": [
            {
              "internalType": "int24",
              "name": "tickLower",
              "type": "int24"
            },
            {
              "internalType": "int24",
              "name": "tickUpper",
              "type": "int24"
            },
            {
              "internalType": "int256",
              "name": "liquidityDelta",
              "type": "int256"
            },
            {
              "internalType": "bytes32",
              "name": "salt",
              "type": "bytes32"
            }
          ],
          "internalType": "struct IPoolManager.ModifyLiquidityParams",
          "name": "",
          "type": "tuple"
        },
        {
          "internalType": "BalanceDelta",
          "name": "",
          "type": "int256"
        },
        {
          "internalType": "BalanceDelta",
          "name": "",
          "type": "int256"
        },
        {
          "internalType": "bytes",
          "name": "",
          "type": "bytes"
        }
      ],
      "name": "afterRemoveLiquidity",
      "outputs": [
        {
          "internalType": "bytes4",
          "name": "",
          "type": "bytes4"
        },
        {
          "internalType": "BalanceDelta",
          "name": "",
          "type": "int256"
        }
      ],
      "stateMutability": "nonpayable",
      "type": "function"
    },
    {
      "inputs": [
        {
          "internalType": "address",
          "name": "",
          "type": "address"
        },
        {
          "components": [
            {
              "internalType": "Currency",
              "name": "currency0",
              "type": "address"
            },
            {
              "internalType": "Currency",
              "name": "currency1",
              "type": "address"
            },
            {
              "internalType": "uint24",
              "name": "fee",
              "type": "uint24"
            },
            {
              "internalType": "int24",
              "name": "tickSpacing",
              "type": "int24"
            },
            {
              "internalType": "contract IHooks",
              "name": "hooks",
              "type": "address"
            }
          ],
          "internalType": "struct PoolKey",
          "name": "",
          "type": "tuple"
        },
        {
          "components": [
            {
              "internalType": "bool",
              "name": "zeroForOne",
              "type": "bool"
            },
            {
              "internalType": "int256",
              "name": "amountSpecified",
              "type": "int256"
            },
            {
              "internalType": "uint160",
              "name": "sqrtPriceLimitX96",
              "type": "uint160"
            }
          ],
          "internalType": "struct IPoolManager.SwapParams",
          "name": "",
          "type": "tuple"
        },
        {
          "internalType": "BalanceDelta",
          "name": "",
          "type": "int256"
        },
        {
          "internalType": "bytes",
          "name": "",
          "type": "bytes"
        }
      ],
      "name": "afterSwap",
      "outputs": [
        {
          "internalType": "bytes4",
          "name": "",
          "type": "bytes4"
        },
        {
          "internalType": "int128",
          "name": "",
          "type": "int128"
        }
      ],
      "stateMutability": "nonpayable",
      "type": "function"
    },
    {
      "inputs": [
        {
          "internalType": "address",
          "name": "",
          "type": "address"
        },
        {
          "components": [
            {
              "internalType": "Currency",
              "name": "currency0",
              "type": "address"
            },
            {
              "internalType": "Currency",
              "name": "currency1",
              "type": "address"
            },
            {
              "internalType": "uint24",
              "name": "fee",
              "type": "uint24"
            },
            {
              "internalType": "int24",
              "name": "tickSpacing",
              "type": "int24"
            },
            {
              "internalType": "contract IHooks",
              "name": "hooks",
              "type": "address"
            }
          ],
          "internalType": "struct PoolKey",
          "name": "",
          "type": "tuple"
        },
        {
          "components": [
            {
              "internalType": "int24",
              "name": "tickLower",
              "type": "int24"
            },
            {
              "internalType": "int24",
              "name": "tickUpper",
              "type": "int24"
            },
            {
              "internalType": "int256",
              "name": "liquidityDelta",
              "type": "int256"
            },
            {
              "internalType": "bytes32",
              "name": "salt",
              "type": "bytes32"
            }
          ],
          "internalType": "struct IPoolManager.ModifyLiquidityParams",
          "name": "",
          "type": "tuple"
        },
        {
          "internalType": "bytes",
          "name": "",
          "type": "bytes"
        }
      ],
      "name": "beforeAddLiquidity",
      "outputs": [
        {
          "internalType": "bytes4",
          "name": "",
          "type": "bytes4"
        }
      ],
      "stateMutability": "nonpayable",
      "type": "function"
    },
    {
      "inputs": [
        {
          "internalType": "address",
          "name": "",
          "type": "address"
        },
        {
          "components": [
            {
              "internalType": "Currency",
              "name": "currency0",
              "type": "address"
            },
            {
              "internalType": "Currency",
              "name": "currency1",
              "type": "address"
            },
            {
              "internalType": "uint24",
              "name": "fee",
              "type": "uint24"
            },
            {
              "internalType": "int24",
              "name": "tickSpacing",
              "type": "int24"
            },
            {
              "internalType": "contract IHooks",
              "name": "hooks",
              "type": "address"
            }
          ],
          "internalType": "struct PoolKey",
          "name": "",
          "type": "tuple"
        },
        {
          "internalType": "uint256",
          "name": "",
          "type": "uint256"
        },
        {
          "internalType": "uint256",
          "name": "",
          "type": "uint256"
        },
        {
          "internalType": "bytes",
          "name": "",
          "type": "bytes"
        }
      ],
      "name": "beforeDonate",
      "outputs": [
        {
          "internalType": "bytes4",
          "name": "",
          "type": "bytes4"
        }
      ],
      "stateMutability": "nonpayable",
      "type": "function"
    },
    {
      "inputs": [
        {
          "internalType": "address",
          "name": "",
          "type": "address"
        },
        {
          "components": [
            {
              "internalType": "Currency",
              "name": "currency0",
              "type": "address"
            },
            {
              "internalType": "Currency",
              "name": "currency1",
              "type": "address"
            },
            {
              "internalType": "uint24",
              "name": "fee",
              "type": "uint24"
            },
            {
              "internalType": "int24",
              "name": "tickSpacing",
              "type": "int24"
            },
            {
              "internalType": "contract IHooks",
              "name": "hooks",
              "type": "address"
            }
          ],
          "internalType": "struct PoolKey",
          "name": "",
          "type": "tuple"
        },
        {
          "internalType": "uint160",
          "name": "",
          "type": "uint160"
        },
        {
          "internalType": "bytes",
          "name": "",
          "type": "bytes"
        }
      ],
      "name": "beforeInitialize",
      "outputs": [
        {
          "internalType": "bytes4",
          "name": "",
          "type": "bytes4"
        }
      ],
      "stateMutability": "nonpayable",
      "type": "function"
    },
    {
      "inputs": [
        {
          "internalType": "address",
          "name": "",
          "type": "address"
        },
        {
          "components": [
            {
              "internalType": "Currency",
              "name": "currency0",
              "type": "address"
            },
            {
              "internalType": "Currency",
              "name": "currency1",
              "type": "address"
            },
            {
              "internalType": "uint24",
              "name": "fee",
              "type": "uint24"
            },
            {
              "internalType": "int24",
              "name": "tickSpacing",
              "type": "int24"
            },
            {
              "internalType": "contract IHooks",
              "name": "hooks",
              "type": "address"
            }
          ],
          "internalType": "struct PoolKey",
          "name": "",
          "type": "tuple"
        },
        {
          "components": [
            {
              "internalType": "int24",
              "name": "tickLower",
              "type": "int24"
            },
            {
              "internalType": "int24",
              "name": "tickUpper",
              "type": "int24"
            },
            {
              "internalType": "int256",
              "name": "liquidityDelta",
              "type": "int256"
            },
            {
              "internalType": "bytes32",
              "name": "salt",
              "type": "bytes32"
            }
          ],
          "internalType": "struct IPoolManager.ModifyLiquidityParams",
          "name": "",
          "type": "tuple"
        },
        {
          "internalType": "bytes",
          "name": "",
          "type": "bytes"
        }
      ],
      "name": "beforeRemoveLiquidity",
      "outputs": [
        {
          "internalType": "bytes4",
          "name": "",
          "type": "bytes4"
        }
      ],
      "stateMutability": "nonpayable",
      "type": "function"
    },
    {
      "inputs": [
        {
          "internalType": "address",
          "name": "sender",
          "type": "address"
        },
        {
          "components": [
            {
              "internalType": "Currency",
              "name": "currency0",
              "type": "address"
            },
            {
              "internalType": "Currency",
              "name": "currency1",
              "type": "address"
            },
            {
              "internalType": "uint24",
              "name": "fee",
              "type": "uint24"
            },
            {
              "internalType": "int24",
              "name": "tickSpacing",
              "type": "int24"
            },
            {
              "internalType": "contract IHooks",
              "name": "hooks",
              "type": "address"
            }
          ],
          "internalType": "struct PoolKey",
          "name": "key",
          "type": "tuple"
        },
        {
          "components": [
            {
              "internalType": "bool",
              "name": "zeroForOne",
              "type": "bool"
            },
            {
              "internalType": "int256",
              "name": "amountSpecified",
              "type": "int256"
            },
            {
              "internalType": "uint160",
              "name": "sqrtPriceLimitX96",
              "type": "uint160"
            }
          ],
          "internalType": "struct IPoolManager.SwapParams",
          "name": "",
          "type": "tuple"
        },
        {
          "internalType": "bytes",
          "name": "",
          "type": "bytes"
        }
      ],
      "name": "beforeSwap",
      "outputs": [
        {
          "internalType": "bytes4",
          "name": "",
          "type": "bytes4"
        },
        {
          "internalType": "BeforeSwapDelta",
          "name": "",
          "type": "int256"
        },
        {
          "internalType": "uint24",
          "name": "",
          "type": "uint24"
        }
      ],
      "stateMutability": "nonpayable",
      "type": "function"
    },
    {
      "inputs": [],
      "name": "getHookPermissions",
      "outputs": [
        {
          "components": [
            {
              "internalType": "bool",
              "name": "beforeInitialize",
              "type": "bool"
            },
            {
              "internalType": "bool",
              "name": "afterInitialize",
              "type": "bool"
            },
            {
              "internalType": "bool",
              "name": "beforeAddLiquidity",
              "type": "bool"
            },
            {
              "internalType": "bool",
              "name": "afterAddLiquidity",
              "type": "bool"
            },
            {
              "internalType": "bool",
              "name": "beforeRemoveLiquidity",
              "type": "bool"
            },
            {
              "internalType": "bool",
              "name": "afterRemoveLiquidity",
              "type": "bool"
            },
            {
              "internalType": "bool",
              "name": "beforeSwap",
              "type": "bool"
            },
            {
              "internalType": "bool",
              "name": "afterSwap",
              "type": "bool"
            },
            {
              "internalType": "bool",
              "name": "beforeDonate",
              "type": "bool"
            },
            {
              "internalType": "bool",
              "name": "afterDonate",
              "type": "bool"
            },
            {
              "internalType": "bool",
              "name": "beforeSwapReturnDelta",
              "type": "bool"
            },
            {
              "internalType": "bool",
              "name": "afterSwapReturnDelta",
              "type": "bool"
            },
            {
              "internalType": "bool",
              "name": "afterAddLiquidityReturnDelta",
              "type": "bool"
            },
            {
              "internalType": "bool",
              "name": "afterRemoveLiquidityReturnDelta",
              "type": "bool"
            }
          ],
          "internalType": "struct Hooks.Permissions",
          "name": "",
          "type": "tuple"
        }
      ],
      "stateMutability": "pure",
      "type": "function"
    },
    {
      "inputs": [
        {
          "internalType": "PoolId",
          "name": "key",
          "type": "bytes32"
        }
      ],
      "name": "getPool",
      "outputs": [
        {
          "internalType": "address",
          "name": "",
          "type": "address"
        }
      ],
      "stateMutability": "view",
      "type": "function"
    },
    {
      "inputs": [],
      "name": "ping",
      "outputs": [
        {
          "internalType": "string",
          "name": "",
          "type": "string"
        }
      ],
      "stateMutability": "nonpayable",
      "type": "function"
    },
    {
      "inputs": [],
      "name": "poolManager",
      "outputs": [
        {
          "internalType": "contract IPoolManager",
          "name": "",
          "type": "address"
        }
      ],
      "stateMutability": "view",
      "type": "function"
    },
    {
      "inputs": [
        {
          "internalType": "PoolId",
          "name": "",
          "type": "bytes32"
        }
      ],
      "name": "pools",
      "outputs": [
        {
          "internalType": "address",
          "name": "tokenAddress",
          "type": "address"
        },
        {
          "internalType": "address",
          "name": "owner",
          "type": "address"
        },
        {
          "internalType": "uint24",
          "name": "regularFees",
          "type": "uint24"
        },
        {
          "internalType": "uint24",
          "name": "reducedFees",
          "type": "uint24"
        }
      ],
      "stateMutability": "view",
      "type": "function"
    },
    {
      "inputs": [
        {
          "components": [
            {
              "internalType": "Currency",
              "name": "currency0",
              "type": "address"
            },
            {
              "internalType": "Currency",
              "name": "currency1",
              "type": "address"
            },
            {
              "internalType": "uint24",
              "name": "fee",
              "type": "uint24"
            },
            {
              "internalType": "int24",
              "name": "tickSpacing",
              "type": "int24"
            },
            {
              "internalType": "contract IHooks",
              "name": "hooks",
              "type": "address"
            }
          ],
          "internalType": "struct PoolKey",
          "name": "key",
          "type": "tuple"
        },
        {
          "internalType": "uint24",
          "name": "_regularFees",
          "type": "uint24"
        },
        {
          "internalType": "uint24",
          "name": "_reducedFees",
          "type": "uint24"
        },
        {
          "internalType": "address",
          "name": "_tokenAddress",
          "type": "address"
        }
      ],
      "name": "setPoolConfig",
      "outputs": [],
      "stateMutability": "nonpayable",
      "type": "function"
    },
    {
      "inputs": [
        {
          "internalType": "bytes",
          "name": "data",
          "type": "bytes"
        }
      ],
      "name": "unlockCallback",
      "outputs": [
        {
          "internalType": "bytes",
          "name": "",
          "type": "bytes"
        }
      ],
      "stateMutability": "nonpayable",
      "type": "function"
    }
  ],
  "bytecode": "0x60a060405234801561001057600080fd5b5060405161237638038061237683398181016040528101906100329190610610565b8080808073ffffffffffffffffffffffffffffffffffffffff1660808173ffffffffffffffffffffffffffffffffffffffff1681525050505061007a3061008160201b60201c565b505061063d565b61009e816100936100a160201b60201c565b61013660201b60201c565b50565b6100a9610510565b604051806101c0016040528060001515815260200160011515815260200160001515815260200160001515815260200160001515815260200160001515815260200160011515815260200160001515815260200160001515815260200160001515815260200160001515815260200160001515815260200160001515815260200160001515815250905090565b6101616120008373ffffffffffffffffffffffffffffffffffffffff166104c660201b90919060201c565b1515816000015115151415806101a9575061019d6110008373ffffffffffffffffffffffffffffffffffffffff166104c660201b90919060201c565b15158160200151151514155b806101e657506101da6108008373ffffffffffffffffffffffffffffffffffffffff166104c660201b90919060201c565b15158160400151151514155b8061022357506102176104008373ffffffffffffffffffffffffffffffffffffffff166104c660201b90919060201c565b15158160600151151514155b8061026057506102546102008373ffffffffffffffffffffffffffffffffffffffff166104c660201b90919060201c565b15158160800151151514155b8061029d57506102916101008373ffffffffffffffffffffffffffffffffffffffff166104c660201b90919060201c565b15158160a00151151514155b806102d957506102cd60808373ffffffffffffffffffffffffffffffffffffffff166104c660201b90919060201c565b15158160c00151151514155b80610315575061030960408373ffffffffffffffffffffffffffffffffffffffff166104c660201b90919060201c565b15158160e00151151514155b80610352575061034560208373ffffffffffffffffffffffffffffffffffffffff166104c660201b90919060201c565b1515816101000151151514155b8061038f575061038260108373ffffffffffffffffffffffffffffffffffffffff166104c660201b90919060201c565b1515816101200151151514155b806103cc57506103bf60088373ffffffffffffffffffffffffffffffffffffffff166104c660201b90919060201c565b1515816101400151151514155b8061040957506103fc60048373ffffffffffffffffffffffffffffffffffffffff166104c660201b90919060201c565b1515816101600151151514155b80610446575061043960028373ffffffffffffffffffffffffffffffffffffffff166104c660201b90919060201c565b1515816101800151151514155b80610483575061047660018373ffffffffffffffffffffffffffffffffffffffff166104c660201b90919060201c565b1515816101a00151151514155b156104c2576104c18263e65af6a060e01b7bffffffffffffffffffffffffffffffffffffffffffffffffffffffff19166104ec60201b90919060201c565b5b5050565b60008082841673ffffffffffffffffffffffffffffffffffffffff161415905092915050565b8160005273ffffffffffffffffffffffffffffffffffffffff811660045260246000fd5b604051806101c001604052806000151581526020016000151581526020016000151581526020016000151581526020016000151581526020016000151581526020016000151581526020016000151581526020016000151581526020016000151581526020016000151581526020016000151581526020016000151581526020016000151581525090565b600080fd5b600073ffffffffffffffffffffffffffffffffffffffff82169050919050565b60006105cb826105a0565b9050919050565b60006105dd826105c0565b9050919050565b6105ed816105d2565b81146105f857600080fd5b50565b60008151905061060a816105e4565b92915050565b6000602082840312156106265761062561059b565b5b6000610634848285016105fb565b91505092915050565b608051611d1761065f600039600081816107170152610be50152611d176000f3fe608060405234801561001057600080fd5b506004361061010b5760003560e01c8063a910f80f116100a2578063c4e833ce11610071578063c4e833ce14610346578063ce4afae514610364578063dc4c90d314610380578063e1b4af691461039e578063f6c00927146103ce5761010b565b8063a910f80f14610282578063b47b2fb1146102b2578063b5217bb4146102e3578063b6a8b0fa146103165761010b565b80635c36b186116100de5780635c36b186146101d25780636c2bbe7e146101f057806391dd7346146102215780639f063efc146102515761010b565b806321d0ee7014610110578063259982e5146101405780633440d82014610170578063575e24b4146101a0575b600080fd5b61012a60048036038101906101259190610ef8565b6103fe565b6040516101379190610fbd565b60405180910390f35b61015a60048036038101906101559190610ef8565b610432565b6040516101679190610fbd565b60405180910390f35b61018a60048036038101906101859190611004565b610466565b6040516101979190610fbd565b60405180910390f35b6101ba60048036038101906101b591906110ac565b61049a565b6040516101c993929190611199565b60405180910390f35b6101da6106a1565b6040516101e79190611260565b60405180910390f35b61020a600480360381019061020591906112ae565b6106de565b604051610218929190611370565b60405180910390f35b61023b60048036038101906102369190611399565b610713565b604051610248919061143b565b60405180910390f35b61026b600480360381019061026691906112ae565b6107ac565b604051610279929190611370565b60405180910390f35b61029c60048036038101906102979190611496565b6107e1565b6040516102a99190610fbd565b60405180910390f35b6102cc60048036038101906102c79190611532565b61097b565b6040516102da9291906115eb565b60405180910390f35b6102fd60048036038101906102f8919061164a565b6109b0565b60405161030d9493929190611686565b60405180910390f35b610330600480360381019061032b9190611701565b610a3e565b60405161033d9190610fbd565b60405180910390f35b61034e610a72565b60405161035b91906118d8565b60405180910390f35b61037e60048036038101906103799190611920565b610b07565b005b610388610be3565b60405161039591906119dd565b60405180910390f35b6103b860048036038101906103b39190611701565b610c07565b6040516103c59190610fbd565b60405180910390f35b6103e860048036038101906103e3919061164a565b610c3b565b6040516103f591906119f8565b60405180910390f35b60006040517f0a85dc2900000000000000000000000000000000000000000000000000000000815260040160405180910390fd5b60006040517f0a85dc2900000000000000000000000000000000000000000000000000000000815260040160405180910390fd5b60006040517f0a85dc2900000000000000000000000000000000000000000000000000000000815260040160405180910390fd5b6000806000806104b9888036038101906104b49190611b89565b610c7a565b905060008060008381526020019081526020016000206040518060800160405290816000820160009054906101000a900473ffffffffffffffffffffffffffffffffffffffff1673ffffffffffffffffffffffffffffffffffffffff1673ffffffffffffffffffffffffffffffffffffffff1681526020016001820160009054906101000a900473ffffffffffffffffffffffffffffffffffffffff1673ffffffffffffffffffffffffffffffffffffffff1673ffffffffffffffffffffffffffffffffffffffff1681526020016001820160149054906101000a900462ffffff1662ffffff1662ffffff1681526020016001820160179054906101000a900462ffffff1662ffffff1662ffffff1681525050905060008160000151905060008173ffffffffffffffffffffffffffffffffffffffff166370a082318d6040518263ffffffff1660e01b815260040161061291906119f8565b602060405180830381865afa15801561062f573d6000803e3d6000fd5b505050506040513d601f19601f820116820180604052508101906106539190611bcb565b9050600081111561067c5763575e24b460e01b6000846060015196509650965050505050610696565b63575e24b460e01b60008460400151965096509650505050505b955095509592505050565b60606040518060400160405280600481526020017f706f6e6700000000000000000000000000000000000000000000000000000000815250905090565b6000806040517f0a85dc2900000000000000000000000000000000000000000000000000000000815260040160405180910390fd5b60607f000000000000000000000000000000000000000000000000000000000000000073ffffffffffffffffffffffffffffffffffffffff163373ffffffffffffffffffffffffffffffffffffffff161461079a576040517fae18210a00000000000000000000000000000000000000000000000000000000815260040160405180910390fd5b6107a48383610c87565b905092915050565b6000806040517f0a85dc2900000000000000000000000000000000000000000000000000000000815260040160405180910390fd5b60008060008085858101906107f69190611c36565b925092509250600060405180608001604052808373ffffffffffffffffffffffffffffffffffffffff1681526020018c73ffffffffffffffffffffffffffffffffffffffff1681526020018562ffffff1681526020018462ffffff16815250905060006108728b80360381019061086d9190611b89565b610c7a565b90508160008083815260200190815260200160002060008201518160000160006101000a81548173ffffffffffffffffffffffffffffffffffffffff021916908373ffffffffffffffffffffffffffffffffffffffff16021790555060208201518160010160006101000a81548173ffffffffffffffffffffffffffffffffffffffff021916908373ffffffffffffffffffffffffffffffffffffffff16021790555060408201518160010160146101000a81548162ffffff021916908362ffffff16021790555060608201518160010160176101000a81548162ffffff021916908362ffffff16021790555090505063a910f80f60e01b955050505050509695505050505050565b6000806040517f0a85dc2900000000000000000000000000000000000000000000000000000000815260040160405180910390fd5b60006020528060005260406000206000915090508060000160009054906101000a900473ffffffffffffffffffffffffffffffffffffffff16908060010160009054906101000a900473ffffffffffffffffffffffffffffffffffffffff16908060010160149054906101000a900462ffffff16908060010160179054906101000a900462ffffff16905084565b60006040517f0a85dc2900000000000000000000000000000000000000000000000000000000815260040160405180910390fd5b610a7a610d53565b604051806101c0016040528060001515815260200160011515815260200160001515815260200160001515815260200160001515815260200160001515815260200160011515815260200160001515815260200160001515815260200160001515815260200160001515815260200160001515815260200160001515815260200160001515815250905090565b6000610b2285803603810190610b1d9190611b89565b610c7a565b90508360008083815260200190815260200160002060010160146101000a81548162ffffff021916908362ffffff1602179055508260008083815260200190815260200160002060010160176101000a81548162ffffff021916908362ffffff1602179055508160008083815260200190815260200160002060000160006101000a81548173ffffffffffffffffffffffffffffffffffffffff021916908373ffffffffffffffffffffffffffffffffffffffff1602179055505050505050565b7f000000000000000000000000000000000000000000000000000000000000000081565b60006040517f0a85dc2900000000000000000000000000000000000000000000000000000000815260040160405180910390fd5b600080600083815260200190815260200160002060010160009054906101000a900473ffffffffffffffffffffffffffffffffffffffff169050919050565b600060a082209050919050565b60606000803073ffffffffffffffffffffffffffffffffffffffff168585604051610cb3929190611cc8565b6000604051808303816000865af19150503d8060008114610cf0576040519150601f19603f3d011682016040523d82523d6000602084013e610cf5565b606091505b50915091508115610d0a578092505050610d4d565b6000815103610d45576040517fa40afa3800000000000000000000000000000000000000000000000000000000815260040160405180910390fd5b805160208201fd5b92915050565b604051806101c001604052806000151581526020016000151581526020016000151581526020016000151581526020016000151581526020016000151581526020016000151581526020016000151581526020016000151581526020016000151581526020016000151581526020016000151581526020016000151581526020016000151581525090565b6000604051905090565b600080fd5b600080fd5b600073ffffffffffffffffffffffffffffffffffffffff82169050919050565b6000610e1d82610df2565b9050919050565b610e2d81610e12565b8114610e3857600080fd5b50565b600081359050610e4a81610e24565b92915050565b600080fd5b600060a08284031215610e6b57610e6a610e50565b5b81905092915050565b600060808284031215610e8a57610e89610e50565b5b81905092915050565b600080fd5b600080fd5b600080fd5b60008083601f840112610eb857610eb7610e93565b5b8235905067ffffffffffffffff811115610ed557610ed4610e98565b5b602083019150836001820283011115610ef157610ef0610e9d565b5b9250929050565b60008060008060006101608688031215610f1557610f14610de8565b5b6000610f2388828901610e3b565b9550506020610f3488828901610e55565b94505060c0610f4588828901610e74565b93505061014086013567ffffffffffffffff811115610f6757610f66610ded565b5b610f7388828901610ea2565b92509250509295509295909350565b60007fffffffff0000000000000000000000000000000000000000000000000000000082169050919050565b610fb781610f82565b82525050565b6000602082019050610fd26000830184610fae565b92915050565b610fe181610df2565b8114610fec57600080fd5b50565b600081359050610ffe81610fd8565b92915050565b6000806000806000610100868803121561102157611020610de8565b5b600061102f88828901610e3b565b955050602061104088828901610e55565b94505060c061105188828901610fef565b93505060e086013567ffffffffffffffff81111561107257611071610ded565b5b61107e88828901610ea2565b92509250509295509295909350565b6000606082840312156110a3576110a2610e50565b5b81905092915050565b600080600080600061014086880312156110c9576110c8610de8565b5b60006110d788828901610e3b565b95505060206110e888828901610e55565b94505060c06110f98882890161108d565b93505061012086013567ffffffffffffffff81111561111b5761111a610ded565b5b61112788828901610ea2565b92509250509295509295909350565b6000819050919050565b6000819050919050565b600061116561116061115b84611136565b611140565b611136565b9050919050565b6111758161114a565b82525050565b600062ffffff82169050919050565b6111938161117b565b82525050565b60006060820190506111ae6000830186610fae565b6111bb602083018561116c565b6111c8604083018461118a565b949350505050565b600081519050919050565b600082825260208201905092915050565b60005b8381101561120a5780820151818401526020810190506111ef565b60008484015250505050565b6000601f19601f8301169050919050565b6000611232826111d0565b61123c81856111db565b935061124c8185602086016111ec565b61125581611216565b840191505092915050565b6000602082019050818103600083015261127a8184611227565b905092915050565b61128b81611136565b811461129657600080fd5b50565b6000813590506112a881611282565b92915050565b60008060008060008060006101a0888a0312156112ce576112cd610de8565b5b60006112dc8a828b01610e3b565b97505060206112ed8a828b01610e55565b96505060c06112fe8a828b01610e74565b9550506101406113108a828b01611299565b9450506101606113228a828b01611299565b93505061018088013567ffffffffffffffff81111561134457611343610ded565b5b6113508a828b01610ea2565b925092505092959891949750929550565b61136a8161114a565b82525050565b60006040820190506113856000830185610fae565b6113926020830184611361565b9392505050565b600080602083850312156113b0576113af610de8565b5b600083013567ffffffffffffffff8111156113ce576113cd610ded565b5b6113da85828601610ea2565b92509250509250929050565b600081519050919050565b600082825260208201905092915050565b600061140d826113e6565b61141781856113f1565b93506114278185602086016111ec565b61143081611216565b840191505092915050565b600060208201905081810360008301526114558184611402565b905092915050565b60008160020b9050919050565b6114738161145d565b811461147e57600080fd5b50565b6000813590506114908161146a565b92915050565b60008060008060008061012087890312156114b4576114b3610de8565b5b60006114c289828a01610e3b565b96505060206114d389828a01610e55565b95505060c06114e489828a01610fef565b94505060e06114f589828a01611481565b93505061010087013567ffffffffffffffff81111561151757611516610ded565b5b61152389828a01610ea2565b92509250509295509295509295565b60008060008060008061016087890312156115505761154f610de8565b5b600061155e89828a01610e3b565b965050602061156f89828a01610e55565b95505060c061158089828a0161108d565b94505061012061159289828a01611299565b93505061014087013567ffffffffffffffff8111156115b4576115b3610ded565b5b6115c089828a01610ea2565b92509250509295509295509295565b600081600f0b9050919050565b6115e5816115cf565b82525050565b60006040820190506116006000830185610fae565b61160d60208301846115dc565b9392505050565b6000819050919050565b61162781611614565b811461163257600080fd5b50565b6000813590506116448161161e565b92915050565b6000602082840312156116605761165f610de8565b5b600061166e84828501611635565b91505092915050565b61168081610e12565b82525050565b600060808201905061169b6000830187611677565b6116a86020830186611677565b6116b5604083018561118a565b6116c2606083018461118a565b95945050505050565b6000819050919050565b6116de816116cb565b81146116e957600080fd5b50565b6000813590506116fb816116d5565b92915050565b600080600080600080610120878903121561171f5761171e610de8565b5b600061172d89828a01610e3b565b965050602061173e89828a01610e55565b95505060c061174f89828a016116ec565b94505060e061176089828a016116ec565b93505061010087013567ffffffffffffffff81111561178257611781610ded565b5b61178e89828a01610ea2565b92509250509295509295509295565b60008115159050919050565b6117b28161179d565b82525050565b6101c0820160008201516117cf60008501826117a9565b5060208201516117e260208501826117a9565b5060408201516117f560408501826117a9565b50606082015161180860608501826117a9565b50608082015161181b60808501826117a9565b5060a082015161182e60a08501826117a9565b5060c082015161184160c08501826117a9565b5060e082015161185460e08501826117a9565b506101008201516118696101008501826117a9565b5061012082015161187e6101208501826117a9565b506101408201516118936101408501826117a9565b506101608201516118a86101608501826117a9565b506101808201516118bd6101808501826117a9565b506101a08201516118d26101a08501826117a9565b50505050565b60006101c0820190506118ee60008301846117b8565b92915050565b6118fd8161117b565b811461190857600080fd5b50565b60008135905061191a816118f4565b92915050565b600080600080610100858703121561193b5761193a610de8565b5b600061194987828801610e55565b94505060a061195a8782880161190b565b93505060c061196b8782880161190b565b92505060e061197c87828801610e3b565b91505092959194509250565b60006119a361199e61199984610df2565b611140565b610df2565b9050919050565b60006119b582611988565b9050919050565b60006119c7826119aa565b9050919050565b6119d7816119bc565b82525050565b60006020820190506119f260008301846119ce565b92915050565b6000602082019050611a0d6000830184611677565b92915050565b600080fd5b7f4e487b7100000000000000000000000000000000000000000000000000000000600052604160045260246000fd5b611a5082611216565b810181811067ffffffffffffffff82111715611a6f57611a6e611a18565b5b80604052505050565b6000611a82610dde565b9050611a8e8282611a47565b919050565b611a9c81610e12565b8114611aa757600080fd5b50565b600081359050611ab981611a93565b92915050565b6000611aca82610e12565b9050919050565b611ada81611abf565b8114611ae557600080fd5b50565b600081359050611af781611ad1565b92915050565b600060a08284031215611b1357611b12611a13565b5b611b1d60a0611a78565b90506000611b2d84828501611aaa565b6000830152506020611b4184828501611aaa565b6020830152506040611b558482850161190b565b6040830152506060611b6984828501611481565b6060830152506080611b7d84828501611ae8565b60808301525092915050565b600060a08284031215611b9f57611b9e610de8565b5b6000611bad84828501611afd565b91505092915050565b600081519050611bc5816116d5565b92915050565b600060208284031215611be157611be0610de8565b5b6000611bef84828501611bb6565b91505092915050565b6000611c0382610df2565b9050919050565b611c1381611bf8565b8114611c1e57600080fd5b50565b600081359050611c3081611c0a565b92915050565b600080600060608486031215611c4f57611c4e610de8565b5b6000611c5d8682870161190b565b9350506020611c6e8682870161190b565b9250506040611c7f86828701611c21565b9150509250925092565b600081905092915050565b82818337600083830152505050565b6000611caf8385611c89565b9350611cbc838584611c94565b82840190509392505050565b6000611cd5828486611ca3565b9150819050939250505056fea264697066735822122051ab9a73916b7b5a1a7193cc532609080e4840940bc3c261fc493e574767094a64736f6c634300081b0033",
  "linkReferences": {},
  "deployedLinkReferences": {}
}