{
  "_format": "hh-sol-artifact-1",
  "contractName": "TokenReducedFees",
  "sourceName": "src/TokenReducedFees.sol",
  "abi": [
    {
      "inputs": [
        {
          "internalType": "contract IPoolManager",
          "name": "_poolManager",
          "type": "address"
        }
      ],
      "stateMutability": "nonpayable",
      "type": "constructor"
    },
    {
      "inputs": [],
      "name": "HookNotImplemented",
      "type": "error"
    },
    {
      "inputs": [],
      "name": "InvalidPool",
      "type": "error"
    },
    {
      "inputs": [],
      "name": "LockFailure",
      "type": "error"
    },
    {
      "inputs": [],
      "name": "NotPoolManager",
      "type": "error"
    },
    {
      "inputs": [],
      "name": "NotSelf",
      "type": "error"
    },
    {
      "inputs": [],
      "name": "UNIVERSAL_ROUTER",
      "outputs": [
        {
          "internalType": "address",
          "name": "",
          "type": "address"
        }
      ],
      "stateMutability": "view",
      "type": "function"
    },
    {
      "inputs": [
        {
          "internalType": "address",
          "name": "",
          "type": "address"
        },
        {
          "components": [
            {
              "internalType": "Currency",
              "name": "currency0",
              "type": "address"
            },
            {
              "internalType": "Currency",
              "name": "currency1",
              "type": "address"
            },
            {
              "internalType": "uint24",
              "name": "fee",
              "type": "uint24"
            },
            {
              "internalType": "int24",
              "name": "tickSpacing",
              "type": "int24"
            },
            {
              "internalType": "contract IHooks",
              "name": "hooks",
              "type": "address"
            }
          ],
          "internalType": "struct PoolKey",
          "name": "",
          "type": "tuple"
        },
        {
          "components": [
            {
              "internalType": "int24",
              "name": "tickLower",
              "type": "int24"
            },
            {
              "internalType": "int24",
              "name": "tickUpper",
              "type": "int24"
            },
            {
              "internalType": "int256",
              "name": "liquidityDelta",
              "type": "int256"
            },
            {
              "internalType": "bytes32",
              "name": "salt",
              "type": "bytes32"
            }
          ],
          "internalType": "struct IPoolManager.ModifyLiquidityParams",
          "name": "",
          "type": "tuple"
        },
        {
          "internalType": "BalanceDelta",
          "name": "",
          "type": "int256"
        },
        {
          "internalType": "BalanceDelta",
          "name": "",
          "type": "int256"
        },
        {
          "internalType": "bytes",
          "name": "",
          "type": "bytes"
        }
      ],
      "name": "afterAddLiquidity",
      "outputs": [
        {
          "internalType": "bytes4",
          "name": "",
          "type": "bytes4"
        },
        {
          "internalType": "BalanceDelta",
          "name": "",
          "type": "int256"
        }
      ],
      "stateMutability": "nonpayable",
      "type": "function"
    },
    {
      "inputs": [
        {
          "internalType": "address",
          "name": "",
          "type": "address"
        },
        {
          "components": [
            {
              "internalType": "Currency",
              "name": "currency0",
              "type": "address"
            },
            {
              "internalType": "Currency",
              "name": "currency1",
              "type": "address"
            },
            {
              "internalType": "uint24",
              "name": "fee",
              "type": "uint24"
            },
            {
              "internalType": "int24",
              "name": "tickSpacing",
              "type": "int24"
            },
            {
              "internalType": "contract IHooks",
              "name": "hooks",
              "type": "address"
            }
          ],
          "internalType": "struct PoolKey",
          "name": "",
          "type": "tuple"
        },
        {
          "internalType": "uint256",
          "name": "",
          "type": "uint256"
        },
        {
          "internalType": "uint256",
          "name": "",
          "type": "uint256"
        },
        {
          "internalType": "bytes",
          "name": "",
          "type": "bytes"
        }
      ],
      "name": "afterDonate",
      "outputs": [
        {
          "internalType": "bytes4",
          "name": "",
          "type": "bytes4"
        }
      ],
      "stateMutability": "nonpayable",
      "type": "function"
    },
    {
      "inputs": [
        {
          "internalType": "address",
          "name": "sender",
          "type": "address"
        },
        {
          "components": [
            {
              "internalType": "Currency",
              "name": "currency0",
              "type": "address"
            },
            {
              "internalType": "Currency",
              "name": "currency1",
              "type": "address"
            },
            {
              "internalType": "uint24",
              "name": "fee",
              "type": "uint24"
            },
            {
              "internalType": "int24",
              "name": "tickSpacing",
              "type": "int24"
            },
            {
              "internalType": "contract IHooks",
              "name": "hooks",
              "type": "address"
            }
          ],
          "internalType": "struct PoolKey",
          "name": "key",
          "type": "tuple"
        },
        {
          "internalType": "uint160",
          "name": "",
          "type": "uint160"
        },
        {
          "internalType": "int24",
          "name": "",
          "type": "int24"
        },
        {
          "internalType": "bytes",
          "name": "hookData",
          "type": "bytes"
        }
      ],
      "name": "afterInitialize",
      "outputs": [
        {
          "internalType": "bytes4",
          "name": "",
          "type": "bytes4"
        }
      ],
      "stateMutability": "nonpayable",
      "type": "function"
    },
    {
      "inputs": [
        {
          "internalType": "address",
          "name": "",
          "type": "address"
        },
        {
          "components": [
            {
              "internalType": "Currency",
              "name": "currency0",
              "type": "address"
            },
            {
              "internalType": "Currency",
              "name": "currency1",
              "type": "address"
            },
            {
              "internalType": "uint24",
              "name": "fee",
              "type": "uint24"
            },
            {
              "internalType": "int24",
              "name": "tickSpacing",
              "type": "int24"
            },
            {
              "internalType": "contract IHooks",
              "name": "hooks",
              "type": "address"
            }
          ],
          "internalType": "struct PoolKey",
          "name": "",
          "type": "tuple"
        },
        {
          "components": [
            {
              "internalType": "int24",
              "name": "tickLower",
              "type": "int24"
            },
            {
              "internalType": "int24",
              "name": "tickUpper",
              "type": "int24"
            },
            {
              "internalType": "int256",
              "name": "liquidityDelta",
              "type": "int256"
            },
            {
              "internalType": "bytes32",
              "name": "salt",
              "type": "bytes32"
            }
          ],
          "internalType": "struct IPoolManager.ModifyLiquidityParams",
          "name": "",
          "type": "tuple"
        },
        {
          "internalType": "BalanceDelta",
          "name": "",
          "type": "int256"
        },
        {
          "internalType": "BalanceDelta",
          "name": "",
          "type": "int256"
        },
        {
          "internalType": "bytes",
          "name": "",
          "type": "bytes"
        }
      ],
      "name": "afterRemoveLiquidity",
      "outputs": [
        {
          "internalType": "bytes4",
          "name": "",
          "type": "bytes4"
        },
        {
          "internalType": "BalanceDelta",
          "name": "",
          "type": "int256"
        }
      ],
      "stateMutability": "nonpayable",
      "type": "function"
    },
    {
      "inputs": [
        {
          "internalType": "address",
          "name": "",
          "type": "address"
        },
        {
          "components": [
            {
              "internalType": "Currency",
              "name": "currency0",
              "type": "address"
            },
            {
              "internalType": "Currency",
              "name": "currency1",
              "type": "address"
            },
            {
              "internalType": "uint24",
              "name": "fee",
              "type": "uint24"
            },
            {
              "internalType": "int24",
              "name": "tickSpacing",
              "type": "int24"
            },
            {
              "internalType": "contract IHooks",
              "name": "hooks",
              "type": "address"
            }
          ],
          "internalType": "struct PoolKey",
          "name": "",
          "type": "tuple"
        },
        {
          "components": [
            {
              "internalType": "bool",
              "name": "zeroForOne",
              "type": "bool"
            },
            {
              "internalType": "int256",
              "name": "amountSpecified",
              "type": "int256"
            },
            {
              "internalType": "uint160",
              "name": "sqrtPriceLimitX96",
              "type": "uint160"
            }
          ],
          "internalType": "struct IPoolManager.SwapParams",
          "name": "",
          "type": "tuple"
        },
        {
          "internalType": "BalanceDelta",
          "name": "",
          "type": "int256"
        },
        {
          "internalType": "bytes",
          "name": "",
          "type": "bytes"
        }
      ],
      "name": "afterSwap",
      "outputs": [
        {
          "internalType": "bytes4",
          "name": "",
          "type": "bytes4"
        },
        {
          "internalType": "int128",
          "name": "",
          "type": "int128"
        }
      ],
      "stateMutability": "nonpayable",
      "type": "function"
    },
    {
      "inputs": [
        {
          "internalType": "address",
          "name": "",
          "type": "address"
        },
        {
          "components": [
            {
              "internalType": "Currency",
              "name": "currency0",
              "type": "address"
            },
            {
              "internalType": "Currency",
              "name": "currency1",
              "type": "address"
            },
            {
              "internalType": "uint24",
              "name": "fee",
              "type": "uint24"
            },
            {
              "internalType": "int24",
              "name": "tickSpacing",
              "type": "int24"
            },
            {
              "internalType": "contract IHooks",
              "name": "hooks",
              "type": "address"
            }
          ],
          "internalType": "struct PoolKey",
          "name": "",
          "type": "tuple"
        },
        {
          "components": [
            {
              "internalType": "int24",
              "name": "tickLower",
              "type": "int24"
            },
            {
              "internalType": "int24",
              "name": "tickUpper",
              "type": "int24"
            },
            {
              "internalType": "int256",
              "name": "liquidityDelta",
              "type": "int256"
            },
            {
              "internalType": "bytes32",
              "name": "salt",
              "type": "bytes32"
            }
          ],
          "internalType": "struct IPoolManager.ModifyLiquidityParams",
          "name": "",
          "type": "tuple"
        },
        {
          "internalType": "bytes",
          "name": "",
          "type": "bytes"
        }
      ],
      "name": "beforeAddLiquidity",
      "outputs": [
        {
          "internalType": "bytes4",
          "name": "",
          "type": "bytes4"
        }
      ],
      "stateMutability": "nonpayable",
      "type": "function"
    },
    {
      "inputs": [
        {
          "internalType": "address",
          "name": "",
          "type": "address"
        },
        {
          "components": [
            {
              "internalType": "Currency",
              "name": "currency0",
              "type": "address"
            },
            {
              "internalType": "Currency",
              "name": "currency1",
              "type": "address"
            },
            {
              "internalType": "uint24",
              "name": "fee",
              "type": "uint24"
            },
            {
              "internalType": "int24",
              "name": "tickSpacing",
              "type": "int24"
            },
            {
              "internalType": "contract IHooks",
              "name": "hooks",
              "type": "address"
            }
          ],
          "internalType": "struct PoolKey",
          "name": "",
          "type": "tuple"
        },
        {
          "internalType": "uint256",
          "name": "",
          "type": "uint256"
        },
        {
          "internalType": "uint256",
          "name": "",
          "type": "uint256"
        },
        {
          "internalType": "bytes",
          "name": "",
          "type": "bytes"
        }
      ],
      "name": "beforeDonate",
      "outputs": [
        {
          "internalType": "bytes4",
          "name": "",
          "type": "bytes4"
        }
      ],
      "stateMutability": "nonpayable",
      "type": "function"
    },
    {
      "inputs": [
        {
          "internalType": "address",
          "name": "",
          "type": "address"
        },
        {
          "components": [
            {
              "internalType": "Currency",
              "name": "currency0",
              "type": "address"
            },
            {
              "internalType": "Currency",
              "name": "currency1",
              "type": "address"
            },
            {
              "internalType": "uint24",
              "name": "fee",
              "type": "uint24"
            },
            {
              "internalType": "int24",
              "name": "tickSpacing",
              "type": "int24"
            },
            {
              "internalType": "contract IHooks",
              "name": "hooks",
              "type": "address"
            }
          ],
          "internalType": "struct PoolKey",
          "name": "",
          "type": "tuple"
        },
        {
          "internalType": "uint160",
          "name": "",
          "type": "uint160"
        },
        {
          "internalType": "bytes",
          "name": "",
          "type": "bytes"
        }
      ],
      "name": "beforeInitialize",
      "outputs": [
        {
          "internalType": "bytes4",
          "name": "",
          "type": "bytes4"
        }
      ],
      "stateMutability": "nonpayable",
      "type": "function"
    },
    {
      "inputs": [
        {
          "internalType": "address",
          "name": "",
          "type": "address"
        },
        {
          "components": [
            {
              "internalType": "Currency",
              "name": "currency0",
              "type": "address"
            },
            {
              "internalType": "Currency",
              "name": "currency1",
              "type": "address"
            },
            {
              "internalType": "uint24",
              "name": "fee",
              "type": "uint24"
            },
            {
              "internalType": "int24",
              "name": "tickSpacing",
              "type": "int24"
            },
            {
              "internalType": "contract IHooks",
              "name": "hooks",
              "type": "address"
            }
          ],
          "internalType": "struct PoolKey",
          "name": "",
          "type": "tuple"
        },
        {
          "components": [
            {
              "internalType": "int24",
              "name": "tickLower",
              "type": "int24"
            },
            {
              "internalType": "int24",
              "name": "tickUpper",
              "type": "int24"
            },
            {
              "internalType": "int256",
              "name": "liquidityDelta",
              "type": "int256"
            },
            {
              "internalType": "bytes32",
              "name": "salt",
              "type": "bytes32"
            }
          ],
          "internalType": "struct IPoolManager.ModifyLiquidityParams",
          "name": "",
          "type": "tuple"
        },
        {
          "internalType": "bytes",
          "name": "",
          "type": "bytes"
        }
      ],
      "name": "beforeRemoveLiquidity",
      "outputs": [
        {
          "internalType": "bytes4",
          "name": "",
          "type": "bytes4"
        }
      ],
      "stateMutability": "nonpayable",
      "type": "function"
    },
    {
      "inputs": [
        {
          "internalType": "address",
          "name": "sender",
          "type": "address"
        },
        {
          "components": [
            {
              "internalType": "Currency",
              "name": "currency0",
              "type": "address"
            },
            {
              "internalType": "Currency",
              "name": "currency1",
              "type": "address"
            },
            {
              "internalType": "uint24",
              "name": "fee",
              "type": "uint24"
            },
            {
              "internalType": "int24",
              "name": "tickSpacing",
              "type": "int24"
            },
            {
              "internalType": "contract IHooks",
              "name": "hooks",
              "type": "address"
            }
          ],
          "internalType": "struct PoolKey",
          "name": "key",
          "type": "tuple"
        },
        {
          "components": [
            {
              "internalType": "bool",
              "name": "zeroForOne",
              "type": "bool"
            },
            {
              "internalType": "int256",
              "name": "amountSpecified",
              "type": "int256"
            },
            {
              "internalType": "uint160",
              "name": "sqrtPriceLimitX96",
              "type": "uint160"
            }
          ],
          "internalType": "struct IPoolManager.SwapParams",
          "name": "",
          "type": "tuple"
        },
        {
          "internalType": "bytes",
          "name": "",
          "type": "bytes"
        }
      ],
      "name": "beforeSwap",
      "outputs": [
        {
          "internalType": "bytes4",
          "name": "",
          "type": "bytes4"
        },
        {
          "internalType": "BeforeSwapDelta",
          "name": "",
          "type": "int256"
        },
        {
          "internalType": "uint24",
          "name": "",
          "type": "uint24"
        }
      ],
      "stateMutability": "view",
      "type": "function"
    },
    {
      "inputs": [],
      "name": "getHookPermissions",
      "outputs": [
        {
          "components": [
            {
              "internalType": "bool",
              "name": "beforeInitialize",
              "type": "bool"
            },
            {
              "internalType": "bool",
              "name": "afterInitialize",
              "type": "bool"
            },
            {
              "internalType": "bool",
              "name": "beforeAddLiquidity",
              "type": "bool"
            },
            {
              "internalType": "bool",
              "name": "afterAddLiquidity",
              "type": "bool"
            },
            {
              "internalType": "bool",
              "name": "beforeRemoveLiquidity",
              "type": "bool"
            },
            {
              "internalType": "bool",
              "name": "afterRemoveLiquidity",
              "type": "bool"
            },
            {
              "internalType": "bool",
              "name": "beforeSwap",
              "type": "bool"
            },
            {
              "internalType": "bool",
              "name": "afterSwap",
              "type": "bool"
            },
            {
              "internalType": "bool",
              "name": "beforeDonate",
              "type": "bool"
            },
            {
              "internalType": "bool",
              "name": "afterDonate",
              "type": "bool"
            },
            {
              "internalType": "bool",
              "name": "beforeSwapReturnDelta",
              "type": "bool"
            },
            {
              "internalType": "bool",
              "name": "afterSwapReturnDelta",
              "type": "bool"
            },
            {
              "internalType": "bool",
              "name": "afterAddLiquidityReturnDelta",
              "type": "bool"
            },
            {
              "internalType": "bool",
              "name": "afterRemoveLiquidityReturnDelta",
              "type": "bool"
            }
          ],
          "internalType": "struct Hooks.Permissions",
          "name": "",
          "type": "tuple"
        }
      ],
      "stateMutability": "pure",
      "type": "function"
    },
    {
      "inputs": [
        {
          "internalType": "address",
          "name": "",
          "type": "address"
        }
      ],
      "name": "getMsgSender",
      "outputs": [
        {
          "internalType": "address",
          "name": "",
          "type": "address"
        }
      ],
      "stateMutability": "view",
      "type": "function"
    },
    {
      "inputs": [
        {
          "internalType": "PoolId",
          "name": "key",
          "type": "bytes32"
        }
      ],
      "name": "getPool",
      "outputs": [
        {
          "internalType": "address",
          "name": "",
          "type": "address"
        }
      ],
      "stateMutability": "view",
      "type": "function"
    },
    {
      "inputs": [],
      "name": "poolManager",
      "outputs": [
        {
          "internalType": "contract IPoolManager",
          "name": "",
          "type": "address"
        }
      ],
      "stateMutability": "view",
      "type": "function"
    },
    {
      "inputs": [
        {
          "internalType": "PoolId",
          "name": "",
          "type": "bytes32"
        }
      ],
      "name": "pools",
      "outputs": [
        {
          "internalType": "address",
          "name": "tokenAddress",
          "type": "address"
        },
        {
          "internalType": "address",
          "name": "owner",
          "type": "address"
        },
        {
          "internalType": "uint24",
          "name": "regularFees",
          "type": "uint24"
        },
        {
          "internalType": "uint24",
          "name": "reducedFees",
          "type": "uint24"
        }
      ],
      "stateMutability": "view",
      "type": "function"
    },
    {
      "inputs": [
        {
          "components": [
            {
              "internalType": "Currency",
              "name": "currency0",
              "type": "address"
            },
            {
              "internalType": "Currency",
              "name": "currency1",
              "type": "address"
            },
            {
              "internalType": "uint24",
              "name": "fee",
              "type": "uint24"
            },
            {
              "internalType": "int24",
              "name": "tickSpacing",
              "type": "int24"
            },
            {
              "internalType": "contract IHooks",
              "name": "hooks",
              "type": "address"
            }
          ],
          "internalType": "struct PoolKey",
          "name": "key",
          "type": "tuple"
        },
        {
          "internalType": "uint24",
          "name": "_regularFees",
          "type": "uint24"
        },
        {
          "internalType": "uint24",
          "name": "_reducedFees",
          "type": "uint24"
        },
        {
          "internalType": "address",
          "name": "_tokenAddress",
          "type": "address"
        }
      ],
      "name": "setPoolConfig",
      "outputs": [],
      "stateMutability": "nonpayable",
      "type": "function"
    },
    {
      "inputs": [
        {
          "internalType": "bytes",
          "name": "data",
          "type": "bytes"
        }
      ],
      "name": "unlockCallback",
      "outputs": [
        {
          "internalType": "bytes",
          "name": "",
          "type": "bytes"
        }
      ],
      "stateMutability": "nonpayable",
      "type": "function"
    }
  ],
  "bytecode": "0x60a060405234801561001057600080fd5b5060405161243738038061243783398181016040528101906100329190610610565b8080808073ffffffffffffffffffffffffffffffffffffffff1660808173ffffffffffffffffffffffffffffffffffffffff1681525050505061007a3061008160201b60201c565b505061063d565b61009e816100936100a160201b60201c565b61013660201b60201c565b50565b6100a9610510565b604051806101c0016040528060001515815260200160011515815260200160001515815260200160001515815260200160001515815260200160001515815260200160011515815260200160001515815260200160001515815260200160001515815260200160001515815260200160001515815260200160001515815260200160001515815250905090565b6101616120008373ffffffffffffffffffffffffffffffffffffffff166104c660201b90919060201c565b1515816000015115151415806101a9575061019d6110008373ffffffffffffffffffffffffffffffffffffffff166104c660201b90919060201c565b15158160200151151514155b806101e657506101da6108008373ffffffffffffffffffffffffffffffffffffffff166104c660201b90919060201c565b15158160400151151514155b8061022357506102176104008373ffffffffffffffffffffffffffffffffffffffff166104c660201b90919060201c565b15158160600151151514155b8061026057506102546102008373ffffffffffffffffffffffffffffffffffffffff166104c660201b90919060201c565b15158160800151151514155b8061029d57506102916101008373ffffffffffffffffffffffffffffffffffffffff166104c660201b90919060201c565b15158160a00151151514155b806102d957506102cd60808373ffffffffffffffffffffffffffffffffffffffff166104c660201b90919060201c565b15158160c00151151514155b80610315575061030960408373ffffffffffffffffffffffffffffffffffffffff166104c660201b90919060201c565b15158160e00151151514155b80610352575061034560208373ffffffffffffffffffffffffffffffffffffffff166104c660201b90919060201c565b1515816101000151151514155b8061038f575061038260108373ffffffffffffffffffffffffffffffffffffffff166104c660201b90919060201c565b1515816101200151151514155b806103cc57506103bf60088373ffffffffffffffffffffffffffffffffffffffff166104c660201b90919060201c565b1515816101400151151514155b8061040957506103fc60048373ffffffffffffffffffffffffffffffffffffffff166104c660201b90919060201c565b1515816101600151151514155b80610446575061043960028373ffffffffffffffffffffffffffffffffffffffff166104c660201b90919060201c565b1515816101800151151514155b80610483575061047660018373ffffffffffffffffffffffffffffffffffffffff166104c660201b90919060201c565b1515816101a00151151514155b156104c2576104c18263e65af6a060e01b7bffffffffffffffffffffffffffffffffffffffffffffffffffffffff19166104ec60201b90919060201c565b5b5050565b60008082841673ffffffffffffffffffffffffffffffffffffffff161415905092915050565b8160005273ffffffffffffffffffffffffffffffffffffffff811660045260246000fd5b604051806101c001604052806000151581526020016000151581526020016000151581526020016000151581526020016000151581526020016000151581526020016000151581526020016000151581526020016000151581526020016000151581526020016000151581526020016000151581526020016000151581526020016000151581525090565b600080fd5b600073ffffffffffffffffffffffffffffffffffffffff82169050919050565b60006105cb826105a0565b9050919050565b60006105dd826105c0565b9050919050565b6105ed816105d2565b81146105f857600080fd5b50565b60008151905061060a816105e4565b92915050565b6000602082840312156106265761062561059b565b5b6000610634848285016105fb565b91505092915050565b608051611dd861065f600039600081816107ba0152610c960152611dd86000f3fe608060405234801561001057600080fd5b50600436106101165760003560e01c8063b47b2fb1116100a2578063ce4afae511610071578063ce4afae514610381578063dc4c90d31461039d578063e1b4af69146103bb578063e8dd7fc3146103eb578063f6c009271461040957610116565b8063b47b2fb1146102cf578063b5217bb414610300578063b6a8b0fa14610333578063c4e833ce1461036357610116565b8063575e24b4116100e9578063575e24b4146101db5780636c2bbe7e1461020d57806391dd73461461023e5780639f063efc1461026e578063a910f80f1461029f57610116565b806321d0ee701461011b578063259982e51461014b5780632867b3ca1461017b5780633440d820146101ab575b600080fd5b61013560048036038101906101309190610fc1565b610439565b6040516101429190611086565b60405180910390f35b61016560048036038101906101609190610fc1565b61046d565b6040516101729190611086565b60405180910390f35b610195600480360381019061019091906110a1565b6104a1565b6040516101a291906110dd565b60405180910390f35b6101c560048036038101906101c09190611124565b61052d565b6040516101d29190611086565b60405180910390f35b6101f560048036038101906101f091906111cc565b610561565b604051610204939291906112b9565b60405180910390f35b6102276004803603810190610222919061131c565b610781565b6040516102359291906113de565b60405180910390f35b61025860048036038101906102539190611407565b6107b6565b60405161026591906114e4565b60405180910390f35b6102886004803603810190610283919061131c565b61084f565b6040516102969291906113de565b60405180910390f35b6102b960048036038101906102b4919061153f565b610884565b6040516102c69190611086565b60405180910390f35b6102e960048036038101906102e491906115db565b610a2c565b6040516102f7929190611694565b60405180910390f35b61031a600480360381019061031591906116f3565b610a61565b60405161032a9493929190611720565b60405180910390f35b61034d6004803603810190610348919061179b565b610aef565b60405161035a9190611086565b60405180910390f35b61036b610b23565b6040516103789190611972565b60405180910390f35b61039b600480360381019061039691906119ba565b610bb8565b005b6103a5610c94565b6040516103b29190611a77565b60405180910390f35b6103d560048036038101906103d0919061179b565b610cb8565b6040516103e29190611086565b60405180910390f35b6103f3610cec565b60405161040091906110dd565b60405180910390f35b610423600480360381019061041e91906116f3565b610d04565b60405161043091906110dd565b60405180910390f35b60006040517f0a85dc2900000000000000000000000000000000000000000000000000000000815260040160405180910390fd5b60006040517f0a85dc2900000000000000000000000000000000000000000000000000000000815260040160405180910390fd5b60007395273d871c8156636e114b63797d78d7e1720d8173ffffffffffffffffffffffffffffffffffffffff1663d737d0c76040518163ffffffff1660e01b8152600401602060405180830381865afa158015610502573d6000803e3d6000fd5b505050506040513d601f19601f820116820180604052508101906105269190611aa7565b9050919050565b60006040517f0a85dc2900000000000000000000000000000000000000000000000000000000815260040160405180910390fd5b600080600080610570896104a1565b9050600061058d898036038101906105889190611c4a565b610d43565b905060008060008381526020019081526020016000206040518060800160405290816000820160009054906101000a900473ffffffffffffffffffffffffffffffffffffffff1673ffffffffffffffffffffffffffffffffffffffff1673ffffffffffffffffffffffffffffffffffffffff1681526020016001820160009054906101000a900473ffffffffffffffffffffffffffffffffffffffff1673ffffffffffffffffffffffffffffffffffffffff1673ffffffffffffffffffffffffffffffffffffffff1681526020016001820160149054906101000a900462ffffff1662ffffff1662ffffff1681526020016001820160179054906101000a900462ffffff1662ffffff1662ffffff1681525050905060008160000151905060008173ffffffffffffffffffffffffffffffffffffffff166370a08231866040518263ffffffff1660e01b81526004016106e691906110dd565b602060405180830381865afa158015610703573d6000803e3d6000fd5b505050506040513d601f19601f820116820180604052508101906107279190611c8c565b905060008111156107565763575e24b460e01b6000624000008560600151179750975097505050505050610776565b63575e24b460e01b60006240000085604001511797509750975050505050505b955095509592505050565b6000806040517f0a85dc2900000000000000000000000000000000000000000000000000000000815260040160405180910390fd5b60607f000000000000000000000000000000000000000000000000000000000000000073ffffffffffffffffffffffffffffffffffffffff163373ffffffffffffffffffffffffffffffffffffffff161461083d576040517fae18210a00000000000000000000000000000000000000000000000000000000815260040160405180910390fd5b6108478383610d50565b905092915050565b6000806040517f0a85dc2900000000000000000000000000000000000000000000000000000000815260040160405180910390fd5b600080610890886104a1565b9050600080600086868101906108a69190611cf7565b925092509250600060405180608001604052808373ffffffffffffffffffffffffffffffffffffffff1681526020018673ffffffffffffffffffffffffffffffffffffffff1681526020018562ffffff1681526020018462ffffff16815250905060006109228c80360381019061091d9190611c4a565b610d43565b90508160008083815260200190815260200160002060008201518160000160006101000a81548173ffffffffffffffffffffffffffffffffffffffff021916908373ffffffffffffffffffffffffffffffffffffffff16021790555060208201518160010160006101000a81548173ffffffffffffffffffffffffffffffffffffffff021916908373ffffffffffffffffffffffffffffffffffffffff16021790555060408201518160010160146101000a81548162ffffff021916908362ffffff16021790555060608201518160010160176101000a81548162ffffff021916908362ffffff16021790555090505063a910f80f60e01b96505050505050509695505050505050565b6000806040517f0a85dc2900000000000000000000000000000000000000000000000000000000815260040160405180910390fd5b60006020528060005260406000206000915090508060000160009054906101000a900473ffffffffffffffffffffffffffffffffffffffff16908060010160009054906101000a900473ffffffffffffffffffffffffffffffffffffffff16908060010160149054906101000a900462ffffff16908060010160179054906101000a900462ffffff16905084565b60006040517f0a85dc2900000000000000000000000000000000000000000000000000000000815260040160405180910390fd5b610b2b610e1c565b604051806101c0016040528060001515815260200160011515815260200160001515815260200160001515815260200160001515815260200160001515815260200160011515815260200160001515815260200160001515815260200160001515815260200160001515815260200160001515815260200160001515815260200160001515815250905090565b6000610bd385803603810190610bce9190611c4a565b610d43565b90508360008083815260200190815260200160002060010160146101000a81548162ffffff021916908362ffffff1602179055508260008083815260200190815260200160002060010160176101000a81548162ffffff021916908362ffffff1602179055508160008083815260200190815260200160002060000160006101000a81548173ffffffffffffffffffffffffffffffffffffffff021916908373ffffffffffffffffffffffffffffffffffffffff1602179055505050505050565b7f000000000000000000000000000000000000000000000000000000000000000081565b60006040517f0a85dc2900000000000000000000000000000000000000000000000000000000815260040160405180910390fd5b7395273d871c8156636e114b63797d78d7e1720d8181565b600080600083815260200190815260200160002060010160009054906101000a900473ffffffffffffffffffffffffffffffffffffffff169050919050565b600060a082209050919050565b60606000803073ffffffffffffffffffffffffffffffffffffffff168585604051610d7c929190611d89565b6000604051808303816000865af19150503d8060008114610db9576040519150601f19603f3d011682016040523d82523d6000602084013e610dbe565b606091505b50915091508115610dd3578092505050610e16565b6000815103610e0e576040517fa40afa3800000000000000000000000000000000000000000000000000000000815260040160405180910390fd5b805160208201fd5b92915050565b604051806101c001604052806000151581526020016000151581526020016000151581526020016000151581526020016000151581526020016000151581526020016000151581526020016000151581526020016000151581526020016000151581526020016000151581526020016000151581526020016000151581526020016000151581525090565b6000604051905090565b600080fd5b600080fd5b600073ffffffffffffffffffffffffffffffffffffffff82169050919050565b6000610ee682610ebb565b9050919050565b610ef681610edb565b8114610f0157600080fd5b50565b600081359050610f1381610eed565b92915050565b600080fd5b600060a08284031215610f3457610f33610f19565b5b81905092915050565b600060808284031215610f5357610f52610f19565b5b81905092915050565b600080fd5b600080fd5b600080fd5b60008083601f840112610f8157610f80610f5c565b5b8235905067ffffffffffffffff811115610f9e57610f9d610f61565b5b602083019150836001820283011115610fba57610fb9610f66565b5b9250929050565b60008060008060006101608688031215610fde57610fdd610eb1565b5b6000610fec88828901610f04565b9550506020610ffd88828901610f1e565b94505060c061100e88828901610f3d565b93505061014086013567ffffffffffffffff8111156110305761102f610eb6565b5b61103c88828901610f6b565b92509250509295509295909350565b60007fffffffff0000000000000000000000000000000000000000000000000000000082169050919050565b6110808161104b565b82525050565b600060208201905061109b6000830184611077565b92915050565b6000602082840312156110b7576110b6610eb1565b5b60006110c584828501610f04565b91505092915050565b6110d781610edb565b82525050565b60006020820190506110f260008301846110ce565b92915050565b61110181610ebb565b811461110c57600080fd5b50565b60008135905061111e816110f8565b92915050565b6000806000806000610100868803121561114157611140610eb1565b5b600061114f88828901610f04565b955050602061116088828901610f1e565b94505060c06111718882890161110f565b93505060e086013567ffffffffffffffff81111561119257611191610eb6565b5b61119e88828901610f6b565b92509250509295509295909350565b6000606082840312156111c3576111c2610f19565b5b81905092915050565b600080600080600061014086880312156111e9576111e8610eb1565b5b60006111f788828901610f04565b955050602061120888828901610f1e565b94505060c0611219888289016111ad565b93505061012086013567ffffffffffffffff81111561123b5761123a610eb6565b5b61124788828901610f6b565b92509250509295509295909350565b6000819050919050565b6000819050919050565b600061128561128061127b84611256565b611260565b611256565b9050919050565b6112958161126a565b82525050565b600062ffffff82169050919050565b6112b38161129b565b82525050565b60006060820190506112ce6000830186611077565b6112db602083018561128c565b6112e860408301846112aa565b949350505050565b6112f981611256565b811461130457600080fd5b50565b600081359050611316816112f0565b92915050565b60008060008060008060006101a0888a03121561133c5761133b610eb1565b5b600061134a8a828b01610f04565b975050602061135b8a828b01610f1e565b96505060c061136c8a828b01610f3d565b95505061014061137e8a828b01611307565b9450506101606113908a828b01611307565b93505061018088013567ffffffffffffffff8111156113b2576113b1610eb6565b5b6113be8a828b01610f6b565b925092505092959891949750929550565b6113d88161126a565b82525050565b60006040820190506113f36000830185611077565b61140060208301846113cf565b9392505050565b6000806020838503121561141e5761141d610eb1565b5b600083013567ffffffffffffffff81111561143c5761143b610eb6565b5b61144885828601610f6b565b92509250509250929050565b600081519050919050565b600082825260208201905092915050565b60005b8381101561148e578082015181840152602081019050611473565b60008484015250505050565b6000601f19601f8301169050919050565b60006114b682611454565b6114c0818561145f565b93506114d0818560208601611470565b6114d98161149a565b840191505092915050565b600060208201905081810360008301526114fe81846114ab565b905092915050565b60008160020b9050919050565b61151c81611506565b811461152757600080fd5b50565b60008135905061153981611513565b92915050565b600080600080600080610120878903121561155d5761155c610eb1565b5b600061156b89828a01610f04565b965050602061157c89828a01610f1e565b95505060c061158d89828a0161110f565b94505060e061159e89828a0161152a565b93505061010087013567ffffffffffffffff8111156115c0576115bf610eb6565b5b6115cc89828a01610f6b565b92509250509295509295509295565b60008060008060008061016087890312156115f9576115f8610eb1565b5b600061160789828a01610f04565b965050602061161889828a01610f1e565b95505060c061162989828a016111ad565b94505061012061163b89828a01611307565b93505061014087013567ffffffffffffffff81111561165d5761165c610eb6565b5b61166989828a01610f6b565b92509250509295509295509295565b600081600f0b9050919050565b61168e81611678565b82525050565b60006040820190506116a96000830185611077565b6116b66020830184611685565b9392505050565b6000819050919050565b6116d0816116bd565b81146116db57600080fd5b50565b6000813590506116ed816116c7565b92915050565b60006020828403121561170957611708610eb1565b5b6000611717848285016116de565b91505092915050565b600060808201905061173560008301876110ce565b61174260208301866110ce565b61174f60408301856112aa565b61175c60608301846112aa565b95945050505050565b6000819050919050565b61177881611765565b811461178357600080fd5b50565b6000813590506117958161176f565b92915050565b60008060008060008061012087890312156117b9576117b8610eb1565b5b60006117c789828a01610f04565b96505060206117d889828a01610f1e565b95505060c06117e989828a01611786565b94505060e06117fa89828a01611786565b93505061010087013567ffffffffffffffff81111561181c5761181b610eb6565b5b61182889828a01610f6b565b92509250509295509295509295565b60008115159050919050565b61184c81611837565b82525050565b6101c0820160008201516118696000850182611843565b50602082015161187c6020850182611843565b50604082015161188f6040850182611843565b5060608201516118a26060850182611843565b5060808201516118b56080850182611843565b5060a08201516118c860a0850182611843565b5060c08201516118db60c0850182611843565b5060e08201516118ee60e0850182611843565b50610100820151611903610100850182611843565b50610120820151611918610120850182611843565b5061014082015161192d610140850182611843565b50610160820151611942610160850182611843565b50610180820151611957610180850182611843565b506101a082015161196c6101a0850182611843565b50505050565b60006101c0820190506119886000830184611852565b92915050565b6119978161129b565b81146119a257600080fd5b50565b6000813590506119b48161198e565b92915050565b60008060008061010085870312156119d5576119d4610eb1565b5b60006119e387828801610f1e565b94505060a06119f4878288016119a5565b93505060c0611a05878288016119a5565b92505060e0611a1687828801610f04565b91505092959194509250565b6000611a3d611a38611a3384610ebb565b611260565b610ebb565b9050919050565b6000611a4f82611a22565b9050919050565b6000611a6182611a44565b9050919050565b611a7181611a56565b82525050565b6000602082019050611a8c6000830184611a68565b92915050565b600081519050611aa181610eed565b92915050565b600060208284031215611abd57611abc610eb1565b5b6000611acb84828501611a92565b91505092915050565b600080fd5b7f4e487b7100000000000000000000000000000000000000000000000000000000600052604160045260246000fd5b611b118261149a565b810181811067ffffffffffffffff82111715611b3057611b2f611ad9565b5b80604052505050565b6000611b43610ea7565b9050611b4f8282611b08565b919050565b611b5d81610edb565b8114611b6857600080fd5b50565b600081359050611b7a81611b54565b92915050565b6000611b8b82610edb565b9050919050565b611b9b81611b80565b8114611ba657600080fd5b50565b600081359050611bb881611b92565b92915050565b600060a08284031215611bd457611bd3611ad4565b5b611bde60a0611b39565b90506000611bee84828501611b6b565b6000830152506020611c0284828501611b6b565b6020830152506040611c16848285016119a5565b6040830152506060611c2a8482850161152a565b6060830152506080611c3e84828501611ba9565b60808301525092915050565b600060a08284031215611c6057611c5f610eb1565b5b6000611c6e84828501611bbe565b91505092915050565b600081519050611c868161176f565b92915050565b600060208284031215611ca257611ca1610eb1565b5b6000611cb084828501611c77565b91505092915050565b6000611cc482610ebb565b9050919050565b611cd481611cb9565b8114611cdf57600080fd5b50565b600081359050611cf181611ccb565b92915050565b600080600060608486031215611d1057611d0f610eb1565b5b6000611d1e868287016119a5565b9350506020611d2f868287016119a5565b9250506040611d4086828701611ce2565b9150509250925092565b600081905092915050565b82818337600083830152505050565b6000611d708385611d4a565b9350611d7d838584611d55565b82840190509392505050565b6000611d96828486611d64565b9150819050939250505056fea264697066735822122068f2c5517b5a0dd7041438fd4a6e376afb126e0e036a35828e5b3e2c2c2f6fae64736f6c634300081b0033",
  "linkReferences": {},
  "deployedLinkReferences": {}
}